{
  "_format": "hh-sol-artifact-1",
  "contractName": "PlebToHill",
  "sourceName": "contracts/PlebToHill.sol",
  "abi": [
    {
      "anonymous": false,
      "inputs": [
        {
          "indexed": true,
          "internalType": "address",
          "name": "previousOwner",
          "type": "address"
        },
        {
          "indexed": true,
          "internalType": "address",
          "name": "newOwner",
          "type": "address"
        }
      ],
      "name": "OwnershipTransferred",
      "type": "event"
    },
    {
      "anonymous": false,
      "inputs": [
        {
          "indexed": false,
          "internalType": "uint256",
          "name": "roundId",
          "type": "uint256"
        },
        {
          "indexed": false,
          "internalType": "address",
          "name": "walletAddress",
          "type": "address"
        },
        {
          "indexed": false,
          "internalType": "uint256",
          "name": "invested_amount",
          "type": "uint256"
        },
        {
          "indexed": false,
          "internalType": "uint256",
          "name": "participantId",
          "type": "uint256"
        },
        {
          "indexed": false,
          "internalType": "uint256",
          "name": "time",
          "type": "uint256"
        }
      ],
      "name": "ParticipantAdded",
      "type": "event"
    },
    {
      "anonymous": false,
      "inputs": [
        {
          "indexed": false,
          "internalType": "uint256",
          "name": "roundId",
          "type": "uint256"
        },
        {
          "indexed": false,
          "internalType": "uint256",
          "name": "startTime",
          "type": "uint256"
        },
        {
          "indexed": false,
          "internalType": "uint256",
          "name": "endTime",
          "type": "uint256"
        }
      ],
      "name": "RoundCreated",
      "type": "event"
    },
    {
      "anonymous": false,
      "inputs": [
        {
          "indexed": false,
          "internalType": "uint256",
          "name": "roundId",
          "type": "uint256"
        }
      ],
      "name": "RoundFinished",
      "type": "event"
    },
    {
      "anonymous": false,
      "inputs": [
        {
          "indexed": false,
          "internalType": "uint256",
          "name": "roundId",
          "type": "uint256"
        },
        {
          "indexed": false,
          "internalType": "uint256",
          "name": "endTime",
          "type": "uint256"
        }
      ],
      "name": "TimeReset",
      "type": "event"
    },
    {
      "anonymous": false,
      "inputs": [
        {
          "indexed": false,
          "internalType": "uint256",
          "name": "roundId",
          "type": "uint256"
        },
        {
          "indexed": false,
          "internalType": "address",
          "name": "walletAddress",
          "type": "address"
        },
        {
          "indexed": false,
          "internalType": "uint256",
          "name": "invested_amount",
          "type": "uint256"
        },
        {
          "indexed": false,
          "internalType": "uint256",
          "name": "participantId",
          "type": "uint256"
        },
        {
          "indexed": false,
          "internalType": "uint256",
          "name": "winnings",
          "type": "uint256"
        }
      ],
      "name": "WinningTransfered",
      "type": "event"
    },
    {
      "inputs": [
        {
          "internalType": "uint256",
          "name": "roundId",
          "type": "uint256"
        }
      ],
      "name": "addParticipant",
      "outputs": [],
      "stateMutability": "payable",
      "type": "function"
    },
    {
      "inputs": [],
      "name": "createRound",
      "outputs": [],
      "stateMutability": "nonpayable",
      "type": "function"
    },
    {
      "inputs": [
        {
          "internalType": "uint256",
          "name": "roundId",
          "type": "uint256"
        }
      ],
      "name": "endRound",
      "outputs": [],
      "stateMutability": "nonpayable",
      "type": "function"
    },
    {
      "inputs": [],
      "name": "extraDuration",
      "outputs": [
        {
          "internalType": "uint256",
          "name": "",
          "type": "uint256"
        }
      ],
      "stateMutability": "view",
      "type": "function"
    },
    {
      "inputs": [
        {
          "internalType": "uint256",
          "name": "roundId",
          "type": "uint256"
        }
      ],
      "name": "getAllParticipantOfRound",
      "outputs": [
        {
          "components": [
            {
              "internalType": "uint256",
              "name": "participantId",
              "type": "uint256"
            },
            {
              "internalType": "address",
              "name": "walletAddress",
              "type": "address"
            },
            {
              "internalType": "uint256",
              "name": "invested_amount",
              "type": "uint256"
            },
            {
              "internalType": "uint256",
              "name": "winnings",
              "type": "uint256"
            },
            {
              "internalType": "uint256",
              "name": "roundId",
              "type": "uint256"
            },
            {
              "internalType": "uint256",
              "name": "time",
              "type": "uint256"
            }
          ],
          "internalType": "struct PlebToHill.Participant[]",
          "name": "",
          "type": "tuple[]"
        }
      ],
      "stateMutability": "view",
      "type": "function"
    },
    {
      "inputs": [
        {
          "internalType": "uint256",
          "name": "start",
          "type": "uint256"
        },
        {
          "internalType": "uint256",
          "name": "end",
          "type": "uint256"
        }
      ],
      "name": "getAllRounds",
      "outputs": [
        {
          "components": [
            {
              "internalType": "uint256",
              "name": "roundId",
              "type": "uint256"
            },
            {
              "internalType": "uint256",
              "name": "startTime",
              "type": "uint256"
            },
            {
              "internalType": "uint256",
              "name": "endTime",
              "type": "uint256"
            },
            {
              "internalType": "bool",
              "name": "isLive",
              "type": "bool"
            }
          ],
          "internalType": "struct PlebToHill.Round[]",
          "name": "",
          "type": "tuple[]"
        }
      ],
      "stateMutability": "view",
      "type": "function"
    },
    {
      "inputs": [],
      "name": "getCurrentLiveRound",
      "outputs": [
        {
          "internalType": "uint256",
          "name": "roundId",
          "type": "uint256"
        },
        {
          "internalType": "uint256",
          "name": "startTime",
          "type": "uint256"
        },
        {
          "internalType": "uint256",
          "name": "endTime",
          "type": "uint256"
        },
        {
          "internalType": "bool",
          "name": "isLive",
          "type": "bool"
        }
      ],
      "stateMutability": "view",
      "type": "function"
    },
    {
      "inputs": [
        {
          "internalType": "uint256",
          "name": "roundId",
          "type": "uint256"
        }
      ],
      "name": "getCurrentPleb",
      "outputs": [
        {
          "internalType": "address",
          "name": "wallet",
          "type": "address"
        }
      ],
      "stateMutability": "view",
      "type": "function"
    },
    {
      "inputs": [
        {
          "internalType": "uint256",
          "name": "roundId",
          "type": "uint256"
        }
      ],
      "name": "getLoserData",
      "outputs": [
        {
          "internalType": "uint256",
          "name": "id",
          "type": "uint256"
        },
        {
          "internalType": "address",
          "name": "wallet",
          "type": "address"
        },
        {
          "internalType": "uint256",
          "name": "amount_lose",
          "type": "uint256"
        }
      ],
      "stateMutability": "view",
      "type": "function"
    },
    {
      "inputs": [
        {
          "internalType": "uint256",
          "name": "roundId",
          "type": "uint256"
        }
      ],
      "name": "getRemainingTime",
      "outputs": [
        {
          "internalType": "uint256",
          "name": "",
          "type": "uint256"
        }
      ],
      "stateMutability": "view",
      "type": "function"
    },
    {
      "inputs": [
        {
          "internalType": "uint256",
          "name": "roundId",
          "type": "uint256"
        }
      ],
      "name": "getRoundData",
      "outputs": [
        {
          "components": [
            {
              "internalType": "uint256",
              "name": "roundId",
              "type": "uint256"
            },
            {
              "internalType": "uint256",
              "name": "startTime",
              "type": "uint256"
            },
            {
              "internalType": "uint256",
              "name": "endTime",
              "type": "uint256"
            },
            {
              "internalType": "bool",
              "name": "isLive",
              "type": "bool"
            }
          ],
          "internalType": "struct PlebToHill.Round",
          "name": "",
          "type": "tuple"
        }
      ],
      "stateMutability": "view",
      "type": "function"
    },
    {
      "inputs": [
        {
          "internalType": "uint256",
          "name": "roundId",
          "type": "uint256"
        }
      ],
      "name": "getValueForNextParticipant",
      "outputs": [
        {
          "internalType": "uint256",
          "name": "",
          "type": "uint256"
        }
      ],
      "stateMutability": "view",
      "type": "function"
    },
    {
      "inputs": [],
      "name": "owner",
      "outputs": [
        {
          "internalType": "address",
          "name": "",
          "type": "address"
        }
      ],
      "stateMutability": "view",
      "type": "function"
    },
    {
      "inputs": [],
      "name": "poth_address",
      "outputs": [
        {
          "internalType": "address",
          "name": "",
          "type": "address"
        }
      ],
      "stateMutability": "view",
      "type": "function"
    },
    {
      "inputs": [],
      "name": "renounceOwnership",
      "outputs": [],
      "stateMutability": "nonpayable",
      "type": "function"
    },
    {
      "inputs": [],
      "name": "roundDuration",
      "outputs": [
        {
          "internalType": "uint256",
          "name": "",
          "type": "uint256"
        }
      ],
      "stateMutability": "view",
      "type": "function"
    },
    {
      "inputs": [
        {
          "internalType": "uint256",
          "name": "_extraDurationInMinutes",
          "type": "uint256"
        }
      ],
      "name": "setExtraDuration",
      "outputs": [],
      "stateMutability": "nonpayable",
      "type": "function"
    },
    {
      "inputs": [
        {
          "internalType": "address",
          "name": "_pothwallet",
          "type": "address"
        }
      ],
      "name": "setPothWallet",
      "outputs": [],
      "stateMutability": "nonpayable",
      "type": "function"
    },
    {
      "inputs": [
        {
          "internalType": "uint256",
          "name": "_roundDurationInMinutes",
          "type": "uint256"
        }
      ],
      "name": "setRoundDuration",
      "outputs": [],
      "stateMutability": "nonpayable",
      "type": "function"
    },
    {
      "inputs": [
        {
          "internalType": "uint256",
          "name": "_thresholdTime",
          "type": "uint256"
        }
      ],
      "name": "setThresoldTime",
      "outputs": [],
      "stateMutability": "nonpayable",
      "type": "function"
    },
    {
      "inputs": [],
      "name": "thresholdTime",
      "outputs": [
        {
          "internalType": "uint256",
          "name": "",
          "type": "uint256"
        }
      ],
      "stateMutability": "view",
      "type": "function"
    },
    {
      "inputs": [
        {
          "internalType": "address",
          "name": "newOwner",
          "type": "address"
        }
      ],
      "name": "transferOwnership",
      "outputs": [],
      "stateMutability": "nonpayable",
      "type": "function"
    },
    {
      "stateMutability": "payable",
      "type": "receive"
    }
  ],
  "bytecode": "0x60806040523480156200001157600080fd5b5062000032620000266200003f60201b60201c565b6200004760201b60201c565b600180819055506200010b565b600033905090565b60008060009054906101000a900473ffffffffffffffffffffffffffffffffffffffff169050816000806101000a81548173ffffffffffffffffffffffffffffffffffffffff021916908373ffffffffffffffffffffffffffffffffffffffff1602179055508173ffffffffffffffffffffffffffffffffffffffff168173ffffffffffffffffffffffffffffffffffffffff167f8be0079c531659141344cd1fd0a4f28419497f9722a3daafe3b4186f6b6457e060405160405180910390a35050565b613125806200011b6000396000f3fe6080604052600436106101395760003560e01c80637cb5de7c116100ab578063928554f91161006f578063928554f9146104225780639930f87614610450578063dade4b641461047b578063e2b630c2146104b8578063f2fde38b146104e3578063f7cb789a1461050c57610140565b80637cb5de7c1461034c5780637ecb177b14610375578063840650591461039e5780638acaf7a8146103db5780638da5cb5b146103f757610140565b806336c92c3f116100fd57806336c92c3f1461023c578063437b6065146102655780634781ca76146102a25780635a1e6ca1146102cd578063606e4841146102f6578063715018a61461033557610140565b806303861ba6146101455780630720da5214610182578063181e0124146101bf5780631b411fc8146101fc5780632c4dbed21461021357610140565b3661014057005b600080fd5b34801561015157600080fd5b5061016c60048036038101906101679190612012565b610537565b604051610179919061204e565b60405180910390f35b34801561018e57600080fd5b506101a960048036038101906101a49190612012565b610594565b6040516101b691906120e8565b60405180910390f35b3480156101cb57600080fd5b506101e660048036038101906101e19190612012565b6105fa565b6040516101f3919061204e565b60405180910390f35b34801561020857600080fd5b50610211610637565b005b34801561021f57600080fd5b5061023a60048036038101906102359190612012565b6108d1565b005b34801561024857600080fd5b50610263600480360381019061025e9190612012565b610932565b005b34801561027157600080fd5b5061028c60048036038101906102879190612103565b610993565b6040516102999190612247565b60405180910390f35b3480156102ae57600080fd5b506102b7610b13565b6040516102c4919061204e565b60405180910390f35b3480156102d957600080fd5b506102f460048036038101906102ef9190612012565b610b19565b005b34801561030257600080fd5b5061031d60048036038101906103189190612012565b610f9b565b60405161032c939291906122aa565b60405180910390f35b34801561034157600080fd5b5061034a6110fb565b005b34801561035857600080fd5b50610373600480360381019061036e9190612012565b61110f565b005b34801561038157600080fd5b5061039c6004803603810190610397919061230d565b6111cf565b005b3480156103aa57600080fd5b506103c560048036038101906103c09190612012565b61128a565b6040516103d2919061233a565b60405180910390f35b6103f560048036038101906103f09190612012565b6113f5565b005b34801561040357600080fd5b5061040c611ae9565b604051610419919061233a565b60405180910390f35b34801561042e57600080fd5b50610437611b12565b6040516104479493929190612364565b60405180910390f35b34801561045c57600080fd5b50610465611bbe565b604051610472919061204e565b60405180910390f35b34801561048757600080fd5b506104a2600480360381019061049d9190612012565b611bc4565b6040516104af91906124e2565b60405180910390f35b3480156104c457600080fd5b506104cd611cbe565b6040516104da919061233a565b60405180910390f35b3480156104ef57600080fd5b5061050a6004803603810190610505919061230d565b611ce4565b005b34801561051857600080fd5b50610521611d67565b60405161052e919061204e565b60405180910390f35b600061054282611d6d565b1561058a57600060086000848152602001908152602001600020805490509050670de0b6b3a76400008160026105789190612666565b61058291906126b1565b91505061058f565b600090505b919050565b61059c611fad565b600660008381526020019081526020016000206040518060800160405290816000820154815260200160018201548152602001600282015481526020016003820160009054906101000a900460ff1615151515815250509050919050565b60008061060683610594565b9050806040015142101561062c5742816040015161062491906126f3565b915050610632565b60009150505b919050565b61063f611dc9565b600060025411801561065357506000600354115b801561066157506000600454115b6106a0576040517f08c379a0000000000000000000000000000000000000000000000000000000008152600401610697906127aa565b60405180910390fd5b670de0b6b3a76400004710156106eb576040517f08c379a00000000000000000000000000000000000000000000000000000000081526004016106e29061283c565b60405180910390fd5b600060016007805490506106ff919061285c565b90506000600780549050111561075757610717611e47565b610756576040517f08c379a000000000000000000000000000000000000000000000000000000000815260040161074d90612902565b60405180910390fd5b5b60405180608001604052808281526020014281526020016002544261077c919061285c565b8152602001600115158152506006600083815260200190815260200160002060008201518160000155602082015181600101556040820151816002015560608201518160030160006101000a81548160ff02191690831515021790555090505060076006600083815260200190815260200160002090806001815401808255809150506001900390600052602060002090600402016000909190919091506000820154816000015560018201548160010155600282015481600201556003820160009054906101000a900460ff168160030160006101000a81548160ff02191690831515021790555050507f68e7b09ec44e876e76ff05157850e3261aa63a8680fe21a2ba93dcbb2b09f58f81600660008481526020019081526020016000206001015460066000858152602001908152602001600020600201546040516108c693929190612922565b60405180910390a150565b6108d9611dc9565b6000810361091c576040517f08c379a0000000000000000000000000000000000000000000000000000000008152600401610913906129cb565b60405180910390fd5b603c8161092991906126b1565b60038190555050565b61093a611dc9565b6000810361097d576040517f08c379a0000000000000000000000000000000000000000000000000000000008152600401610974906129cb565b60405180910390fd5b603c8161098a91906126b1565b60028190555050565b606060078054905082106109dc576040517f08c379a00000000000000000000000000000000000000000000000000000000081526004016109d390612a37565b60405180910390fd5b6000600184846109ec91906126f3565b6109f6919061285c565b67ffffffffffffffff811115610a0f57610a0e612a57565b5b604051908082528060200260200182016040528015610a4857816020015b610a35611fad565b815260200190600190039081610a2d5790505b50905060005b8484610a5a91906126f3565b8111610b0857600060078683610a70919061285c565b81548110610a8157610a80612a86565b5b90600052602060002090600402016040518060800160405290816000820154815260200160018201548152602001600282015481526020016003820160009054906101000a900460ff161515151581525050905080838381518110610ae957610ae8612a86565b5b6020026020010181905250508080610b0090612ab5565b915050610a4e565b508091505092915050565b60035481565b610b21611dc9565b610b2a81611d6d565b15610b6a576040517f08c379a0000000000000000000000000000000000000000000000000000000008152600401610b6190612b49565b60405180910390fd5b6006600082815260200190815260200160002060030160009054906101000a900460ff16610bcd576040517f08c379a0000000000000000000000000000000000000000000000000000000008152600401610bc490612bb5565b60405180910390fd5b60006006600083815260200190815260200160002060030160006101000a81548160ff02191690831515021790555060006007600183610c0d91906126f3565b81548110610c1e57610c1d612a86565b5b906000526020600020906004020160030160006101000a81548160ff0219169083151502179055506001600860008381526020019081526020016000208054905003610f6157600060646005600260086000868152602001908152602001600020600081548110610c9257610c91612a86565b5b906000526020600020906006020160020154610cae91906126b1565b610cb891906126b1565b610cc29190612c04565b9050600081600260086000868152602001908152602001600020600081548110610cef57610cee612a86565b5b906000526020600020906006020160020154610d0b91906126b1565b610d1591906126f3565b90508060086000858152602001908152602001600020600081548110610d3e57610d3d612a86565b5b90600052602060002090600602016003018190555060086000848152602001908152602001600020600081548110610d7957610d78612a86565b5b906000526020600020906006020160010160009054906101000a900473ffffffffffffffffffffffffffffffffffffffff1673ffffffffffffffffffffffffffffffffffffffff166108fc829081150290604051600060405180830381858888f19350505050158015610df0573d6000803e3d6000fd5b50600560009054906101000a900473ffffffffffffffffffffffffffffffffffffffff1673ffffffffffffffffffffffffffffffffffffffff166108fc839081150290604051600060405180830381858888f19350505050158015610e59573d6000803e3d6000fd5b507f65edb247950c75beace5afb548418caec939cfa83b1fc60186d09d89cea66ba78360086000868152602001908152602001600020600081548110610ea257610ea1612a86565b5b906000526020600020906006020160010160009054906101000a900473ffffffffffffffffffffffffffffffffffffffff1660086000878152602001908152602001600020600081548110610efa57610ef9612a86565b5b90600052602060002090600602016002015460086000888152602001908152602001600020600081548110610f3257610f31612a86565b5b90600052602060002090600602016000015485604051610f56959493929190612c35565b60405180910390a150505b7f74ef25ef6b332a2fbbe7eb8b4108e0fe842a929d34c52a2ea4ca1a0f1524f10781604051610f90919061204e565b60405180910390a150565b6000806000600160086000868152602001908152602001600020805490501480610fdb575060006008600086815260200190815260200160002080549050145b15610ff1576000925060009150600090506110f4565b6000600860008681526020019081526020016000206001600860008881526020019081526020016000208054905061102991906126f3565b8154811061103a57611039612a86565b5b90600052602060002090600602016040518060c0016040529081600082015481526020016001820160009054906101000a900473ffffffffffffffffffffffffffffffffffffffff1673ffffffffffffffffffffffffffffffffffffffff1673ffffffffffffffffffffffffffffffffffffffff1681526020016002820154815260200160038201548152602001600482015481526020016005820154815250509050806000015193508060200151925080604001519150505b9193909250565b611103611dc9565b61110d6000611ee1565b565b611117611dc9565b60006002541161115c576040517f08c379a000000000000000000000000000000000000000000000000000000000815260040161115390612cd4565b60405180910390fd5b6000811415801561117a5750603c6002546111779190612c04565b81105b6111b9576040517f08c379a00000000000000000000000000000000000000000000000000000000081526004016111b090612d66565b60405180910390fd5b603c816111c691906126b1565b60048190555050565b6111d7611dc9565b600073ffffffffffffffffffffffffffffffffffffffff168173ffffffffffffffffffffffffffffffffffffffff1603611246576040517f08c379a000000000000000000000000000000000000000000000000000000000815260040161123d90612dd2565b60405180910390fd5b80600560006101000a81548173ffffffffffffffffffffffffffffffffffffffff021916908373ffffffffffffffffffffffffffffffffffffffff16021790555050565b600061129582611d6d565b6112d4576040517f08c379a00000000000000000000000000000000000000000000000000000000081526004016112cb90612e3e565b60405180910390fd5b60016008600084815260200190815260200160002080549050106113eb576000600860008481526020019081526020016000206001600860008681526020019081526020016000208054905061132a91906126f3565b8154811061133b5761133a612a86565b5b90600052602060002090600602016040518060c0016040529081600082015481526020016001820160009054906101000a900473ffffffffffffffffffffffffffffffffffffffff1673ffffffffffffffffffffffffffffffffffffffff1673ffffffffffffffffffffffffffffffffffffffff168152602001600282015481526020016003820154815260200160048201548152602001600582015481525050905080602001519150506113f0565b600090505b919050565b60026001540361143a576040517f08c379a000000000000000000000000000000000000000000000000000000000815260040161143190612eaa565b60405180910390fd5b600260018190555061144b81611d6d565b61148a576040517f08c379a000000000000000000000000000000000000000000000000000000000815260040161148190612e3e565b60405180910390fd5b61149381610537565b34146114d4576040517f08c379a00000000000000000000000000000000000000000000000000000000081526004016114cb90612f16565b60405180910390fd5b60006114df8261128a565b90503373ffffffffffffffffffffffffffffffffffffffff168173ffffffffffffffffffffffffffffffffffffffff160361154f576040517f08c379a000000000000000000000000000000000000000000000000000000000815260040161154690612fa8565b60405180910390fd5b600060016008600085815260200190815260200160002080549050611574919061285c565b9050600860008481526020019081526020016000206040518060c001604052808381526020013373ffffffffffffffffffffffffffffffffffffffff168152602001348152602001600081526020018581526020014281525090806001815401808255809150506001900390600052602060002090600602016000909190919091506000820151816000015560208201518160010160006101000a81548173ffffffffffffffffffffffffffffffffffffffff021916908373ffffffffffffffffffffffffffffffffffffffff16021790555060408201518160020155606082015181600301556080820151816004015560a08201518160050155505060045461167d846105fa565b1115801561169357506000611691846105fa565b115b1561174c57600060035460066000868152602001908152602001600020600201546116be919061285c565b90508060066000868152602001908152602001600020600201819055508060076001866116eb91906126f3565b815481106116fc576116fb612a86565b5b9060005260206000209060040201600201819055507fff1bf99918d35d7dd5182e2a06f26aa0b7673c48538bb8ce407af50f4b4ab2ca8482604051611742929190612fc8565b60405180910390a1505b60018114611a9e5760006064600560026008600088815260200190815260200160002060028661177c91906126f3565b8154811061178d5761178c612a86565b5b9060005260206000209060060201600201546117a991906126b1565b6117b391906126b1565b6117bd9190612c04565b90506000816002600860008881526020019081526020016000206002866117e491906126f3565b815481106117f5576117f4612a86565b5b90600052602060002090600602016002015461181191906126b1565b61181b91906126f3565b9050806008600087815260200190815260200160002060028561183e91906126f3565b8154811061184f5761184e612a86565b5b9060005260206000209060060201600301819055506008600086815260200190815260200160002060028461188491906126f3565b8154811061189557611894612a86565b5b906000526020600020906006020160010160009054906101000a900473ffffffffffffffffffffffffffffffffffffffff1673ffffffffffffffffffffffffffffffffffffffff166108fc829081150290604051600060405180830381858888f1935050505015801561190c573d6000803e3d6000fd5b50600560009054906101000a900473ffffffffffffffffffffffffffffffffffffffff1673ffffffffffffffffffffffffffffffffffffffff166108fc839081150290604051600060405180830381858888f19350505050158015611975573d6000803e3d6000fd5b507f65edb247950c75beace5afb548418caec939cfa83b1fc60186d09d89cea66ba785600860008881526020019081526020016000206002866119b891906126f3565b815481106119c9576119c8612a86565b5b906000526020600020906006020160010160009054906101000a900473ffffffffffffffffffffffffffffffffffffffff1660086000898152602001908152602001600020600287611a1b91906126f3565b81548110611a2c57611a2b612a86565b5b906000526020600020906006020160020154600860008a8152602001908152602001600020600288611a5e91906126f3565b81548110611a6f57611a6e612a86565b5b90600052602060002090600602016000015485604051611a93959493929190612c35565b60405180910390a150505b7f2eaa1bda0a76999046e8def81099978a4164fbfb5f4207619e76c3823f6043678333348442604051611ad5959493929190612c35565b60405180910390a150506001808190555050565b60008060009054906101000a900473ffffffffffffffffffffffffffffffffffffffff16905090565b60008060008060006007805490501115611ba95760006006600060078054905081526020019081526020016000206040518060800160405290816000820154815260200160018201548152602001600282015481526020016003820160009054906101000a900460ff1615151515815250509050600780549050816020015182604001518360600151945094509450945050611bb8565b60008060008093509350935093505b90919293565b60045481565b606060086000838152602001908152602001600020805480602002602001604051908101604052809291908181526020016000905b82821015611cb357838290600052602060002090600602016040518060c0016040529081600082015481526020016001820160009054906101000a900473ffffffffffffffffffffffffffffffffffffffff1673ffffffffffffffffffffffffffffffffffffffff1673ffffffffffffffffffffffffffffffffffffffff16815260200160028201548152602001600382015481526020016004820154815260200160058201548152505081526020019060010190611bf9565b505050509050919050565b600560009054906101000a900473ffffffffffffffffffffffffffffffffffffffff1681565b611cec611dc9565b600073ffffffffffffffffffffffffffffffffffffffff168173ffffffffffffffffffffffffffffffffffffffff1603611d5b576040517f08c379a0000000000000000000000000000000000000000000000000000000008152600401611d5290613063565b60405180910390fd5b611d6481611ee1565b50565b60025481565b60008042600660008581526020019081526020016000206002015410158015611db657506006600084815260200190815260200160002060030160009054906101000a900460ff165b15611dc057600190505b80915050919050565b611dd1611fa5565b73ffffffffffffffffffffffffffffffffffffffff16611def611ae9565b73ffffffffffffffffffffffffffffffffffffffff1614611e45576040517f08c379a0000000000000000000000000000000000000000000000000000000008152600401611e3c906130cf565b60405180910390fd5b565b6000804260076001600780549050611e5f91906126f3565b81548110611e7057611e6f612a86565b5b906000526020600020906004020160020154108015611ed0575060076001600780549050611e9e91906126f3565b81548110611eaf57611eae612a86565b5b906000526020600020906004020160030160009054906101000a900460ff16155b15611eda57600190505b8091505090565b60008060009054906101000a900473ffffffffffffffffffffffffffffffffffffffff169050816000806101000a81548173ffffffffffffffffffffffffffffffffffffffff021916908373ffffffffffffffffffffffffffffffffffffffff1602179055508173ffffffffffffffffffffffffffffffffffffffff168173ffffffffffffffffffffffffffffffffffffffff167f8be0079c531659141344cd1fd0a4f28419497f9722a3daafe3b4186f6b6457e060405160405180910390a35050565b600033905090565b60405180608001604052806000815260200160008152602001600081526020016000151581525090565b600080fd5b6000819050919050565b611fef81611fdc565b8114611ffa57600080fd5b50565b60008135905061200c81611fe6565b92915050565b60006020828403121561202857612027611fd7565b5b600061203684828501611ffd565b91505092915050565b61204881611fdc565b82525050565b6000602082019050612063600083018461203f565b92915050565b61207281611fdc565b82525050565b60008115159050919050565b61208d81612078565b82525050565b6080820160008201516120a96000850182612069565b5060208201516120bc6020850182612069565b5060408201516120cf6040850182612069565b5060608201516120e26060850182612084565b50505050565b60006080820190506120fd6000830184612093565b92915050565b6000806040838503121561211a57612119611fd7565b5b600061212885828601611ffd565b925050602061213985828601611ffd565b9150509250929050565b600081519050919050565b600082825260208201905092915050565b6000819050602082019050919050565b6080820160008201516121856000850182612069565b5060208201516121986020850182612069565b5060408201516121ab6040850182612069565b5060608201516121be6060850182612084565b50505050565b60006121d0838361216f565b60808301905092915050565b6000602082019050919050565b60006121f482612143565b6121fe818561214e565b93506122098361215f565b8060005b8381101561223a57815161222188826121c4565b975061222c836121dc565b92505060018101905061220d565b5085935050505092915050565b6000602082019050818103600083015261226181846121e9565b905092915050565b600073ffffffffffffffffffffffffffffffffffffffff82169050919050565b600061229482612269565b9050919050565b6122a481612289565b82525050565b60006060820190506122bf600083018661203f565b6122cc602083018561229b565b6122d9604083018461203f565b949350505050565b6122ea81612289565b81146122f557600080fd5b50565b600081359050612307816122e1565b92915050565b60006020828403121561232357612322611fd7565b5b6000612331848285016122f8565b91505092915050565b600060208201905061234f600083018461229b565b92915050565b61235e81612078565b82525050565b6000608082019050612379600083018761203f565b612386602083018661203f565b612393604083018561203f565b6123a06060830184612355565b95945050505050565b600081519050919050565b600082825260208201905092915050565b6000819050602082019050919050565b6123de81612289565b82525050565b60c0820160008201516123fa6000850182612069565b50602082015161240d60208501826123d5565b5060408201516124206040850182612069565b5060608201516124336060850182612069565b5060808201516124466080850182612069565b5060a082015161245960a0850182612069565b50505050565b600061246b83836123e4565b60c08301905092915050565b6000602082019050919050565b600061248f826123a9565b61249981856123b4565b93506124a4836123c5565b8060005b838110156124d55781516124bc888261245f565b97506124c783612477565b9250506001810190506124a8565b5085935050505092915050565b600060208201905081810360008301526124fc8184612484565b905092915050565b7f4e487b7100000000000000000000000000000000000000000000000000000000600052601160045260246000fd5b60008160011c9050919050565b6000808291508390505b600185111561258a5780860481111561256657612565612504565b5b60018516156125755780820291505b808102905061258385612533565b945061254a565b94509492505050565b6000826125a3576001905061265f565b816125b1576000905061265f565b81600181146125c757600281146125d157612600565b600191505061265f565b60ff8411156125e3576125e2612504565b5b8360020a9150848211156125fa576125f9612504565b5b5061265f565b5060208310610133831016604e8410600b84101617156126355782820a9050838111156126305761262f612504565b5b61265f565b6126428484846001612540565b9250905081840481111561265957612658612504565b5b81810290505b9392505050565b600061267182611fdc565b915061267c83611fdc565b92506126a97fffffffffffffffffffffffffffffffffffffffffffffffffffffffffffffffff8484612593565b905092915050565b60006126bc82611fdc565b91506126c783611fdc565b92508282026126d581611fdc565b915082820484148315176126ec576126eb612504565b5b5092915050565b60006126fe82611fdc565b915061270983611fdc565b925082820390508181111561272157612720612504565b5b92915050565b600082825260208201905092915050565b7f526f756e64206475726174696f6e206f72206578747261206475726174696f6e60008201527f2020617265206e6f74207365742e000000000000000000000000000000000000602082015250565b6000612794602e83612727565b915061279f82612738565b604082019050919050565b600060208201905081810360008301526127c381612787565b9050919050565b7f4d696e696d756d20636f6e74726163742062616c616e63652073686f756c642060008201527f626520312074504c530000000000000000000000000000000000000000000000602082015250565b6000612826602983612727565b9150612831826127ca565b604082019050919050565b6000602082019050818103600083015261285581612819565b9050919050565b600061286782611fdc565b915061287283611fdc565b925082820190508082111561288a57612889612504565b5b92915050565b7f50726576696f757320726f756e64206973206e6f742066696e6973686564207960008201527f6574000000000000000000000000000000000000000000000000000000000000602082015250565b60006128ec602283612727565b91506128f782612890565b604082019050919050565b6000602082019050818103600083015261291b816128df565b9050919050565b6000606082019050612937600083018661203f565b612944602083018561203f565b612951604083018461203f565b949350505050565b7f4475726174696f6e2073686f756c642062652067726561746572207468616e2060008201527f3000000000000000000000000000000000000000000000000000000000000000602082015250565b60006129b5602183612727565b91506129c082612959565b604082019050919050565b600060208201905081810360008301526129e4816129a8565b9050919050565b7f496e76616c69642072616e676500000000000000000000000000000000000000600082015250565b6000612a21600d83612727565b9150612a2c826129eb565b602082019050919050565b60006020820190508181036000830152612a5081612a14565b9050919050565b7f4e487b7100000000000000000000000000000000000000000000000000000000600052604160045260246000fd5b7f4e487b7100000000000000000000000000000000000000000000000000000000600052603260045260246000fd5b6000612ac082611fdc565b91507fffffffffffffffffffffffffffffffffffffffffffffffffffffffffffffffff8203612af257612af1612504565b5b600182019050919050565b7f526f756e6420697320206c697665000000000000000000000000000000000000600082015250565b6000612b33600e83612727565b9150612b3e82612afd565b602082019050919050565b60006020820190508181036000830152612b6281612b26565b9050919050565b7f526f756e6420616c72656164792066696e697368656400000000000000000000600082015250565b6000612b9f601683612727565b9150612baa82612b69565b602082019050919050565b60006020820190508181036000830152612bce81612b92565b9050919050565b7f4e487b7100000000000000000000000000000000000000000000000000000000600052601260045260246000fd5b6000612c0f82611fdc565b9150612c1a83611fdc565b925082612c2a57612c29612bd5565b5b828204905092915050565b600060a082019050612c4a600083018861203f565b612c57602083018761229b565b612c64604083018661203f565b612c71606083018561203f565b612c7e608083018461203f565b9695505050505050565b7f53657420726f756e64206475726174696f6e2066697273740000000000000000600082015250565b6000612cbe601883612727565b9150612cc982612c88565b602082019050919050565b60006020820190508181036000830152612ced81612cb1565b9050919050565b7f4475726174696f6e2073686f756c642062652067726561746572207468616e2060008201527f3020616e6420726f756e644475726174696f6e00000000000000000000000000602082015250565b6000612d50603383612727565b9150612d5b82612cf4565b604082019050919050565b60006020820190508181036000830152612d7f81612d43565b9050919050565b7f5a65726f2061646472657373206e6f7420616c6c6f7765640000000000000000600082015250565b6000612dbc601883612727565b9150612dc782612d86565b602082019050919050565b60006020820190508181036000830152612deb81612daf565b9050919050565b7f526f756e64206973206e6f74206c697665000000000000000000000000000000600082015250565b6000612e28601183612727565b9150612e3382612df2565b602082019050919050565b60006020820190508181036000830152612e5781612e1b565b9050919050565b7f5265656e7472616e637947756172643a207265656e7472616e742063616c6c00600082015250565b6000612e94601f83612727565b9150612e9f82612e5e565b602082019050919050565b60006020820190508181036000830152612ec381612e87565b9050919050565b7f496e636f727265637420696e76657374656420616d6f756e7400000000000000600082015250565b6000612f00601983612727565b9150612f0b82612eca565b602082019050919050565b60006020820190508181036000830152612f2f81612ef3565b9050919050565b7f596f752063616e6e6f74206465706f73697420616761696e20756e74696c207460008201527f686572652069732061206e657720706c65620000000000000000000000000000602082015250565b6000612f92603283612727565b9150612f9d82612f36565b604082019050919050565b60006020820190508181036000830152612fc181612f85565b9050919050565b6000604082019050612fdd600083018561203f565b612fea602083018461203f565b9392505050565b7f4f776e61626c653a206e6577206f776e657220697320746865207a65726f206160008201527f6464726573730000000000000000000000000000000000000000000000000000602082015250565b600061304d602683612727565b915061305882612ff1565b604082019050919050565b6000602082019050818103600083015261307c81613040565b9050919050565b7f4f776e61626c653a2063616c6c6572206973206e6f7420746865206f776e6572600082015250565b60006130b9602083612727565b91506130c482613083565b602082019050919050565b600060208201905081810360008301526130e8816130ac565b905091905056fea2646970667358221220b1c9b249c0ff287d3a1ecf432ad7a1c1df3bd146f2f85be3305251aeb50d74e864736f6c63430008110033",
  "linkReferences": {},
  "deployedLinkReferences": {}
}