{
  "_format": "hh-sol-artifact-1",
  "contractName": "PlebToHill",
  "sourceName": "contracts/PlebToHill.sol",
  "abi": [
    {
      "anonymous": false,
      "inputs": [
        {
          "indexed": true,
          "internalType": "address",
          "name": "previousOwner",
          "type": "address"
        },
        {
          "indexed": true,
          "internalType": "address",
          "name": "newOwner",
          "type": "address"
        }
      ],
      "name": "OwnershipTransferred",
      "type": "event"
    },
    {
      "anonymous": false,
      "inputs": [
        {
          "indexed": false,
          "internalType": "uint256",
          "name": "roundId",
          "type": "uint256"
        },
        {
          "indexed": false,
          "internalType": "address",
          "name": "walletAddress",
          "type": "address"
        },
        {
          "indexed": false,
          "internalType": "uint256",
          "name": "invested_amount",
          "type": "uint256"
        },
        {
          "indexed": false,
          "internalType": "uint256",
          "name": "participantId",
          "type": "uint256"
        },
        {
          "indexed": false,
          "internalType": "uint256",
          "name": "time",
          "type": "uint256"
        }
      ],
      "name": "ParticipantAdded",
      "type": "event"
    },
    {
      "anonymous": false,
      "inputs": [
        {
          "indexed": false,
          "internalType": "uint256",
          "name": "roundId",
          "type": "uint256"
        },
        {
          "indexed": false,
          "internalType": "uint256",
          "name": "startTime",
          "type": "uint256"
        },
        {
          "indexed": false,
          "internalType": "uint256",
          "name": "endTime",
          "type": "uint256"
        }
      ],
      "name": "RoundCreated",
      "type": "event"
    },
    {
      "anonymous": false,
      "inputs": [
        {
          "indexed": false,
          "internalType": "uint256",
          "name": "roundId",
          "type": "uint256"
        }
      ],
      "name": "RoundFinished",
      "type": "event"
    },
    {
      "anonymous": false,
      "inputs": [
        {
          "indexed": false,
          "internalType": "uint256",
          "name": "roundId",
          "type": "uint256"
        },
        {
          "indexed": false,
          "internalType": "address",
          "name": "walletAddress",
          "type": "address"
        },
        {
          "indexed": false,
          "internalType": "uint256",
          "name": "invested_amount",
          "type": "uint256"
        },
        {
          "indexed": false,
          "internalType": "uint256",
          "name": "participantId",
          "type": "uint256"
        },
        {
          "indexed": false,
          "internalType": "uint256",
          "name": "winnings",
          "type": "uint256"
        }
      ],
      "name": "WinningTransfered",
      "type": "event"
    },
    {
      "inputs": [
        {
          "internalType": "uint256",
          "name": "roundId",
          "type": "uint256"
        }
      ],
      "name": "addParticipant",
      "outputs": [],
      "stateMutability": "payable",
      "type": "function"
    },
    {
      "inputs": [],
      "name": "createRound",
      "outputs": [],
      "stateMutability": "nonpayable",
      "type": "function"
    },
    {
      "inputs": [
        {
          "internalType": "uint256",
          "name": "roundId",
          "type": "uint256"
        }
      ],
      "name": "endRound",
      "outputs": [],
      "stateMutability": "nonpayable",
      "type": "function"
    },
    {
      "inputs": [
        {
          "internalType": "uint256",
          "name": "roundId",
          "type": "uint256"
        }
      ],
      "name": "getAllParticipantOfRound",
      "outputs": [
        {
          "components": [
            {
              "internalType": "uint256",
              "name": "participantId",
              "type": "uint256"
            },
            {
              "internalType": "address",
              "name": "walletAddress",
              "type": "address"
            },
            {
              "internalType": "uint256",
              "name": "invested_amount",
              "type": "uint256"
            },
            {
              "internalType": "uint256",
              "name": "winnings",
              "type": "uint256"
            },
            {
              "internalType": "uint256",
              "name": "roundId",
              "type": "uint256"
            },
            {
              "internalType": "uint256",
              "name": "time",
              "type": "uint256"
            }
          ],
          "internalType": "struct PlebToHill.Participant[]",
          "name": "",
          "type": "tuple[]"
        }
      ],
      "stateMutability": "view",
      "type": "function"
    },
    {
      "inputs": [
        {
          "internalType": "uint256",
          "name": "start",
          "type": "uint256"
        },
        {
          "internalType": "uint256",
          "name": "end",
          "type": "uint256"
        }
      ],
      "name": "getAllRounds",
      "outputs": [
        {
          "components": [
            {
              "internalType": "uint256",
              "name": "roundId",
              "type": "uint256"
            },
            {
              "internalType": "uint256",
              "name": "startTime",
              "type": "uint256"
            },
            {
              "internalType": "uint256",
              "name": "endTime",
              "type": "uint256"
            },
            {
              "internalType": "bool",
              "name": "isLive",
              "type": "bool"
            }
          ],
          "internalType": "struct PlebToHill.Round[]",
          "name": "",
          "type": "tuple[]"
        }
      ],
      "stateMutability": "view",
      "type": "function"
    },
    {
      "inputs": [],
      "name": "getCurrentLiveRound",
      "outputs": [
        {
          "internalType": "uint256",
          "name": "roundId",
          "type": "uint256"
        },
        {
          "internalType": "uint256",
          "name": "startTime",
          "type": "uint256"
        },
        {
          "internalType": "uint256",
          "name": "endTime",
          "type": "uint256"
        },
        {
          "internalType": "bool",
          "name": "isLive",
          "type": "bool"
        }
      ],
      "stateMutability": "view",
      "type": "function"
    },
    {
      "inputs": [
        {
          "internalType": "uint256",
          "name": "roundId",
          "type": "uint256"
        }
      ],
      "name": "getLoserData",
      "outputs": [
        {
          "internalType": "uint256",
          "name": "id",
          "type": "uint256"
        },
        {
          "internalType": "address",
          "name": "wallet",
          "type": "address"
        },
        {
          "internalType": "uint256",
          "name": "amount_lose",
          "type": "uint256"
        }
      ],
      "stateMutability": "view",
      "type": "function"
    },
    {
      "inputs": [
        {
          "internalType": "uint256",
          "name": "roundId",
          "type": "uint256"
        }
      ],
      "name": "getRoundData",
      "outputs": [
        {
          "components": [
            {
              "internalType": "uint256",
              "name": "roundId",
              "type": "uint256"
            },
            {
              "internalType": "uint256",
              "name": "startTime",
              "type": "uint256"
            },
            {
              "internalType": "uint256",
              "name": "endTime",
              "type": "uint256"
            },
            {
              "internalType": "bool",
              "name": "isLive",
              "type": "bool"
            }
          ],
          "internalType": "struct PlebToHill.Round",
          "name": "",
          "type": "tuple"
        }
      ],
      "stateMutability": "view",
      "type": "function"
    },
    {
      "inputs": [
        {
          "internalType": "uint256",
          "name": "roundId",
          "type": "uint256"
        }
      ],
      "name": "getValueForNextParticipant",
      "outputs": [
        {
          "internalType": "uint256",
          "name": "",
          "type": "uint256"
        }
      ],
      "stateMutability": "view",
      "type": "function"
    },
    {
      "inputs": [],
      "name": "owner",
      "outputs": [
        {
          "internalType": "address",
          "name": "",
          "type": "address"
        }
      ],
      "stateMutability": "view",
      "type": "function"
    },
    {
      "inputs": [],
      "name": "poth_address",
      "outputs": [
        {
          "internalType": "address",
          "name": "",
          "type": "address"
        }
      ],
      "stateMutability": "view",
      "type": "function"
    },
    {
      "inputs": [],
      "name": "renounceOwnership",
      "outputs": [],
      "stateMutability": "nonpayable",
      "type": "function"
    },
    {
      "inputs": [
        {
          "internalType": "address",
          "name": "_pothwallet",
          "type": "address"
        }
      ],
      "name": "setPothWallet",
      "outputs": [],
      "stateMutability": "nonpayable",
      "type": "function"
    },
    {
      "inputs": [
        {
          "internalType": "address",
          "name": "newOwner",
          "type": "address"
        }
      ],
      "name": "transferOwnership",
      "outputs": [],
      "stateMutability": "nonpayable",
      "type": "function"
    },
    {
      "stateMutability": "payable",
      "type": "receive"
    }
  ],
  "bytecode": "0x60806040523480156200001157600080fd5b5062000032620000266200003f60201b60201c565b6200004760201b60201c565b600180819055506200010b565b600033905090565b60008060009054906101000a900473ffffffffffffffffffffffffffffffffffffffff169050816000806101000a81548173ffffffffffffffffffffffffffffffffffffffff021916908373ffffffffffffffffffffffffffffffffffffffff1602179055508173ffffffffffffffffffffffffffffffffffffffff168173ffffffffffffffffffffffffffffffffffffffff167f8be0079c531659141344cd1fd0a4f28419497f9722a3daafe3b4186f6b6457e060405160405180910390a35050565b6134de806200011b6000396000f3fe6080604052600436106100e15760003560e01c80637ecb177b1161007f578063928554f911610059578063928554f9146102aa578063dade4b64146102d8578063e2b630c214610315578063f2fde38b14610340576100e8565b80637ecb177b1461023a5780638acaf7a8146102635780638da5cb5b1461027f576100e8565b8063437b6065116100bb578063437b60651461017e5780635a1e6ca1146101bb578063606e4841146101e4578063715018a614610223576100e8565b806303861ba6146100ed5780630720da521461012a5780631b411fc814610167576100e8565b366100e857005b600080fd5b3480156100f957600080fd5b50610114600480360381019061010f91906126a8565b610369565b60405161012191906126e4565b60405180910390f35b34801561013657600080fd5b50610151600480360381019061014c91906126a8565b6104a2565b60405161015e919061277e565b60405180910390f35b34801561017357600080fd5b5061017c610544565b005b34801561018a57600080fd5b506101a560048036038101906101a09190612799565b61093a565b6040516101b291906128dd565b60405180910390f35b3480156101c757600080fd5b506101e260048036038101906101dd91906126a8565b610bd2565b005b3480156101f057600080fd5b5061020b600480360381019061020691906126a8565b6112b1565b60405161021a93929190612940565b60405180910390f35b34801561022f57600080fd5b5061023861154d565b005b34801561024657600080fd5b50610261600480360381019061025c91906129a3565b611561565b005b61027d600480360381019061027891906126a8565b6116bc565b005b34801561028b57600080fd5b50610294611ede565b6040516102a191906129d0565b60405180910390f35b3480156102b657600080fd5b506102bf611f07565b6040516102cf94939291906129fa565b60405180910390f35b3480156102e457600080fd5b506102ff60048036038101906102fa91906126a8565b61208f565b60405161030c9190612b78565b60405180910390f35b34801561032157600080fd5b5061032a6121c5565b60405161033791906129d0565b60405180910390f35b34801561034c57600080fd5b50610367600480360381019061036291906129a3565b6121eb565b005b600061037f6731b0436b03c679d360c01b61226e565b6103936717f9d8a8951cf96e60c01b61226e565b6103a767905435c847fff04960c01b61226e565b6103b082612271565b1561045c576103c967eceeedbd3360849860c01b61226e565b6103dd6711f850944afa565360c01b61226e565b6103f1671b6cd54825b0a24260c01b61226e565b600060056000848152602001908152602001600020805490509050610420676d904aead88f2f2660c01b61226e565b61043467635e42a503e1ea5c60c01b61226e565b670de0b6b3a764000081600261044a9190612cfc565b6104549190612d47565b91505061049d565b610470675de42448f5898fab60c01b61226e565b61048467118a807cc506159d60c01b61226e565b61049867819bf3e81a92cd6a60c01b61226e565b600090505b919050565b6104aa612643565b6104be67791771fe8926c2ba60c01b61226e565b6104d267d40c18fcc3962f9d60c01b61226e565b6104e6672fbec02730bd45b960c01b61226e565b600360008381526020019081526020016000206040518060800160405290816000820154815260200160018201548152602001600282015481526020016003820160009054906101000a900460ff1615151515815250509050919050565b61055867fdaa4995e1e126fd60c01b61226e565b610560612386565b61057467310c048e0e57db9b60c01b61226e565b610588679876b8556770aff660c01b61226e565b61059c671e7d4b91127158c260c01b61226e565b6105b067c63a7a901a5dabce60c01b61226e565b6105c467a2851e1ee986083060c01b61226e565b670de0b6b3a764000047101561060f576040517f08c379a000000000000000000000000000000000000000000000000000000000815260040161060690612e0c565b60405180910390fd5b6106236717c38735029b05f460c01b61226e565b61063767265a881ac282425b60c01b61226e565b61064b6760bb92f952f438c260c01b61226e565b6000600160048054905061065f9190612e2c565b9050610675673d7579c212c0744160c01b61226e565b61068967ee11e884b9f6799d60c01b61226e565b60006004805490501115610747576106ab6731ee5ba3d8fe0b6f60c01b61226e565b6106bf67ec5f25c225d85fd160c01b61226e565b6106d3670367dff7e9f9cf0560c01b61226e565b6106e767c97519066192745b60c01b61226e565b6106ef612404565b61072e576040517f08c379a000000000000000000000000000000000000000000000000000000000815260040161072590612ed2565b60405180910390fd5b61074267fd46527385cdf78160c01b61226e565b61075c565b61075b6720c9e63e2abf7e4260c01b61226e565b5b610770678686badda7ebd88760c01b61226e565b6040518060800160405280828152602001428152602001610258426107959190612e2c565b8152602001600115158152506003600083815260200190815260200160002060008201518160000155602082015181600101556040820151816002015560608201518160030160006101000a81548160ff02191690831515021790555090505061080967a8c32bb129ae953a60c01b61226e565b61081d679c22ab145377f94860c01b61226e565b60046003600083815260200190815260200160002090806001815401808255809150506001900390600052602060002090600402016000909190919091506000820154816000015560018201548160010155600282015481600201556003820160009054906101000a900460ff168160030160006101000a81548160ff02191690831515021790555050506108bc67e86aa1d4b1affc7f60c01b61226e565b6108d067c8f1108fbf992a5160c01b61226e565b7f68e7b09ec44e876e76ff05157850e3261aa63a8680fe21a2ba93dcbb2b09f58f816003600084815260200190815260200160002060010154600360008581526020019081526020016000206002015460405161092f93929190612ef2565b60405180910390a150565b606061095067d5049d7314c815e260c01b61226e565b610964676c6f0e5b880d109660c01b61226e565b61097867cac32321c8a71a6f60c01b61226e565b61098c670694dce6b8398f9b60c01b61226e565b60048054905082106109d3576040517f08c379a00000000000000000000000000000000000000000000000000000000081526004016109ca90612f75565b60405180910390fd5b6109e767f6cda0c53dc1bccd60c01b61226e565b6109fb67b3d5db1961bf51c460c01b61226e565b610a0f67e4b56e75ee48890760c01b61226e565b600060018484610a1f9190612f95565b610a299190612e2c565b67ffffffffffffffff811115610a4257610a41612fc9565b5b604051908082528060200260200182016040528015610a7b57816020015b610a68612643565b815260200190600190039081610a605790505b509050610a9267addd90a29535067d60c01b61226e565b610aa66752200f3386d8648660c01b61226e565b60005b8484610ab59190612f95565b8111610b9f57610acf67c9be0dff55130f3b60c01b61226e565b610ae3677d43d2979052f3ce60c01b61226e565b600060048683610af39190612e2c565b81548110610b0457610b03612ff8565b5b90600052602060002090600402016040518060800160405290816000820154815260200160018201548152602001600282015481526020016003820160009054906101000a900460ff1615151515815250509050610b6c6702c33259bb0dbd7b60c01b61226e565b80838381518110610b8057610b7f612ff8565b5b6020026020010181905250508080610b9790613027565b915050610aa9565b50610bb4675c3c64c8929a509160c01b61226e565b610bc8678b5b514017f5929160c01b61226e565b8091505092915050565b610be66702c2718721de398260c01b61226e565b610bee612386565b610c0267521ead0416ce286360c01b61226e565b610c1667dc7e30446ea699fa60c01b61226e565b610c2a67d796b62e50de043e60c01b61226e565b610c3e67a1b236814d7810a460c01b61226e565b610c52670c9fd0d05ded733360c01b61226e565b610c5b81612271565b15610c9b576040517f08c379a0000000000000000000000000000000000000000000000000000000008152600401610c92906130bb565b60405180910390fd5b610caf677e5b9104ee46a1df60c01b61226e565b610cc36759bd2f53b6ace5c960c01b61226e565b610cd7674f0fdf71cff6198a60c01b61226e565b610ceb6720f2e366ac9c9ce360c01b61226e565b6003600082815260200190815260200160002060030160009054906101000a900460ff16610d4e576040517f08c379a0000000000000000000000000000000000000000000000000000000008152600401610d4590613127565b60405180910390fd5b610d626778ee65bb62478c7960c01b61226e565b610d7667e3564c4f9276c39b60c01b61226e565b60006003600083815260200190815260200160002060030160006101000a81548160ff021916908315150217905550610db967549d014bd244483b60c01b61226e565b60006004600183610dca9190612f95565b81548110610ddb57610dda612ff8565b5b906000526020600020906004020160030160006101000a81548160ff021916908315150217905550610e1767dfad5bb5e18a91d160c01b61226e565b610e2b67a9b69fcde5c6f6a660c01b61226e565b600160056000838152602001908152602001600020805490500361123a57610e5d6701320d65bf998f7f60c01b61226e565b610e716790580c87b1292d8060c01b61226e565b610e8567a3cdc3ac98e7125860c01b61226e565b600060646005600260056000868152602001908152602001600020600081548110610eb357610eb2612ff8565b5b906000526020600020906006020160020154610ecf9190612d47565b610ed99190612d47565b610ee39190613176565b9050610ef967cb983c41e135766660c01b61226e565b610f0d67c18184a3ce51258760c01b61226e565b600081600260056000868152602001908152602001600020600081548110610f3857610f37612ff8565b5b906000526020600020906006020160020154610f549190612d47565b610f5e9190612f95565b9050610f7467ea45e9a11a3f420a60c01b61226e565b8060056000858152602001908152602001600020600081548110610f9b57610f9a612ff8565b5b906000526020600020906006020160030181905550610fc467299fcaed6947b97960c01b61226e565b610fd86758b52b9d243a4f2d60c01b61226e565b60056000848152602001908152602001600020600081548110610ffe57610ffd612ff8565b5b906000526020600020906006020160010160009054906101000a900473ffffffffffffffffffffffffffffffffffffffff1673ffffffffffffffffffffffffffffffffffffffff166108fc829081150290604051600060405180830381858888f19350505050158015611075573d6000803e3d6000fd5b5061108a6710b49669f93338d860c01b61226e565b61109e67ceba62142db0be9760c01b61226e565b600260009054906101000a900473ffffffffffffffffffffffffffffffffffffffff1673ffffffffffffffffffffffffffffffffffffffff166108fc839081150290604051600060405180830381858888f19350505050158015611106573d6000803e3d6000fd5b5061111b679115f07443fb146360c01b61226e565b61112f674dd4d92d7d2ffd7660c01b61226e565b7f65edb247950c75beace5afb548418caec939cfa83b1fc60186d09d89cea66ba7836005600086815260200190815260200160002060008154811061117757611176612ff8565b5b906000526020600020906006020160010160009054906101000a900473ffffffffffffffffffffffffffffffffffffffff16600560008781526020019081526020016000206000815481106111cf576111ce612ff8565b5b9060005260206000209060060201600201546005600088815260200190815260200160002060008154811061120757611206612ff8565b5b9060005260206000209060060201600001548560405161122b9594939291906131a7565b60405180910390a1505061124f565b61124e6709450b699019cccf60c01b61226e565b5b61126367e9a3a02b2ef25f3d60c01b61226e565b611277673a247d940d597ffd60c01b61226e565b7f74ef25ef6b332a2fbbe7eb8b4108e0fe842a929d34c52a2ea4ca1a0f1524f107816040516112a691906126e4565b60405180910390a150565b60008060006112ca67e6a5b71d9e2f911e60c01b61226e565b6112de67331053bcda8c186060c01b61226e565b6112f267eab68226a7194df160c01b61226e565b6001600560008681526020019081526020016000208054905014801561132857506113276726fe05c4cf26e55e60c01b61256c565b5b80611365575060006005600086815260200190815260200160002080549050148015611364575061136367a8be61bfcd3fc30760c01b61256c565b5b5b156113cb5761137e677b4325b1a29542a160c01b61226e565b61139267134e18e3e9f8d73b60c01b61226e565b600092506113aa6784d19f56980c985460c01b61226e565b600091506113c267bfa994801f5900d660c01b61226e565b60009050611546565b6113df678c01e6608879566360c01b61226e565b6113f3677967815f0c3d34e360c01b61226e565b61140767416687c74a8ed0cd60c01b61226e565b6000600560008681526020019081526020016000206001600560008881526020019081526020016000208054905061143f9190612f95565b815481106114505761144f612ff8565b5b90600052602060002090600602016040518060c0016040529081600082015481526020016001820160009054906101000a900473ffffffffffffffffffffffffffffffffffffffff1673ffffffffffffffffffffffffffffffffffffffff1673ffffffffffffffffffffffffffffffffffffffff1681526020016002820154815260200160038201548152602001600482015481526020016005820154815250509050611507672c594bd33e0883e760c01b61226e565b806000015193506115226778c93bdecdc1b5aa60c01b61226e565b8060200151925061153d679f1b7c2bb527f0d260c01b61226e565b80604001519150505b9193909250565b611555612386565b61155f6000612577565b565b61157567d825916812ce534660c01b61226e565b61157d612386565b61159167c36d1239570620c660c01b61226e565b6115a5672f281a27a344d39060c01b61226e565b6115b967b22636fa6740612260c01b61226e565b6115cd6795fa8b6855cbbd7360c01b61226e565b6115e1678e0f9f97fc8b455260c01b61226e565b600073ffffffffffffffffffffffffffffffffffffffff168173ffffffffffffffffffffffffffffffffffffffff1603611650576040517f08c379a000000000000000000000000000000000000000000000000000000000815260040161164790613246565b60405180910390fd5b6116646766a80cdadd06ba5960c01b61226e565b61167867ec8662572b3c734660c01b61226e565b80600260006101000a81548173ffffffffffffffffffffffffffffffffffffffff021916908373ffffffffffffffffffffffffffffffffffffffff16021790555050565b6116d067be70befece33c2c760c01b61226e565b600260015403611715576040517f08c379a000000000000000000000000000000000000000000000000000000000815260040161170c906132b2565b60405180910390fd5b6002600181905550611731671ab26e7d492b5d0660c01b61226e565b611745676df326e2a1acbf8c60c01b61226e565b61175967e088d806349ca8f460c01b61226e565b61176d67239d525cd10df34f60c01b61226e565b611781676a70a576383e019760c01b61226e565b61178a81612271565b6117c9576040517f08c379a00000000000000000000000000000000000000000000000000000000081526004016117c09061331e565b60405180910390fd5b6117dd67958afd03f2eb23cf60c01b61226e565b6117f167faa1e6a6affa33f560c01b61226e565b6118056710bb24519e24c3ad60c01b61226e565b611819676d963f382478f51960c01b61226e565b61182281610369565b3414611863576040517f08c379a000000000000000000000000000000000000000000000000000000000815260040161185a9061338a565b60405180910390fd5b611877674ab4b549d162e07160c01b61226e565b61188b67be46def5ee124d4160c01b61226e565b61189f67636e6c504082fb9260c01b61226e565b6000600160056000848152602001908152602001600020805490506118c49190612e2c565b90506118da672e7502f28607dd2160c01b61226e565b6118ee6798da9f46c4a24e3960c01b61226e565b600560008381526020019081526020016000206040518060c001604052808381526020013373ffffffffffffffffffffffffffffffffffffffff168152602001348152602001600081526020018481526020014281525090806001815401808255809150506001900390600052602060002090600602016000909190919091506000820151816000015560208201518160010160006101000a81548173ffffffffffffffffffffffffffffffffffffffff021916908373ffffffffffffffffffffffffffffffffffffffff16021790555060408201518160020155606082015181600301556080820151816004015560a0820151816005015550506119fd67989b2895448e2acb60c01b61226e565b611a1167135d63ef260b4f5560c01b61226e565b60018114611e5757611a2d671fec7bb893169ddd60c01b61226e565b611a41670aa7c7a52523b82c60c01b61226e565b611a55676b9bb70a9c99009260c01b61226e565b600060646005600260056000878152602001908152602001600020600286611a7d9190612f95565b81548110611a8e57611a8d612ff8565b5b906000526020600020906006020160020154611aaa9190612d47565b611ab49190612d47565b611abe9190613176565b9050611ad46779f819f393e871a760c01b61226e565b611ae867ea8455edcaf562b460c01b61226e565b600081600260056000878152602001908152602001600020600286611b0d9190612f95565b81548110611b1e57611b1d612ff8565b5b906000526020600020906006020160020154611b3a9190612d47565b611b449190612f95565b9050611b5a6713ba902a4af9bc9a60c01b61226e565b8060056000868152602001908152602001600020600285611b7b9190612f95565b81548110611b8c57611b8b612ff8565b5b906000526020600020906006020160030181905550611bb5673e2bac3253f946d560c01b61226e565b611bc967cf55b055aed110f960c01b61226e565b60056000858152602001908152602001600020600284611be99190612f95565b81548110611bfa57611bf9612ff8565b5b906000526020600020906006020160010160009054906101000a900473ffffffffffffffffffffffffffffffffffffffff1673ffffffffffffffffffffffffffffffffffffffff166108fc829081150290604051600060405180830381858888f19350505050158015611c71573d6000803e3d6000fd5b50611c86671fcc5bec548ca67360c01b61226e565b611c9a678fc290b0ea4e273d60c01b61226e565b600260009054906101000a900473ffffffffffffffffffffffffffffffffffffffff1673ffffffffffffffffffffffffffffffffffffffff166108fc839081150290604051600060405180830381858888f19350505050158015611d02573d6000803e3d6000fd5b50611d176770e599b5c272a51f60c01b61226e565b611d2b67fa5028b556bfe15560c01b61226e565b7f65edb247950c75beace5afb548418caec939cfa83b1fc60186d09d89cea66ba78460056000878152602001908152602001600020600286611d6d9190612f95565b81548110611d7e57611d7d612ff8565b5b906000526020600020906006020160010160009054906101000a900473ffffffffffffffffffffffffffffffffffffffff1660056000888152602001908152602001600020600287611dd09190612f95565b81548110611de157611de0612ff8565b5b90600052602060002090600602016002015460056000898152602001908152602001600020600288611e139190612f95565b81548110611e2457611e23612ff8565b5b90600052602060002090600602016000015485604051611e489594939291906131a7565b60405180910390a15050611e6c565b611e6b670e427271d59543d660c01b61226e565b5b611e80672e2b9b90dc11d24f60c01b61226e565b611e946790f446c169ccf31f60c01b61226e565b7f2eaa1bda0a76999046e8def81099978a4164fbfb5f4207619e76c3823f6043678233348442604051611ecb9594939291906131a7565b60405180910390a1506001808190555050565b60008060009054906101000a900473ffffffffffffffffffffffffffffffffffffffff16905090565b600080600080611f2167df7af7626285914f60c01b61226e565b611f356797a910e786d5f4db60c01b61226e565b611f49679139c886ca29680f60c01b61226e565b6000600480549050111561203e57611f6b67a5c3eb9cdd7ce03260c01b61226e565b611f7f67a1d39ae93554048960c01b61226e565b611f9367e049aba54317f37e60c01b61226e565b60006003600060048054905081526020019081526020016000206040518060800160405290816000820154815260200160018201548152602001600282015481526020016003820160009054906101000a900460ff1615151515815250509050612007673bfeeb7a8ba4d01e60c01b61226e565b61201b67a08092338b83a51c60c01b61226e565b600480549050816020015182604001518360600151945094509450945050612089565b612052677e3a53df72d07dad60c01b61226e565b6120666781d7c9f69510cfed60c01b61226e565b61207a672a46cec625d5b47960c01b61226e565b60008060008093509350935093505b90919293565b60606120a567f2f692c776ad560f60c01b61226e565b6120b9672eada6f0b74897b060c01b61226e565b6120cd6703ca1ae7e9a7355260c01b61226e565b60056000838152602001908152602001600020805480602002602001604051908101604052809291908181526020016000905b828210156121ba57838290600052602060002090600602016040518060c0016040529081600082015481526020016001820160009054906101000a900473ffffffffffffffffffffffffffffffffffffffff1673ffffffffffffffffffffffffffffffffffffffff1673ffffffffffffffffffffffffffffffffffffffff16815260200160028201548152602001600382015481526020016004820154815260200160058201548152505081526020019060010190612100565b505050509050919050565b600260009054906101000a900473ffffffffffffffffffffffffffffffffffffffff1681565b6121f3612386565b600073ffffffffffffffffffffffffffffffffffffffff168173ffffffffffffffffffffffffffffffffffffffff1603612262576040517f08c379a00000000000000000000000000000000000000000000000000000000081526004016122599061341c565b60405180910390fd5b61226b81612577565b50565b50565b60006122876759f896e9494c132b60c01b61226e565b61229a662a07440504d5b960c01b61226e565b6122ae67dc15d51235a65df760c01b61226e565b60006122c467a86697a2a762675c60c01b61226e565b6122d867968364a0b8d0d8a060c01b61226e565b4260036000858152602001908152602001600020600201541015801561231e57506003600084815260200190815260200160002060030160009054906101000a900460ff165b15612340576123376749a30164077a965260c01b61226e565b60019050612355565b61235467e1ff993a5b4cf08960c01b61226e565b5b61236967a1e4d0a723f8809560c01b61226e565b61237d675cd47003aa0a2c1960c01b61226e565b80915050919050565b61238e61263b565b73ffffffffffffffffffffffffffffffffffffffff166123ac611ede565b73ffffffffffffffffffffffffffffffffffffffff1614612402576040517f08c379a00000000000000000000000000000000000000000000000000000000081526004016123f990613488565b60405180910390fd5b565b600061241a6767c910277888245d60c01b61226e565b61242e670820e2026fd9902760c01b61226e565b61244267fe9a33932c2faefd60c01b61226e565b600061245867adc81bc682c1a10560c01b61226e565b61246c6727a654a37fde5fd060c01b61226e565b42600460016004805490506124819190612f95565b8154811061249257612491612ff8565b5b9060005260206000209060040201600201541080156124f25750600460016004805490506124c09190612f95565b815481106124d1576124d0612ff8565b5b906000526020600020906004020160030160009054906101000a900460ff16155b156125285761250b679c1d4ae0f4e1e59060c01b61226e565b61251f67e45714613e89bc3e60c01b61226e565b6001905061253d565b61253c679ec9c269d729ae5e60c01b61226e565b5b61255167cc433e9464eafcf560c01b61226e565b612565679ccff7531dc372ed60c01b61226e565b8091505090565b600060019050919050565b60008060009054906101000a900473ffffffffffffffffffffffffffffffffffffffff169050816000806101000a81548173ffffffffffffffffffffffffffffffffffffffff021916908373ffffffffffffffffffffffffffffffffffffffff1602179055508173ffffffffffffffffffffffffffffffffffffffff168173ffffffffffffffffffffffffffffffffffffffff167f8be0079c531659141344cd1fd0a4f28419497f9722a3daafe3b4186f6b6457e060405160405180910390a35050565b600033905090565b60405180608001604052806000815260200160008152602001600081526020016000151581525090565b600080fd5b6000819050919050565b61268581612672565b811461269057600080fd5b50565b6000813590506126a28161267c565b92915050565b6000602082840312156126be576126bd61266d565b5b60006126cc84828501612693565b91505092915050565b6126de81612672565b82525050565b60006020820190506126f960008301846126d5565b92915050565b61270881612672565b82525050565b60008115159050919050565b6127238161270e565b82525050565b60808201600082015161273f60008501826126ff565b50602082015161275260208501826126ff565b50604082015161276560408501826126ff565b506060820151612778606085018261271a565b50505050565b60006080820190506127936000830184612729565b92915050565b600080604083850312156127b0576127af61266d565b5b60006127be85828601612693565b92505060206127cf85828601612693565b9150509250929050565b600081519050919050565b600082825260208201905092915050565b6000819050602082019050919050565b60808201600082015161281b60008501826126ff565b50602082015161282e60208501826126ff565b50604082015161284160408501826126ff565b506060820151612854606085018261271a565b50505050565b60006128668383612805565b60808301905092915050565b6000602082019050919050565b600061288a826127d9565b61289481856127e4565b935061289f836127f5565b8060005b838110156128d05781516128b7888261285a565b97506128c283612872565b9250506001810190506128a3565b5085935050505092915050565b600060208201905081810360008301526128f7818461287f565b905092915050565b600073ffffffffffffffffffffffffffffffffffffffff82169050919050565b600061292a826128ff565b9050919050565b61293a8161291f565b82525050565b600060608201905061295560008301866126d5565b6129626020830185612931565b61296f60408301846126d5565b949350505050565b6129808161291f565b811461298b57600080fd5b50565b60008135905061299d81612977565b92915050565b6000602082840312156129b9576129b861266d565b5b60006129c78482850161298e565b91505092915050565b60006020820190506129e56000830184612931565b92915050565b6129f48161270e565b82525050565b6000608082019050612a0f60008301876126d5565b612a1c60208301866126d5565b612a2960408301856126d5565b612a3660608301846129eb565b95945050505050565b600081519050919050565b600082825260208201905092915050565b6000819050602082019050919050565b612a748161291f565b82525050565b60c082016000820151612a9060008501826126ff565b506020820151612aa36020850182612a6b565b506040820151612ab660408501826126ff565b506060820151612ac960608501826126ff565b506080820151612adc60808501826126ff565b5060a0820151612aef60a08501826126ff565b50505050565b6000612b018383612a7a565b60c08301905092915050565b6000602082019050919050565b6000612b2582612a3f565b612b2f8185612a4a565b9350612b3a83612a5b565b8060005b83811015612b6b578151612b528882612af5565b9750612b5d83612b0d565b925050600181019050612b3e565b5085935050505092915050565b60006020820190508181036000830152612b928184612b1a565b905092915050565b7f4e487b7100000000000000000000000000000000000000000000000000000000600052601160045260246000fd5b60008160011c9050919050565b6000808291508390505b6001851115612c2057808604811115612bfc57612bfb612b9a565b5b6001851615612c0b5780820291505b8081029050612c1985612bc9565b9450612be0565b94509492505050565b600082612c395760019050612cf5565b81612c475760009050612cf5565b8160018114612c5d5760028114612c6757612c96565b6001915050612cf5565b60ff841115612c7957612c78612b9a565b5b8360020a915084821115612c9057612c8f612b9a565b5b50612cf5565b5060208310610133831016604e8410600b8410161715612ccb5782820a905083811115612cc657612cc5612b9a565b5b612cf5565b612cd88484846001612bd6565b92509050818404811115612cef57612cee612b9a565b5b81810290505b9392505050565b6000612d0782612672565b9150612d1283612672565b9250612d3f7fffffffffffffffffffffffffffffffffffffffffffffffffffffffffffffffff8484612c29565b905092915050565b6000612d5282612672565b9150612d5d83612672565b9250828202612d6b81612672565b91508282048414831517612d8257612d81612b9a565b5b5092915050565b600082825260208201905092915050565b7f4d696e696d756d20636f6e74726163742062616c616e63652073686f756c642060008201527f626520312074504c530000000000000000000000000000000000000000000000602082015250565b6000612df6602983612d89565b9150612e0182612d9a565b604082019050919050565b60006020820190508181036000830152612e2581612de9565b9050919050565b6000612e3782612672565b9150612e4283612672565b9250828201905080821115612e5a57612e59612b9a565b5b92915050565b7f50726576696f757320726f756e64206973206e6f742066696e6973686564207960008201527f6574000000000000000000000000000000000000000000000000000000000000602082015250565b6000612ebc602283612d89565b9150612ec782612e60565b604082019050919050565b60006020820190508181036000830152612eeb81612eaf565b9050919050565b6000606082019050612f0760008301866126d5565b612f1460208301856126d5565b612f2160408301846126d5565b949350505050565b7f496e76616c69642072616e676500000000000000000000000000000000000000600082015250565b6000612f5f600d83612d89565b9150612f6a82612f29565b602082019050919050565b60006020820190508181036000830152612f8e81612f52565b9050919050565b6000612fa082612672565b9150612fab83612672565b9250828203905081811115612fc357612fc2612b9a565b5b92915050565b7f4e487b7100000000000000000000000000000000000000000000000000000000600052604160045260246000fd5b7f4e487b7100000000000000000000000000000000000000000000000000000000600052603260045260246000fd5b600061303282612672565b91507fffffffffffffffffffffffffffffffffffffffffffffffffffffffffffffffff820361306457613063612b9a565b5b600182019050919050565b7f526f756e6420697320206c697665000000000000000000000000000000000000600082015250565b60006130a5600e83612d89565b91506130b08261306f565b602082019050919050565b600060208201905081810360008301526130d481613098565b9050919050565b7f526f756e6420616c72656164792066696e697368656400000000000000000000600082015250565b6000613111601683612d89565b915061311c826130db565b602082019050919050565b6000602082019050818103600083015261314081613104565b9050919050565b7f4e487b7100000000000000000000000000000000000000000000000000000000600052601260045260246000fd5b600061318182612672565b915061318c83612672565b92508261319c5761319b613147565b5b828204905092915050565b600060a0820190506131bc60008301886126d5565b6131c96020830187612931565b6131d660408301866126d5565b6131e360608301856126d5565b6131f060808301846126d5565b9695505050505050565b7f5a65726f2061646472657373206e6f7420616c6c6f7765640000000000000000600082015250565b6000613230601883612d89565b915061323b826131fa565b602082019050919050565b6000602082019050818103600083015261325f81613223565b9050919050565b7f5265656e7472616e637947756172643a207265656e7472616e742063616c6c00600082015250565b600061329c601f83612d89565b91506132a782613266565b602082019050919050565b600060208201905081810360008301526132cb8161328f565b9050919050565b7f526f756e64206973206e6f74206c697665000000000000000000000000000000600082015250565b6000613308601183612d89565b9150613313826132d2565b602082019050919050565b60006020820190508181036000830152613337816132fb565b9050919050565b7f496e636f727265637420696e76657374656420616d6f756e7400000000000000600082015250565b6000613374601983612d89565b915061337f8261333e565b602082019050919050565b600060208201905081810360008301526133a381613367565b9050919050565b7f4f776e61626c653a206e6577206f776e657220697320746865207a65726f206160008201527f6464726573730000000000000000000000000000000000000000000000000000602082015250565b6000613406602683612d89565b9150613411826133aa565b604082019050919050565b60006020820190508181036000830152613435816133f9565b9050919050565b7f4f776e61626c653a2063616c6c6572206973206e6f7420746865206f776e6572600082015250565b6000613472602083612d89565b915061347d8261343c565b602082019050919050565b600060208201905081810360008301526134a181613465565b905091905056fea2646970667358221220557abfc69a4cfb924bbf7d304fcacd058d80d81a981e155ee7ca40f61420234a64736f6c63430008110033",
  "linkReferences": {},
  "deployedLinkReferences": {}
}