{
  "_format": "hh-sol-artifact-1",
  "contractName": "PlebToHill",
  "sourceName": "contracts/PlebToHill.sol",
  "abi": [
    {
      "inputs": [
        {
          "internalType": "contract Token",
          "name": "_plebToken",
          "type": "address"
        }
      ],
      "stateMutability": "nonpayable",
      "type": "constructor"
    },
    {
      "anonymous": false,
      "inputs": [
        {
          "indexed": true,
          "internalType": "address",
          "name": "previousOwner",
          "type": "address"
        },
        {
          "indexed": true,
          "internalType": "address",
          "name": "newOwner",
          "type": "address"
        }
      ],
      "name": "OwnershipTransferred",
      "type": "event"
    },
    {
      "anonymous": false,
      "inputs": [
        {
          "indexed": false,
          "internalType": "uint256",
          "name": "roundId",
          "type": "uint256"
        },
        {
          "indexed": false,
          "internalType": "address",
          "name": "walletAddress",
          "type": "address"
        },
        {
          "indexed": false,
          "internalType": "uint256",
          "name": "invested_amount",
          "type": "uint256"
        },
        {
          "indexed": false,
          "internalType": "uint256",
          "name": "participantId",
          "type": "uint256"
        },
        {
          "indexed": false,
          "internalType": "uint256",
          "name": "time",
          "type": "uint256"
        }
      ],
      "name": "ParticipantAdded",
      "type": "event"
    },
    {
      "anonymous": false,
      "inputs": [
        {
          "indexed": false,
          "internalType": "uint256",
          "name": "roundId",
          "type": "uint256"
        },
        {
          "indexed": false,
          "internalType": "uint256",
          "name": "startTime",
          "type": "uint256"
        },
        {
          "indexed": false,
          "internalType": "uint256",
          "name": "endTime",
          "type": "uint256"
        }
      ],
      "name": "RoundCreated",
      "type": "event"
    },
    {
      "anonymous": false,
      "inputs": [
        {
          "indexed": false,
          "internalType": "uint256",
          "name": "roundId",
          "type": "uint256"
        }
      ],
      "name": "RoundFinished",
      "type": "event"
    },
    {
      "anonymous": false,
      "inputs": [
        {
          "indexed": false,
          "internalType": "uint256",
          "name": "roundId",
          "type": "uint256"
        },
        {
          "indexed": false,
          "internalType": "uint256",
          "name": "endTime",
          "type": "uint256"
        }
      ],
      "name": "TimeReset",
      "type": "event"
    },
    {
      "anonymous": false,
      "inputs": [
        {
          "indexed": false,
          "internalType": "uint256",
          "name": "roundId",
          "type": "uint256"
        },
        {
          "indexed": false,
          "internalType": "address",
          "name": "walletAddress",
          "type": "address"
        },
        {
          "indexed": false,
          "internalType": "uint256",
          "name": "invested_amount",
          "type": "uint256"
        },
        {
          "indexed": false,
          "internalType": "uint256",
          "name": "participantId",
          "type": "uint256"
        },
        {
          "indexed": false,
          "internalType": "uint256",
          "name": "winnings",
          "type": "uint256"
        }
      ],
      "name": "WinningTransfered",
      "type": "event"
    },
    {
      "inputs": [
        {
          "internalType": "uint256",
          "name": "roundId",
          "type": "uint256"
        }
      ],
      "name": "addParticipant",
      "outputs": [],
      "stateMutability": "payable",
      "type": "function"
    },
    {
      "inputs": [],
      "name": "createRound",
      "outputs": [],
      "stateMutability": "nonpayable",
      "type": "function"
    },
    {
      "inputs": [
        {
          "internalType": "uint256",
          "name": "roundId",
          "type": "uint256"
        }
      ],
      "name": "endRound",
      "outputs": [],
      "stateMutability": "nonpayable",
      "type": "function"
    },
    {
      "inputs": [],
      "name": "extraDuration",
      "outputs": [
        {
          "internalType": "uint256",
          "name": "",
          "type": "uint256"
        }
      ],
      "stateMutability": "view",
      "type": "function"
    },
    {
      "inputs": [
        {
          "internalType": "uint256",
          "name": "roundId",
          "type": "uint256"
        }
      ],
      "name": "getAllParticipantOfRound",
      "outputs": [
        {
          "components": [
            {
              "internalType": "uint256",
              "name": "participantId",
              "type": "uint256"
            },
            {
              "internalType": "address",
              "name": "walletAddress",
              "type": "address"
            },
            {
              "internalType": "uint256",
              "name": "invested_amount",
              "type": "uint256"
            },
            {
              "internalType": "uint256",
              "name": "winnings",
              "type": "uint256"
            },
            {
              "internalType": "uint256",
              "name": "roundId",
              "type": "uint256"
            },
            {
              "internalType": "uint256",
              "name": "time",
              "type": "uint256"
            }
          ],
          "internalType": "struct PlebToHill.Participant[]",
          "name": "",
          "type": "tuple[]"
        }
      ],
      "stateMutability": "view",
      "type": "function"
    },
    {
      "inputs": [
        {
          "internalType": "uint256",
          "name": "start",
          "type": "uint256"
        },
        {
          "internalType": "uint256",
          "name": "end",
          "type": "uint256"
        }
      ],
      "name": "getAllRounds",
      "outputs": [
        {
          "components": [
            {
              "internalType": "uint256",
              "name": "roundId",
              "type": "uint256"
            },
            {
              "internalType": "uint256",
              "name": "startTime",
              "type": "uint256"
            },
            {
              "internalType": "uint256",
              "name": "endTime",
              "type": "uint256"
            },
            {
              "internalType": "bool",
              "name": "isLive",
              "type": "bool"
            }
          ],
          "internalType": "struct PlebToHill.Round[]",
          "name": "",
          "type": "tuple[]"
        }
      ],
      "stateMutability": "view",
      "type": "function"
    },
    {
      "inputs": [],
      "name": "getCurrentLiveRound",
      "outputs": [
        {
          "internalType": "uint256",
          "name": "roundId",
          "type": "uint256"
        },
        {
          "internalType": "uint256",
          "name": "startTime",
          "type": "uint256"
        },
        {
          "internalType": "uint256",
          "name": "endTime",
          "type": "uint256"
        },
        {
          "internalType": "bool",
          "name": "isLive",
          "type": "bool"
        }
      ],
      "stateMutability": "view",
      "type": "function"
    },
    {
      "inputs": [
        {
          "internalType": "uint256",
          "name": "roundId",
          "type": "uint256"
        }
      ],
      "name": "getCurrentPleb",
      "outputs": [
        {
          "internalType": "address",
          "name": "wallet",
          "type": "address"
        }
      ],
      "stateMutability": "view",
      "type": "function"
    },
    {
      "inputs": [
        {
          "internalType": "uint256",
          "name": "roundId",
          "type": "uint256"
        }
      ],
      "name": "getLoserData",
      "outputs": [
        {
          "internalType": "uint256",
          "name": "id",
          "type": "uint256"
        },
        {
          "internalType": "address",
          "name": "wallet",
          "type": "address"
        },
        {
          "internalType": "uint256",
          "name": "amount_lose",
          "type": "uint256"
        }
      ],
      "stateMutability": "view",
      "type": "function"
    },
    {
      "inputs": [
        {
          "internalType": "uint256",
          "name": "roundId",
          "type": "uint256"
        }
      ],
      "name": "getRemainingTime",
      "outputs": [
        {
          "internalType": "uint256",
          "name": "",
          "type": "uint256"
        }
      ],
      "stateMutability": "view",
      "type": "function"
    },
    {
      "inputs": [
        {
          "internalType": "uint256",
          "name": "roundId",
          "type": "uint256"
        }
      ],
      "name": "getRoundData",
      "outputs": [
        {
          "components": [
            {
              "internalType": "uint256",
              "name": "roundId",
              "type": "uint256"
            },
            {
              "internalType": "uint256",
              "name": "startTime",
              "type": "uint256"
            },
            {
              "internalType": "uint256",
              "name": "endTime",
              "type": "uint256"
            },
            {
              "internalType": "bool",
              "name": "isLive",
              "type": "bool"
            }
          ],
          "internalType": "struct PlebToHill.Round",
          "name": "",
          "type": "tuple"
        }
      ],
      "stateMutability": "view",
      "type": "function"
    },
    {
      "inputs": [
        {
          "internalType": "uint256",
          "name": "roundId",
          "type": "uint256"
        }
      ],
      "name": "getValueForNextParticipant",
      "outputs": [
        {
          "internalType": "uint256",
          "name": "",
          "type": "uint256"
        }
      ],
      "stateMutability": "view",
      "type": "function"
    },
    {
      "inputs": [],
      "name": "owner",
      "outputs": [
        {
          "internalType": "address",
          "name": "",
          "type": "address"
        }
      ],
      "stateMutability": "view",
      "type": "function"
    },
    {
      "inputs": [],
      "name": "plebToken",
      "outputs": [
        {
          "internalType": "contract Token",
          "name": "",
          "type": "address"
        }
      ],
      "stateMutability": "view",
      "type": "function"
    },
    {
      "inputs": [],
      "name": "poth_address",
      "outputs": [
        {
          "internalType": "address",
          "name": "",
          "type": "address"
        }
      ],
      "stateMutability": "view",
      "type": "function"
    },
    {
      "inputs": [],
      "name": "renounceOwnership",
      "outputs": [],
      "stateMutability": "nonpayable",
      "type": "function"
    },
    {
      "inputs": [],
      "name": "roundDuration",
      "outputs": [
        {
          "internalType": "uint256",
          "name": "",
          "type": "uint256"
        }
      ],
      "stateMutability": "view",
      "type": "function"
    },
    {
      "inputs": [
        {
          "internalType": "uint256",
          "name": "_extraDurationInMinutes",
          "type": "uint256"
        }
      ],
      "name": "setExtraDuration",
      "outputs": [],
      "stateMutability": "nonpayable",
      "type": "function"
    },
    {
      "inputs": [
        {
          "internalType": "address",
          "name": "_pothwallet",
          "type": "address"
        }
      ],
      "name": "setPothWallet",
      "outputs": [],
      "stateMutability": "nonpayable",
      "type": "function"
    },
    {
      "inputs": [
        {
          "internalType": "uint256",
          "name": "_roundDurationInMinutes",
          "type": "uint256"
        }
      ],
      "name": "setRoundDuration",
      "outputs": [],
      "stateMutability": "nonpayable",
      "type": "function"
    },
    {
      "inputs": [
        {
          "internalType": "uint256",
          "name": "_thresholdTime",
          "type": "uint256"
        }
      ],
      "name": "setThresoldTime",
      "outputs": [],
      "stateMutability": "nonpayable",
      "type": "function"
    },
    {
      "inputs": [],
      "name": "thresholdTime",
      "outputs": [
        {
          "internalType": "uint256",
          "name": "",
          "type": "uint256"
        }
      ],
      "stateMutability": "view",
      "type": "function"
    },
    {
      "inputs": [
        {
          "internalType": "address",
          "name": "newOwner",
          "type": "address"
        }
      ],
      "name": "transferOwnership",
      "outputs": [],
      "stateMutability": "nonpayable",
      "type": "function"
    },
    {
      "stateMutability": "payable",
      "type": "receive"
    }
  ],
  "bytecode": "0x60806040523480156200001157600080fd5b506040516200387c3803806200387c8339818101604052810190620000379190620001f0565b620000576200004b620000a660201b60201c565b620000ae60201b60201c565b6001808190555080600260006101000a81548173ffffffffffffffffffffffffffffffffffffffff021916908373ffffffffffffffffffffffffffffffffffffffff1602179055505062000222565b600033905090565b60008060009054906101000a900473ffffffffffffffffffffffffffffffffffffffff169050816000806101000a81548173ffffffffffffffffffffffffffffffffffffffff021916908373ffffffffffffffffffffffffffffffffffffffff1602179055508173ffffffffffffffffffffffffffffffffffffffff168173ffffffffffffffffffffffffffffffffffffffff167f8be0079c531659141344cd1fd0a4f28419497f9722a3daafe3b4186f6b6457e060405160405180910390a35050565b600080fd5b600073ffffffffffffffffffffffffffffffffffffffff82169050919050565b6000620001a48262000177565b9050919050565b6000620001b88262000197565b9050919050565b620001ca81620001ab565b8114620001d657600080fd5b50565b600081519050620001ea81620001bf565b92915050565b60006020828403121562000209576200020862000172565b5b60006200021984828501620001d9565b91505092915050565b61364a80620002326000396000f3fe6080604052600436106101445760003560e01c80637cb5de7c116100b65780639930f8761161006f5780639930f8761461045b578063a1e7730014610486578063dade4b64146104b1578063e2b630c2146104ee578063f2fde38b14610519578063f7cb789a146105425761014b565b80637cb5de7c146103575780637ecb177b1461038057806384065059146103a95780638acaf7a8146103e65780638da5cb5b14610402578063928554f91461042d5761014b565b806336c92c3f1161010857806336c92c3f14610247578063437b6065146102705780634781ca76146102ad5780635a1e6ca1146102d8578063606e484114610301578063715018a6146103405761014b565b806303861ba6146101505780630720da521461018d578063181e0124146101ca5780631b411fc8146102075780632c4dbed21461021e5761014b565b3661014b57005b600080fd5b34801561015c57600080fd5b506101776004803603810190610172919061240c565b61056d565b6040516101849190612448565b60405180910390f35b34801561019957600080fd5b506101b460048036038101906101af919061240c565b6105ca565b6040516101c191906124e2565b60405180910390f35b3480156101d657600080fd5b506101f160048036038101906101ec919061240c565b610630565b6040516101fe9190612448565b60405180910390f35b34801561021357600080fd5b5061021c61066d565b005b34801561022a57600080fd5b506102456004803603810190610240919061240c565b610907565b005b34801561025357600080fd5b5061026e6004803603810190610269919061240c565b610968565b005b34801561027c57600080fd5b50610297600480360381019061029291906124fd565b6109c9565b6040516102a49190612641565b60405180910390f35b3480156102b957600080fd5b506102c2610b49565b6040516102cf9190612448565b60405180910390f35b3480156102e457600080fd5b506102ff60048036038101906102fa919061240c565b610b4f565b005b34801561030d57600080fd5b506103286004803603810190610323919061240c565b611269565b604051610337939291906126a4565b60405180910390f35b34801561034c57600080fd5b506103556113c9565b005b34801561036357600080fd5b5061037e6004803603810190610379919061240c565b6113dd565b005b34801561038c57600080fd5b506103a760048036038101906103a29190612707565b61149d565b005b3480156103b557600080fd5b506103d060048036038101906103cb919061240c565b611558565b6040516103dd9190612734565b60405180910390f35b61040060048036038101906103fb919061240c565b6116c3565b005b34801561040e57600080fd5b50610417611ebd565b6040516104249190612734565b60405180910390f35b34801561043957600080fd5b50610442611ee6565b604051610452949392919061275e565b60405180910390f35b34801561046757600080fd5b50610470611f92565b60405161047d9190612448565b60405180910390f35b34801561049257600080fd5b5061049b611f98565b6040516104a89190612802565b60405180910390f35b3480156104bd57600080fd5b506104d860048036038101906104d3919061240c565b611fbe565b6040516104e59190612956565b60405180910390f35b3480156104fa57600080fd5b506105036120b8565b6040516105109190612734565b60405180910390f35b34801561052557600080fd5b50610540600480360381019061053b9190612707565b6120de565b005b34801561054e57600080fd5b50610557612161565b6040516105649190612448565b60405180910390f35b600061057882612167565b156105c057600060096000848152602001908152602001600020805490509050670de0b6b3a76400008160026105ae9190612ada565b6105b89190612b25565b9150506105c5565b600090505b919050565b6105d26123a7565b600760008381526020019081526020016000206040518060800160405290816000820154815260200160018201548152602001600282015481526020016003820160009054906101000a900460ff1615151515815250509050919050565b60008061063c836105ca565b905080604001514210156106625742816040015161065a9190612b67565b915050610668565b60009150505b919050565b6106756121c3565b600060035411801561068957506000600454115b801561069757506000600554115b6106d6576040517f08c379a00000000000000000000000000000000000000000000000000000000081526004016106cd90612c1e565b60405180910390fd5b670de0b6b3a7640000471015610721576040517f08c379a000000000000000000000000000000000000000000000000000000000815260040161071890612cb0565b60405180910390fd5b600060016008805490506107359190612cd0565b90506000600880549050111561078d5761074d612241565b61078c576040517f08c379a000000000000000000000000000000000000000000000000000000000815260040161078390612d76565b60405180910390fd5b5b6040518060800160405280828152602001428152602001600354426107b29190612cd0565b8152602001600115158152506007600083815260200190815260200160002060008201518160000155602082015181600101556040820151816002015560608201518160030160006101000a81548160ff02191690831515021790555090505060086007600083815260200190815260200160002090806001815401808255809150506001900390600052602060002090600402016000909190919091506000820154816000015560018201548160010155600282015481600201556003820160009054906101000a900460ff168160030160006101000a81548160ff02191690831515021790555050507f68e7b09ec44e876e76ff05157850e3261aa63a8680fe21a2ba93dcbb2b09f58f81600760008481526020019081526020016000206001015460076000858152602001908152602001600020600201546040516108fc93929190612d96565b60405180910390a150565b61090f6121c3565b60008103610952576040517f08c379a000000000000000000000000000000000000000000000000000000000815260040161094990612e3f565b60405180910390fd5b603c8161095f9190612b25565b60048190555050565b6109706121c3565b600081036109b3576040517f08c379a00000000000000000000000000000000000000000000000000000000081526004016109aa90612e3f565b60405180910390fd5b603c816109c09190612b25565b60038190555050565b60606008805490508210610a12576040517f08c379a0000000000000000000000000000000000000000000000000000000008152600401610a0990612eab565b60405180910390fd5b600060018484610a229190612b67565b610a2c9190612cd0565b67ffffffffffffffff811115610a4557610a44612ecb565b5b604051908082528060200260200182016040528015610a7e57816020015b610a6b6123a7565b815260200190600190039081610a635790505b50905060005b8484610a909190612b67565b8111610b3e57600060088683610aa69190612cd0565b81548110610ab757610ab6612efa565b5b90600052602060002090600402016040518060800160405290816000820154815260200160018201548152602001600282015481526020016003820160009054906101000a900460ff161515151581525050905080838381518110610b1f57610b1e612efa565b5b6020026020010181905250508080610b3690612f29565b915050610a84565b508091505092915050565b60045481565b610b576121c3565b610b6081612167565b15610ba0576040517f08c379a0000000000000000000000000000000000000000000000000000000008152600401610b9790612fbd565b60405180910390fd5b6007600082815260200190815260200160002060030160009054906101000a900460ff16610c03576040517f08c379a0000000000000000000000000000000000000000000000000000000008152600401610bfa90613029565b60405180910390fd5b60006007600083815260200190815260200160002060030160006101000a81548160ff02191690831515021790555060006008600183610c439190612b67565b81548110610c5457610c53612efa565b5b906000526020600020906004020160030160006101000a81548160ff021916908315150217905550600160096000838152602001908152602001600020805490500361109d57600060646005600260096000868152602001908152602001600020600081548110610cc857610cc7612efa565b5b906000526020600020906006020160020154610ce49190612b25565b610cee9190612b25565b610cf89190613078565b9050600081600260096000868152602001908152602001600020600081548110610d2557610d24612efa565b5b906000526020600020906006020160020154610d419190612b25565b610d4b9190612b67565b9050600060096000858152602001908152602001600020600081548110610d7557610d74612efa565b5b906000526020600020906006020160010160009054906101000a900473ffffffffffffffffffffffffffffffffffffffff1673ffffffffffffffffffffffffffffffffffffffff1682604051610dca906130da565b60006040518083038185875af1925050503d8060008114610e07576040519150601f19603f3d011682016040523d82523d6000602084013e610e0c565b606091505b505090508015610ff4578160096000868152602001908152602001600020600081548110610e3d57610e3c612efa565b5b9060005260206000209060060201600301819055506000600660009054906101000a900473ffffffffffffffffffffffffffffffffffffffff1673ffffffffffffffffffffffffffffffffffffffff1684604051610e9a906130da565b60006040518083038185875af1925050503d8060008114610ed7576040519150601f19603f3d011682016040523d82523d6000602084013e610edc565b606091505b5050905080610eea57600080fd5b7f65edb247950c75beace5afb548418caec939cfa83b1fc60186d09d89cea66ba78560096000888152602001908152602001600020600081548110610f3257610f31612efa565b5b906000526020600020906006020160010160009054906101000a900473ffffffffffffffffffffffffffffffffffffffff1660096000898152602001908152602001600020600081548110610f8a57610f89612efa565b5b906000526020600020906006020160020154600960008a8152602001908152602001600020600081548110610fc257610fc1612efa565b5b90600052602060002090600602016000015487604051610fe69594939291906130ef565b60405180910390a150611099565b6000600660009054906101000a900473ffffffffffffffffffffffffffffffffffffffff1673ffffffffffffffffffffffffffffffffffffffff16838561103b9190612cd0565b604051611047906130da565b60006040518083038185875af1925050503d8060008114611084576040519150601f19603f3d011682016040523d82523d6000602084013e611089565b606091505b505090508061109757600080fd5b505b5050505b60008060006110ab84611269565b9250925092506d0668d4a7a1c3c760d0f48000000081600260009054906101000a900473ffffffffffffffffffffffffffffffffffffffff1673ffffffffffffffffffffffffffffffffffffffff166318160ddd6040518163ffffffff1660e01b8152600401602060405180830381865afa15801561112e573d6000803e3d6000fd5b505050506040513d601f19601f820116820180604052508101906111529190613157565b61115c9190612cd0565b111580156111975750600073ffffffffffffffffffffffffffffffffffffffff168273ffffffffffffffffffffffffffffffffffffffff1614155b1561122c57600260009054906101000a900473ffffffffffffffffffffffffffffffffffffffff1673ffffffffffffffffffffffffffffffffffffffff166340c10f1983836040518363ffffffff1660e01b81526004016111f9929190613184565b600060405180830381600087803b15801561121357600080fd5b505af1158015611227573d6000803e3d6000fd5b505050505b7f74ef25ef6b332a2fbbe7eb8b4108e0fe842a929d34c52a2ea4ca1a0f1524f1078460405161125b9190612448565b60405180910390a150505050565b60008060006001600960008681526020019081526020016000208054905014806112a9575060006009600086815260200190815260200160002080549050145b156112bf576000925060009150600090506113c2565b600060096000868152602001908152602001600020600160096000888152602001908152602001600020805490506112f79190612b67565b8154811061130857611307612efa565b5b90600052602060002090600602016040518060c0016040529081600082015481526020016001820160009054906101000a900473ffffffffffffffffffffffffffffffffffffffff1673ffffffffffffffffffffffffffffffffffffffff1673ffffffffffffffffffffffffffffffffffffffff1681526020016002820154815260200160038201548152602001600482015481526020016005820154815250509050806000015193508060200151925080604001519150505b9193909250565b6113d16121c3565b6113db60006122db565b565b6113e56121c3565b60006003541161142a576040517f08c379a0000000000000000000000000000000000000000000000000000000008152600401611421906131f9565b60405180910390fd5b600081141580156114485750603c6003546114459190613078565b81105b611487576040517f08c379a000000000000000000000000000000000000000000000000000000000815260040161147e9061328b565b60405180910390fd5b603c816114949190612b25565b60058190555050565b6114a56121c3565b600073ffffffffffffffffffffffffffffffffffffffff168173ffffffffffffffffffffffffffffffffffffffff1603611514576040517f08c379a000000000000000000000000000000000000000000000000000000000815260040161150b906132f7565b60405180910390fd5b80600660006101000a81548173ffffffffffffffffffffffffffffffffffffffff021916908373ffffffffffffffffffffffffffffffffffffffff16021790555050565b600061156382612167565b6115a2576040517f08c379a000000000000000000000000000000000000000000000000000000000815260040161159990613363565b60405180910390fd5b60016009600084815260200190815260200160002080549050106116b957600060096000848152602001908152602001600020600160096000868152602001908152602001600020805490506115f89190612b67565b8154811061160957611608612efa565b5b90600052602060002090600602016040518060c0016040529081600082015481526020016001820160009054906101000a900473ffffffffffffffffffffffffffffffffffffffff1673ffffffffffffffffffffffffffffffffffffffff1673ffffffffffffffffffffffffffffffffffffffff168152602001600282015481526020016003820154815260200160048201548152602001600582015481525050905080602001519150506116be565b600090505b919050565b600260015403611708576040517f08c379a00000000000000000000000000000000000000000000000000000000081526004016116ff906133cf565b60405180910390fd5b600260018190555061171981612167565b611758576040517f08c379a000000000000000000000000000000000000000000000000000000000815260040161174f90613363565b60405180910390fd5b6117618161056d565b34146117a2576040517f08c379a00000000000000000000000000000000000000000000000000000000081526004016117999061343b565b60405180910390fd5b60006117ad82611558565b90503373ffffffffffffffffffffffffffffffffffffffff168173ffffffffffffffffffffffffffffffffffffffff160361181d576040517f08c379a0000000000000000000000000000000000000000000000000000000008152600401611814906134cd565b60405180910390fd5b6000600160096000858152602001908152602001600020805490506118429190612cd0565b9050600960008481526020019081526020016000206040518060c001604052808381526020013373ffffffffffffffffffffffffffffffffffffffff168152602001348152602001600081526020018581526020014281525090806001815401808255809150506001900390600052602060002090600602016000909190919091506000820151816000015560208201518160010160006101000a81548173ffffffffffffffffffffffffffffffffffffffff021916908373ffffffffffffffffffffffffffffffffffffffff16021790555060408201518160020155606082015181600301556080820151816004015560a08201518160050155505060055461194b84610630565b111580156119615750600061195f84610630565b115b15611a1a576000600454600760008681526020019081526020016000206002015461198c9190612cd0565b90508060076000868152602001908152602001600020600201819055508060086001866119b99190612b67565b815481106119ca576119c9612efa565b5b9060005260206000209060040201600201819055507fff1bf99918d35d7dd5182e2a06f26aa0b7673c48538bb8ce407af50f4b4ab2ca8482604051611a109291906134ed565b60405180910390a1505b60018114611e7257600060646005600260096000888152602001908152602001600020600286611a4a9190612b67565b81548110611a5b57611a5a612efa565b5b906000526020600020906006020160020154611a779190612b25565b611a819190612b25565b611a8b9190613078565b9050600081600260096000888152602001908152602001600020600286611ab29190612b67565b81548110611ac357611ac2612efa565b5b906000526020600020906006020160020154611adf9190612b25565b611ae99190612b67565b9050600060096000878152602001908152602001600020600285611b0d9190612b67565b81548110611b1e57611b1d612efa565b5b906000526020600020906006020160010160009054906101000a900473ffffffffffffffffffffffffffffffffffffffff1673ffffffffffffffffffffffffffffffffffffffff1682604051611b73906130da565b60006040518083038185875af1925050503d8060008114611bb0576040519150601f19603f3d011682016040523d82523d6000602084013e611bb5565b606091505b505090508015611dc9578160096000888152602001908152602001600020600286611be09190612b67565b81548110611bf157611bf0612efa565b5b9060005260206000209060060201600301819055506000600660009054906101000a900473ffffffffffffffffffffffffffffffffffffffff1673ffffffffffffffffffffffffffffffffffffffff1684604051611c4e906130da565b60006040518083038185875af1925050503d8060008114611c8b576040519150601f19603f3d011682016040523d82523d6000602084013e611c90565b606091505b5050905080611c9e57600080fd5b7f65edb247950c75beace5afb548418caec939cfa83b1fc60186d09d89cea66ba787600960008a8152602001908152602001600020600288611ce09190612b67565b81548110611cf157611cf0612efa565b5b906000526020600020906006020160010160009054906101000a900473ffffffffffffffffffffffffffffffffffffffff16600960008b8152602001908152602001600020600289611d439190612b67565b81548110611d5457611d53612efa565b5b906000526020600020906006020160020154600960008c815260200190815260200160002060028a611d869190612b67565b81548110611d9757611d96612efa565b5b90600052602060002090600602016000015487604051611dbb9594939291906130ef565b60405180910390a150611e6e565b6000600660009054906101000a900473ffffffffffffffffffffffffffffffffffffffff1673ffffffffffffffffffffffffffffffffffffffff168385611e109190612cd0565b604051611e1c906130da565b60006040518083038185875af1925050503d8060008114611e59576040519150601f19603f3d011682016040523d82523d6000602084013e611e5e565b606091505b5050905080611e6c57600080fd5b505b5050505b7f2eaa1bda0a76999046e8def81099978a4164fbfb5f4207619e76c3823f6043678333348442604051611ea99594939291906130ef565b60405180910390a150506001808190555050565b60008060009054906101000a900473ffffffffffffffffffffffffffffffffffffffff16905090565b60008060008060006008805490501115611f7d5760006007600060088054905081526020019081526020016000206040518060800160405290816000820154815260200160018201548152602001600282015481526020016003820160009054906101000a900460ff1615151515815250509050600880549050816020015182604001518360600151945094509450945050611f8c565b60008060008093509350935093505b90919293565b60055481565b600260009054906101000a900473ffffffffffffffffffffffffffffffffffffffff1681565b606060096000838152602001908152602001600020805480602002602001604051908101604052809291908181526020016000905b828210156120ad57838290600052602060002090600602016040518060c0016040529081600082015481526020016001820160009054906101000a900473ffffffffffffffffffffffffffffffffffffffff1673ffffffffffffffffffffffffffffffffffffffff1673ffffffffffffffffffffffffffffffffffffffff16815260200160028201548152602001600382015481526020016004820154815260200160058201548152505081526020019060010190611ff3565b505050509050919050565b600660009054906101000a900473ffffffffffffffffffffffffffffffffffffffff1681565b6120e66121c3565b600073ffffffffffffffffffffffffffffffffffffffff168173ffffffffffffffffffffffffffffffffffffffff1603612155576040517f08c379a000000000000000000000000000000000000000000000000000000000815260040161214c90613588565b60405180910390fd5b61215e816122db565b50565b60035481565b600080426007600085815260200190815260200160002060020154101580156121b057506007600084815260200190815260200160002060030160009054906101000a900460ff165b156121ba57600190505b80915050919050565b6121cb61239f565b73ffffffffffffffffffffffffffffffffffffffff166121e9611ebd565b73ffffffffffffffffffffffffffffffffffffffff161461223f576040517f08c379a0000000000000000000000000000000000000000000000000000000008152600401612236906135f4565b60405180910390fd5b565b60008042600860016008805490506122599190612b67565b8154811061226a57612269612efa565b5b9060005260206000209060040201600201541080156122ca5750600860016008805490506122989190612b67565b815481106122a9576122a8612efa565b5b906000526020600020906004020160030160009054906101000a900460ff16155b156122d457600190505b8091505090565b60008060009054906101000a900473ffffffffffffffffffffffffffffffffffffffff169050816000806101000a81548173ffffffffffffffffffffffffffffffffffffffff021916908373ffffffffffffffffffffffffffffffffffffffff1602179055508173ffffffffffffffffffffffffffffffffffffffff168173ffffffffffffffffffffffffffffffffffffffff167f8be0079c531659141344cd1fd0a4f28419497f9722a3daafe3b4186f6b6457e060405160405180910390a35050565b600033905090565b60405180608001604052806000815260200160008152602001600081526020016000151581525090565b600080fd5b6000819050919050565b6123e9816123d6565b81146123f457600080fd5b50565b600081359050612406816123e0565b92915050565b600060208284031215612422576124216123d1565b5b6000612430848285016123f7565b91505092915050565b612442816123d6565b82525050565b600060208201905061245d6000830184612439565b92915050565b61246c816123d6565b82525050565b60008115159050919050565b61248781612472565b82525050565b6080820160008201516124a36000850182612463565b5060208201516124b66020850182612463565b5060408201516124c96040850182612463565b5060608201516124dc606085018261247e565b50505050565b60006080820190506124f7600083018461248d565b92915050565b60008060408385031215612514576125136123d1565b5b6000612522858286016123f7565b9250506020612533858286016123f7565b9150509250929050565b600081519050919050565b600082825260208201905092915050565b6000819050602082019050919050565b60808201600082015161257f6000850182612463565b5060208201516125926020850182612463565b5060408201516125a56040850182612463565b5060608201516125b8606085018261247e565b50505050565b60006125ca8383612569565b60808301905092915050565b6000602082019050919050565b60006125ee8261253d565b6125f88185612548565b935061260383612559565b8060005b8381101561263457815161261b88826125be565b9750612626836125d6565b925050600181019050612607565b5085935050505092915050565b6000602082019050818103600083015261265b81846125e3565b905092915050565b600073ffffffffffffffffffffffffffffffffffffffff82169050919050565b600061268e82612663565b9050919050565b61269e81612683565b82525050565b60006060820190506126b96000830186612439565b6126c66020830185612695565b6126d36040830184612439565b949350505050565b6126e481612683565b81146126ef57600080fd5b50565b600081359050612701816126db565b92915050565b60006020828403121561271d5761271c6123d1565b5b600061272b848285016126f2565b91505092915050565b60006020820190506127496000830184612695565b92915050565b61275881612472565b82525050565b60006080820190506127736000830187612439565b6127806020830186612439565b61278d6040830185612439565b61279a606083018461274f565b95945050505050565b6000819050919050565b60006127c86127c36127be84612663565b6127a3565b612663565b9050919050565b60006127da826127ad565b9050919050565b60006127ec826127cf565b9050919050565b6127fc816127e1565b82525050565b600060208201905061281760008301846127f3565b92915050565b600081519050919050565b600082825260208201905092915050565b6000819050602082019050919050565b61285281612683565b82525050565b60c08201600082015161286e6000850182612463565b5060208201516128816020850182612849565b5060408201516128946040850182612463565b5060608201516128a76060850182612463565b5060808201516128ba6080850182612463565b5060a08201516128cd60a0850182612463565b50505050565b60006128df8383612858565b60c08301905092915050565b6000602082019050919050565b60006129038261281d565b61290d8185612828565b935061291883612839565b8060005b8381101561294957815161293088826128d3565b975061293b836128eb565b92505060018101905061291c565b5085935050505092915050565b6000602082019050818103600083015261297081846128f8565b905092915050565b7f4e487b7100000000000000000000000000000000000000000000000000000000600052601160045260246000fd5b60008160011c9050919050565b6000808291508390505b60018511156129fe578086048111156129da576129d9612978565b5b60018516156129e95780820291505b80810290506129f7856129a7565b94506129be565b94509492505050565b600082612a175760019050612ad3565b81612a255760009050612ad3565b8160018114612a3b5760028114612a4557612a74565b6001915050612ad3565b60ff841115612a5757612a56612978565b5b8360020a915084821115612a6e57612a6d612978565b5b50612ad3565b5060208310610133831016604e8410600b8410161715612aa95782820a905083811115612aa457612aa3612978565b5b612ad3565b612ab684848460016129b4565b92509050818404811115612acd57612acc612978565b5b81810290505b9392505050565b6000612ae5826123d6565b9150612af0836123d6565b9250612b1d7fffffffffffffffffffffffffffffffffffffffffffffffffffffffffffffffff8484612a07565b905092915050565b6000612b30826123d6565b9150612b3b836123d6565b9250828202612b49816123d6565b91508282048414831517612b6057612b5f612978565b5b5092915050565b6000612b72826123d6565b9150612b7d836123d6565b9250828203905081811115612b9557612b94612978565b5b92915050565b600082825260208201905092915050565b7f526f756e64206475726174696f6e206f72206578747261206475726174696f6e60008201527f2020617265206e6f74207365742e000000000000000000000000000000000000602082015250565b6000612c08602e83612b9b565b9150612c1382612bac565b604082019050919050565b60006020820190508181036000830152612c3781612bfb565b9050919050565b7f4d696e696d756d20636f6e74726163742062616c616e63652073686f756c642060008201527f626520312074504c530000000000000000000000000000000000000000000000602082015250565b6000612c9a602983612b9b565b9150612ca582612c3e565b604082019050919050565b60006020820190508181036000830152612cc981612c8d565b9050919050565b6000612cdb826123d6565b9150612ce6836123d6565b9250828201905080821115612cfe57612cfd612978565b5b92915050565b7f50726576696f757320726f756e64206973206e6f742066696e6973686564207960008201527f6574000000000000000000000000000000000000000000000000000000000000602082015250565b6000612d60602283612b9b565b9150612d6b82612d04565b604082019050919050565b60006020820190508181036000830152612d8f81612d53565b9050919050565b6000606082019050612dab6000830186612439565b612db86020830185612439565b612dc56040830184612439565b949350505050565b7f4475726174696f6e2073686f756c642062652067726561746572207468616e2060008201527f3000000000000000000000000000000000000000000000000000000000000000602082015250565b6000612e29602183612b9b565b9150612e3482612dcd565b604082019050919050565b60006020820190508181036000830152612e5881612e1c565b9050919050565b7f496e76616c69642072616e676500000000000000000000000000000000000000600082015250565b6000612e95600d83612b9b565b9150612ea082612e5f565b602082019050919050565b60006020820190508181036000830152612ec481612e88565b9050919050565b7f4e487b7100000000000000000000000000000000000000000000000000000000600052604160045260246000fd5b7f4e487b7100000000000000000000000000000000000000000000000000000000600052603260045260246000fd5b6000612f34826123d6565b91507fffffffffffffffffffffffffffffffffffffffffffffffffffffffffffffffff8203612f6657612f65612978565b5b600182019050919050565b7f526f756e6420697320206c697665000000000000000000000000000000000000600082015250565b6000612fa7600e83612b9b565b9150612fb282612f71565b602082019050919050565b60006020820190508181036000830152612fd681612f9a565b9050919050565b7f526f756e6420616c72656164792066696e697368656400000000000000000000600082015250565b6000613013601683612b9b565b915061301e82612fdd565b602082019050919050565b6000602082019050818103600083015261304281613006565b9050919050565b7f4e487b7100000000000000000000000000000000000000000000000000000000600052601260045260246000fd5b6000613083826123d6565b915061308e836123d6565b92508261309e5761309d613049565b5b828204905092915050565b600081905092915050565b50565b60006130c46000836130a9565b91506130cf826130b4565b600082019050919050565b60006130e5826130b7565b9150819050919050565b600060a0820190506131046000830188612439565b6131116020830187612695565b61311e6040830186612439565b61312b6060830185612439565b6131386080830184612439565b9695505050505050565b600081519050613151816123e0565b92915050565b60006020828403121561316d5761316c6123d1565b5b600061317b84828501613142565b91505092915050565b60006040820190506131996000830185612695565b6131a66020830184612439565b9392505050565b7f53657420726f756e64206475726174696f6e2066697273740000000000000000600082015250565b60006131e3601883612b9b565b91506131ee826131ad565b602082019050919050565b60006020820190508181036000830152613212816131d6565b9050919050565b7f4475726174696f6e2073686f756c642062652067726561746572207468616e2060008201527f3020616e6420726f756e644475726174696f6e00000000000000000000000000602082015250565b6000613275603383612b9b565b915061328082613219565b604082019050919050565b600060208201905081810360008301526132a481613268565b9050919050565b7f5a65726f2061646472657373206e6f7420616c6c6f7765640000000000000000600082015250565b60006132e1601883612b9b565b91506132ec826132ab565b602082019050919050565b60006020820190508181036000830152613310816132d4565b9050919050565b7f526f756e64206973206e6f74206c697665000000000000000000000000000000600082015250565b600061334d601183612b9b565b915061335882613317565b602082019050919050565b6000602082019050818103600083015261337c81613340565b9050919050565b7f5265656e7472616e637947756172643a207265656e7472616e742063616c6c00600082015250565b60006133b9601f83612b9b565b91506133c482613383565b602082019050919050565b600060208201905081810360008301526133e8816133ac565b9050919050565b7f496e636f727265637420696e76657374656420616d6f756e7400000000000000600082015250565b6000613425601983612b9b565b9150613430826133ef565b602082019050919050565b6000602082019050818103600083015261345481613418565b9050919050565b7f596f752063616e6e6f74206465706f73697420616761696e20756e74696c207460008201527f686572652069732061206e657720706c65620000000000000000000000000000602082015250565b60006134b7603283612b9b565b91506134c28261345b565b604082019050919050565b600060208201905081810360008301526134e6816134aa565b9050919050565b60006040820190506135026000830185612439565b61350f6020830184612439565b9392505050565b7f4f776e61626c653a206e6577206f776e657220697320746865207a65726f206160008201527f6464726573730000000000000000000000000000000000000000000000000000602082015250565b6000613572602683612b9b565b915061357d82613516565b604082019050919050565b600060208201905081810360008301526135a181613565565b9050919050565b7f4f776e61626c653a2063616c6c6572206973206e6f7420746865206f776e6572600082015250565b60006135de602083612b9b565b91506135e9826135a8565b602082019050919050565b6000602082019050818103600083015261360d816135d1565b905091905056fea2646970667358221220e01df1864f11722d52f39512151e3d85090d21292bcadc65b9c643f953652e2364736f6c63430008110033",
  "linkReferences": {},
  "deployedLinkReferences": {}
}