{
  "_format": "hh-sol-artifact-1",
  "contractName": "PlebToHill",
  "sourceName": "contracts/PlebToHill.sol",
  "abi": [
    {
      "inputs": [
        {
          "internalType": "address",
          "name": "_plebToken",
          "type": "address"
        }
      ],
      "stateMutability": "nonpayable",
      "type": "constructor"
    },
    {
      "anonymous": false,
      "inputs": [
        {
          "indexed": true,
          "internalType": "address",
          "name": "previousOwner",
          "type": "address"
        },
        {
          "indexed": true,
          "internalType": "address",
          "name": "newOwner",
          "type": "address"
        }
      ],
      "name": "OwnershipTransferred",
      "type": "event"
    },
    {
      "anonymous": false,
      "inputs": [
        {
          "indexed": false,
          "internalType": "uint256",
          "name": "roundId",
          "type": "uint256"
        },
        {
          "indexed": false,
          "internalType": "address",
          "name": "walletAddress",
          "type": "address"
        },
        {
          "indexed": false,
          "internalType": "uint256",
          "name": "invested_amount",
          "type": "uint256"
        },
        {
          "indexed": false,
          "internalType": "uint256",
          "name": "participantId",
          "type": "uint256"
        },
        {
          "indexed": false,
          "internalType": "uint256",
          "name": "time",
          "type": "uint256"
        }
      ],
      "name": "ParticipantAdded",
      "type": "event"
    },
    {
      "anonymous": false,
      "inputs": [
        {
          "indexed": false,
          "internalType": "uint256",
          "name": "roundId",
          "type": "uint256"
        },
        {
          "indexed": false,
          "internalType": "uint256",
          "name": "startTime",
          "type": "uint256"
        },
        {
          "indexed": false,
          "internalType": "uint256",
          "name": "endTime",
          "type": "uint256"
        }
      ],
      "name": "RoundCreated",
      "type": "event"
    },
    {
      "anonymous": false,
      "inputs": [
        {
          "indexed": false,
          "internalType": "uint256",
          "name": "roundId",
          "type": "uint256"
        }
      ],
      "name": "RoundFinished",
      "type": "event"
    },
    {
      "anonymous": false,
      "inputs": [
        {
          "indexed": false,
          "internalType": "uint256",
          "name": "roundId",
          "type": "uint256"
        },
        {
          "indexed": false,
          "internalType": "uint256",
          "name": "endTime",
          "type": "uint256"
        }
      ],
      "name": "TimeReset",
      "type": "event"
    },
    {
      "anonymous": false,
      "inputs": [
        {
          "indexed": false,
          "internalType": "uint256",
          "name": "roundId",
          "type": "uint256"
        },
        {
          "indexed": false,
          "internalType": "address",
          "name": "walletAddress",
          "type": "address"
        },
        {
          "indexed": false,
          "internalType": "uint256",
          "name": "invested_amount",
          "type": "uint256"
        },
        {
          "indexed": false,
          "internalType": "uint256",
          "name": "participantId",
          "type": "uint256"
        },
        {
          "indexed": false,
          "internalType": "uint256",
          "name": "winnings",
          "type": "uint256"
        }
      ],
      "name": "WinningTransfered",
      "type": "event"
    },
    {
      "inputs": [
        {
          "internalType": "uint256",
          "name": "roundId",
          "type": "uint256"
        }
      ],
      "name": "addParticipant",
      "outputs": [],
      "stateMutability": "payable",
      "type": "function"
    },
    {
      "inputs": [],
      "name": "createRound",
      "outputs": [],
      "stateMutability": "nonpayable",
      "type": "function"
    },
    {
      "inputs": [
        {
          "internalType": "uint256",
          "name": "roundId",
          "type": "uint256"
        }
      ],
      "name": "endRound",
      "outputs": [],
      "stateMutability": "nonpayable",
      "type": "function"
    },
    {
      "inputs": [],
      "name": "extraDuration",
      "outputs": [
        {
          "internalType": "uint256",
          "name": "",
          "type": "uint256"
        }
      ],
      "stateMutability": "view",
      "type": "function"
    },
    {
      "inputs": [
        {
          "internalType": "uint256",
          "name": "roundId",
          "type": "uint256"
        }
      ],
      "name": "getAllParticipantOfRound",
      "outputs": [
        {
          "components": [
            {
              "internalType": "uint256",
              "name": "participantId",
              "type": "uint256"
            },
            {
              "internalType": "address",
              "name": "walletAddress",
              "type": "address"
            },
            {
              "internalType": "uint256",
              "name": "invested_amount",
              "type": "uint256"
            },
            {
              "internalType": "uint256",
              "name": "winnings",
              "type": "uint256"
            },
            {
              "internalType": "uint256",
              "name": "roundId",
              "type": "uint256"
            },
            {
              "internalType": "uint256",
              "name": "time",
              "type": "uint256"
            }
          ],
          "internalType": "struct PlebToHill.Participant[]",
          "name": "",
          "type": "tuple[]"
        }
      ],
      "stateMutability": "view",
      "type": "function"
    },
    {
      "inputs": [
        {
          "internalType": "uint256",
          "name": "start",
          "type": "uint256"
        },
        {
          "internalType": "uint256",
          "name": "end",
          "type": "uint256"
        }
      ],
      "name": "getAllRounds",
      "outputs": [
        {
          "components": [
            {
              "internalType": "uint256",
              "name": "roundId",
              "type": "uint256"
            },
            {
              "internalType": "uint256",
              "name": "startTime",
              "type": "uint256"
            },
            {
              "internalType": "uint256",
              "name": "endTime",
              "type": "uint256"
            },
            {
              "internalType": "bool",
              "name": "isLive",
              "type": "bool"
            }
          ],
          "internalType": "struct PlebToHill.Round[]",
          "name": "",
          "type": "tuple[]"
        }
      ],
      "stateMutability": "view",
      "type": "function"
    },
    {
      "inputs": [],
      "name": "getCurrentLiveRound",
      "outputs": [
        {
          "internalType": "uint256",
          "name": "roundId",
          "type": "uint256"
        },
        {
          "internalType": "uint256",
          "name": "startTime",
          "type": "uint256"
        },
        {
          "internalType": "uint256",
          "name": "endTime",
          "type": "uint256"
        },
        {
          "internalType": "bool",
          "name": "isLive",
          "type": "bool"
        }
      ],
      "stateMutability": "view",
      "type": "function"
    },
    {
      "inputs": [
        {
          "internalType": "uint256",
          "name": "roundId",
          "type": "uint256"
        }
      ],
      "name": "getCurrentPleb",
      "outputs": [
        {
          "internalType": "address",
          "name": "wallet",
          "type": "address"
        }
      ],
      "stateMutability": "view",
      "type": "function"
    },
    {
      "inputs": [
        {
          "internalType": "uint256",
          "name": "roundId",
          "type": "uint256"
        }
      ],
      "name": "getLoserData",
      "outputs": [
        {
          "internalType": "uint256",
          "name": "id",
          "type": "uint256"
        },
        {
          "internalType": "address",
          "name": "wallet",
          "type": "address"
        },
        {
          "internalType": "uint256",
          "name": "amount_lose",
          "type": "uint256"
        }
      ],
      "stateMutability": "view",
      "type": "function"
    },
    {
      "inputs": [
        {
          "internalType": "uint256",
          "name": "roundId",
          "type": "uint256"
        }
      ],
      "name": "getRemainingTime",
      "outputs": [
        {
          "internalType": "uint256",
          "name": "",
          "type": "uint256"
        }
      ],
      "stateMutability": "view",
      "type": "function"
    },
    {
      "inputs": [
        {
          "internalType": "uint256",
          "name": "roundId",
          "type": "uint256"
        }
      ],
      "name": "getRoundData",
      "outputs": [
        {
          "components": [
            {
              "internalType": "uint256",
              "name": "roundId",
              "type": "uint256"
            },
            {
              "internalType": "uint256",
              "name": "startTime",
              "type": "uint256"
            },
            {
              "internalType": "uint256",
              "name": "endTime",
              "type": "uint256"
            },
            {
              "internalType": "bool",
              "name": "isLive",
              "type": "bool"
            }
          ],
          "internalType": "struct PlebToHill.Round",
          "name": "",
          "type": "tuple"
        }
      ],
      "stateMutability": "view",
      "type": "function"
    },
    {
      "inputs": [
        {
          "internalType": "uint256",
          "name": "roundId",
          "type": "uint256"
        }
      ],
      "name": "getValueForNextParticipant",
      "outputs": [
        {
          "internalType": "uint256",
          "name": "",
          "type": "uint256"
        }
      ],
      "stateMutability": "view",
      "type": "function"
    },
    {
      "inputs": [],
      "name": "owner",
      "outputs": [
        {
          "internalType": "address",
          "name": "",
          "type": "address"
        }
      ],
      "stateMutability": "view",
      "type": "function"
    },
    {
      "inputs": [],
      "name": "plebToken",
      "outputs": [
        {
          "internalType": "contract PlebTokens",
          "name": "",
          "type": "address"
        }
      ],
      "stateMutability": "view",
      "type": "function"
    },
    {
      "inputs": [],
      "name": "poth_address",
      "outputs": [
        {
          "internalType": "address",
          "name": "",
          "type": "address"
        }
      ],
      "stateMutability": "view",
      "type": "function"
    },
    {
      "inputs": [],
      "name": "renounceOwnership",
      "outputs": [],
      "stateMutability": "nonpayable",
      "type": "function"
    },
    {
      "inputs": [],
      "name": "roundDuration",
      "outputs": [
        {
          "internalType": "uint256",
          "name": "",
          "type": "uint256"
        }
      ],
      "stateMutability": "view",
      "type": "function"
    },
    {
      "inputs": [
        {
          "internalType": "uint256",
          "name": "_extraDurationInMinutes",
          "type": "uint256"
        }
      ],
      "name": "setExtraDuration",
      "outputs": [],
      "stateMutability": "nonpayable",
      "type": "function"
    },
    {
      "inputs": [
        {
          "internalType": "address",
          "name": "_pothwallet",
          "type": "address"
        }
      ],
      "name": "setPothWallet",
      "outputs": [],
      "stateMutability": "nonpayable",
      "type": "function"
    },
    {
      "inputs": [
        {
          "internalType": "uint256",
          "name": "_roundDurationInMinutes",
          "type": "uint256"
        }
      ],
      "name": "setRoundDuration",
      "outputs": [],
      "stateMutability": "nonpayable",
      "type": "function"
    },
    {
      "inputs": [
        {
          "internalType": "uint256",
          "name": "_thresholdTime",
          "type": "uint256"
        }
      ],
      "name": "setThresoldTime",
      "outputs": [],
      "stateMutability": "nonpayable",
      "type": "function"
    },
    {
      "inputs": [],
      "name": "thresholdTime",
      "outputs": [
        {
          "internalType": "uint256",
          "name": "",
          "type": "uint256"
        }
      ],
      "stateMutability": "view",
      "type": "function"
    },
    {
      "inputs": [
        {
          "internalType": "address",
          "name": "newOwner",
          "type": "address"
        }
      ],
      "name": "transferOwnership",
      "outputs": [],
      "stateMutability": "nonpayable",
      "type": "function"
    },
    {
      "stateMutability": "payable",
      "type": "receive"
    }
  ],
  "bytecode": "0x60806040523480156200001157600080fd5b506040516200382d3803806200382d8339818101604052810190620000379190620001dc565b620000576200004b620000a660201b60201c565b620000ae60201b60201c565b6001808190555080600260006101000a81548173ffffffffffffffffffffffffffffffffffffffff021916908373ffffffffffffffffffffffffffffffffffffffff160217905550506200020e565b600033905090565b60008060009054906101000a900473ffffffffffffffffffffffffffffffffffffffff169050816000806101000a81548173ffffffffffffffffffffffffffffffffffffffff021916908373ffffffffffffffffffffffffffffffffffffffff1602179055508173ffffffffffffffffffffffffffffffffffffffff168173ffffffffffffffffffffffffffffffffffffffff167f8be0079c531659141344cd1fd0a4f28419497f9722a3daafe3b4186f6b6457e060405160405180910390a35050565b600080fd5b600073ffffffffffffffffffffffffffffffffffffffff82169050919050565b6000620001a48262000177565b9050919050565b620001b68162000197565b8114620001c257600080fd5b50565b600081519050620001d681620001ab565b92915050565b600060208284031215620001f557620001f462000172565b5b60006200020584828501620001c5565b91505092915050565b61360f806200021e6000396000f3fe6080604052600436106101445760003560e01c80637cb5de7c116100b65780639930f8761161006f5780639930f8761461045b578063a1e7730014610486578063dade4b64146104b1578063e2b630c2146104ee578063f2fde38b14610519578063f7cb789a146105425761014b565b80637cb5de7c146103575780637ecb177b1461038057806384065059146103a95780638acaf7a8146103e65780638da5cb5b14610402578063928554f91461042d5761014b565b806336c92c3f1161010857806336c92c3f14610247578063437b6065146102705780634781ca76146102ad5780635a1e6ca1146102d8578063606e484114610301578063715018a6146103405761014b565b806303861ba6146101505780630720da521461018d578063181e0124146101ca5780631b411fc8146102075780632c4dbed21461021e5761014b565b3661014b57005b600080fd5b34801561015c57600080fd5b50610177600480360381019061017291906123d1565b61056d565b604051610184919061240d565b60405180910390f35b34801561019957600080fd5b506101b460048036038101906101af91906123d1565b6105ca565b6040516101c191906124a7565b60405180910390f35b3480156101d657600080fd5b506101f160048036038101906101ec91906123d1565b610630565b6040516101fe919061240d565b60405180910390f35b34801561021357600080fd5b5061021c61066d565b005b34801561022a57600080fd5b50610245600480360381019061024091906123d1565b610907565b005b34801561025357600080fd5b5061026e600480360381019061026991906123d1565b610968565b005b34801561027c57600080fd5b50610297600480360381019061029291906124c2565b6109c9565b6040516102a49190612606565b60405180910390f35b3480156102b957600080fd5b506102c2610b49565b6040516102cf919061240d565b60405180910390f35b3480156102e457600080fd5b506102ff60048036038101906102fa91906123d1565b610b4f565b005b34801561030d57600080fd5b50610328600480360381019061032391906123d1565b61122e565b60405161033793929190612669565b60405180910390f35b34801561034c57600080fd5b5061035561138e565b005b34801561036357600080fd5b5061037e600480360381019061037991906123d1565b6113a2565b005b34801561038c57600080fd5b506103a760048036038101906103a291906126cc565b611462565b005b3480156103b557600080fd5b506103d060048036038101906103cb91906123d1565b61151d565b6040516103dd91906126f9565b60405180910390f35b61040060048036038101906103fb91906123d1565b611688565b005b34801561040e57600080fd5b50610417611e82565b60405161042491906126f9565b60405180910390f35b34801561043957600080fd5b50610442611eab565b6040516104529493929190612723565b60405180910390f35b34801561046757600080fd5b50610470611f57565b60405161047d919061240d565b60405180910390f35b34801561049257600080fd5b5061049b611f5d565b6040516104a891906127c7565b60405180910390f35b3480156104bd57600080fd5b506104d860048036038101906104d391906123d1565b611f83565b6040516104e5919061291b565b60405180910390f35b3480156104fa57600080fd5b5061050361207d565b60405161051091906126f9565b60405180910390f35b34801561052557600080fd5b50610540600480360381019061053b91906126cc565b6120a3565b005b34801561054e57600080fd5b50610557612126565b604051610564919061240d565b60405180910390f35b60006105788261212c565b156105c057600060096000848152602001908152602001600020805490509050670de0b6b3a76400008160026105ae9190612a9f565b6105b89190612aea565b9150506105c5565b600090505b919050565b6105d261236c565b600760008381526020019081526020016000206040518060800160405290816000820154815260200160018201548152602001600282015481526020016003820160009054906101000a900460ff1615151515815250509050919050565b60008061063c836105ca565b905080604001514210156106625742816040015161065a9190612b2c565b915050610668565b60009150505b919050565b610675612188565b600060035411801561068957506000600454115b801561069757506000600554115b6106d6576040517f08c379a00000000000000000000000000000000000000000000000000000000081526004016106cd90612be3565b60405180910390fd5b670de0b6b3a7640000471015610721576040517f08c379a000000000000000000000000000000000000000000000000000000000815260040161071890612c75565b60405180910390fd5b600060016008805490506107359190612c95565b90506000600880549050111561078d5761074d612206565b61078c576040517f08c379a000000000000000000000000000000000000000000000000000000000815260040161078390612d3b565b60405180910390fd5b5b6040518060800160405280828152602001428152602001600354426107b29190612c95565b8152602001600115158152506007600083815260200190815260200160002060008201518160000155602082015181600101556040820151816002015560608201518160030160006101000a81548160ff02191690831515021790555090505060086007600083815260200190815260200160002090806001815401808255809150506001900390600052602060002090600402016000909190919091506000820154816000015560018201548160010155600282015481600201556003820160009054906101000a900460ff168160030160006101000a81548160ff02191690831515021790555050507f68e7b09ec44e876e76ff05157850e3261aa63a8680fe21a2ba93dcbb2b09f58f81600760008481526020019081526020016000206001015460076000858152602001908152602001600020600201546040516108fc93929190612d5b565b60405180910390a150565b61090f612188565b60008103610952576040517f08c379a000000000000000000000000000000000000000000000000000000000815260040161094990612e04565b60405180910390fd5b603c8161095f9190612aea565b60048190555050565b610970612188565b600081036109b3576040517f08c379a00000000000000000000000000000000000000000000000000000000081526004016109aa90612e04565b60405180910390fd5b603c816109c09190612aea565b60038190555050565b60606008805490508210610a12576040517f08c379a0000000000000000000000000000000000000000000000000000000008152600401610a0990612e70565b60405180910390fd5b600060018484610a229190612b2c565b610a2c9190612c95565b67ffffffffffffffff811115610a4557610a44612e90565b5b604051908082528060200260200182016040528015610a7e57816020015b610a6b61236c565b815260200190600190039081610a635790505b50905060005b8484610a909190612b2c565b8111610b3e57600060088683610aa69190612c95565b81548110610ab757610ab6612ebf565b5b90600052602060002090600402016040518060800160405290816000820154815260200160018201548152602001600282015481526020016003820160009054906101000a900460ff161515151581525050905080838381518110610b1f57610b1e612ebf565b5b6020026020010181905250508080610b3690612eee565b915050610a84565b508091505092915050565b60045481565b610b57612188565b610b608161212c565b15610ba0576040517f08c379a0000000000000000000000000000000000000000000000000000000008152600401610b9790612f82565b60405180910390fd5b6007600082815260200190815260200160002060030160009054906101000a900460ff16610c03576040517f08c379a0000000000000000000000000000000000000000000000000000000008152600401610bfa90612fee565b60405180910390fd5b60006007600083815260200190815260200160002060030160006101000a81548160ff02191690831515021790555060006008600183610c439190612b2c565b81548110610c5457610c53612ebf565b5b906000526020600020906004020160030160006101000a81548160ff021916908315150217905550600160096000838152602001908152602001600020805490500361109d57600060646005600260096000868152602001908152602001600020600081548110610cc857610cc7612ebf565b5b906000526020600020906006020160020154610ce49190612aea565b610cee9190612aea565b610cf8919061303d565b9050600081600260096000868152602001908152602001600020600081548110610d2557610d24612ebf565b5b906000526020600020906006020160020154610d419190612aea565b610d4b9190612b2c565b9050600060096000858152602001908152602001600020600081548110610d7557610d74612ebf565b5b906000526020600020906006020160010160009054906101000a900473ffffffffffffffffffffffffffffffffffffffff1673ffffffffffffffffffffffffffffffffffffffff1682604051610dca9061309f565b60006040518083038185875af1925050503d8060008114610e07576040519150601f19603f3d011682016040523d82523d6000602084013e610e0c565b606091505b505090508015610ff4578160096000868152602001908152602001600020600081548110610e3d57610e3c612ebf565b5b9060005260206000209060060201600301819055506000600660009054906101000a900473ffffffffffffffffffffffffffffffffffffffff1673ffffffffffffffffffffffffffffffffffffffff1684604051610e9a9061309f565b60006040518083038185875af1925050503d8060008114610ed7576040519150601f19603f3d011682016040523d82523d6000602084013e610edc565b606091505b5050905080610eea57600080fd5b7f65edb247950c75beace5afb548418caec939cfa83b1fc60186d09d89cea66ba78560096000888152602001908152602001600020600081548110610f3257610f31612ebf565b5b906000526020600020906006020160010160009054906101000a900473ffffffffffffffffffffffffffffffffffffffff1660096000898152602001908152602001600020600081548110610f8a57610f89612ebf565b5b906000526020600020906006020160020154600960008a8152602001908152602001600020600081548110610fc257610fc1612ebf565b5b90600052602060002090600602016000015487604051610fe69594939291906130b4565b60405180910390a150611099565b6000600660009054906101000a900473ffffffffffffffffffffffffffffffffffffffff1673ffffffffffffffffffffffffffffffffffffffff16838561103b9190612c95565b6040516110479061309f565b60006040518083038185875af1925050503d8060008114611084576040519150601f19603f3d011682016040523d82523d6000602084013e611089565b606091505b505090508061109757600080fd5b505b5050505b60008060006110ab8461122e565b9250925092506d0668d4a7a1c3c760d0f48000000081600260009054906101000a900473ffffffffffffffffffffffffffffffffffffffff1673ffffffffffffffffffffffffffffffffffffffff16633b346be36040518163ffffffff1660e01b8152600401602060405180830381865afa15801561112e573d6000803e3d6000fd5b505050506040513d601f19601f82011682018060405250810190611152919061311c565b61115c9190612c95565b116111f157600260009054906101000a900473ffffffffffffffffffffffffffffffffffffffff1673ffffffffffffffffffffffffffffffffffffffff166340c10f1983836040518363ffffffff1660e01b81526004016111be929190613149565b600060405180830381600087803b1580156111d857600080fd5b505af11580156111ec573d6000803e3d6000fd5b505050505b7f74ef25ef6b332a2fbbe7eb8b4108e0fe842a929d34c52a2ea4ca1a0f1524f10784604051611220919061240d565b60405180910390a150505050565b600080600060016009600086815260200190815260200160002080549050148061126e575060006009600086815260200190815260200160002080549050145b1561128457600092506000915060009050611387565b600060096000868152602001908152602001600020600160096000888152602001908152602001600020805490506112bc9190612b2c565b815481106112cd576112cc612ebf565b5b90600052602060002090600602016040518060c0016040529081600082015481526020016001820160009054906101000a900473ffffffffffffffffffffffffffffffffffffffff1673ffffffffffffffffffffffffffffffffffffffff1673ffffffffffffffffffffffffffffffffffffffff1681526020016002820154815260200160038201548152602001600482015481526020016005820154815250509050806000015193508060200151925080604001519150505b9193909250565b611396612188565b6113a060006122a0565b565b6113aa612188565b6000600354116113ef576040517f08c379a00000000000000000000000000000000000000000000000000000000081526004016113e6906131be565b60405180910390fd5b6000811415801561140d5750603c60035461140a919061303d565b81105b61144c576040517f08c379a000000000000000000000000000000000000000000000000000000000815260040161144390613250565b60405180910390fd5b603c816114599190612aea565b60058190555050565b61146a612188565b600073ffffffffffffffffffffffffffffffffffffffff168173ffffffffffffffffffffffffffffffffffffffff16036114d9576040517f08c379a00000000000000000000000000000000000000000000000000000000081526004016114d0906132bc565b60405180910390fd5b80600660006101000a81548173ffffffffffffffffffffffffffffffffffffffff021916908373ffffffffffffffffffffffffffffffffffffffff16021790555050565b60006115288261212c565b611567576040517f08c379a000000000000000000000000000000000000000000000000000000000815260040161155e90613328565b60405180910390fd5b600160096000848152602001908152602001600020805490501061167e57600060096000848152602001908152602001600020600160096000868152602001908152602001600020805490506115bd9190612b2c565b815481106115ce576115cd612ebf565b5b90600052602060002090600602016040518060c0016040529081600082015481526020016001820160009054906101000a900473ffffffffffffffffffffffffffffffffffffffff1673ffffffffffffffffffffffffffffffffffffffff1673ffffffffffffffffffffffffffffffffffffffff16815260200160028201548152602001600382015481526020016004820154815260200160058201548152505090508060200151915050611683565b600090505b919050565b6002600154036116cd576040517f08c379a00000000000000000000000000000000000000000000000000000000081526004016116c490613394565b60405180910390fd5b60026001819055506116de8161212c565b61171d576040517f08c379a000000000000000000000000000000000000000000000000000000000815260040161171490613328565b60405180910390fd5b6117268161056d565b3414611767576040517f08c379a000000000000000000000000000000000000000000000000000000000815260040161175e90613400565b60405180910390fd5b60006117728261151d565b90503373ffffffffffffffffffffffffffffffffffffffff168173ffffffffffffffffffffffffffffffffffffffff16036117e2576040517f08c379a00000000000000000000000000000000000000000000000000000000081526004016117d990613492565b60405180910390fd5b6000600160096000858152602001908152602001600020805490506118079190612c95565b9050600960008481526020019081526020016000206040518060c001604052808381526020013373ffffffffffffffffffffffffffffffffffffffff168152602001348152602001600081526020018581526020014281525090806001815401808255809150506001900390600052602060002090600602016000909190919091506000820151816000015560208201518160010160006101000a81548173ffffffffffffffffffffffffffffffffffffffff021916908373ffffffffffffffffffffffffffffffffffffffff16021790555060408201518160020155606082015181600301556080820151816004015560a08201518160050155505060055461191084610630565b111580156119265750600061192484610630565b115b156119df57600060045460076000868152602001908152602001600020600201546119519190612c95565b905080600760008681526020019081526020016000206002018190555080600860018661197e9190612b2c565b8154811061198f5761198e612ebf565b5b9060005260206000209060040201600201819055507fff1bf99918d35d7dd5182e2a06f26aa0b7673c48538bb8ce407af50f4b4ab2ca84826040516119d59291906134b2565b60405180910390a1505b60018114611e3757600060646005600260096000888152602001908152602001600020600286611a0f9190612b2c565b81548110611a2057611a1f612ebf565b5b906000526020600020906006020160020154611a3c9190612aea565b611a469190612aea565b611a50919061303d565b9050600081600260096000888152602001908152602001600020600286611a779190612b2c565b81548110611a8857611a87612ebf565b5b906000526020600020906006020160020154611aa49190612aea565b611aae9190612b2c565b9050600060096000878152602001908152602001600020600285611ad29190612b2c565b81548110611ae357611ae2612ebf565b5b906000526020600020906006020160010160009054906101000a900473ffffffffffffffffffffffffffffffffffffffff1673ffffffffffffffffffffffffffffffffffffffff1682604051611b389061309f565b60006040518083038185875af1925050503d8060008114611b75576040519150601f19603f3d011682016040523d82523d6000602084013e611b7a565b606091505b505090508015611d8e578160096000888152602001908152602001600020600286611ba59190612b2c565b81548110611bb657611bb5612ebf565b5b9060005260206000209060060201600301819055506000600660009054906101000a900473ffffffffffffffffffffffffffffffffffffffff1673ffffffffffffffffffffffffffffffffffffffff1684604051611c139061309f565b60006040518083038185875af1925050503d8060008114611c50576040519150601f19603f3d011682016040523d82523d6000602084013e611c55565b606091505b5050905080611c6357600080fd5b7f65edb247950c75beace5afb548418caec939cfa83b1fc60186d09d89cea66ba787600960008a8152602001908152602001600020600288611ca59190612b2c565b81548110611cb657611cb5612ebf565b5b906000526020600020906006020160010160009054906101000a900473ffffffffffffffffffffffffffffffffffffffff16600960008b8152602001908152602001600020600289611d089190612b2c565b81548110611d1957611d18612ebf565b5b906000526020600020906006020160020154600960008c815260200190815260200160002060028a611d4b9190612b2c565b81548110611d5c57611d5b612ebf565b5b90600052602060002090600602016000015487604051611d809594939291906130b4565b60405180910390a150611e33565b6000600660009054906101000a900473ffffffffffffffffffffffffffffffffffffffff1673ffffffffffffffffffffffffffffffffffffffff168385611dd59190612c95565b604051611de19061309f565b60006040518083038185875af1925050503d8060008114611e1e576040519150601f19603f3d011682016040523d82523d6000602084013e611e23565b606091505b5050905080611e3157600080fd5b505b5050505b7f2eaa1bda0a76999046e8def81099978a4164fbfb5f4207619e76c3823f6043678333348442604051611e6e9594939291906130b4565b60405180910390a150506001808190555050565b60008060009054906101000a900473ffffffffffffffffffffffffffffffffffffffff16905090565b60008060008060006008805490501115611f425760006007600060088054905081526020019081526020016000206040518060800160405290816000820154815260200160018201548152602001600282015481526020016003820160009054906101000a900460ff1615151515815250509050600880549050816020015182604001518360600151945094509450945050611f51565b60008060008093509350935093505b90919293565b60055481565b600260009054906101000a900473ffffffffffffffffffffffffffffffffffffffff1681565b606060096000838152602001908152602001600020805480602002602001604051908101604052809291908181526020016000905b8282101561207257838290600052602060002090600602016040518060c0016040529081600082015481526020016001820160009054906101000a900473ffffffffffffffffffffffffffffffffffffffff1673ffffffffffffffffffffffffffffffffffffffff1673ffffffffffffffffffffffffffffffffffffffff16815260200160028201548152602001600382015481526020016004820154815260200160058201548152505081526020019060010190611fb8565b505050509050919050565b600660009054906101000a900473ffffffffffffffffffffffffffffffffffffffff1681565b6120ab612188565b600073ffffffffffffffffffffffffffffffffffffffff168173ffffffffffffffffffffffffffffffffffffffff160361211a576040517f08c379a00000000000000000000000000000000000000000000000000000000081526004016121119061354d565b60405180910390fd5b612123816122a0565b50565b60035481565b6000804260076000858152602001908152602001600020600201541015801561217557506007600084815260200190815260200160002060030160009054906101000a900460ff165b1561217f57600190505b80915050919050565b612190612364565b73ffffffffffffffffffffffffffffffffffffffff166121ae611e82565b73ffffffffffffffffffffffffffffffffffffffff1614612204576040517f08c379a00000000000000000000000000000000000000000000000000000000081526004016121fb906135b9565b60405180910390fd5b565b600080426008600160088054905061221e9190612b2c565b8154811061222f5761222e612ebf565b5b90600052602060002090600402016002015410801561228f57506008600160088054905061225d9190612b2c565b8154811061226e5761226d612ebf565b5b906000526020600020906004020160030160009054906101000a900460ff16155b1561229957600190505b8091505090565b60008060009054906101000a900473ffffffffffffffffffffffffffffffffffffffff169050816000806101000a81548173ffffffffffffffffffffffffffffffffffffffff021916908373ffffffffffffffffffffffffffffffffffffffff1602179055508173ffffffffffffffffffffffffffffffffffffffff168173ffffffffffffffffffffffffffffffffffffffff167f8be0079c531659141344cd1fd0a4f28419497f9722a3daafe3b4186f6b6457e060405160405180910390a35050565b600033905090565b60405180608001604052806000815260200160008152602001600081526020016000151581525090565b600080fd5b6000819050919050565b6123ae8161239b565b81146123b957600080fd5b50565b6000813590506123cb816123a5565b92915050565b6000602082840312156123e7576123e6612396565b5b60006123f5848285016123bc565b91505092915050565b6124078161239b565b82525050565b600060208201905061242260008301846123fe565b92915050565b6124318161239b565b82525050565b60008115159050919050565b61244c81612437565b82525050565b6080820160008201516124686000850182612428565b50602082015161247b6020850182612428565b50604082015161248e6040850182612428565b5060608201516124a16060850182612443565b50505050565b60006080820190506124bc6000830184612452565b92915050565b600080604083850312156124d9576124d8612396565b5b60006124e7858286016123bc565b92505060206124f8858286016123bc565b9150509250929050565b600081519050919050565b600082825260208201905092915050565b6000819050602082019050919050565b6080820160008201516125446000850182612428565b5060208201516125576020850182612428565b50604082015161256a6040850182612428565b50606082015161257d6060850182612443565b50505050565b600061258f838361252e565b60808301905092915050565b6000602082019050919050565b60006125b382612502565b6125bd818561250d565b93506125c88361251e565b8060005b838110156125f95781516125e08882612583565b97506125eb8361259b565b9250506001810190506125cc565b5085935050505092915050565b6000602082019050818103600083015261262081846125a8565b905092915050565b600073ffffffffffffffffffffffffffffffffffffffff82169050919050565b600061265382612628565b9050919050565b61266381612648565b82525050565b600060608201905061267e60008301866123fe565b61268b602083018561265a565b61269860408301846123fe565b949350505050565b6126a981612648565b81146126b457600080fd5b50565b6000813590506126c6816126a0565b92915050565b6000602082840312156126e2576126e1612396565b5b60006126f0848285016126b7565b91505092915050565b600060208201905061270e600083018461265a565b92915050565b61271d81612437565b82525050565b600060808201905061273860008301876123fe565b61274560208301866123fe565b61275260408301856123fe565b61275f6060830184612714565b95945050505050565b6000819050919050565b600061278d61278861278384612628565b612768565b612628565b9050919050565b600061279f82612772565b9050919050565b60006127b182612794565b9050919050565b6127c1816127a6565b82525050565b60006020820190506127dc60008301846127b8565b92915050565b600081519050919050565b600082825260208201905092915050565b6000819050602082019050919050565b61281781612648565b82525050565b60c0820160008201516128336000850182612428565b506020820151612846602085018261280e565b5060408201516128596040850182612428565b50606082015161286c6060850182612428565b50608082015161287f6080850182612428565b5060a082015161289260a0850182612428565b50505050565b60006128a4838361281d565b60c08301905092915050565b6000602082019050919050565b60006128c8826127e2565b6128d281856127ed565b93506128dd836127fe565b8060005b8381101561290e5781516128f58882612898565b9750612900836128b0565b9250506001810190506128e1565b5085935050505092915050565b6000602082019050818103600083015261293581846128bd565b905092915050565b7f4e487b7100000000000000000000000000000000000000000000000000000000600052601160045260246000fd5b60008160011c9050919050565b6000808291508390505b60018511156129c35780860481111561299f5761299e61293d565b5b60018516156129ae5780820291505b80810290506129bc8561296c565b9450612983565b94509492505050565b6000826129dc5760019050612a98565b816129ea5760009050612a98565b8160018114612a005760028114612a0a57612a39565b6001915050612a98565b60ff841115612a1c57612a1b61293d565b5b8360020a915084821115612a3357612a3261293d565b5b50612a98565b5060208310610133831016604e8410600b8410161715612a6e5782820a905083811115612a6957612a6861293d565b5b612a98565b612a7b8484846001612979565b92509050818404811115612a9257612a9161293d565b5b81810290505b9392505050565b6000612aaa8261239b565b9150612ab58361239b565b9250612ae27fffffffffffffffffffffffffffffffffffffffffffffffffffffffffffffffff84846129cc565b905092915050565b6000612af58261239b565b9150612b008361239b565b9250828202612b0e8161239b565b91508282048414831517612b2557612b2461293d565b5b5092915050565b6000612b378261239b565b9150612b428361239b565b9250828203905081811115612b5a57612b5961293d565b5b92915050565b600082825260208201905092915050565b7f526f756e64206475726174696f6e206f72206578747261206475726174696f6e60008201527f2020617265206e6f74207365742e000000000000000000000000000000000000602082015250565b6000612bcd602e83612b60565b9150612bd882612b71565b604082019050919050565b60006020820190508181036000830152612bfc81612bc0565b9050919050565b7f4d696e696d756d20636f6e74726163742062616c616e63652073686f756c642060008201527f626520312074504c530000000000000000000000000000000000000000000000602082015250565b6000612c5f602983612b60565b9150612c6a82612c03565b604082019050919050565b60006020820190508181036000830152612c8e81612c52565b9050919050565b6000612ca08261239b565b9150612cab8361239b565b9250828201905080821115612cc357612cc261293d565b5b92915050565b7f50726576696f757320726f756e64206973206e6f742066696e6973686564207960008201527f6574000000000000000000000000000000000000000000000000000000000000602082015250565b6000612d25602283612b60565b9150612d3082612cc9565b604082019050919050565b60006020820190508181036000830152612d5481612d18565b9050919050565b6000606082019050612d7060008301866123fe565b612d7d60208301856123fe565b612d8a60408301846123fe565b949350505050565b7f4475726174696f6e2073686f756c642062652067726561746572207468616e2060008201527f3000000000000000000000000000000000000000000000000000000000000000602082015250565b6000612dee602183612b60565b9150612df982612d92565b604082019050919050565b60006020820190508181036000830152612e1d81612de1565b9050919050565b7f496e76616c69642072616e676500000000000000000000000000000000000000600082015250565b6000612e5a600d83612b60565b9150612e6582612e24565b602082019050919050565b60006020820190508181036000830152612e8981612e4d565b9050919050565b7f4e487b7100000000000000000000000000000000000000000000000000000000600052604160045260246000fd5b7f4e487b7100000000000000000000000000000000000000000000000000000000600052603260045260246000fd5b6000612ef98261239b565b91507fffffffffffffffffffffffffffffffffffffffffffffffffffffffffffffffff8203612f2b57612f2a61293d565b5b600182019050919050565b7f526f756e6420697320206c697665000000000000000000000000000000000000600082015250565b6000612f6c600e83612b60565b9150612f7782612f36565b602082019050919050565b60006020820190508181036000830152612f9b81612f5f565b9050919050565b7f526f756e6420616c72656164792066696e697368656400000000000000000000600082015250565b6000612fd8601683612b60565b9150612fe382612fa2565b602082019050919050565b6000602082019050818103600083015261300781612fcb565b9050919050565b7f4e487b7100000000000000000000000000000000000000000000000000000000600052601260045260246000fd5b60006130488261239b565b91506130538361239b565b9250826130635761306261300e565b5b828204905092915050565b600081905092915050565b50565b600061308960008361306e565b915061309482613079565b600082019050919050565b60006130aa8261307c565b9150819050919050565b600060a0820190506130c960008301886123fe565b6130d6602083018761265a565b6130e360408301866123fe565b6130f060608301856123fe565b6130fd60808301846123fe565b9695505050505050565b600081519050613116816123a5565b92915050565b60006020828403121561313257613131612396565b5b600061314084828501613107565b91505092915050565b600060408201905061315e600083018561265a565b61316b60208301846123fe565b9392505050565b7f53657420726f756e64206475726174696f6e2066697273740000000000000000600082015250565b60006131a8601883612b60565b91506131b382613172565b602082019050919050565b600060208201905081810360008301526131d78161319b565b9050919050565b7f4475726174696f6e2073686f756c642062652067726561746572207468616e2060008201527f3020616e6420726f756e644475726174696f6e00000000000000000000000000602082015250565b600061323a603383612b60565b9150613245826131de565b604082019050919050565b600060208201905081810360008301526132698161322d565b9050919050565b7f5a65726f2061646472657373206e6f7420616c6c6f7765640000000000000000600082015250565b60006132a6601883612b60565b91506132b182613270565b602082019050919050565b600060208201905081810360008301526132d581613299565b9050919050565b7f526f756e64206973206e6f74206c697665000000000000000000000000000000600082015250565b6000613312601183612b60565b915061331d826132dc565b602082019050919050565b6000602082019050818103600083015261334181613305565b9050919050565b7f5265656e7472616e637947756172643a207265656e7472616e742063616c6c00600082015250565b600061337e601f83612b60565b915061338982613348565b602082019050919050565b600060208201905081810360008301526133ad81613371565b9050919050565b7f496e636f727265637420696e76657374656420616d6f756e7400000000000000600082015250565b60006133ea601983612b60565b91506133f5826133b4565b602082019050919050565b60006020820190508181036000830152613419816133dd565b9050919050565b7f596f752063616e6e6f74206465706f73697420616761696e20756e74696c207460008201527f686572652069732061206e657720706c65620000000000000000000000000000602082015250565b600061347c603283612b60565b915061348782613420565b604082019050919050565b600060208201905081810360008301526134ab8161346f565b9050919050565b60006040820190506134c760008301856123fe565b6134d460208301846123fe565b9392505050565b7f4f776e61626c653a206e6577206f776e657220697320746865207a65726f206160008201527f6464726573730000000000000000000000000000000000000000000000000000602082015250565b6000613537602683612b60565b9150613542826134db565b604082019050919050565b600060208201905081810360008301526135668161352a565b9050919050565b7f4f776e61626c653a2063616c6c6572206973206e6f7420746865206f776e6572600082015250565b60006135a3602083612b60565b91506135ae8261356d565b602082019050919050565b600060208201905081810360008301526135d281613596565b905091905056fea26469706673582212207b078ffaf02f8213e08d23934b3330eaff295010330008714ff4b620c89c28a564736f6c63430008110033",
  "linkReferences": {},
  "deployedLinkReferences": {}
}