{
  "_format": "hh-sol-artifact-1",
  "contractName": "PlebToHill",
  "sourceName": "contracts/PlebToHill.sol",
  "abi": [
    {
      "anonymous": false,
      "inputs": [
        {
          "indexed": true,
          "internalType": "address",
          "name": "previousOwner",
          "type": "address"
        },
        {
          "indexed": true,
          "internalType": "address",
          "name": "newOwner",
          "type": "address"
        }
      ],
      "name": "OwnershipTransferred",
      "type": "event"
    },
    {
      "anonymous": false,
      "inputs": [
        {
          "indexed": false,
          "internalType": "uint256",
          "name": "roundId",
          "type": "uint256"
        },
        {
          "indexed": false,
          "internalType": "address",
          "name": "walletAddress",
          "type": "address"
        },
        {
          "indexed": false,
          "internalType": "uint256",
          "name": "invested_amount",
          "type": "uint256"
        },
        {
          "indexed": false,
          "internalType": "uint256",
          "name": "participantId",
          "type": "uint256"
        }
      ],
      "name": "ParticipantAdded",
      "type": "event"
    },
    {
      "anonymous": false,
      "inputs": [
        {
          "indexed": false,
          "internalType": "uint256",
          "name": "roundId",
          "type": "uint256"
        },
        {
          "indexed": false,
          "internalType": "uint256",
          "name": "startTime",
          "type": "uint256"
        },
        {
          "indexed": false,
          "internalType": "uint256",
          "name": "endTime",
          "type": "uint256"
        }
      ],
      "name": "RoundCreated",
      "type": "event"
    },
    {
      "inputs": [
        {
          "internalType": "uint256",
          "name": "",
          "type": "uint256"
        }
      ],
      "name": "RoundData",
      "outputs": [
        {
          "internalType": "uint256",
          "name": "startTime",
          "type": "uint256"
        },
        {
          "internalType": "uint256",
          "name": "endTime",
          "type": "uint256"
        },
        {
          "internalType": "bool",
          "name": "isLive",
          "type": "bool"
        }
      ],
      "stateMutability": "view",
      "type": "function"
    },
    {
      "inputs": [
        {
          "internalType": "uint256",
          "name": "roundId",
          "type": "uint256"
        }
      ],
      "name": "addParticipant",
      "outputs": [],
      "stateMutability": "payable",
      "type": "function"
    },
    {
      "inputs": [],
      "name": "createRound",
      "outputs": [],
      "stateMutability": "nonpayable",
      "type": "function"
    },
    {
      "inputs": [
        {
          "internalType": "uint256",
          "name": "roundId",
          "type": "uint256"
        }
      ],
      "name": "endRound",
      "outputs": [],
      "stateMutability": "nonpayable",
      "type": "function"
    },
    {
      "inputs": [
        {
          "internalType": "uint256",
          "name": "roundId",
          "type": "uint256"
        }
      ],
      "name": "getValueForNextParticipant",
      "outputs": [
        {
          "internalType": "uint256",
          "name": "",
          "type": "uint256"
        }
      ],
      "stateMutability": "view",
      "type": "function"
    },
    {
      "inputs": [],
      "name": "owner",
      "outputs": [
        {
          "internalType": "address",
          "name": "",
          "type": "address"
        }
      ],
      "stateMutability": "view",
      "type": "function"
    },
    {
      "inputs": [
        {
          "internalType": "uint256",
          "name": "",
          "type": "uint256"
        },
        {
          "internalType": "uint256",
          "name": "",
          "type": "uint256"
        }
      ],
      "name": "participants",
      "outputs": [
        {
          "internalType": "uint256",
          "name": "participantId",
          "type": "uint256"
        },
        {
          "internalType": "address",
          "name": "walletAddress",
          "type": "address"
        },
        {
          "internalType": "uint256",
          "name": "invested_amount",
          "type": "uint256"
        },
        {
          "internalType": "uint256",
          "name": "roundId",
          "type": "uint256"
        }
      ],
      "stateMutability": "view",
      "type": "function"
    },
    {
      "inputs": [],
      "name": "renounceOwnership",
      "outputs": [],
      "stateMutability": "nonpayable",
      "type": "function"
    },
    {
      "inputs": [
        {
          "internalType": "uint256",
          "name": "",
          "type": "uint256"
        }
      ],
      "name": "rounds",
      "outputs": [
        {
          "internalType": "uint256",
          "name": "startTime",
          "type": "uint256"
        },
        {
          "internalType": "uint256",
          "name": "endTime",
          "type": "uint256"
        },
        {
          "internalType": "bool",
          "name": "isLive",
          "type": "bool"
        }
      ],
      "stateMutability": "view",
      "type": "function"
    },
    {
      "inputs": [
        {
          "internalType": "address",
          "name": "newOwner",
          "type": "address"
        }
      ],
      "name": "transferOwnership",
      "outputs": [],
      "stateMutability": "nonpayable",
      "type": "function"
    },
    {
      "stateMutability": "payable",
      "type": "receive"
    }
  ],
  "bytecode": "0x608060405234801561001057600080fd5b5061002d61002261003260201b60201c565b61003a60201b60201c565b6100fe565b600033905090565b60008060009054906101000a900473ffffffffffffffffffffffffffffffffffffffff169050816000806101000a81548173ffffffffffffffffffffffffffffffffffffffff021916908373ffffffffffffffffffffffffffffffffffffffff1602179055508173ffffffffffffffffffffffffffffffffffffffff168173ffffffffffffffffffffffffffffffffffffffff167f8be0079c531659141344cd1fd0a4f28419497f9722a3daafe3b4186f6b6457e060405160405180910390a35050565b6115ae8061010d6000396000f3fe6080604052600436106100955760003560e01c80638acaf7a8116100595780638acaf7a8146101755780638c65c81f146101915780638da5cb5b146101d0578063ad87097e146101fb578063f2fde38b1461023a5761009c565b806303861ba6146100a15780631b411fc8146100de5780635a1e6ca1146100f5578063715018a61461011e57806381fb1fb4146101355761009c565b3661009c57005b600080fd5b3480156100ad57600080fd5b506100c860048036038101906100c39190610c87565b610263565b6040516100d59190610cc3565b60405180910390f35b3480156100ea57600080fd5b506100f36102a7565b005b34801561010157600080fd5b5061011c60048036038101906101179190610c87565b6104ba565b005b34801561012a57600080fd5b5061013361057b565b005b34801561014157600080fd5b5061015c60048036038101906101579190610cde565b61058f565b60405161016c9493929190610d5f565b60405180910390f35b61018f600480360381019061018a9190610c87565b6105fc565b005b34801561019d57600080fd5b506101b860048036038101906101b39190610c87565b61080e565b6040516101c793929190610dbf565b60405180910390f35b3480156101dc57600080fd5b506101e5610855565b6040516101f29190610df6565b60405180910390f35b34801561020757600080fd5b50610222600480360381019061021d9190610c87565b61087e565b60405161023193929190610dbf565b60405180910390f35b34801561024657600080fd5b50610261600480360381019061025c9190610e3d565b6108b5565b005b60008060036000848152602001908152602001600020805490509050670de0b6b3a76400008160026102959190610fcc565b61029f9190611017565b915050919050565b6102af610938565b670de0b6b3a76400004710156102fa576040517f08c379a00000000000000000000000000000000000000000000000000000000081526004016102f1906110dc565b60405180910390fd5b600060028054905090506000600280549050111561035a5761031a6109b6565b610359576040517f08c379a00000000000000000000000000000000000000000000000000000000081526004016103509061116e565b60405180910390fd5b5b6040518060600160405280428152602001612a3042610379919061118e565b81526020016001151581525060016000838152602001908152602001600020600082015181600001556020820151816001015560408201518160020160006101000a81548160ff021916908315150217905550905050600260016000838152602001908152602001600020908060018154018082558091505060019003906000526020600020906003020160009091909190915060008201548160000155600182015481600101556002820160009054906101000a900460ff168160020160006101000a81548160ff02191690831515021790555050507f68e7b09ec44e876e76ff05157850e3261aa63a8680fe21a2ba93dcbb2b09f58f81600160008481526020019081526020016000206000015460016000858152602001908152602001600020600101546040516104af939291906111c2565b60405180910390a150565b6104c2610938565b6104cb81610a50565b1561050b576040517f08c379a000000000000000000000000000000000000000000000000000000000815260040161050290611245565b60405180910390fd5b60006001600083815260200190815260200160002060020160006101000a81548160ff0219169083151502179055506000600282815481106105505761054f611265565b5b906000526020600020906003020160020160006101000a81548160ff02191690831515021790555050565b610583610938565b61058d6000610aac565b565b600360205281600052604060002081815481106105ab57600080fd5b9060005260206000209060040201600091509150508060000154908060010160009054906101000a900473ffffffffffffffffffffffffffffffffffffffff16908060020154908060030154905084565b61060581610a50565b610644576040517f08c379a000000000000000000000000000000000000000000000000000000000815260040161063b906112e0565b60405180910390fd5b61064d81610263565b341461068e576040517f08c379a00000000000000000000000000000000000000000000000000000000081526004016106859061134c565b60405180910390fd5b6106988133610b70565b156106d8576040517f08c379a00000000000000000000000000000000000000000000000000000000081526004016106cf906113de565b60405180910390fd5b6000600360008381526020019081526020016000208054905090506003600083815260200190815260200160002060405180608001604052808381526020013373ffffffffffffffffffffffffffffffffffffffff1681526020013481526020018481525090806001815401808255809150506001900390600052602060002090600402016000909190919091506000820151816000015560208201518160010160006101000a81548173ffffffffffffffffffffffffffffffffffffffff021916908373ffffffffffffffffffffffffffffffffffffffff160217905550604082015181600201556060820151816003015550507fa579cf708fd91d80ae65ceb4a89d65267d82874519078a79355d57bc0ab6e24d823334846040516108029493929190610d5f565b60405180910390a15050565b6002818154811061081e57600080fd5b90600052602060002090600302016000915090508060000154908060010154908060020160009054906101000a900460ff16905083565b60008060009054906101000a900473ffffffffffffffffffffffffffffffffffffffff16905090565b60016020528060005260406000206000915090508060000154908060010154908060020160009054906101000a900460ff16905083565b6108bd610938565b600073ffffffffffffffffffffffffffffffffffffffff168173ffffffffffffffffffffffffffffffffffffffff160361092c576040517f08c379a000000000000000000000000000000000000000000000000000000000815260040161092390611470565b60405180910390fd5b61093581610aac565b50565b610940610c44565b73ffffffffffffffffffffffffffffffffffffffff1661095e610855565b73ffffffffffffffffffffffffffffffffffffffff16146109b4576040517f08c379a00000000000000000000000000000000000000000000000000000000081526004016109ab906114dc565b60405180910390fd5b565b60008042600260016002805490506109ce91906114fc565b815481106109df576109de611265565b5b906000526020600020906003020160010154108015610a3f575060026001600280549050610a0d91906114fc565b81548110610a1e57610a1d611265565b5b906000526020600020906003020160020160009054906101000a900460ff16155b15610a4957600190505b8091505090565b60008042600160008581526020019081526020016000206001015410158015610a9957506001600084815260200190815260200160002060020160009054906101000a900460ff165b15610aa357600190505b80915050919050565b60008060009054906101000a900473ffffffffffffffffffffffffffffffffffffffff169050816000806101000a81548173ffffffffffffffffffffffffffffffffffffffff021916908373ffffffffffffffffffffffffffffffffffffffff1602179055508173ffffffffffffffffffffffffffffffffffffffff168173ffffffffffffffffffffffffffffffffffffffff167f8be0079c531659141344cd1fd0a4f28419497f9722a3daafe3b4186f6b6457e060405160405180910390a35050565b60008060005b6003600086815260200190815260200160002080549050811015610c39578373ffffffffffffffffffffffffffffffffffffffff16600360008781526020019081526020016000208281548110610bd057610bcf611265565b5b906000526020600020906004020160010160009054906101000a900473ffffffffffffffffffffffffffffffffffffffff1673ffffffffffffffffffffffffffffffffffffffff1603610c265760019150610c39565b8080610c3190611530565b915050610b76565b508091505092915050565b600033905090565b600080fd5b6000819050919050565b610c6481610c51565b8114610c6f57600080fd5b50565b600081359050610c8181610c5b565b92915050565b600060208284031215610c9d57610c9c610c4c565b5b6000610cab84828501610c72565b91505092915050565b610cbd81610c51565b82525050565b6000602082019050610cd86000830184610cb4565b92915050565b60008060408385031215610cf557610cf4610c4c565b5b6000610d0385828601610c72565b9250506020610d1485828601610c72565b9150509250929050565b600073ffffffffffffffffffffffffffffffffffffffff82169050919050565b6000610d4982610d1e565b9050919050565b610d5981610d3e565b82525050565b6000608082019050610d746000830187610cb4565b610d816020830186610d50565b610d8e6040830185610cb4565b610d9b6060830184610cb4565b95945050505050565b60008115159050919050565b610db981610da4565b82525050565b6000606082019050610dd46000830186610cb4565b610de16020830185610cb4565b610dee6040830184610db0565b949350505050565b6000602082019050610e0b6000830184610d50565b92915050565b610e1a81610d3e565b8114610e2557600080fd5b50565b600081359050610e3781610e11565b92915050565b600060208284031215610e5357610e52610c4c565b5b6000610e6184828501610e28565b91505092915050565b7f4e487b7100000000000000000000000000000000000000000000000000000000600052601160045260246000fd5b60008160011c9050919050565b6000808291508390505b6001851115610ef057808604811115610ecc57610ecb610e6a565b5b6001851615610edb5780820291505b8081029050610ee985610e99565b9450610eb0565b94509492505050565b600082610f095760019050610fc5565b81610f175760009050610fc5565b8160018114610f2d5760028114610f3757610f66565b6001915050610fc5565b60ff841115610f4957610f48610e6a565b5b8360020a915084821115610f6057610f5f610e6a565b5b50610fc5565b5060208310610133831016604e8410600b8410161715610f9b5782820a905083811115610f9657610f95610e6a565b5b610fc5565b610fa88484846001610ea6565b92509050818404811115610fbf57610fbe610e6a565b5b81810290505b9392505050565b6000610fd782610c51565b9150610fe283610c51565b925061100f7fffffffffffffffffffffffffffffffffffffffffffffffffffffffffffffffff8484610ef9565b905092915050565b600061102282610c51565b915061102d83610c51565b925082820261103b81610c51565b9150828204841483151761105257611051610e6a565b5b5092915050565b600082825260208201905092915050565b7f4d696e696d756d20636f6e74726163742062616c616e63652073686f756c642060008201527f626520312074504c530000000000000000000000000000000000000000000000602082015250565b60006110c6602983611059565b91506110d18261106a565b604082019050919050565b600060208201905081810360008301526110f5816110b9565b9050919050565b7f50726576696f757320726f756e64206973206e6f742066696e6973686564207960008201527f6574000000000000000000000000000000000000000000000000000000000000602082015250565b6000611158602283611059565b9150611163826110fc565b604082019050919050565b600060208201905081810360008301526111878161114b565b9050919050565b600061119982610c51565b91506111a483610c51565b92508282019050808211156111bc576111bb610e6a565b5b92915050565b60006060820190506111d76000830186610cb4565b6111e46020830185610cb4565b6111f16040830184610cb4565b949350505050565b7f526f756e6420697320206c697665000000000000000000000000000000000000600082015250565b600061122f600e83611059565b915061123a826111f9565b602082019050919050565b6000602082019050818103600083015261125e81611222565b9050919050565b7f4e487b7100000000000000000000000000000000000000000000000000000000600052603260045260246000fd5b7f526f756e64206973206e6f74206c697665000000000000000000000000000000600082015250565b60006112ca601183611059565b91506112d582611294565b602082019050919050565b600060208201905081810360008301526112f9816112bd565b9050919050565b7f496e636f727265637420696e76657374656420616d6f756e7400000000000000600082015250565b6000611336601983611059565b915061134182611300565b602082019050919050565b6000602082019050818103600083015261136581611329565b9050919050565b7f5573657220616c726561647920656e746572656420666f722074686520726f7560008201527f6e64000000000000000000000000000000000000000000000000000000000000602082015250565b60006113c8602283611059565b91506113d38261136c565b604082019050919050565b600060208201905081810360008301526113f7816113bb565b9050919050565b7f4f776e61626c653a206e6577206f776e657220697320746865207a65726f206160008201527f6464726573730000000000000000000000000000000000000000000000000000602082015250565b600061145a602683611059565b9150611465826113fe565b604082019050919050565b600060208201905081810360008301526114898161144d565b9050919050565b7f4f776e61626c653a2063616c6c6572206973206e6f7420746865206f776e6572600082015250565b60006114c6602083611059565b91506114d182611490565b602082019050919050565b600060208201905081810360008301526114f5816114b9565b9050919050565b600061150782610c51565b915061151283610c51565b925082820390508181111561152a57611529610e6a565b5b92915050565b600061153b82610c51565b91507fffffffffffffffffffffffffffffffffffffffffffffffffffffffffffffffff820361156d5761156c610e6a565b5b60018201905091905056fea264697066735822122056b725a716e64caa698c683a9c4808117cd721a83d14cc1562ecbfe577e81e6064736f6c63430008110033",
  "linkReferences": {},
  "deployedLinkReferences": {}
}