{
  "_format": "hh-sol-artifact-1",
  "contractName": "PlebToHill",
  "sourceName": "contracts/PlebToHill.sol",
  "abi": [
    {
      "anonymous": false,
      "inputs": [
        {
          "indexed": true,
          "internalType": "address",
          "name": "previousOwner",
          "type": "address"
        },
        {
          "indexed": true,
          "internalType": "address",
          "name": "newOwner",
          "type": "address"
        }
      ],
      "name": "OwnershipTransferred",
      "type": "event"
    },
    {
      "anonymous": false,
      "inputs": [
        {
          "indexed": false,
          "internalType": "uint256",
          "name": "roundId",
          "type": "uint256"
        },
        {
          "indexed": false,
          "internalType": "address",
          "name": "walletAddress",
          "type": "address"
        },
        {
          "indexed": false,
          "internalType": "uint256",
          "name": "invested_amount",
          "type": "uint256"
        },
        {
          "indexed": false,
          "internalType": "uint256",
          "name": "participantId",
          "type": "uint256"
        },
        {
          "indexed": false,
          "internalType": "uint256",
          "name": "time",
          "type": "uint256"
        }
      ],
      "name": "ParticipantAdded",
      "type": "event"
    },
    {
      "anonymous": false,
      "inputs": [
        {
          "indexed": false,
          "internalType": "uint256",
          "name": "roundId",
          "type": "uint256"
        },
        {
          "indexed": false,
          "internalType": "uint256",
          "name": "startTime",
          "type": "uint256"
        },
        {
          "indexed": false,
          "internalType": "uint256",
          "name": "endTime",
          "type": "uint256"
        }
      ],
      "name": "RoundCreated",
      "type": "event"
    },
    {
      "anonymous": false,
      "inputs": [
        {
          "indexed": false,
          "internalType": "uint256",
          "name": "roundId",
          "type": "uint256"
        }
      ],
      "name": "RoundFinished",
      "type": "event"
    },
    {
      "anonymous": false,
      "inputs": [
        {
          "indexed": false,
          "internalType": "uint256",
          "name": "roundId",
          "type": "uint256"
        },
        {
          "indexed": false,
          "internalType": "address",
          "name": "walletAddress",
          "type": "address"
        },
        {
          "indexed": false,
          "internalType": "uint256",
          "name": "invested_amount",
          "type": "uint256"
        },
        {
          "indexed": false,
          "internalType": "uint256",
          "name": "participantId",
          "type": "uint256"
        },
        {
          "indexed": false,
          "internalType": "uint256",
          "name": "winnings",
          "type": "uint256"
        }
      ],
      "name": "WinningTransfered",
      "type": "event"
    },
    {
      "inputs": [
        {
          "internalType": "uint256",
          "name": "",
          "type": "uint256"
        }
      ],
      "name": "RoundData",
      "outputs": [
        {
          "internalType": "uint256",
          "name": "startTime",
          "type": "uint256"
        },
        {
          "internalType": "uint256",
          "name": "endTime",
          "type": "uint256"
        },
        {
          "internalType": "bool",
          "name": "isLive",
          "type": "bool"
        }
      ],
      "stateMutability": "view",
      "type": "function"
    },
    {
      "inputs": [
        {
          "internalType": "uint256",
          "name": "roundId",
          "type": "uint256"
        }
      ],
      "name": "addParticipant",
      "outputs": [],
      "stateMutability": "payable",
      "type": "function"
    },
    {
      "inputs": [],
      "name": "createRound",
      "outputs": [],
      "stateMutability": "nonpayable",
      "type": "function"
    },
    {
      "inputs": [
        {
          "internalType": "uint256",
          "name": "roundId",
          "type": "uint256"
        }
      ],
      "name": "endRound",
      "outputs": [],
      "stateMutability": "nonpayable",
      "type": "function"
    },
    {
      "inputs": [
        {
          "internalType": "uint256",
          "name": "roundId",
          "type": "uint256"
        }
      ],
      "name": "getAllParticipantOfRound",
      "outputs": [
        {
          "components": [
            {
              "internalType": "uint256",
              "name": "participantId",
              "type": "uint256"
            },
            {
              "internalType": "address",
              "name": "walletAddress",
              "type": "address"
            },
            {
              "internalType": "uint256",
              "name": "invested_amount",
              "type": "uint256"
            },
            {
              "internalType": "uint256",
              "name": "winnings",
              "type": "uint256"
            },
            {
              "internalType": "uint256",
              "name": "roundId",
              "type": "uint256"
            },
            {
              "internalType": "uint256",
              "name": "time",
              "type": "uint256"
            }
          ],
          "internalType": "struct PlebToHill.Participant[]",
          "name": "",
          "type": "tuple[]"
        }
      ],
      "stateMutability": "view",
      "type": "function"
    },
    {
      "inputs": [],
      "name": "getAllRounds",
      "outputs": [
        {
          "components": [
            {
              "internalType": "uint256",
              "name": "startTime",
              "type": "uint256"
            },
            {
              "internalType": "uint256",
              "name": "endTime",
              "type": "uint256"
            },
            {
              "internalType": "bool",
              "name": "isLive",
              "type": "bool"
            }
          ],
          "internalType": "struct PlebToHill.Round[]",
          "name": "",
          "type": "tuple[]"
        }
      ],
      "stateMutability": "view",
      "type": "function"
    },
    {
      "inputs": [],
      "name": "getCurrentLiveRound",
      "outputs": [
        {
          "internalType": "uint256",
          "name": "roundId",
          "type": "uint256"
        },
        {
          "internalType": "uint256",
          "name": "startTime",
          "type": "uint256"
        },
        {
          "internalType": "uint256",
          "name": "endTime",
          "type": "uint256"
        },
        {
          "internalType": "bool",
          "name": "isLive",
          "type": "bool"
        }
      ],
      "stateMutability": "view",
      "type": "function"
    },
    {
      "inputs": [
        {
          "internalType": "uint256",
          "name": "roundId",
          "type": "uint256"
        }
      ],
      "name": "getValueForNextParticipant",
      "outputs": [
        {
          "internalType": "uint256",
          "name": "",
          "type": "uint256"
        }
      ],
      "stateMutability": "view",
      "type": "function"
    },
    {
      "inputs": [],
      "name": "owner",
      "outputs": [
        {
          "internalType": "address",
          "name": "",
          "type": "address"
        }
      ],
      "stateMutability": "view",
      "type": "function"
    },
    {
      "inputs": [
        {
          "internalType": "uint256",
          "name": "",
          "type": "uint256"
        },
        {
          "internalType": "uint256",
          "name": "",
          "type": "uint256"
        }
      ],
      "name": "participants",
      "outputs": [
        {
          "internalType": "uint256",
          "name": "participantId",
          "type": "uint256"
        },
        {
          "internalType": "address",
          "name": "walletAddress",
          "type": "address"
        },
        {
          "internalType": "uint256",
          "name": "invested_amount",
          "type": "uint256"
        },
        {
          "internalType": "uint256",
          "name": "winnings",
          "type": "uint256"
        },
        {
          "internalType": "uint256",
          "name": "roundId",
          "type": "uint256"
        },
        {
          "internalType": "uint256",
          "name": "time",
          "type": "uint256"
        }
      ],
      "stateMutability": "view",
      "type": "function"
    },
    {
      "inputs": [],
      "name": "renounceOwnership",
      "outputs": [],
      "stateMutability": "nonpayable",
      "type": "function"
    },
    {
      "inputs": [],
      "name": "serviceFee",
      "outputs": [
        {
          "internalType": "uint256",
          "name": "",
          "type": "uint256"
        }
      ],
      "stateMutability": "view",
      "type": "function"
    },
    {
      "inputs": [
        {
          "internalType": "address",
          "name": "newOwner",
          "type": "address"
        }
      ],
      "name": "transferOwnership",
      "outputs": [],
      "stateMutability": "nonpayable",
      "type": "function"
    },
    {
      "stateMutability": "payable",
      "type": "receive"
    }
  ],
  "bytecode": "0x608060405234801561001057600080fd5b5061002d61002261003260201b60201c565b61003a60201b60201c565b6100fe565b600033905090565b60008060009054906101000a900473ffffffffffffffffffffffffffffffffffffffff169050816000806101000a81548173ffffffffffffffffffffffffffffffffffffffff021916908373ffffffffffffffffffffffffffffffffffffffff1602179055508173ffffffffffffffffffffffffffffffffffffffff168173ffffffffffffffffffffffffffffffffffffffff167f8be0079c531659141344cd1fd0a4f28419497f9722a3daafe3b4186f6b6457e060405160405180910390a35050565b6120bd806200010e6000396000f3fe6080604052600436106100c65760003560e01c80638acaf7a81161007f578063ad87097e11610059578063ad87097e14610248578063dade4b6414610287578063e5066bbf146102c4578063f2fde38b146102ef576100cd565b80638acaf7a8146101d35780638da5cb5b146101ef578063928554f91461021a576100cd565b806303861ba6146100d25780631b411fc81461010f5780635a1e6ca114610126578063715018a61461014f57806381fb1fb4146101665780638abdf5aa146101a8576100cd565b366100cd57005b600080fd5b3480156100de57600080fd5b506100f960048036038101906100f491906113cc565b610318565b6040516101069190611408565b60405180910390f35b34801561011b57600080fd5b506101246103a5565b005b34801561013257600080fd5b5061014d600480360381019061014891906113cc565b6105b8565b005b34801561015b57600080fd5b506101646108e4565b005b34801561017257600080fd5b5061018d60048036038101906101889190611423565b6108f8565b60405161019f969594939291906114a4565b60405180910390f35b3480156101b457600080fd5b506101bd610971565b6040516101ca9190611408565b60405180910390f35b6101ed60048036038101906101e891906113cc565b610977565b005b3480156101fb57600080fd5b50610204610e4e565b6040516102119190611505565b60405180910390f35b34801561022657600080fd5b5061022f610e77565b60405161023f949392919061153b565b60405180910390f35b34801561025457600080fd5b5061026f600480360381019061026a91906113cc565b610f0f565b60405161027e93929190611580565b60405180910390f35b34801561029357600080fd5b506102ae60048036038101906102a991906113cc565b610f46565b6040516102bb91906116ff565b60405180910390f35b3480156102d057600080fd5b506102d9611040565b6040516102e69190611821565b60405180910390f35b3480156102fb57600080fd5b506103166004803603810190610311919061186f565b6110ce565b005b600061032382611151565b610362576040517f08c379a0000000000000000000000000000000000000000000000000000000008152600401610359906118f9565b60405180910390fd5b600060036000848152602001908152602001600020805490509050670de0b6b3a76400008160026103939190611a7b565b61039d9190611ac6565b915050919050565b6103ad6111ad565b670de0b6b3a76400004710156103f8576040517f08c379a00000000000000000000000000000000000000000000000000000000081526004016103ef90611b7a565b60405180910390fd5b60006002805490509050600060028054905011156104585761041861122b565b610457576040517f08c379a000000000000000000000000000000000000000000000000000000000815260040161044e90611c0c565b60405180910390fd5b5b604051806060016040528042815260200161012c426104779190611c2c565b81526020016001151581525060016000838152602001908152602001600020600082015181600001556020820151816001015560408201518160020160006101000a81548160ff021916908315150217905550905050600260016000838152602001908152602001600020908060018154018082558091505060019003906000526020600020906003020160009091909190915060008201548160000155600182015481600101556002820160009054906101000a900460ff168160020160006101000a81548160ff02191690831515021790555050507f68e7b09ec44e876e76ff05157850e3261aa63a8680fe21a2ba93dcbb2b09f58f81600160008481526020019081526020016000206000015460016000858152602001908152602001600020600101546040516105ad93929190611c60565b60405180910390a150565b6105c06111ad565b6105c981611151565b15610609576040517f08c379a000000000000000000000000000000000000000000000000000000000815260040161060090611ce3565b60405180910390fd5b6001600082815260200190815260200160002060020160009054906101000a900460ff1661066c576040517f08c379a000000000000000000000000000000000000000000000000000000000815260040161066390611d4f565b60405180910390fd5b60006001600083815260200190815260200160002060020160006101000a81548160ff0219169083151502179055506000600282815481106106b1576106b0611d6f565b5b906000526020600020906003020160020160006101000a81548160ff02191690831515021790555060016003600083815260200190815260200160002080549050036108aa576003600082815260200190815260200160002060008154811061071d5761071c611d6f565b5b906000526020600020906006020160010160009054906101000a900473ffffffffffffffffffffffffffffffffffffffff1673ffffffffffffffffffffffffffffffffffffffff166108fc671bc16d674ec800009081150290604051600060405180830381858888f1935050505015801561079c573d6000803e3d6000fd5b507f65edb247950c75beace5afb548418caec939cfa83b1fc60186d09d89cea66ba781600360008481526020019081526020016000206000815481106107e5576107e4611d6f565b5b906000526020600020906006020160010160009054906101000a900473ffffffffffffffffffffffffffffffffffffffff166003600085815260200190815260200160002060008154811061083d5761083c611d6f565b5b9060005260206000209060060201600201546003600086815260200190815260200160002060008154811061087557610874611d6f565b5b906000526020600020906006020160000154671bc16d674ec800006040516108a1959493929190611de3565b60405180910390a15b7f74ef25ef6b332a2fbbe7eb8b4108e0fe842a929d34c52a2ea4ca1a0f1524f107816040516108d99190611408565b60405180910390a150565b6108ec6111ad565b6108f660006112c5565b565b6003602052816000526040600020818154811061091457600080fd5b9060005260206000209060060201600091509150508060000154908060010160009054906101000a900473ffffffffffffffffffffffffffffffffffffffff16908060020154908060030154908060040154908060050154905086565b60045481565b61098081611151565b6109bf576040517f08c379a00000000000000000000000000000000000000000000000000000000081526004016109b6906118f9565b60405180910390fd5b6109c881610318565b3414610a09576040517f08c379a0000000000000000000000000000000000000000000000000000000008152600401610a0090611e82565b60405180910390fd5b600060036000838152602001908152602001600020805490509050600360008381526020019081526020016000206040518060c001604052808381526020013373ffffffffffffffffffffffffffffffffffffffff168152602001348152602001600081526020018481526020014281525090806001815401808255809150506001900390600052602060002090600602016000909190919091506000820151816000015560208201518160010160006101000a81548173ffffffffffffffffffffffffffffffffffffffff021916908373ffffffffffffffffffffffffffffffffffffffff16021790555060408201518160020155606082015181600301556080820151816004015560a08201518160050155505060008114610e0b5760646005600260036000868152602001908152602001600020600185610b4d9190611ea2565b81548110610b5e57610b5d611d6f565b5b906000526020600020906006020160020154610b7a9190611ac6565b610b849190611ac6565b610b8e9190611f05565b6004819055506000600454600260036000868152602001908152602001600020600185610bbb9190611ea2565b81548110610bcc57610bcb611d6f565b5b906000526020600020906006020160020154610be89190611ac6565b610bf29190611ea2565b90508060036000858152602001908152602001600020600184610c159190611ea2565b81548110610c2657610c25611d6f565b5b90600052602060002090600602016003018190555060036000848152602001908152602001600020600183610c5b9190611ea2565b81548110610c6c57610c6b611d6f565b5b906000526020600020906006020160010160009054906101000a900473ffffffffffffffffffffffffffffffffffffffff1673ffffffffffffffffffffffffffffffffffffffff166108fc829081150290604051600060405180830381858888f19350505050158015610ce3573d6000803e3d6000fd5b507f65edb247950c75beace5afb548418caec939cfa83b1fc60186d09d89cea66ba78360036000868152602001908152602001600020600185610d269190611ea2565b81548110610d3757610d36611d6f565b5b906000526020600020906006020160010160009054906101000a900473ffffffffffffffffffffffffffffffffffffffff1660036000878152602001908152602001600020600186610d899190611ea2565b81548110610d9a57610d99611d6f565b5b90600052602060002090600602016002015460036000888152602001908152602001600020600187610dcc9190611ea2565b81548110610ddd57610ddc611d6f565b5b90600052602060002090600602016000015485604051610e01959493929190611f36565b60405180910390a1505b7f2eaa1bda0a76999046e8def81099978a4164fbfb5f4207619e76c3823f6043678233348442604051610e42959493929190611f36565b60405180910390a15050565b60008060009054906101000a900473ffffffffffffffffffffffffffffffffffffffff16905090565b6000806000806000600160006001600280549050610e959190611ea2565b815260200190815260200160002060405180606001604052908160008201548152602001600182015481526020016002820160009054906101000a900460ff16151515158152505090506001600280549050610ef19190611ea2565b81600001518260200151836040015194509450945094505090919293565b60016020528060005260406000206000915090508060000154908060010154908060020160009054906101000a900460ff16905083565b606060036000838152602001908152602001600020805480602002602001604051908101604052809291908181526020016000905b8282101561103557838290600052602060002090600602016040518060c0016040529081600082015481526020016001820160009054906101000a900473ffffffffffffffffffffffffffffffffffffffff1673ffffffffffffffffffffffffffffffffffffffff1673ffffffffffffffffffffffffffffffffffffffff16815260200160028201548152602001600382015481526020016004820154815260200160058201548152505081526020019060010190610f7b565b505050509050919050565b60606002805480602002602001604051908101604052809291908181526020016000905b828210156110c5578382906000526020600020906003020160405180606001604052908160008201548152602001600182015481526020016002820160009054906101000a900460ff16151515158152505081526020019060010190611064565b50505050905090565b6110d66111ad565b600073ffffffffffffffffffffffffffffffffffffffff168173ffffffffffffffffffffffffffffffffffffffff1603611145576040517f08c379a000000000000000000000000000000000000000000000000000000000815260040161113c90611ffb565b60405180910390fd5b61114e816112c5565b50565b6000804260016000858152602001908152602001600020600101541015801561119a57506001600084815260200190815260200160002060020160009054906101000a900460ff165b156111a457600190505b80915050919050565b6111b5611389565b73ffffffffffffffffffffffffffffffffffffffff166111d3610e4e565b73ffffffffffffffffffffffffffffffffffffffff1614611229576040517f08c379a000000000000000000000000000000000000000000000000000000000815260040161122090612067565b60405180910390fd5b565b60008042600260016002805490506112439190611ea2565b8154811061125457611253611d6f565b5b9060005260206000209060030201600101541080156112b45750600260016002805490506112829190611ea2565b8154811061129357611292611d6f565b5b906000526020600020906003020160020160009054906101000a900460ff16155b156112be57600190505b8091505090565b60008060009054906101000a900473ffffffffffffffffffffffffffffffffffffffff169050816000806101000a81548173ffffffffffffffffffffffffffffffffffffffff021916908373ffffffffffffffffffffffffffffffffffffffff1602179055508173ffffffffffffffffffffffffffffffffffffffff168173ffffffffffffffffffffffffffffffffffffffff167f8be0079c531659141344cd1fd0a4f28419497f9722a3daafe3b4186f6b6457e060405160405180910390a35050565b600033905090565b600080fd5b6000819050919050565b6113a981611396565b81146113b457600080fd5b50565b6000813590506113c6816113a0565b92915050565b6000602082840312156113e2576113e1611391565b5b60006113f0848285016113b7565b91505092915050565b61140281611396565b82525050565b600060208201905061141d60008301846113f9565b92915050565b6000806040838503121561143a57611439611391565b5b6000611448858286016113b7565b9250506020611459858286016113b7565b9150509250929050565b600073ffffffffffffffffffffffffffffffffffffffff82169050919050565b600061148e82611463565b9050919050565b61149e81611483565b82525050565b600060c0820190506114b960008301896113f9565b6114c66020830188611495565b6114d360408301876113f9565b6114e060608301866113f9565b6114ed60808301856113f9565b6114fa60a08301846113f9565b979650505050505050565b600060208201905061151a6000830184611495565b92915050565b60008115159050919050565b61153581611520565b82525050565b600060808201905061155060008301876113f9565b61155d60208301866113f9565b61156a60408301856113f9565b611577606083018461152c565b95945050505050565b600060608201905061159560008301866113f9565b6115a260208301856113f9565b6115af604083018461152c565b949350505050565b600081519050919050565b600082825260208201905092915050565b6000819050602082019050919050565b6115ec81611396565b82525050565b6115fb81611483565b82525050565b60c08201600082015161161760008501826115e3565b50602082015161162a60208501826115f2565b50604082015161163d60408501826115e3565b50606082015161165060608501826115e3565b50608082015161166360808501826115e3565b5060a082015161167660a08501826115e3565b50505050565b60006116888383611601565b60c08301905092915050565b6000602082019050919050565b60006116ac826115b7565b6116b681856115c2565b93506116c1836115d3565b8060005b838110156116f25781516116d9888261167c565b97506116e483611694565b9250506001810190506116c5565b5085935050505092915050565b6000602082019050818103600083015261171981846116a1565b905092915050565b600081519050919050565b600082825260208201905092915050565b6000819050602082019050919050565b61175681611520565b82525050565b60608201600082015161177260008501826115e3565b50602082015161178560208501826115e3565b506040820151611798604085018261174d565b50505050565b60006117aa838361175c565b60608301905092915050565b6000602082019050919050565b60006117ce82611721565b6117d8818561172c565b93506117e38361173d565b8060005b838110156118145781516117fb888261179e565b9750611806836117b6565b9250506001810190506117e7565b5085935050505092915050565b6000602082019050818103600083015261183b81846117c3565b905092915050565b61184c81611483565b811461185757600080fd5b50565b60008135905061186981611843565b92915050565b60006020828403121561188557611884611391565b5b60006118938482850161185a565b91505092915050565b600082825260208201905092915050565b7f526f756e64206973206e6f74206c697665000000000000000000000000000000600082015250565b60006118e360118361189c565b91506118ee826118ad565b602082019050919050565b60006020820190508181036000830152611912816118d6565b9050919050565b7f4e487b7100000000000000000000000000000000000000000000000000000000600052601160045260246000fd5b60008160011c9050919050565b6000808291508390505b600185111561199f5780860481111561197b5761197a611919565b5b600185161561198a5780820291505b808102905061199885611948565b945061195f565b94509492505050565b6000826119b85760019050611a74565b816119c65760009050611a74565b81600181146119dc57600281146119e657611a15565b6001915050611a74565b60ff8411156119f8576119f7611919565b5b8360020a915084821115611a0f57611a0e611919565b5b50611a74565b5060208310610133831016604e8410600b8410161715611a4a5782820a905083811115611a4557611a44611919565b5b611a74565b611a578484846001611955565b92509050818404811115611a6e57611a6d611919565b5b81810290505b9392505050565b6000611a8682611396565b9150611a9183611396565b9250611abe7fffffffffffffffffffffffffffffffffffffffffffffffffffffffffffffffff84846119a8565b905092915050565b6000611ad182611396565b9150611adc83611396565b9250828202611aea81611396565b91508282048414831517611b0157611b00611919565b5b5092915050565b7f4d696e696d756d20636f6e74726163742062616c616e63652073686f756c642060008201527f626520312074504c530000000000000000000000000000000000000000000000602082015250565b6000611b6460298361189c565b9150611b6f82611b08565b604082019050919050565b60006020820190508181036000830152611b9381611b57565b9050919050565b7f50726576696f757320726f756e64206973206e6f742066696e6973686564207960008201527f6574000000000000000000000000000000000000000000000000000000000000602082015250565b6000611bf660228361189c565b9150611c0182611b9a565b604082019050919050565b60006020820190508181036000830152611c2581611be9565b9050919050565b6000611c3782611396565b9150611c4283611396565b9250828201905080821115611c5a57611c59611919565b5b92915050565b6000606082019050611c7560008301866113f9565b611c8260208301856113f9565b611c8f60408301846113f9565b949350505050565b7f526f756e6420697320206c697665000000000000000000000000000000000000600082015250565b6000611ccd600e8361189c565b9150611cd882611c97565b602082019050919050565b60006020820190508181036000830152611cfc81611cc0565b9050919050565b7f526f756e6420616c72656164792066696e697368656400000000000000000000600082015250565b6000611d3960168361189c565b9150611d4482611d03565b602082019050919050565b60006020820190508181036000830152611d6881611d2c565b9050919050565b7f4e487b7100000000000000000000000000000000000000000000000000000000600052603260045260246000fd5b6000819050919050565b6000819050919050565b6000611dcd611dc8611dc384611d9e565b611da8565b611396565b9050919050565b611ddd81611db2565b82525050565b600060a082019050611df860008301886113f9565b611e056020830187611495565b611e1260408301866113f9565b611e1f60608301856113f9565b611e2c6080830184611dd4565b9695505050505050565b7f496e636f727265637420696e76657374656420616d6f756e7400000000000000600082015250565b6000611e6c60198361189c565b9150611e7782611e36565b602082019050919050565b60006020820190508181036000830152611e9b81611e5f565b9050919050565b6000611ead82611396565b9150611eb883611396565b9250828203905081811115611ed057611ecf611919565b5b92915050565b7f4e487b7100000000000000000000000000000000000000000000000000000000600052601260045260246000fd5b6000611f1082611396565b9150611f1b83611396565b925082611f2b57611f2a611ed6565b5b828204905092915050565b600060a082019050611f4b60008301886113f9565b611f586020830187611495565b611f6560408301866113f9565b611f7260608301856113f9565b611f7f60808301846113f9565b9695505050505050565b7f4f776e61626c653a206e6577206f776e657220697320746865207a65726f206160008201527f6464726573730000000000000000000000000000000000000000000000000000602082015250565b6000611fe560268361189c565b9150611ff082611f89565b604082019050919050565b6000602082019050818103600083015261201481611fd8565b9050919050565b7f4f776e61626c653a2063616c6c6572206973206e6f7420746865206f776e6572600082015250565b600061205160208361189c565b915061205c8261201b565b602082019050919050565b6000602082019050818103600083015261208081612044565b905091905056fea264697066735822122044f75a13da8bfea649bd1734f79950ca4d1645b7d6c49c83aaff443e478a798364736f6c63430008110033",
  "linkReferences": {},
  "deployedLinkReferences": {}
}