{
  "_format": "hh-sol-artifact-1",
  "contractName": "PlebToHill",
  "sourceName": "contracts/PlebToHill.sol",
  "abi": [
    {
      "anonymous": false,
      "inputs": [
        {
          "indexed": true,
          "internalType": "address",
          "name": "previousOwner",
          "type": "address"
        },
        {
          "indexed": true,
          "internalType": "address",
          "name": "newOwner",
          "type": "address"
        }
      ],
      "name": "OwnershipTransferred",
      "type": "event"
    },
    {
      "anonymous": false,
      "inputs": [
        {
          "indexed": false,
          "internalType": "uint256",
          "name": "roundId",
          "type": "uint256"
        },
        {
          "indexed": false,
          "internalType": "address",
          "name": "walletAddress",
          "type": "address"
        },
        {
          "indexed": false,
          "internalType": "uint256",
          "name": "invested_amount",
          "type": "uint256"
        },
        {
          "indexed": false,
          "internalType": "uint256",
          "name": "participantId",
          "type": "uint256"
        },
        {
          "indexed": false,
          "internalType": "uint256",
          "name": "time",
          "type": "uint256"
        }
      ],
      "name": "ParticipantAdded",
      "type": "event"
    },
    {
      "anonymous": false,
      "inputs": [
        {
          "indexed": false,
          "internalType": "uint256",
          "name": "roundId",
          "type": "uint256"
        },
        {
          "indexed": false,
          "internalType": "uint256",
          "name": "startTime",
          "type": "uint256"
        },
        {
          "indexed": false,
          "internalType": "uint256",
          "name": "endTime",
          "type": "uint256"
        }
      ],
      "name": "RoundCreated",
      "type": "event"
    },
    {
      "anonymous": false,
      "inputs": [
        {
          "indexed": false,
          "internalType": "uint256",
          "name": "roundId",
          "type": "uint256"
        }
      ],
      "name": "RoundFinished",
      "type": "event"
    },
    {
      "anonymous": false,
      "inputs": [
        {
          "indexed": false,
          "internalType": "uint256",
          "name": "roundId",
          "type": "uint256"
        },
        {
          "indexed": false,
          "internalType": "address",
          "name": "walletAddress",
          "type": "address"
        },
        {
          "indexed": false,
          "internalType": "uint256",
          "name": "invested_amount",
          "type": "uint256"
        },
        {
          "indexed": false,
          "internalType": "uint256",
          "name": "participantId",
          "type": "uint256"
        },
        {
          "indexed": false,
          "internalType": "uint256",
          "name": "winnings",
          "type": "uint256"
        }
      ],
      "name": "WinningTransfered",
      "type": "event"
    },
    {
      "inputs": [
        {
          "internalType": "uint256",
          "name": "roundId",
          "type": "uint256"
        }
      ],
      "name": "addParticipant",
      "outputs": [],
      "stateMutability": "payable",
      "type": "function"
    },
    {
      "inputs": [],
      "name": "createRound",
      "outputs": [],
      "stateMutability": "nonpayable",
      "type": "function"
    },
    {
      "inputs": [
        {
          "internalType": "uint256",
          "name": "roundId",
          "type": "uint256"
        }
      ],
      "name": "endRound",
      "outputs": [],
      "stateMutability": "nonpayable",
      "type": "function"
    },
    {
      "inputs": [
        {
          "internalType": "uint256",
          "name": "roundId",
          "type": "uint256"
        }
      ],
      "name": "getAllParticipantOfRound",
      "outputs": [
        {
          "components": [
            {
              "internalType": "uint256",
              "name": "participantId",
              "type": "uint256"
            },
            {
              "internalType": "address",
              "name": "walletAddress",
              "type": "address"
            },
            {
              "internalType": "uint256",
              "name": "invested_amount",
              "type": "uint256"
            },
            {
              "internalType": "uint256",
              "name": "winnings",
              "type": "uint256"
            },
            {
              "internalType": "uint256",
              "name": "roundId",
              "type": "uint256"
            },
            {
              "internalType": "uint256",
              "name": "time",
              "type": "uint256"
            }
          ],
          "internalType": "struct PlebToHill.Participant[]",
          "name": "",
          "type": "tuple[]"
        }
      ],
      "stateMutability": "view",
      "type": "function"
    },
    {
      "inputs": [],
      "name": "getAllRounds",
      "outputs": [
        {
          "components": [
            {
              "internalType": "uint256",
              "name": "startTime",
              "type": "uint256"
            },
            {
              "internalType": "uint256",
              "name": "endTime",
              "type": "uint256"
            },
            {
              "internalType": "bool",
              "name": "isLive",
              "type": "bool"
            }
          ],
          "internalType": "struct PlebToHill.Round[]",
          "name": "",
          "type": "tuple[]"
        }
      ],
      "stateMutability": "view",
      "type": "function"
    },
    {
      "inputs": [],
      "name": "getCurrentLiveRound",
      "outputs": [
        {
          "internalType": "uint256",
          "name": "roundId",
          "type": "uint256"
        },
        {
          "internalType": "uint256",
          "name": "startTime",
          "type": "uint256"
        },
        {
          "internalType": "uint256",
          "name": "endTime",
          "type": "uint256"
        },
        {
          "internalType": "bool",
          "name": "isLive",
          "type": "bool"
        }
      ],
      "stateMutability": "view",
      "type": "function"
    },
    {
      "inputs": [
        {
          "internalType": "uint256",
          "name": "roundId",
          "type": "uint256"
        }
      ],
      "name": "getLoserData",
      "outputs": [
        {
          "internalType": "uint256",
          "name": "id",
          "type": "uint256"
        },
        {
          "internalType": "address",
          "name": "wallet",
          "type": "address"
        },
        {
          "internalType": "uint256",
          "name": "amount_lose",
          "type": "uint256"
        }
      ],
      "stateMutability": "view",
      "type": "function"
    },
    {
      "inputs": [
        {
          "internalType": "uint256",
          "name": "roundId",
          "type": "uint256"
        }
      ],
      "name": "getRoundData",
      "outputs": [
        {
          "components": [
            {
              "internalType": "uint256",
              "name": "startTime",
              "type": "uint256"
            },
            {
              "internalType": "uint256",
              "name": "endTime",
              "type": "uint256"
            },
            {
              "internalType": "bool",
              "name": "isLive",
              "type": "bool"
            }
          ],
          "internalType": "struct PlebToHill.Round",
          "name": "",
          "type": "tuple"
        }
      ],
      "stateMutability": "view",
      "type": "function"
    },
    {
      "inputs": [
        {
          "internalType": "uint256",
          "name": "roundId",
          "type": "uint256"
        }
      ],
      "name": "getValueForNextParticipant",
      "outputs": [
        {
          "internalType": "uint256",
          "name": "",
          "type": "uint256"
        }
      ],
      "stateMutability": "view",
      "type": "function"
    },
    {
      "inputs": [],
      "name": "owner",
      "outputs": [
        {
          "internalType": "address",
          "name": "",
          "type": "address"
        }
      ],
      "stateMutability": "view",
      "type": "function"
    },
    {
      "inputs": [],
      "name": "renounceOwnership",
      "outputs": [],
      "stateMutability": "nonpayable",
      "type": "function"
    },
    {
      "inputs": [
        {
          "internalType": "address",
          "name": "newOwner",
          "type": "address"
        }
      ],
      "name": "transferOwnership",
      "outputs": [],
      "stateMutability": "nonpayable",
      "type": "function"
    },
    {
      "stateMutability": "payable",
      "type": "receive"
    }
  ],
  "bytecode": "0x608060405234801561001057600080fd5b5061002d61002261003260201b60201c565b61003a60201b60201c565b6100fe565b600033905090565b60008060009054906101000a900473ffffffffffffffffffffffffffffffffffffffff169050816000806101000a81548173ffffffffffffffffffffffffffffffffffffffff021916908373ffffffffffffffffffffffffffffffffffffffff1602179055508173ffffffffffffffffffffffffffffffffffffffff168173ffffffffffffffffffffffffffffffffffffffff167f8be0079c531659141344cd1fd0a4f28419497f9722a3daafe3b4186f6b6457e060405160405180910390a35050565b612210806200010e6000396000f3fe6080604052600436106100ab5760003560e01c80638acaf7a8116100645780638acaf7a8146101c75780638da5cb5b146101e3578063928554f91461020e578063dade4b641461023c578063e5066bbf14610279578063f2fde38b146102a4576100b2565b806303861ba6146100b75780630720da52146100f45780631b411fc8146101315780635a1e6ca114610148578063606e484114610171578063715018a6146101b0576100b2565b366100b257005b600080fd5b3480156100c357600080fd5b506100de60048036038101906100d9919061158f565b6102cd565b6040516100eb91906115cb565b60405180910390f35b34801561010057600080fd5b5061011b6004803603810190610116919061158f565b61035a565b6040516101289190611652565b60405180910390f35b34801561013d57600080fd5b506101466103b6565b005b34801561015457600080fd5b5061016f600480360381019061016a919061158f565b6105c9565b005b34801561017d57600080fd5b506101986004803603810190610193919061158f565b6109d6565b6040516101a7939291906116ae565b60405180910390f35b3480156101bc57600080fd5b506101c5610b3d565b005b6101e160048036038101906101dc919061158f565b610b51565b005b3480156101ef57600080fd5b506101f8611025565b60405161020591906116e5565b60405180910390f35b34801561021a57600080fd5b5061022361104e565b604051610233949392919061170f565b60405180910390f35b34801561024857600080fd5b50610263600480360381019061025e919061158f565b6110e6565b604051610270919061188d565b60405180910390f35b34801561028557600080fd5b5061028e6111e0565b60405161029b91906119a0565b60405180910390f35b3480156102b057600080fd5b506102cb60048036038101906102c691906119ee565b61126e565b005b60006102d8826112f1565b610317576040517f08c379a000000000000000000000000000000000000000000000000000000000815260040161030e90611a78565b60405180910390fd5b600060036000848152602001908152602001600020805490509050670de0b6b3a76400008160026103489190611bfa565b6103529190611c45565b915050919050565b610362611531565b6001600083815260200190815260200160002060405180606001604052908160008201548152602001600182015481526020016002820160009054906101000a900460ff1615151515815250509050919050565b6103be61134d565b670de0b6b3a7640000471015610409576040517f08c379a000000000000000000000000000000000000000000000000000000000815260040161040090611cf9565b60405180910390fd5b6000600280549050905060006002805490501115610469576104296113cb565b610468576040517f08c379a000000000000000000000000000000000000000000000000000000000815260040161045f90611d8b565b60405180910390fd5b5b604051806060016040528042815260200161012c426104889190611dab565b81526020016001151581525060016000838152602001908152602001600020600082015181600001556020820151816001015560408201518160020160006101000a81548160ff021916908315150217905550905050600260016000838152602001908152602001600020908060018154018082558091505060019003906000526020600020906003020160009091909190915060008201548160000155600182015481600101556002820160009054906101000a900460ff168160020160006101000a81548160ff02191690831515021790555050507f68e7b09ec44e876e76ff05157850e3261aa63a8680fe21a2ba93dcbb2b09f58f81600160008481526020019081526020016000206000015460016000858152602001908152602001600020600101546040516105be93929190611ddf565b60405180910390a150565b6105d161134d565b6105da816112f1565b1561061a576040517f08c379a000000000000000000000000000000000000000000000000000000000815260040161061190611e62565b60405180910390fd5b6001600082815260200190815260200160002060020160009054906101000a900460ff1661067d576040517f08c379a000000000000000000000000000000000000000000000000000000000815260040161067490611ece565b60405180910390fd5b60006001600083815260200190815260200160002060020160006101000a81548160ff0219169083151502179055506000600282815481106106c2576106c1611eee565b5b906000526020600020906003020160020160006101000a81548160ff021916908315150217905550600160036000838152602001908152602001600020805490500361099c5760006064600560026003600086815260200190815260200160002060008154811061073657610735611eee565b5b9060005260206000209060060201600201546107529190611c45565b61075c9190611c45565b6107669190611f4c565b905060008160026003600086815260200190815260200160002060008154811061079357610792611eee565b5b9060005260206000209060060201600201546107af9190611c45565b6107b99190611f7d565b905080600360008581526020019081526020016000206000815481106107e2576107e1611eee565b5b9060005260206000209060060201600301819055506003600084815260200190815260200160002060008154811061081d5761081c611eee565b5b906000526020600020906006020160010160009054906101000a900473ffffffffffffffffffffffffffffffffffffffff1673ffffffffffffffffffffffffffffffffffffffff166108fc829081150290604051600060405180830381858888f19350505050158015610894573d6000803e3d6000fd5b507f65edb247950c75beace5afb548418caec939cfa83b1fc60186d09d89cea66ba783600360008681526020019081526020016000206000815481106108dd576108dc611eee565b5b906000526020600020906006020160010160009054906101000a900473ffffffffffffffffffffffffffffffffffffffff166003600087815260200190815260200160002060008154811061093557610934611eee565b5b9060005260206000209060060201600201546003600088815260200190815260200160002060008154811061096d5761096c611eee565b5b90600052602060002090600602016000015485604051610991959493929190611fb1565b60405180910390a150505b7f74ef25ef6b332a2fbbe7eb8b4108e0fe842a929d34c52a2ea4ca1a0f1524f107816040516109cb91906115cb565b60405180910390a150565b60008060006001600360008681526020019081526020016000208054905011610a34576040517f08c379a0000000000000000000000000000000000000000000000000000000008152600401610a2b90612050565b60405180910390fd5b60006003600086815260200190815260200160002060016003600088815260200190815260200160002080549050610a6c9190611f7d565b81548110610a7d57610a7c611eee565b5b90600052602060002090600602016040518060c0016040529081600082015481526020016001820160009054906101000a900473ffffffffffffffffffffffffffffffffffffffff1673ffffffffffffffffffffffffffffffffffffffff1673ffffffffffffffffffffffffffffffffffffffff1681526020016002820154815260200160038201548152602001600482015481526020016005820154815250509050806000015193508060200151925080604001519150509193909250565b610b4561134d565b610b4f6000611465565b565b610b5a816112f1565b610b99576040517f08c379a0000000000000000000000000000000000000000000000000000000008152600401610b9090611a78565b60405180910390fd5b610ba2816102cd565b3414610be3576040517f08c379a0000000000000000000000000000000000000000000000000000000008152600401610bda906120bc565b60405180910390fd5b600060036000838152602001908152602001600020805490509050600360008381526020019081526020016000206040518060c001604052808381526020013373ffffffffffffffffffffffffffffffffffffffff168152602001348152602001600081526020018481526020014281525090806001815401808255809150506001900390600052602060002090600602016000909190919091506000820151816000015560208201518160010160006101000a81548173ffffffffffffffffffffffffffffffffffffffff021916908373ffffffffffffffffffffffffffffffffffffffff16021790555060408201518160020155606082015181600301556080820151816004015560a08201518160050155505060008114610fe257600060646005600260036000878152602001908152602001600020600186610d299190611f7d565b81548110610d3a57610d39611eee565b5b906000526020600020906006020160020154610d569190611c45565b610d609190611c45565b610d6a9190611f4c565b9050600081600260036000878152602001908152602001600020600186610d919190611f7d565b81548110610da257610da1611eee565b5b906000526020600020906006020160020154610dbe9190611c45565b610dc89190611f7d565b90508060036000868152602001908152602001600020600185610deb9190611f7d565b81548110610dfc57610dfb611eee565b5b90600052602060002090600602016003018190555060036000858152602001908152602001600020600184610e319190611f7d565b81548110610e4257610e41611eee565b5b906000526020600020906006020160010160009054906101000a900473ffffffffffffffffffffffffffffffffffffffff1673ffffffffffffffffffffffffffffffffffffffff166108fc829081150290604051600060405180830381858888f19350505050158015610eb9573d6000803e3d6000fd5b507f65edb247950c75beace5afb548418caec939cfa83b1fc60186d09d89cea66ba78460036000878152602001908152602001600020600186610efc9190611f7d565b81548110610f0d57610f0c611eee565b5b906000526020600020906006020160010160009054906101000a900473ffffffffffffffffffffffffffffffffffffffff1660036000888152602001908152602001600020600187610f5f9190611f7d565b81548110610f7057610f6f611eee565b5b90600052602060002090600602016002015460036000898152602001908152602001600020600188610fa29190611f7d565b81548110610fb357610fb2611eee565b5b90600052602060002090600602016000015485604051610fd7959493929190611fb1565b60405180910390a150505b7f2eaa1bda0a76999046e8def81099978a4164fbfb5f4207619e76c3823f6043678233348442604051611019959493929190611fb1565b60405180910390a15050565b60008060009054906101000a900473ffffffffffffffffffffffffffffffffffffffff16905090565b600080600080600060016000600160028054905061106c9190611f7d565b815260200190815260200160002060405180606001604052908160008201548152602001600182015481526020016002820160009054906101000a900460ff161515151581525050905060016002805490506110c89190611f7d565b81600001518260200151836040015194509450945094505090919293565b606060036000838152602001908152602001600020805480602002602001604051908101604052809291908181526020016000905b828210156111d557838290600052602060002090600602016040518060c0016040529081600082015481526020016001820160009054906101000a900473ffffffffffffffffffffffffffffffffffffffff1673ffffffffffffffffffffffffffffffffffffffff1673ffffffffffffffffffffffffffffffffffffffff1681526020016002820154815260200160038201548152602001600482015481526020016005820154815250508152602001906001019061111b565b505050509050919050565b60606002805480602002602001604051908101604052809291908181526020016000905b82821015611265578382906000526020600020906003020160405180606001604052908160008201548152602001600182015481526020016002820160009054906101000a900460ff16151515158152505081526020019060010190611204565b50505050905090565b61127661134d565b600073ffffffffffffffffffffffffffffffffffffffff168173ffffffffffffffffffffffffffffffffffffffff16036112e5576040517f08c379a00000000000000000000000000000000000000000000000000000000081526004016112dc9061214e565b60405180910390fd5b6112ee81611465565b50565b6000804260016000858152602001908152602001600020600101541015801561133a57506001600084815260200190815260200160002060020160009054906101000a900460ff165b1561134457600190505b80915050919050565b611355611529565b73ffffffffffffffffffffffffffffffffffffffff16611373611025565b73ffffffffffffffffffffffffffffffffffffffff16146113c9576040517f08c379a00000000000000000000000000000000000000000000000000000000081526004016113c0906121ba565b60405180910390fd5b565b60008042600260016002805490506113e39190611f7d565b815481106113f4576113f3611eee565b5b9060005260206000209060030201600101541080156114545750600260016002805490506114229190611f7d565b8154811061143357611432611eee565b5b906000526020600020906003020160020160009054906101000a900460ff16155b1561145e57600190505b8091505090565b60008060009054906101000a900473ffffffffffffffffffffffffffffffffffffffff169050816000806101000a81548173ffffffffffffffffffffffffffffffffffffffff021916908373ffffffffffffffffffffffffffffffffffffffff1602179055508173ffffffffffffffffffffffffffffffffffffffff168173ffffffffffffffffffffffffffffffffffffffff167f8be0079c531659141344cd1fd0a4f28419497f9722a3daafe3b4186f6b6457e060405160405180910390a35050565b600033905090565b604051806060016040528060008152602001600081526020016000151581525090565b600080fd5b6000819050919050565b61156c81611559565b811461157757600080fd5b50565b60008135905061158981611563565b92915050565b6000602082840312156115a5576115a4611554565b5b60006115b38482850161157a565b91505092915050565b6115c581611559565b82525050565b60006020820190506115e060008301846115bc565b92915050565b6115ef81611559565b82525050565b60008115159050919050565b61160a816115f5565b82525050565b60608201600082015161162660008501826115e6565b50602082015161163960208501826115e6565b50604082015161164c6040850182611601565b50505050565b60006060820190506116676000830184611610565b92915050565b600073ffffffffffffffffffffffffffffffffffffffff82169050919050565b60006116988261166d565b9050919050565b6116a88161168d565b82525050565b60006060820190506116c360008301866115bc565b6116d0602083018561169f565b6116dd60408301846115bc565b949350505050565b60006020820190506116fa600083018461169f565b92915050565b611709816115f5565b82525050565b600060808201905061172460008301876115bc565b61173160208301866115bc565b61173e60408301856115bc565b61174b6060830184611700565b95945050505050565b600081519050919050565b600082825260208201905092915050565b6000819050602082019050919050565b6117898161168d565b82525050565b60c0820160008201516117a560008501826115e6565b5060208201516117b86020850182611780565b5060408201516117cb60408501826115e6565b5060608201516117de60608501826115e6565b5060808201516117f160808501826115e6565b5060a082015161180460a08501826115e6565b50505050565b6000611816838361178f565b60c08301905092915050565b6000602082019050919050565b600061183a82611754565b611844818561175f565b935061184f83611770565b8060005b83811015611880578151611867888261180a565b975061187283611822565b925050600181019050611853565b5085935050505092915050565b600060208201905081810360008301526118a7818461182f565b905092915050565b600081519050919050565b600082825260208201905092915050565b6000819050602082019050919050565b6060820160008201516118f160008501826115e6565b50602082015161190460208501826115e6565b5060408201516119176040850182611601565b50505050565b600061192983836118db565b60608301905092915050565b6000602082019050919050565b600061194d826118af565b61195781856118ba565b9350611962836118cb565b8060005b8381101561199357815161197a888261191d565b975061198583611935565b925050600181019050611966565b5085935050505092915050565b600060208201905081810360008301526119ba8184611942565b905092915050565b6119cb8161168d565b81146119d657600080fd5b50565b6000813590506119e8816119c2565b92915050565b600060208284031215611a0457611a03611554565b5b6000611a12848285016119d9565b91505092915050565b600082825260208201905092915050565b7f526f756e64206973206e6f74206c697665000000000000000000000000000000600082015250565b6000611a62601183611a1b565b9150611a6d82611a2c565b602082019050919050565b60006020820190508181036000830152611a9181611a55565b9050919050565b7f4e487b7100000000000000000000000000000000000000000000000000000000600052601160045260246000fd5b60008160011c9050919050565b6000808291508390505b6001851115611b1e57808604811115611afa57611af9611a98565b5b6001851615611b095780820291505b8081029050611b1785611ac7565b9450611ade565b94509492505050565b600082611b375760019050611bf3565b81611b455760009050611bf3565b8160018114611b5b5760028114611b6557611b94565b6001915050611bf3565b60ff841115611b7757611b76611a98565b5b8360020a915084821115611b8e57611b8d611a98565b5b50611bf3565b5060208310610133831016604e8410600b8410161715611bc95782820a905083811115611bc457611bc3611a98565b5b611bf3565b611bd68484846001611ad4565b92509050818404811115611bed57611bec611a98565b5b81810290505b9392505050565b6000611c0582611559565b9150611c1083611559565b9250611c3d7fffffffffffffffffffffffffffffffffffffffffffffffffffffffffffffffff8484611b27565b905092915050565b6000611c5082611559565b9150611c5b83611559565b9250828202611c6981611559565b91508282048414831517611c8057611c7f611a98565b5b5092915050565b7f4d696e696d756d20636f6e74726163742062616c616e63652073686f756c642060008201527f626520312074504c530000000000000000000000000000000000000000000000602082015250565b6000611ce3602983611a1b565b9150611cee82611c87565b604082019050919050565b60006020820190508181036000830152611d1281611cd6565b9050919050565b7f50726576696f757320726f756e64206973206e6f742066696e6973686564207960008201527f6574000000000000000000000000000000000000000000000000000000000000602082015250565b6000611d75602283611a1b565b9150611d8082611d19565b604082019050919050565b60006020820190508181036000830152611da481611d68565b9050919050565b6000611db682611559565b9150611dc183611559565b9250828201905080821115611dd957611dd8611a98565b5b92915050565b6000606082019050611df460008301866115bc565b611e0160208301856115bc565b611e0e60408301846115bc565b949350505050565b7f526f756e6420697320206c697665000000000000000000000000000000000000600082015250565b6000611e4c600e83611a1b565b9150611e5782611e16565b602082019050919050565b60006020820190508181036000830152611e7b81611e3f565b9050919050565b7f526f756e6420616c72656164792066696e697368656400000000000000000000600082015250565b6000611eb8601683611a1b565b9150611ec382611e82565b602082019050919050565b60006020820190508181036000830152611ee781611eab565b9050919050565b7f4e487b7100000000000000000000000000000000000000000000000000000000600052603260045260246000fd5b7f4e487b7100000000000000000000000000000000000000000000000000000000600052601260045260246000fd5b6000611f5782611559565b9150611f6283611559565b925082611f7257611f71611f1d565b5b828204905092915050565b6000611f8882611559565b9150611f9383611559565b9250828203905081811115611fab57611faa611a98565b5b92915050565b600060a082019050611fc660008301886115bc565b611fd3602083018761169f565b611fe060408301866115bc565b611fed60608301856115bc565b611ffa60808301846115bc565b9695505050505050565b7f4e6f206c6f73657220696e207468697320726f756e642e000000000000000000600082015250565b600061203a601783611a1b565b915061204582612004565b602082019050919050565b600060208201905081810360008301526120698161202d565b9050919050565b7f496e636f727265637420696e76657374656420616d6f756e7400000000000000600082015250565b60006120a6601983611a1b565b91506120b182612070565b602082019050919050565b600060208201905081810360008301526120d581612099565b9050919050565b7f4f776e61626c653a206e6577206f776e657220697320746865207a65726f206160008201527f6464726573730000000000000000000000000000000000000000000000000000602082015250565b6000612138602683611a1b565b9150612143826120dc565b604082019050919050565b600060208201905081810360008301526121678161212b565b9050919050565b7f4f776e61626c653a2063616c6c6572206973206e6f7420746865206f776e6572600082015250565b60006121a4602083611a1b565b91506121af8261216e565b602082019050919050565b600060208201905081810360008301526121d381612197565b905091905056fea2646970667358221220e19ee1c790906594258768adef739831c4d639084b408e2d662dcc448be45d1464736f6c63430008110033",
  "linkReferences": {},
  "deployedLinkReferences": {}
}