{
  "_format": "hh-sol-artifact-1",
  "contractName": "PlebToHill",
  "sourceName": "contracts/PlebToHill.sol",
  "abi": [
    {
      "anonymous": false,
      "inputs": [
        {
          "indexed": true,
          "internalType": "address",
          "name": "previousOwner",
          "type": "address"
        },
        {
          "indexed": true,
          "internalType": "address",
          "name": "newOwner",
          "type": "address"
        }
      ],
      "name": "OwnershipTransferred",
      "type": "event"
    },
    {
      "anonymous": false,
      "inputs": [
        {
          "indexed": false,
          "internalType": "uint256",
          "name": "roundId",
          "type": "uint256"
        },
        {
          "indexed": false,
          "internalType": "address",
          "name": "walletAddress",
          "type": "address"
        },
        {
          "indexed": false,
          "internalType": "uint256",
          "name": "invested_amount",
          "type": "uint256"
        },
        {
          "indexed": false,
          "internalType": "uint256",
          "name": "participantId",
          "type": "uint256"
        },
        {
          "indexed": false,
          "internalType": "uint256",
          "name": "time",
          "type": "uint256"
        }
      ],
      "name": "ParticipantAdded",
      "type": "event"
    },
    {
      "anonymous": false,
      "inputs": [
        {
          "indexed": false,
          "internalType": "uint256",
          "name": "roundId",
          "type": "uint256"
        },
        {
          "indexed": false,
          "internalType": "uint256",
          "name": "startTime",
          "type": "uint256"
        },
        {
          "indexed": false,
          "internalType": "uint256",
          "name": "endTime",
          "type": "uint256"
        }
      ],
      "name": "RoundCreated",
      "type": "event"
    },
    {
      "anonymous": false,
      "inputs": [
        {
          "indexed": false,
          "internalType": "uint256",
          "name": "roundId",
          "type": "uint256"
        }
      ],
      "name": "RoundFinished",
      "type": "event"
    },
    {
      "anonymous": false,
      "inputs": [
        {
          "indexed": false,
          "internalType": "uint256",
          "name": "roundId",
          "type": "uint256"
        },
        {
          "indexed": false,
          "internalType": "uint256",
          "name": "endTime",
          "type": "uint256"
        }
      ],
      "name": "TimeReset",
      "type": "event"
    },
    {
      "anonymous": false,
      "inputs": [
        {
          "indexed": false,
          "internalType": "uint256",
          "name": "roundId",
          "type": "uint256"
        },
        {
          "indexed": false,
          "internalType": "address",
          "name": "walletAddress",
          "type": "address"
        },
        {
          "indexed": false,
          "internalType": "uint256",
          "name": "invested_amount",
          "type": "uint256"
        },
        {
          "indexed": false,
          "internalType": "uint256",
          "name": "participantId",
          "type": "uint256"
        },
        {
          "indexed": false,
          "internalType": "uint256",
          "name": "winnings",
          "type": "uint256"
        }
      ],
      "name": "WinningTransfered",
      "type": "event"
    },
    {
      "inputs": [
        {
          "internalType": "uint256",
          "name": "roundId",
          "type": "uint256"
        }
      ],
      "name": "addParticipant",
      "outputs": [],
      "stateMutability": "payable",
      "type": "function"
    },
    {
      "inputs": [],
      "name": "createRound",
      "outputs": [],
      "stateMutability": "nonpayable",
      "type": "function"
    },
    {
      "inputs": [
        {
          "internalType": "uint256",
          "name": "roundId",
          "type": "uint256"
        }
      ],
      "name": "endRound",
      "outputs": [],
      "stateMutability": "nonpayable",
      "type": "function"
    },
    {
      "inputs": [
        {
          "internalType": "uint256",
          "name": "roundId",
          "type": "uint256"
        }
      ],
      "name": "getAllParticipantOfRound",
      "outputs": [
        {
          "components": [
            {
              "internalType": "uint256",
              "name": "participantId",
              "type": "uint256"
            },
            {
              "internalType": "address",
              "name": "walletAddress",
              "type": "address"
            },
            {
              "internalType": "uint256",
              "name": "invested_amount",
              "type": "uint256"
            },
            {
              "internalType": "uint256",
              "name": "winnings",
              "type": "uint256"
            },
            {
              "internalType": "uint256",
              "name": "roundId",
              "type": "uint256"
            },
            {
              "internalType": "uint256",
              "name": "time",
              "type": "uint256"
            }
          ],
          "internalType": "struct PlebToHill.Participant[]",
          "name": "",
          "type": "tuple[]"
        }
      ],
      "stateMutability": "view",
      "type": "function"
    },
    {
      "inputs": [
        {
          "internalType": "uint256",
          "name": "start",
          "type": "uint256"
        },
        {
          "internalType": "uint256",
          "name": "end",
          "type": "uint256"
        }
      ],
      "name": "getAllRounds",
      "outputs": [
        {
          "components": [
            {
              "internalType": "uint256",
              "name": "roundId",
              "type": "uint256"
            },
            {
              "internalType": "uint256",
              "name": "startTime",
              "type": "uint256"
            },
            {
              "internalType": "uint256",
              "name": "endTime",
              "type": "uint256"
            },
            {
              "internalType": "bool",
              "name": "isLive",
              "type": "bool"
            }
          ],
          "internalType": "struct PlebToHill.Round[]",
          "name": "",
          "type": "tuple[]"
        }
      ],
      "stateMutability": "view",
      "type": "function"
    },
    {
      "inputs": [],
      "name": "getCurrentLiveRound",
      "outputs": [
        {
          "internalType": "uint256",
          "name": "roundId",
          "type": "uint256"
        },
        {
          "internalType": "uint256",
          "name": "startTime",
          "type": "uint256"
        },
        {
          "internalType": "uint256",
          "name": "endTime",
          "type": "uint256"
        },
        {
          "internalType": "bool",
          "name": "isLive",
          "type": "bool"
        }
      ],
      "stateMutability": "view",
      "type": "function"
    },
    {
      "inputs": [
        {
          "internalType": "uint256",
          "name": "roundId",
          "type": "uint256"
        }
      ],
      "name": "getLoserData",
      "outputs": [
        {
          "internalType": "uint256",
          "name": "id",
          "type": "uint256"
        },
        {
          "internalType": "address",
          "name": "wallet",
          "type": "address"
        },
        {
          "internalType": "uint256",
          "name": "amount_lose",
          "type": "uint256"
        }
      ],
      "stateMutability": "view",
      "type": "function"
    },
    {
      "inputs": [
        {
          "internalType": "uint256",
          "name": "roundId",
          "type": "uint256"
        }
      ],
      "name": "getRemainingTime",
      "outputs": [
        {
          "internalType": "uint256",
          "name": "",
          "type": "uint256"
        }
      ],
      "stateMutability": "view",
      "type": "function"
    },
    {
      "inputs": [
        {
          "internalType": "uint256",
          "name": "roundId",
          "type": "uint256"
        }
      ],
      "name": "getRoundData",
      "outputs": [
        {
          "components": [
            {
              "internalType": "uint256",
              "name": "roundId",
              "type": "uint256"
            },
            {
              "internalType": "uint256",
              "name": "startTime",
              "type": "uint256"
            },
            {
              "internalType": "uint256",
              "name": "endTime",
              "type": "uint256"
            },
            {
              "internalType": "bool",
              "name": "isLive",
              "type": "bool"
            }
          ],
          "internalType": "struct PlebToHill.Round",
          "name": "",
          "type": "tuple"
        }
      ],
      "stateMutability": "view",
      "type": "function"
    },
    {
      "inputs": [
        {
          "internalType": "uint256",
          "name": "roundId",
          "type": "uint256"
        }
      ],
      "name": "getValueForNextParticipant",
      "outputs": [
        {
          "internalType": "uint256",
          "name": "",
          "type": "uint256"
        }
      ],
      "stateMutability": "view",
      "type": "function"
    },
    {
      "inputs": [],
      "name": "owner",
      "outputs": [
        {
          "internalType": "address",
          "name": "",
          "type": "address"
        }
      ],
      "stateMutability": "view",
      "type": "function"
    },
    {
      "inputs": [],
      "name": "poth_address",
      "outputs": [
        {
          "internalType": "address",
          "name": "",
          "type": "address"
        }
      ],
      "stateMutability": "view",
      "type": "function"
    },
    {
      "inputs": [],
      "name": "renounceOwnership",
      "outputs": [],
      "stateMutability": "nonpayable",
      "type": "function"
    },
    {
      "inputs": [
        {
          "internalType": "address",
          "name": "_pothwallet",
          "type": "address"
        }
      ],
      "name": "setPothWallet",
      "outputs": [],
      "stateMutability": "nonpayable",
      "type": "function"
    },
    {
      "inputs": [
        {
          "internalType": "address",
          "name": "newOwner",
          "type": "address"
        }
      ],
      "name": "transferOwnership",
      "outputs": [],
      "stateMutability": "nonpayable",
      "type": "function"
    },
    {
      "stateMutability": "payable",
      "type": "receive"
    }
  ],
  "bytecode": "0x60806040523480156200001157600080fd5b5062000032620000266200003f60201b60201c565b6200004760201b60201c565b600180819055506200010b565b600033905090565b60008060009054906101000a900473ffffffffffffffffffffffffffffffffffffffff169050816000806101000a81548173ffffffffffffffffffffffffffffffffffffffff021916908373ffffffffffffffffffffffffffffffffffffffff1602179055508173ffffffffffffffffffffffffffffffffffffffff168173ffffffffffffffffffffffffffffffffffffffff167f8be0079c531659141344cd1fd0a4f28419497f9722a3daafe3b4186f6b6457e060405160405180910390a35050565b61290e806200011b6000396000f3fe6080604052600436106100ec5760003560e01c8063715018a61161008a578063928554f911610059578063928554f9146102f2578063dade4b6414610320578063e2b630c21461035d578063f2fde38b14610388576100f3565b8063715018a61461026b5780637ecb177b146102825780638acaf7a8146102ab5780638da5cb5b146102c7576100f3565b80631b411fc8116100c65780631b411fc8146101af578063437b6065146101c65780635a1e6ca114610203578063606e48411461022c576100f3565b806303861ba6146100f85780630720da5214610135578063181e012414610172576100f3565b366100f357005b600080fd5b34801561010457600080fd5b5061011f600480360381019061011a9190611aaf565b6103b1565b60405161012c9190611aeb565b60405180910390f35b34801561014157600080fd5b5061015c60048036038101906101579190611aaf565b61040e565b6040516101699190611b85565b60405180910390f35b34801561017e57600080fd5b5061019960048036038101906101949190611aaf565b610474565b6040516101a69190611aeb565b60405180910390f35b3480156101bb57600080fd5b506101c46104b1565b005b3480156101d257600080fd5b506101ed60048036038101906101e89190611ba0565b6106ea565b6040516101fa9190611ce4565b60405180910390f35b34801561020f57600080fd5b5061022a60048036038101906102259190611aaf565b61086a565b005b34801561023857600080fd5b50610253600480360381019061024e9190611aaf565b610cec565b60405161026293929190611d47565b60405180910390f35b34801561027757600080fd5b50610280610e4c565b005b34801561028e57600080fd5b506102a960048036038101906102a49190611daa565b610e60565b005b6102c560048036038101906102c09190611aaf565b610f1b565b005b3480156102d357600080fd5b506102dc611592565b6040516102e99190611dd7565b60405180910390f35b3480156102fe57600080fd5b506103076115bb565b6040516103179493929190611e01565b60405180910390f35b34801561032c57600080fd5b5061034760048036038101906103429190611aaf565b611667565b6040516103549190611f7f565b60405180910390f35b34801561036957600080fd5b50610372611761565b60405161037f9190611dd7565b60405180910390f35b34801561039457600080fd5b506103af60048036038101906103aa9190611daa565b611787565b005b60006103bc8261180a565b1561040457600060056000848152602001908152602001600020805490509050670de0b6b3a76400008160026103f29190612103565b6103fc919061214e565b915050610409565b600090505b919050565b610416611a4a565b600360008381526020019081526020016000206040518060800160405290816000820154815260200160018201548152602001600282015481526020016003820160009054906101000a900460ff1615151515815250509050919050565b6000806104808361040e565b905080604001514210156104a65742816040015161049e9190612190565b9150506104ac565b60009150505b919050565b6104b9611866565b670de0b6b3a7640000471015610504576040517f08c379a00000000000000000000000000000000000000000000000000000000081526004016104fb90612247565b60405180910390fd5b600060016004805490506105189190612267565b905060006004805490501115610570576105306118e4565b61056f576040517f08c379a00000000000000000000000000000000000000000000000000000000081526004016105669061230d565b60405180910390fd5b5b6040518060800160405280828152602001428152602001610258426105959190612267565b8152602001600115158152506003600083815260200190815260200160002060008201518160000155602082015181600101556040820151816002015560608201518160030160006101000a81548160ff02191690831515021790555090505060046003600083815260200190815260200160002090806001815401808255809150506001900390600052602060002090600402016000909190919091506000820154816000015560018201548160010155600282015481600201556003820160009054906101000a900460ff168160030160006101000a81548160ff02191690831515021790555050507f68e7b09ec44e876e76ff05157850e3261aa63a8680fe21a2ba93dcbb2b09f58f81600360008481526020019081526020016000206001015460036000858152602001908152602001600020600201546040516106df9392919061232d565b60405180910390a150565b60606004805490508210610733576040517f08c379a000000000000000000000000000000000000000000000000000000000815260040161072a906123b0565b60405180910390fd5b6000600184846107439190612190565b61074d9190612267565b67ffffffffffffffff811115610766576107656123d0565b5b60405190808252806020026020018201604052801561079f57816020015b61078c611a4a565b8152602001906001900390816107845790505b50905060005b84846107b19190612190565b811161085f576000600486836107c79190612267565b815481106107d8576107d76123ff565b5b90600052602060002090600402016040518060800160405290816000820154815260200160018201548152602001600282015481526020016003820160009054906101000a900460ff1615151515815250509050808383815181106108405761083f6123ff565b5b60200260200101819052505080806108579061242e565b9150506107a5565b508091505092915050565b610872611866565b61087b8161180a565b156108bb576040517f08c379a00000000000000000000000000000000000000000000000000000000081526004016108b2906124c2565b60405180910390fd5b6003600082815260200190815260200160002060030160009054906101000a900460ff1661091e576040517f08c379a00000000000000000000000000000000000000000000000000000000081526004016109159061252e565b60405180910390fd5b60006003600083815260200190815260200160002060030160006101000a81548160ff0219169083151502179055506000600460018361095e9190612190565b8154811061096f5761096e6123ff565b5b906000526020600020906004020160030160006101000a81548160ff0219169083151502179055506001600560008381526020019081526020016000208054905003610cb2576000606460056002600560008681526020019081526020016000206000815481106109e3576109e26123ff565b5b9060005260206000209060060201600201546109ff919061214e565b610a09919061214e565b610a13919061257d565b9050600081600260056000868152602001908152602001600020600081548110610a4057610a3f6123ff565b5b906000526020600020906006020160020154610a5c919061214e565b610a669190612190565b90508060056000858152602001908152602001600020600081548110610a8f57610a8e6123ff565b5b90600052602060002090600602016003018190555060056000848152602001908152602001600020600081548110610aca57610ac96123ff565b5b906000526020600020906006020160010160009054906101000a900473ffffffffffffffffffffffffffffffffffffffff1673ffffffffffffffffffffffffffffffffffffffff166108fc829081150290604051600060405180830381858888f19350505050158015610b41573d6000803e3d6000fd5b50600260009054906101000a900473ffffffffffffffffffffffffffffffffffffffff1673ffffffffffffffffffffffffffffffffffffffff166108fc839081150290604051600060405180830381858888f19350505050158015610baa573d6000803e3d6000fd5b507f65edb247950c75beace5afb548418caec939cfa83b1fc60186d09d89cea66ba78360056000868152602001908152602001600020600081548110610bf357610bf26123ff565b5b906000526020600020906006020160010160009054906101000a900473ffffffffffffffffffffffffffffffffffffffff1660056000878152602001908152602001600020600081548110610c4b57610c4a6123ff565b5b90600052602060002090600602016002015460056000888152602001908152602001600020600081548110610c8357610c826123ff565b5b90600052602060002090600602016000015485604051610ca79594939291906125ae565b60405180910390a150505b7f74ef25ef6b332a2fbbe7eb8b4108e0fe842a929d34c52a2ea4ca1a0f1524f10781604051610ce19190611aeb565b60405180910390a150565b6000806000600160056000868152602001908152602001600020805490501480610d2c575060006005600086815260200190815260200160002080549050145b15610d4257600092506000915060009050610e45565b60006005600086815260200190815260200160002060016005600088815260200190815260200160002080549050610d7a9190612190565b81548110610d8b57610d8a6123ff565b5b90600052602060002090600602016040518060c0016040529081600082015481526020016001820160009054906101000a900473ffffffffffffffffffffffffffffffffffffffff1673ffffffffffffffffffffffffffffffffffffffff1673ffffffffffffffffffffffffffffffffffffffff1681526020016002820154815260200160038201548152602001600482015481526020016005820154815250509050806000015193508060200151925080604001519150505b9193909250565b610e54611866565b610e5e600061197e565b565b610e68611866565b600073ffffffffffffffffffffffffffffffffffffffff168173ffffffffffffffffffffffffffffffffffffffff1603610ed7576040517f08c379a0000000000000000000000000000000000000000000000000000000008152600401610ece9061264d565b60405180910390fd5b80600260006101000a81548173ffffffffffffffffffffffffffffffffffffffff021916908373ffffffffffffffffffffffffffffffffffffffff16021790555050565b600260015403610f60576040517f08c379a0000000000000000000000000000000000000000000000000000000008152600401610f57906126b9565b60405180910390fd5b6002600181905550610f718161180a565b610fb0576040517f08c379a0000000000000000000000000000000000000000000000000000000008152600401610fa790612725565b60405180910390fd5b610fb9816103b1565b3414610ffa576040517f08c379a0000000000000000000000000000000000000000000000000000000008152600401610ff190612791565b60405180910390fd5b60006001600560008481526020019081526020016000208054905061101f9190612267565b9050600560008381526020019081526020016000206040518060c001604052808381526020013373ffffffffffffffffffffffffffffffffffffffff168152602001348152602001600081526020018481526020014281525090806001815401808255809150506001900390600052602060002090600602016000909190919091506000820151816000015560208201518160010160006101000a81548173ffffffffffffffffffffffffffffffffffffffff021916908373ffffffffffffffffffffffffffffffffffffffff16021790555060408201518160020155606082015181600301556080820151816004015560a082015181600501555050607861112783610474565b1115801561113d5750600061113b83610474565b115b156111f657600061025860036000858152602001908152602001600020600201546111689190612267565b90508060036000858152602001908152602001600020600201819055508060046001856111959190612190565b815481106111a6576111a56123ff565b5b9060005260206000209060040201600201819055507fff1bf99918d35d7dd5182e2a06f26aa0b7673c48538bb8ce407af50f4b4ab2ca83826040516111ec9291906127b1565b60405180910390a1505b60018114611548576000606460056002600560008781526020019081526020016000206002866112269190612190565b81548110611237576112366123ff565b5b906000526020600020906006020160020154611253919061214e565b61125d919061214e565b611267919061257d565b905060008160026005600087815260200190815260200160002060028661128e9190612190565b8154811061129f5761129e6123ff565b5b9060005260206000209060060201600201546112bb919061214e565b6112c59190612190565b905080600560008681526020019081526020016000206002856112e89190612190565b815481106112f9576112f86123ff565b5b9060005260206000209060060201600301819055506005600085815260200190815260200160002060028461132e9190612190565b8154811061133f5761133e6123ff565b5b906000526020600020906006020160010160009054906101000a900473ffffffffffffffffffffffffffffffffffffffff1673ffffffffffffffffffffffffffffffffffffffff166108fc829081150290604051600060405180830381858888f193505050501580156113b6573d6000803e3d6000fd5b50600260009054906101000a900473ffffffffffffffffffffffffffffffffffffffff1673ffffffffffffffffffffffffffffffffffffffff166108fc839081150290604051600060405180830381858888f1935050505015801561141f573d6000803e3d6000fd5b507f65edb247950c75beace5afb548418caec939cfa83b1fc60186d09d89cea66ba784600560008781526020019081526020016000206002866114629190612190565b81548110611473576114726123ff565b5b906000526020600020906006020160010160009054906101000a900473ffffffffffffffffffffffffffffffffffffffff16600560008881526020019081526020016000206002876114c59190612190565b815481106114d6576114d56123ff565b5b906000526020600020906006020160020154600560008981526020019081526020016000206002886115089190612190565b81548110611519576115186123ff565b5b9060005260206000209060060201600001548560405161153d9594939291906125ae565b60405180910390a150505b7f2eaa1bda0a76999046e8def81099978a4164fbfb5f4207619e76c3823f604367823334844260405161157f9594939291906125ae565b60405180910390a1506001808190555050565b60008060009054906101000a900473ffffffffffffffffffffffffffffffffffffffff16905090565b600080600080600060048054905011156116525760006003600060048054905081526020019081526020016000206040518060800160405290816000820154815260200160018201548152602001600282015481526020016003820160009054906101000a900460ff1615151515815250509050600480549050816020015182604001518360600151945094509450945050611661565b60008060008093509350935093505b90919293565b606060056000838152602001908152602001600020805480602002602001604051908101604052809291908181526020016000905b8282101561175657838290600052602060002090600602016040518060c0016040529081600082015481526020016001820160009054906101000a900473ffffffffffffffffffffffffffffffffffffffff1673ffffffffffffffffffffffffffffffffffffffff1673ffffffffffffffffffffffffffffffffffffffff1681526020016002820154815260200160038201548152602001600482015481526020016005820154815250508152602001906001019061169c565b505050509050919050565b600260009054906101000a900473ffffffffffffffffffffffffffffffffffffffff1681565b61178f611866565b600073ffffffffffffffffffffffffffffffffffffffff168173ffffffffffffffffffffffffffffffffffffffff16036117fe576040517f08c379a00000000000000000000000000000000000000000000000000000000081526004016117f59061284c565b60405180910390fd5b6118078161197e565b50565b6000804260036000858152602001908152602001600020600201541015801561185357506003600084815260200190815260200160002060030160009054906101000a900460ff165b1561185d57600190505b80915050919050565b61186e611a42565b73ffffffffffffffffffffffffffffffffffffffff1661188c611592565b73ffffffffffffffffffffffffffffffffffffffff16146118e2576040517f08c379a00000000000000000000000000000000000000000000000000000000081526004016118d9906128b8565b60405180910390fd5b565b60008042600460016004805490506118fc9190612190565b8154811061190d5761190c6123ff565b5b90600052602060002090600402016002015410801561196d57506004600160048054905061193b9190612190565b8154811061194c5761194b6123ff565b5b906000526020600020906004020160030160009054906101000a900460ff16155b1561197757600190505b8091505090565b60008060009054906101000a900473ffffffffffffffffffffffffffffffffffffffff169050816000806101000a81548173ffffffffffffffffffffffffffffffffffffffff021916908373ffffffffffffffffffffffffffffffffffffffff1602179055508173ffffffffffffffffffffffffffffffffffffffff168173ffffffffffffffffffffffffffffffffffffffff167f8be0079c531659141344cd1fd0a4f28419497f9722a3daafe3b4186f6b6457e060405160405180910390a35050565b600033905090565b60405180608001604052806000815260200160008152602001600081526020016000151581525090565b600080fd5b6000819050919050565b611a8c81611a79565b8114611a9757600080fd5b50565b600081359050611aa981611a83565b92915050565b600060208284031215611ac557611ac4611a74565b5b6000611ad384828501611a9a565b91505092915050565b611ae581611a79565b82525050565b6000602082019050611b006000830184611adc565b92915050565b611b0f81611a79565b82525050565b60008115159050919050565b611b2a81611b15565b82525050565b608082016000820151611b466000850182611b06565b506020820151611b596020850182611b06565b506040820151611b6c6040850182611b06565b506060820151611b7f6060850182611b21565b50505050565b6000608082019050611b9a6000830184611b30565b92915050565b60008060408385031215611bb757611bb6611a74565b5b6000611bc585828601611a9a565b9250506020611bd685828601611a9a565b9150509250929050565b600081519050919050565b600082825260208201905092915050565b6000819050602082019050919050565b608082016000820151611c226000850182611b06565b506020820151611c356020850182611b06565b506040820151611c486040850182611b06565b506060820151611c5b6060850182611b21565b50505050565b6000611c6d8383611c0c565b60808301905092915050565b6000602082019050919050565b6000611c9182611be0565b611c9b8185611beb565b9350611ca683611bfc565b8060005b83811015611cd7578151611cbe8882611c61565b9750611cc983611c79565b925050600181019050611caa565b5085935050505092915050565b60006020820190508181036000830152611cfe8184611c86565b905092915050565b600073ffffffffffffffffffffffffffffffffffffffff82169050919050565b6000611d3182611d06565b9050919050565b611d4181611d26565b82525050565b6000606082019050611d5c6000830186611adc565b611d696020830185611d38565b611d766040830184611adc565b949350505050565b611d8781611d26565b8114611d9257600080fd5b50565b600081359050611da481611d7e565b92915050565b600060208284031215611dc057611dbf611a74565b5b6000611dce84828501611d95565b91505092915050565b6000602082019050611dec6000830184611d38565b92915050565b611dfb81611b15565b82525050565b6000608082019050611e166000830187611adc565b611e236020830186611adc565b611e306040830185611adc565b611e3d6060830184611df2565b95945050505050565b600081519050919050565b600082825260208201905092915050565b6000819050602082019050919050565b611e7b81611d26565b82525050565b60c082016000820151611e976000850182611b06565b506020820151611eaa6020850182611e72565b506040820151611ebd6040850182611b06565b506060820151611ed06060850182611b06565b506080820151611ee36080850182611b06565b5060a0820151611ef660a0850182611b06565b50505050565b6000611f088383611e81565b60c08301905092915050565b6000602082019050919050565b6000611f2c82611e46565b611f368185611e51565b9350611f4183611e62565b8060005b83811015611f72578151611f598882611efc565b9750611f6483611f14565b925050600181019050611f45565b5085935050505092915050565b60006020820190508181036000830152611f998184611f21565b905092915050565b7f4e487b7100000000000000000000000000000000000000000000000000000000600052601160045260246000fd5b60008160011c9050919050565b6000808291508390505b60018511156120275780860481111561200357612002611fa1565b5b60018516156120125780820291505b808102905061202085611fd0565b9450611fe7565b94509492505050565b60008261204057600190506120fc565b8161204e57600090506120fc565b8160018114612064576002811461206e5761209d565b60019150506120fc565b60ff8411156120805761207f611fa1565b5b8360020a91508482111561209757612096611fa1565b5b506120fc565b5060208310610133831016604e8410600b84101617156120d25782820a9050838111156120cd576120cc611fa1565b5b6120fc565b6120df8484846001611fdd565b925090508184048111156120f6576120f5611fa1565b5b81810290505b9392505050565b600061210e82611a79565b915061211983611a79565b92506121467fffffffffffffffffffffffffffffffffffffffffffffffffffffffffffffffff8484612030565b905092915050565b600061215982611a79565b915061216483611a79565b925082820261217281611a79565b9150828204841483151761218957612188611fa1565b5b5092915050565b600061219b82611a79565b91506121a683611a79565b92508282039050818111156121be576121bd611fa1565b5b92915050565b600082825260208201905092915050565b7f4d696e696d756d20636f6e74726163742062616c616e63652073686f756c642060008201527f626520312074504c530000000000000000000000000000000000000000000000602082015250565b60006122316029836121c4565b915061223c826121d5565b604082019050919050565b6000602082019050818103600083015261226081612224565b9050919050565b600061227282611a79565b915061227d83611a79565b925082820190508082111561229557612294611fa1565b5b92915050565b7f50726576696f757320726f756e64206973206e6f742066696e6973686564207960008201527f6574000000000000000000000000000000000000000000000000000000000000602082015250565b60006122f76022836121c4565b91506123028261229b565b604082019050919050565b60006020820190508181036000830152612326816122ea565b9050919050565b60006060820190506123426000830186611adc565b61234f6020830185611adc565b61235c6040830184611adc565b949350505050565b7f496e76616c69642072616e676500000000000000000000000000000000000000600082015250565b600061239a600d836121c4565b91506123a582612364565b602082019050919050565b600060208201905081810360008301526123c98161238d565b9050919050565b7f4e487b7100000000000000000000000000000000000000000000000000000000600052604160045260246000fd5b7f4e487b7100000000000000000000000000000000000000000000000000000000600052603260045260246000fd5b600061243982611a79565b91507fffffffffffffffffffffffffffffffffffffffffffffffffffffffffffffffff820361246b5761246a611fa1565b5b600182019050919050565b7f526f756e6420697320206c697665000000000000000000000000000000000000600082015250565b60006124ac600e836121c4565b91506124b782612476565b602082019050919050565b600060208201905081810360008301526124db8161249f565b9050919050565b7f526f756e6420616c72656164792066696e697368656400000000000000000000600082015250565b60006125186016836121c4565b9150612523826124e2565b602082019050919050565b600060208201905081810360008301526125478161250b565b9050919050565b7f4e487b7100000000000000000000000000000000000000000000000000000000600052601260045260246000fd5b600061258882611a79565b915061259383611a79565b9250826125a3576125a261254e565b5b828204905092915050565b600060a0820190506125c36000830188611adc565b6125d06020830187611d38565b6125dd6040830186611adc565b6125ea6060830185611adc565b6125f76080830184611adc565b9695505050505050565b7f5a65726f2061646472657373206e6f7420616c6c6f7765640000000000000000600082015250565b60006126376018836121c4565b915061264282612601565b602082019050919050565b600060208201905081810360008301526126668161262a565b9050919050565b7f5265656e7472616e637947756172643a207265656e7472616e742063616c6c00600082015250565b60006126a3601f836121c4565b91506126ae8261266d565b602082019050919050565b600060208201905081810360008301526126d281612696565b9050919050565b7f526f756e64206973206e6f74206c697665000000000000000000000000000000600082015250565b600061270f6011836121c4565b915061271a826126d9565b602082019050919050565b6000602082019050818103600083015261273e81612702565b9050919050565b7f496e636f727265637420696e76657374656420616d6f756e7400000000000000600082015250565b600061277b6019836121c4565b915061278682612745565b602082019050919050565b600060208201905081810360008301526127aa8161276e565b9050919050565b60006040820190506127c66000830185611adc565b6127d36020830184611adc565b9392505050565b7f4f776e61626c653a206e6577206f776e657220697320746865207a65726f206160008201527f6464726573730000000000000000000000000000000000000000000000000000602082015250565b60006128366026836121c4565b9150612841826127da565b604082019050919050565b6000602082019050818103600083015261286581612829565b9050919050565b7f4f776e61626c653a2063616c6c6572206973206e6f7420746865206f776e6572600082015250565b60006128a26020836121c4565b91506128ad8261286c565b602082019050919050565b600060208201905081810360008301526128d181612895565b905091905056fea26469706673582212206eaecb5b790e67bcc4721061e9aade652d3b5f46cbc6729e2c01d57ab065a9de64736f6c63430008110033",
  "linkReferences": {},
  "deployedLinkReferences": {}
}