{
  "_format": "hh-sol-artifact-1",
  "contractName": "PlebToHill",
  "sourceName": "contracts/PlebToHill.sol",
  "abi": [
    {
      "anonymous": false,
      "inputs": [
        {
          "indexed": true,
          "internalType": "address",
          "name": "previousOwner",
          "type": "address"
        },
        {
          "indexed": true,
          "internalType": "address",
          "name": "newOwner",
          "type": "address"
        }
      ],
      "name": "OwnershipTransferred",
      "type": "event"
    },
    {
      "anonymous": false,
      "inputs": [
        {
          "indexed": false,
          "internalType": "uint256",
          "name": "roundId",
          "type": "uint256"
        },
        {
          "indexed": false,
          "internalType": "address",
          "name": "walletAddress",
          "type": "address"
        },
        {
          "indexed": false,
          "internalType": "uint256",
          "name": "invested_amount",
          "type": "uint256"
        },
        {
          "indexed": false,
          "internalType": "uint256",
          "name": "participantId",
          "type": "uint256"
        },
        {
          "indexed": false,
          "internalType": "uint256",
          "name": "time",
          "type": "uint256"
        }
      ],
      "name": "ParticipantAdded",
      "type": "event"
    },
    {
      "anonymous": false,
      "inputs": [
        {
          "indexed": false,
          "internalType": "uint256",
          "name": "roundId",
          "type": "uint256"
        },
        {
          "indexed": false,
          "internalType": "uint256",
          "name": "startTime",
          "type": "uint256"
        },
        {
          "indexed": false,
          "internalType": "uint256",
          "name": "endTime",
          "type": "uint256"
        }
      ],
      "name": "RoundCreated",
      "type": "event"
    },
    {
      "anonymous": false,
      "inputs": [
        {
          "indexed": false,
          "internalType": "uint256",
          "name": "roundId",
          "type": "uint256"
        }
      ],
      "name": "RoundFinished",
      "type": "event"
    },
    {
      "anonymous": false,
      "inputs": [
        {
          "indexed": false,
          "internalType": "uint256",
          "name": "roundId",
          "type": "uint256"
        },
        {
          "indexed": false,
          "internalType": "address",
          "name": "walletAddress",
          "type": "address"
        },
        {
          "indexed": false,
          "internalType": "uint256",
          "name": "invested_amount",
          "type": "uint256"
        },
        {
          "indexed": false,
          "internalType": "uint256",
          "name": "participantId",
          "type": "uint256"
        },
        {
          "indexed": false,
          "internalType": "uint256",
          "name": "winnings",
          "type": "uint256"
        }
      ],
      "name": "WinningTransfered",
      "type": "event"
    },
    {
      "inputs": [
        {
          "internalType": "uint256",
          "name": "roundId",
          "type": "uint256"
        }
      ],
      "name": "addParticipant",
      "outputs": [],
      "stateMutability": "payable",
      "type": "function"
    },
    {
      "inputs": [],
      "name": "createRound",
      "outputs": [],
      "stateMutability": "nonpayable",
      "type": "function"
    },
    {
      "inputs": [
        {
          "internalType": "uint256",
          "name": "roundId",
          "type": "uint256"
        }
      ],
      "name": "endRound",
      "outputs": [],
      "stateMutability": "nonpayable",
      "type": "function"
    },
    {
      "inputs": [
        {
          "internalType": "uint256",
          "name": "roundId",
          "type": "uint256"
        }
      ],
      "name": "getAllParticipantOfRound",
      "outputs": [
        {
          "components": [
            {
              "internalType": "uint256",
              "name": "participantId",
              "type": "uint256"
            },
            {
              "internalType": "address",
              "name": "walletAddress",
              "type": "address"
            },
            {
              "internalType": "uint256",
              "name": "invested_amount",
              "type": "uint256"
            },
            {
              "internalType": "uint256",
              "name": "winnings",
              "type": "uint256"
            },
            {
              "internalType": "uint256",
              "name": "roundId",
              "type": "uint256"
            },
            {
              "internalType": "uint256",
              "name": "time",
              "type": "uint256"
            }
          ],
          "internalType": "struct PlebToHill.Participant[]",
          "name": "",
          "type": "tuple[]"
        }
      ],
      "stateMutability": "view",
      "type": "function"
    },
    {
      "inputs": [],
      "name": "getAllRounds",
      "outputs": [
        {
          "components": [
            {
              "internalType": "uint256",
              "name": "startTime",
              "type": "uint256"
            },
            {
              "internalType": "uint256",
              "name": "endTime",
              "type": "uint256"
            },
            {
              "internalType": "bool",
              "name": "isLive",
              "type": "bool"
            }
          ],
          "internalType": "struct PlebToHill.Round[]",
          "name": "",
          "type": "tuple[]"
        }
      ],
      "stateMutability": "view",
      "type": "function"
    },
    {
      "inputs": [],
      "name": "getCurrentLiveRound",
      "outputs": [
        {
          "internalType": "uint256",
          "name": "roundId",
          "type": "uint256"
        },
        {
          "internalType": "uint256",
          "name": "startTime",
          "type": "uint256"
        },
        {
          "internalType": "uint256",
          "name": "endTime",
          "type": "uint256"
        },
        {
          "internalType": "bool",
          "name": "isLive",
          "type": "bool"
        }
      ],
      "stateMutability": "view",
      "type": "function"
    },
    {
      "inputs": [
        {
          "internalType": "uint256",
          "name": "roundId",
          "type": "uint256"
        }
      ],
      "name": "getLoserData",
      "outputs": [
        {
          "internalType": "uint256",
          "name": "id",
          "type": "uint256"
        },
        {
          "internalType": "address",
          "name": "wallet",
          "type": "address"
        },
        {
          "internalType": "uint256",
          "name": "amount_lose",
          "type": "uint256"
        }
      ],
      "stateMutability": "view",
      "type": "function"
    },
    {
      "inputs": [
        {
          "internalType": "uint256",
          "name": "roundId",
          "type": "uint256"
        }
      ],
      "name": "getRoundData",
      "outputs": [
        {
          "components": [
            {
              "internalType": "uint256",
              "name": "startTime",
              "type": "uint256"
            },
            {
              "internalType": "uint256",
              "name": "endTime",
              "type": "uint256"
            },
            {
              "internalType": "bool",
              "name": "isLive",
              "type": "bool"
            }
          ],
          "internalType": "struct PlebToHill.Round",
          "name": "",
          "type": "tuple"
        }
      ],
      "stateMutability": "view",
      "type": "function"
    },
    {
      "inputs": [
        {
          "internalType": "uint256",
          "name": "roundId",
          "type": "uint256"
        }
      ],
      "name": "getValueForNextParticipant",
      "outputs": [
        {
          "internalType": "uint256",
          "name": "",
          "type": "uint256"
        }
      ],
      "stateMutability": "view",
      "type": "function"
    },
    {
      "inputs": [],
      "name": "owner",
      "outputs": [
        {
          "internalType": "address",
          "name": "",
          "type": "address"
        }
      ],
      "stateMutability": "view",
      "type": "function"
    },
    {
      "inputs": [],
      "name": "renounceOwnership",
      "outputs": [],
      "stateMutability": "nonpayable",
      "type": "function"
    },
    {
      "inputs": [
        {
          "internalType": "address",
          "name": "newOwner",
          "type": "address"
        }
      ],
      "name": "transferOwnership",
      "outputs": [],
      "stateMutability": "nonpayable",
      "type": "function"
    },
    {
      "stateMutability": "payable",
      "type": "receive"
    }
  ],
  "bytecode": "0x60806040523480156200001157600080fd5b5062000032620000266200003860201b60201c565b6200004060201b60201c565b62000104565b600033905090565b60008060009054906101000a900473ffffffffffffffffffffffffffffffffffffffff169050816000806101000a81548173ffffffffffffffffffffffffffffffffffffffff021916908373ffffffffffffffffffffffffffffffffffffffff1602179055508173ffffffffffffffffffffffffffffffffffffffff168173ffffffffffffffffffffffffffffffffffffffff167f8be0079c531659141344cd1fd0a4f28419497f9722a3daafe3b4186f6b6457e060405160405180910390a35050565b612c5580620001146000396000f3fe6080604052600436106100ab5760003560e01c80638acaf7a8116100645780638acaf7a8146101c75780638da5cb5b146101e3578063928554f91461020e578063dade4b641461023c578063e5066bbf14610279578063f2fde38b146102a4576100b2565b806303861ba6146100b75780630720da52146100f45780631b411fc8146101315780635a1e6ca114610148578063606e484114610171578063715018a6146101b0576100b2565b366100b257005b600080fd5b3480156100c357600080fd5b506100de60048036038101906100d99190611fd4565b6102cd565b6040516100eb9190612010565b60405180910390f35b34801561010057600080fd5b5061011b60048036038101906101169190611fd4565b61040e565b6040516101289190612097565b60405180910390f35b34801561013d57600080fd5b506101466104a6565b005b34801561015457600080fd5b5061016f600480360381019061016a9190611fd4565b610876565b005b34801561017d57600080fd5b5061019860048036038101906101939190611fd4565b610eb8565b6040516101a7939291906120f3565b60405180910390f35b3480156101bc57600080fd5b506101c56110e7565b005b6101e160048036038101906101dc9190611fd4565b6110fb565b005b3480156101ef57600080fd5b506101f8611804565b604051610205919061212a565b60405180910390f35b34801561021a57600080fd5b5061022361182d565b6040516102339493929190612154565b60405180910390f35b34801561024857600080fd5b50610263600480360381019061025e9190611fd4565b611929565b60405161027091906122d2565b60405180910390f35b34801561028557600080fd5b5061028e611a5f565b60405161029b91906123e5565b60405180910390f35b3480156102b057600080fd5b506102cb60048036038101906102c69190612433565b611b29565b005b60006102e3675de42448f5898fab60c01b611bac565b6102f767118a807cc506159d60c01b611bac565b61030b67819bf3e81a92cd6a60c01b611bac565b61031f67df7af7626285914f60c01b611bac565b61032882611baf565b610367576040517f08c379a000000000000000000000000000000000000000000000000000000000815260040161035e906124bd565b60405180910390fd5b61037b6797a910e786d5f4db60c01b611bac565b61038f679139c886ca29680f60c01b611bac565b6103a367a5c3eb9cdd7ce03260c01b611bac565b6000600360008481526020019081526020016000208054905090506103d267a1d39ae93554048960c01b611bac565b6103e667e049aba54317f37e60c01b611bac565b670de0b6b3a76400008160026103fc919061263f565b610406919061268a565b915050919050565b610416611f76565b61042a67905435c847fff04960c01b611bac565b61043e67eceeedbd3360849860c01b611bac565b6104526711f850944afa565360c01b611bac565b6001600083815260200190815260200160002060405180606001604052908160008201548152602001600182015481526020016002820160009054906101000a900460ff1615151515815250509050919050565b6104ba675dbf91c91a95ac8760c01b611bac565b6104c2611cc4565b6104d667de5a43814f0b32db60c01b611bac565b6104ea67cb983c41e135766660c01b611bac565b6104fe67c18184a3ce51258760c01b611bac565b61051267ea45e9a11a3f420a60c01b611bac565b61052667299fcaed6947b97960c01b611bac565b670de0b6b3a7640000471015610571576040517f08c379a00000000000000000000000000000000000000000000000000000000081526004016105689061273e565b60405180910390fd5b6105856758b52b9d243a4f2d60c01b611bac565b6105996710b49669f93338d860c01b611bac565b6105ad67ceba62142db0be9760c01b611bac565b600060028054905090506105cb679115f07443fb146360c01b611bac565b6105df674dd4d92d7d2ffd7660c01b611bac565b6000600280549050111561069d576106016709450b699019cccf60c01b611bac565b61061567e9a3a02b2ef25f3d60c01b611bac565b610629673a247d940d597ffd60c01b611bac565b61063d6777273af466659b9c60c01b611bac565b610645611d42565b610684576040517f08c379a000000000000000000000000000000000000000000000000000000000815260040161067b906127d0565b60405180910390fd5b6106986777a48caee3f7b71d60c01b611bac565b6106b2565b6106b1676df326e2a1acbf8c60c01b611bac565b5b6106c667e088d806349ca8f460c01b611bac565b604051806060016040528042815260200161012c426106e591906127f0565b81526020016001151581525060016000838152602001908152602001600020600082015181600001556020820151816001015560408201518160020160006101000a81548160ff02191690831515021790555090505061074f67239d525cd10df34f60c01b611bac565b610763676a70a576383e019760c01b611bac565b600260016000838152602001908152602001600020908060018154018082558091505060019003906000526020600020906003020160009091909190915060008201548160000155600182015481600101556002820160009054906101000a900460ff168160020160006101000a81548160ff02191690831515021790555050506107f867958afd03f2eb23cf60c01b611bac565b61080c67faa1e6a6affa33f560c01b611bac565b7f68e7b09ec44e876e76ff05157850e3261aa63a8680fe21a2ba93dcbb2b09f58f816001600084815260200190815260200160002060000154600160008581526020019081526020016000206001015460405161086b93929190612824565b60405180910390a150565b61088a6799cd326a31f8606360c01b611bac565b610892611cc4565b6108a667e167f76a3c80e90c60c01b611bac565b6108ba674ab4b549d162e07160c01b611bac565b6108ce67be46def5ee124d4160c01b611bac565b6108e267636e6c504082fb9260c01b611bac565b6108f6672e7502f28607dd2160c01b611bac565b6108ff81611baf565b1561093f576040517f08c379a0000000000000000000000000000000000000000000000000000000008152600401610936906128a7565b60405180910390fd5b6109536798da9f46c4a24e3960c01b611bac565b61096767989b2895448e2acb60c01b611bac565b61097b67135d63ef260b4f5560c01b611bac565b61098f671fec7bb893169ddd60c01b611bac565b6001600082815260200190815260200160002060020160009054906101000a900460ff166109f2576040517f08c379a00000000000000000000000000000000000000000000000000000000081526004016109e990612913565b60405180910390fd5b610a06670aa7c7a52523b82c60c01b611bac565b610a1a676b9bb70a9c99009260c01b611bac565b60006001600083815260200190815260200160002060020160006101000a81548160ff021916908315150217905550610a5d6779f819f393e871a760c01b611bac565b600060028281548110610a7357610a72612933565b5b906000526020600020906003020160020160006101000a81548160ff021916908315150217905550610aaf67ea8455edcaf562b460c01b611bac565b610ac36713ba902a4af9bc9a60c01b611bac565b6001600360008381526020019081526020016000208054905003610e4157610af5673e2bac3253f946d560c01b611bac565b610b0967cf55b055aed110f960c01b611bac565b610b1d671fcc5bec548ca67360c01b611bac565b600060646005600260036000868152602001908152602001600020600081548110610b4b57610b4a612933565b5b906000526020600020906006020160020154610b67919061268a565b610b71919061268a565b610b7b9190612991565b9050610b91678fc290b0ea4e273d60c01b611bac565b610ba56770e599b5c272a51f60c01b611bac565b600081600260036000868152602001908152602001600020600081548110610bd057610bcf612933565b5b906000526020600020906006020160020154610bec919061268a565b610bf691906129c2565b9050610c0c67fa5028b556bfe15560c01b611bac565b8060036000858152602001908152602001600020600081548110610c3357610c32612933565b5b906000526020600020906006020160030181905550610c5c670e427271d59543d660c01b611bac565b610c70672e2b9b90dc11d24f60c01b611bac565b60036000848152602001908152602001600020600081548110610c9657610c95612933565b5b906000526020600020906006020160010160009054906101000a900473ffffffffffffffffffffffffffffffffffffffff1673ffffffffffffffffffffffffffffffffffffffff166108fc829081150290604051600060405180830381858888f19350505050158015610d0d573d6000803e3d6000fd5b50610d226790f446c169ccf31f60c01b611bac565b610d36675f57c72956885c1560c01b611bac565b7f65edb247950c75beace5afb548418caec939cfa83b1fc60186d09d89cea66ba78360036000868152602001908152602001600020600081548110610d7e57610d7d612933565b5b906000526020600020906006020160010160009054906101000a900473ffffffffffffffffffffffffffffffffffffffff1660036000878152602001908152602001600020600081548110610dd657610dd5612933565b5b90600052602060002090600602016002015460036000888152602001908152602001600020600081548110610e0e57610e0d612933565b5b90600052602060002090600602016000015485604051610e329594939291906129f6565b60405180910390a15050610e56565b610e5567dfd801538716672c60c01b611bac565b5b610e6a672f281a27a344d39060c01b611bac565b610e7e67b22636fa6740612260c01b611bac565b7f74ef25ef6b332a2fbbe7eb8b4108e0fe842a929d34c52a2ea4ca1a0f1524f10781604051610ead9190612010565b60405180910390a150565b6000806000610ed1670694dce6b8398f9b60c01b611bac565b610ee567f6cda0c53dc1bccd60c01b611bac565b610ef967b3d5db1961bf51c460c01b611bac565b610f0d67e4b56e75ee48890760c01b611bac565b6001600360008681526020019081526020016000208054905011610f66576040517f08c379a0000000000000000000000000000000000000000000000000000000008152600401610f5d90612a95565b60405180910390fd5b610f7a67addd90a29535067d60c01b611bac565b610f8e6752200f3386d8648660c01b611bac565b610fa267c9be0dff55130f3b60c01b611bac565b60006003600086815260200190815260200160002060016003600088815260200190815260200160002080549050610fda91906129c2565b81548110610feb57610fea612933565b5b90600052602060002090600602016040518060c0016040529081600082015481526020016001820160009054906101000a900473ffffffffffffffffffffffffffffffffffffffff1673ffffffffffffffffffffffffffffffffffffffff1673ffffffffffffffffffffffffffffffffffffffff16815260200160028201548152602001600382015481526020016004820154815260200160058201548152505090506110a2677d43d2979052f3ce60c01b611bac565b806000015193506110bd6702c33259bb0dbd7b60c01b611bac565b806020015192506110d8675c3c64c8929a509160c01b611bac565b80604001519150509193909250565b6110ef611cc4565b6110f96000611eaa565b565b61110f6795fa8b6855cbbd7360c01b611bac565b611123678e0f9f97fc8b455260c01b611bac565b6111376766a80cdadd06ba5960c01b611bac565b61114b67ec8662572b3c734660c01b611bac565b61115481611baf565b611193576040517f08c379a000000000000000000000000000000000000000000000000000000000815260040161118a906124bd565b60405180910390fd5b6111a767e6a5b71d9e2f911e60c01b611bac565b6111bb67331053bcda8c186060c01b611bac565b6111cf67eab68226a7194df160c01b611bac565b6111e36726fe05c4cf26e55e60c01b611bac565b6111ec816102cd565b341461122d576040517f08c379a000000000000000000000000000000000000000000000000000000000815260040161122490612b01565b60405180910390fd5b61124167a8be61bfcd3fc30760c01b611bac565b611255677b4325b1a29542a160c01b611bac565b61126967134e18e3e9f8d73b60c01b611bac565b6000600360008381526020019081526020016000208054905090506112986784d19f56980c985460c01b611bac565b6112ac67bfa994801f5900d660c01b611bac565b600360008381526020019081526020016000206040518060c001604052808381526020013373ffffffffffffffffffffffffffffffffffffffff168152602001348152602001600081526020018481526020014281525090806001815401808255809150506001900390600052602060002090600602016000909190919091506000820151816000015560208201518160010160006101000a81548173ffffffffffffffffffffffffffffffffffffffff021916908373ffffffffffffffffffffffffffffffffffffffff16021790555060408201518160020155606082015181600301556080820151816004015560a0820151816005015550506113bb678c01e6608879566360c01b611bac565b6113cf677967815f0c3d34e360c01b611bac565b60008114611784576113eb67416687c74a8ed0cd60c01b611bac565b6113ff672c594bd33e0883e760c01b611bac565b6114136778c93bdecdc1b5aa60c01b611bac565b60006064600560026003600087815260200190815260200160002060018661143b91906129c2565b8154811061144c5761144b612933565b5b906000526020600020906006020160020154611468919061268a565b611472919061268a565b61147c9190612991565b9050611492679f1b7c2bb527f0d260c01b611bac565b6114a667f2f692c776ad560f60c01b611bac565b6000816002600360008781526020019081526020016000206001866114cb91906129c2565b815481106114dc576114db612933565b5b9060005260206000209060060201600201546114f8919061268a565b61150291906129c2565b9050611518672eada6f0b74897b060c01b611bac565b806003600086815260200190815260200160002060018561153991906129c2565b8154811061154a57611549612933565b5b9060005260206000209060060201600301819055506115736703ca1ae7e9a7355260c01b611bac565b61158767791771fe8926c2ba60c01b611bac565b600360008581526020019081526020016000206001846115a791906129c2565b815481106115b8576115b7612933565b5b906000526020600020906006020160010160009054906101000a900473ffffffffffffffffffffffffffffffffffffffff1673ffffffffffffffffffffffffffffffffffffffff166108fc829081150290604051600060405180830381858888f1935050505015801561162f573d6000803e3d6000fd5b5061164467d40c18fcc3962f9d60c01b611bac565b611658672fbec02730bd45b960c01b611bac565b7f65edb247950c75beace5afb548418caec939cfa83b1fc60186d09d89cea66ba7846003600087815260200190815260200160002060018661169a91906129c2565b815481106116ab576116aa612933565b5b906000526020600020906006020160010160009054906101000a900473ffffffffffffffffffffffffffffffffffffffff16600360008881526020019081526020016000206001876116fd91906129c2565b8154811061170e5761170d612933565b5b9060005260206000209060060201600201546003600089815260200190815260200160002060018861174091906129c2565b8154811061175157611750612933565b5b906000526020600020906006020160000154856040516117759594939291906129f6565b60405180910390a15050611799565b61179867d5049d7314c815e260c01b611bac565b5b6117ad676c6f0e5b880d109660c01b611bac565b6117c167cac32321c8a71a6f60c01b611bac565b7f2eaa1bda0a76999046e8def81099978a4164fbfb5f4207619e76c3823f60436782333484426040516117f89594939291906129f6565b60405180910390a15050565b60008060009054906101000a900473ffffffffffffffffffffffffffffffffffffffff16905090565b600080600080611847673bfeeb7a8ba4d01e60c01b611bac565b61185b67a08092338b83a51c60c01b611bac565b61186f677e3a53df72d07dad60c01b611bac565b600060016000600160028054905061188791906129c2565b815260200190815260200160002060405180606001604052908160008201548152602001600182015481526020016002820160009054906101000a900460ff16151515158152505090506118e56781d7c9f69510cfed60c01b611bac565b6118f9672a46cec625d5b47960c01b611bac565b600160028054905061190b91906129c2565b81600001518260200151836040015194509450945094505090919293565b606061193f678b5b514017f5929160c01b611bac565b6119536731b0436b03c679d360c01b611bac565b6119676717f9d8a8951cf96e60c01b611bac565b60036000838152602001908152602001600020805480602002602001604051908101604052809291908181526020016000905b82821015611a5457838290600052602060002090600602016040518060c0016040529081600082015481526020016001820160009054906101000a900473ffffffffffffffffffffffffffffffffffffffff1673ffffffffffffffffffffffffffffffffffffffff1673ffffffffffffffffffffffffffffffffffffffff1681526020016002820154815260200160038201548152602001600482015481526020016005820154815250508152602001906001019061199a565b505050509050919050565b6060611a75671b6cd54825b0a24260c01b611bac565b611a89676d904aead88f2f2660c01b611bac565b611a9d67635e42a503e1ea5c60c01b611bac565b6002805480602002602001604051908101604052809291908181526020016000905b82821015611b20578382906000526020600020906003020160405180606001604052908160008201548152602001600182015481526020016002820160009054906101000a900460ff16151515158152505081526020019060010190611abf565b50505050905090565b611b31611cc4565b600073ffffffffffffffffffffffffffffffffffffffff168173ffffffffffffffffffffffffffffffffffffffff1603611ba0576040517f08c379a0000000000000000000000000000000000000000000000000000000008152600401611b9790612b93565b60405180910390fd5b611ba981611eaa565b50565b50565b6000611bc56759f896e9494c132b60c01b611bac565b611bd8662a07440504d5b960c01b611bac565b611bec67dc15d51235a65df760c01b611bac565b6000611c0267a86697a2a762675c60c01b611bac565b611c1667968364a0b8d0d8a060c01b611bac565b42600160008581526020019081526020016000206001015410158015611c5c57506001600084815260200190815260200160002060020160009054906101000a900460ff165b15611c7e57611c756749a30164077a965260c01b611bac565b60019050611c93565b611c9267e1ff993a5b4cf08960c01b611bac565b5b611ca767a1e4d0a723f8809560c01b611bac565b611cbb675cd47003aa0a2c1960c01b611bac565b80915050919050565b611ccc611f6e565b73ffffffffffffffffffffffffffffffffffffffff16611cea611804565b73ffffffffffffffffffffffffffffffffffffffff1614611d40576040517f08c379a0000000000000000000000000000000000000000000000000000000008152600401611d3790612bff565b60405180910390fd5b565b6000611d586767c910277888245d60c01b611bac565b611d6c670820e2026fd9902760c01b611bac565b611d8067fe9a33932c2faefd60c01b611bac565b6000611d9667adc81bc682c1a10560c01b611bac565b611daa6727a654a37fde5fd060c01b611bac565b4260026001600280549050611dbf91906129c2565b81548110611dd057611dcf612933565b5b906000526020600020906003020160010154108015611e30575060026001600280549050611dfe91906129c2565b81548110611e0f57611e0e612933565b5b906000526020600020906003020160020160009054906101000a900460ff16155b15611e6657611e49679c1d4ae0f4e1e59060c01b611bac565b611e5d67e45714613e89bc3e60c01b611bac565b60019050611e7b565b611e7a679ec9c269d729ae5e60c01b611bac565b5b611e8f67cc433e9464eafcf560c01b611bac565b611ea3679ccff7531dc372ed60c01b611bac565b8091505090565b60008060009054906101000a900473ffffffffffffffffffffffffffffffffffffffff169050816000806101000a81548173ffffffffffffffffffffffffffffffffffffffff021916908373ffffffffffffffffffffffffffffffffffffffff1602179055508173ffffffffffffffffffffffffffffffffffffffff168173ffffffffffffffffffffffffffffffffffffffff167f8be0079c531659141344cd1fd0a4f28419497f9722a3daafe3b4186f6b6457e060405160405180910390a35050565b600033905090565b604051806060016040528060008152602001600081526020016000151581525090565b600080fd5b6000819050919050565b611fb181611f9e565b8114611fbc57600080fd5b50565b600081359050611fce81611fa8565b92915050565b600060208284031215611fea57611fe9611f99565b5b6000611ff884828501611fbf565b91505092915050565b61200a81611f9e565b82525050565b60006020820190506120256000830184612001565b92915050565b61203481611f9e565b82525050565b60008115159050919050565b61204f8161203a565b82525050565b60608201600082015161206b600085018261202b565b50602082015161207e602085018261202b565b5060408201516120916040850182612046565b50505050565b60006060820190506120ac6000830184612055565b92915050565b600073ffffffffffffffffffffffffffffffffffffffff82169050919050565b60006120dd826120b2565b9050919050565b6120ed816120d2565b82525050565b60006060820190506121086000830186612001565b61211560208301856120e4565b6121226040830184612001565b949350505050565b600060208201905061213f60008301846120e4565b92915050565b61214e8161203a565b82525050565b60006080820190506121696000830187612001565b6121766020830186612001565b6121836040830185612001565b6121906060830184612145565b95945050505050565b600081519050919050565b600082825260208201905092915050565b6000819050602082019050919050565b6121ce816120d2565b82525050565b60c0820160008201516121ea600085018261202b565b5060208201516121fd60208501826121c5565b506040820151612210604085018261202b565b506060820151612223606085018261202b565b506080820151612236608085018261202b565b5060a082015161224960a085018261202b565b50505050565b600061225b83836121d4565b60c08301905092915050565b6000602082019050919050565b600061227f82612199565b61228981856121a4565b9350612294836121b5565b8060005b838110156122c55781516122ac888261224f565b97506122b783612267565b925050600181019050612298565b5085935050505092915050565b600060208201905081810360008301526122ec8184612274565b905092915050565b600081519050919050565b600082825260208201905092915050565b6000819050602082019050919050565b606082016000820151612336600085018261202b565b506020820151612349602085018261202b565b50604082015161235c6040850182612046565b50505050565b600061236e8383612320565b60608301905092915050565b6000602082019050919050565b6000612392826122f4565b61239c81856122ff565b93506123a783612310565b8060005b838110156123d85781516123bf8882612362565b97506123ca8361237a565b9250506001810190506123ab565b5085935050505092915050565b600060208201905081810360008301526123ff8184612387565b905092915050565b612410816120d2565b811461241b57600080fd5b50565b60008135905061242d81612407565b92915050565b60006020828403121561244957612448611f99565b5b60006124578482850161241e565b91505092915050565b600082825260208201905092915050565b7f526f756e64206973206e6f74206c697665000000000000000000000000000000600082015250565b60006124a7601183612460565b91506124b282612471565b602082019050919050565b600060208201905081810360008301526124d68161249a565b9050919050565b7f4e487b7100000000000000000000000000000000000000000000000000000000600052601160045260246000fd5b60008160011c9050919050565b6000808291508390505b60018511156125635780860481111561253f5761253e6124dd565b5b600185161561254e5780820291505b808102905061255c8561250c565b9450612523565b94509492505050565b60008261257c5760019050612638565b8161258a5760009050612638565b81600181146125a057600281146125aa576125d9565b6001915050612638565b60ff8411156125bc576125bb6124dd565b5b8360020a9150848211156125d3576125d26124dd565b5b50612638565b5060208310610133831016604e8410600b841016171561260e5782820a905083811115612609576126086124dd565b5b612638565b61261b8484846001612519565b92509050818404811115612632576126316124dd565b5b81810290505b9392505050565b600061264a82611f9e565b915061265583611f9e565b92506126827fffffffffffffffffffffffffffffffffffffffffffffffffffffffffffffffff848461256c565b905092915050565b600061269582611f9e565b91506126a083611f9e565b92508282026126ae81611f9e565b915082820484148315176126c5576126c46124dd565b5b5092915050565b7f4d696e696d756d20636f6e74726163742062616c616e63652073686f756c642060008201527f626520312074504c530000000000000000000000000000000000000000000000602082015250565b6000612728602983612460565b9150612733826126cc565b604082019050919050565b600060208201905081810360008301526127578161271b565b9050919050565b7f50726576696f757320726f756e64206973206e6f742066696e6973686564207960008201527f6574000000000000000000000000000000000000000000000000000000000000602082015250565b60006127ba602283612460565b91506127c58261275e565b604082019050919050565b600060208201905081810360008301526127e9816127ad565b9050919050565b60006127fb82611f9e565b915061280683611f9e565b925082820190508082111561281e5761281d6124dd565b5b92915050565b60006060820190506128396000830186612001565b6128466020830185612001565b6128536040830184612001565b949350505050565b7f526f756e6420697320206c697665000000000000000000000000000000000000600082015250565b6000612891600e83612460565b915061289c8261285b565b602082019050919050565b600060208201905081810360008301526128c081612884565b9050919050565b7f526f756e6420616c72656164792066696e697368656400000000000000000000600082015250565b60006128fd601683612460565b9150612908826128c7565b602082019050919050565b6000602082019050818103600083015261292c816128f0565b9050919050565b7f4e487b7100000000000000000000000000000000000000000000000000000000600052603260045260246000fd5b7f4e487b7100000000000000000000000000000000000000000000000000000000600052601260045260246000fd5b600061299c82611f9e565b91506129a783611f9e565b9250826129b7576129b6612962565b5b828204905092915050565b60006129cd82611f9e565b91506129d883611f9e565b92508282039050818111156129f0576129ef6124dd565b5b92915050565b600060a082019050612a0b6000830188612001565b612a1860208301876120e4565b612a256040830186612001565b612a326060830185612001565b612a3f6080830184612001565b9695505050505050565b7f4e6f206c6f73657220696e207468697320726f756e642e000000000000000000600082015250565b6000612a7f601783612460565b9150612a8a82612a49565b602082019050919050565b60006020820190508181036000830152612aae81612a72565b9050919050565b7f496e636f727265637420696e76657374656420616d6f756e7400000000000000600082015250565b6000612aeb601983612460565b9150612af682612ab5565b602082019050919050565b60006020820190508181036000830152612b1a81612ade565b9050919050565b7f4f776e61626c653a206e6577206f776e657220697320746865207a65726f206160008201527f6464726573730000000000000000000000000000000000000000000000000000602082015250565b6000612b7d602683612460565b9150612b8882612b21565b604082019050919050565b60006020820190508181036000830152612bac81612b70565b9050919050565b7f4f776e61626c653a2063616c6c6572206973206e6f7420746865206f776e6572600082015250565b6000612be9602083612460565b9150612bf482612bb3565b602082019050919050565b60006020820190508181036000830152612c1881612bdc565b905091905056fea26469706673582212202ef089c9182c17bdc8ad46ae73a207d94cc7721c248401e2ffd77f9d3934c7aa64736f6c63430008110033",
  "linkReferences": {},
  "deployedLinkReferences": {}
}