{
  "_format": "hh-sol-artifact-1",
  "contractName": "PlebToHill",
  "sourceName": "contracts/PlebToHill.sol",
  "abi": [
    {
      "anonymous": false,
      "inputs": [
        {
          "indexed": true,
          "internalType": "address",
          "name": "previousOwner",
          "type": "address"
        },
        {
          "indexed": true,
          "internalType": "address",
          "name": "newOwner",
          "type": "address"
        }
      ],
      "name": "OwnershipTransferred",
      "type": "event"
    },
    {
      "anonymous": false,
      "inputs": [
        {
          "indexed": false,
          "internalType": "uint256",
          "name": "roundId",
          "type": "uint256"
        },
        {
          "indexed": false,
          "internalType": "address",
          "name": "walletAddress",
          "type": "address"
        },
        {
          "indexed": false,
          "internalType": "uint256",
          "name": "invested_amount",
          "type": "uint256"
        },
        {
          "indexed": false,
          "internalType": "uint256",
          "name": "participantId",
          "type": "uint256"
        },
        {
          "indexed": false,
          "internalType": "uint256",
          "name": "time",
          "type": "uint256"
        }
      ],
      "name": "ParticipantAdded",
      "type": "event"
    },
    {
      "anonymous": false,
      "inputs": [
        {
          "indexed": false,
          "internalType": "uint256",
          "name": "roundId",
          "type": "uint256"
        },
        {
          "indexed": false,
          "internalType": "uint256",
          "name": "startTime",
          "type": "uint256"
        },
        {
          "indexed": false,
          "internalType": "uint256",
          "name": "endTime",
          "type": "uint256"
        }
      ],
      "name": "RoundCreated",
      "type": "event"
    },
    {
      "anonymous": false,
      "inputs": [
        {
          "indexed": false,
          "internalType": "uint256",
          "name": "roundId",
          "type": "uint256"
        }
      ],
      "name": "RoundFinished",
      "type": "event"
    },
    {
      "anonymous": false,
      "inputs": [
        {
          "indexed": false,
          "internalType": "uint256",
          "name": "roundId",
          "type": "uint256"
        },
        {
          "indexed": false,
          "internalType": "address",
          "name": "walletAddress",
          "type": "address"
        },
        {
          "indexed": false,
          "internalType": "uint256",
          "name": "invested_amount",
          "type": "uint256"
        },
        {
          "indexed": false,
          "internalType": "uint256",
          "name": "participantId",
          "type": "uint256"
        },
        {
          "indexed": false,
          "internalType": "uint256",
          "name": "winnings",
          "type": "uint256"
        }
      ],
      "name": "WinningTransfered",
      "type": "event"
    },
    {
      "inputs": [
        {
          "internalType": "uint256",
          "name": "roundId",
          "type": "uint256"
        }
      ],
      "name": "addParticipant",
      "outputs": [],
      "stateMutability": "payable",
      "type": "function"
    },
    {
      "inputs": [],
      "name": "createRound",
      "outputs": [],
      "stateMutability": "nonpayable",
      "type": "function"
    },
    {
      "inputs": [
        {
          "internalType": "uint256",
          "name": "roundId",
          "type": "uint256"
        }
      ],
      "name": "endRound",
      "outputs": [],
      "stateMutability": "nonpayable",
      "type": "function"
    },
    {
      "inputs": [
        {
          "internalType": "uint256",
          "name": "roundId",
          "type": "uint256"
        }
      ],
      "name": "getAllParticipantOfRound",
      "outputs": [
        {
          "components": [
            {
              "internalType": "uint256",
              "name": "participantId",
              "type": "uint256"
            },
            {
              "internalType": "address",
              "name": "walletAddress",
              "type": "address"
            },
            {
              "internalType": "uint256",
              "name": "invested_amount",
              "type": "uint256"
            },
            {
              "internalType": "uint256",
              "name": "winnings",
              "type": "uint256"
            },
            {
              "internalType": "uint256",
              "name": "roundId",
              "type": "uint256"
            },
            {
              "internalType": "uint256",
              "name": "time",
              "type": "uint256"
            }
          ],
          "internalType": "struct PlebToHill.Participant[]",
          "name": "",
          "type": "tuple[]"
        }
      ],
      "stateMutability": "view",
      "type": "function"
    },
    {
      "inputs": [
        {
          "internalType": "uint256",
          "name": "start",
          "type": "uint256"
        },
        {
          "internalType": "uint256",
          "name": "end",
          "type": "uint256"
        }
      ],
      "name": "getAllRounds",
      "outputs": [
        {
          "components": [
            {
              "internalType": "uint256",
              "name": "roundId",
              "type": "uint256"
            },
            {
              "internalType": "uint256",
              "name": "startTime",
              "type": "uint256"
            },
            {
              "internalType": "uint256",
              "name": "endTime",
              "type": "uint256"
            },
            {
              "internalType": "bool",
              "name": "isLive",
              "type": "bool"
            }
          ],
          "internalType": "struct PlebToHill.Round[]",
          "name": "",
          "type": "tuple[]"
        }
      ],
      "stateMutability": "view",
      "type": "function"
    },
    {
      "inputs": [],
      "name": "getCurrentLiveRound",
      "outputs": [
        {
          "internalType": "uint256",
          "name": "roundId",
          "type": "uint256"
        },
        {
          "internalType": "uint256",
          "name": "startTime",
          "type": "uint256"
        },
        {
          "internalType": "uint256",
          "name": "endTime",
          "type": "uint256"
        },
        {
          "internalType": "bool",
          "name": "isLive",
          "type": "bool"
        }
      ],
      "stateMutability": "view",
      "type": "function"
    },
    {
      "inputs": [
        {
          "internalType": "uint256",
          "name": "roundId",
          "type": "uint256"
        }
      ],
      "name": "getLoserData",
      "outputs": [
        {
          "internalType": "uint256",
          "name": "id",
          "type": "uint256"
        },
        {
          "internalType": "address",
          "name": "wallet",
          "type": "address"
        },
        {
          "internalType": "uint256",
          "name": "amount_lose",
          "type": "uint256"
        }
      ],
      "stateMutability": "view",
      "type": "function"
    },
    {
      "inputs": [
        {
          "internalType": "uint256",
          "name": "roundId",
          "type": "uint256"
        }
      ],
      "name": "getRoundData",
      "outputs": [
        {
          "components": [
            {
              "internalType": "uint256",
              "name": "roundId",
              "type": "uint256"
            },
            {
              "internalType": "uint256",
              "name": "startTime",
              "type": "uint256"
            },
            {
              "internalType": "uint256",
              "name": "endTime",
              "type": "uint256"
            },
            {
              "internalType": "bool",
              "name": "isLive",
              "type": "bool"
            }
          ],
          "internalType": "struct PlebToHill.Round",
          "name": "",
          "type": "tuple"
        }
      ],
      "stateMutability": "view",
      "type": "function"
    },
    {
      "inputs": [
        {
          "internalType": "uint256",
          "name": "roundId",
          "type": "uint256"
        }
      ],
      "name": "getValueForNextParticipant",
      "outputs": [
        {
          "internalType": "uint256",
          "name": "",
          "type": "uint256"
        }
      ],
      "stateMutability": "view",
      "type": "function"
    },
    {
      "inputs": [],
      "name": "owner",
      "outputs": [
        {
          "internalType": "address",
          "name": "",
          "type": "address"
        }
      ],
      "stateMutability": "view",
      "type": "function"
    },
    {
      "inputs": [],
      "name": "poth_address",
      "outputs": [
        {
          "internalType": "address",
          "name": "",
          "type": "address"
        }
      ],
      "stateMutability": "view",
      "type": "function"
    },
    {
      "inputs": [],
      "name": "renounceOwnership",
      "outputs": [],
      "stateMutability": "nonpayable",
      "type": "function"
    },
    {
      "inputs": [
        {
          "internalType": "address",
          "name": "_pothwallet",
          "type": "address"
        }
      ],
      "name": "setPothWallet",
      "outputs": [],
      "stateMutability": "nonpayable",
      "type": "function"
    },
    {
      "inputs": [
        {
          "internalType": "address",
          "name": "newOwner",
          "type": "address"
        }
      ],
      "name": "transferOwnership",
      "outputs": [],
      "stateMutability": "nonpayable",
      "type": "function"
    },
    {
      "stateMutability": "payable",
      "type": "receive"
    }
  ],
  "bytecode": "0x60806040523480156200001157600080fd5b5062000032620000266200003860201b60201c565b6200004060201b60201c565b62000104565b600033905090565b60008060009054906101000a900473ffffffffffffffffffffffffffffffffffffffff169050816000806101000a81548173ffffffffffffffffffffffffffffffffffffffff021916908373ffffffffffffffffffffffffffffffffffffffff1602179055508173ffffffffffffffffffffffffffffffffffffffff168173ffffffffffffffffffffffffffffffffffffffff167f8be0079c531659141344cd1fd0a4f28419497f9722a3daafe3b4186f6b6457e060405160405180910390a35050565b6126d480620001146000396000f3fe6080604052600436106100e15760003560e01c80637ecb177b1161007f578063928554f911610059578063928554f9146102aa578063dade4b64146102d8578063e2b630c214610315578063f2fde38b14610340576100e8565b80637ecb177b1461023a5780638acaf7a8146102635780638da5cb5b1461027f576100e8565b8063437b6065116100bb578063437b60651461017e5780635a1e6ca1146101bb578063606e4841146101e4578063715018a614610223576100e8565b806303861ba6146100ed5780630720da521461012a5780631b411fc814610167576100e8565b366100e857005b600080fd5b3480156100f957600080fd5b50610114600480360381019061010f919061190a565b610369565b6040516101219190611946565b60405180910390f35b34801561013657600080fd5b50610151600480360381019061014c919061190a565b6103f6565b60405161015e91906119e0565b60405180910390f35b34801561017357600080fd5b5061017c61045c565b005b34801561018a57600080fd5b506101a560048036038101906101a091906119fb565b610689565b6040516101b29190611b3f565b60405180910390f35b3480156101c757600080fd5b506101e260048036038101906101dd919061190a565b610809565b005b3480156101f057600080fd5b5061020b6004803603810190610206919061190a565b610c7f565b60405161021a93929190611ba2565b60405180910390f35b34801561022f57600080fd5b50610238610ddf565b005b34801561024657600080fd5b50610261600480360381019061025c9190611c05565b610df3565b005b61027d6004803603810190610278919061190a565b610eae565b005b34801561028b57600080fd5b506102946113f7565b6040516102a19190611c32565b60405180910390f35b3480156102b657600080fd5b506102bf611420565b6040516102cf9493929190611c5c565b60405180910390f35b3480156102e457600080fd5b506102ff60048036038101906102fa919061190a565b6114c2565b60405161030c9190611dda565b60405180910390f35b34801561032157600080fd5b5061032a6115bc565b6040516103379190611c32565b60405180910390f35b34801561034c57600080fd5b5061036760048036038101906103629190611c05565b6115e2565b005b600061037482611665565b6103b3576040517f08c379a00000000000000000000000000000000000000000000000000000000081526004016103aa90611e59565b60405180910390fd5b600060046000848152602001908152602001600020805490509050670de0b6b3a76400008160026103e49190611fdb565b6103ee9190612026565b915050919050565b6103fe6118a5565b600260008381526020019081526020016000206040518060800160405290816000820154815260200160018201548152602001600282015481526020016003820160009054906101000a900460ff1615151515815250509050919050565b6104646116c1565b670de0b6b3a76400004710156104af576040517f08c379a00000000000000000000000000000000000000000000000000000000081526004016104a6906120da565b60405180910390fd5b600060038054905090506000600380549050111561050f576104cf61173f565b61050e576040517f08c379a00000000000000000000000000000000000000000000000000000000081526004016105059061216c565b60405180910390fd5b5b604051806080016040528082815260200142815260200161025842610534919061218c565b8152602001600115158152506002600083815260200190815260200160002060008201518160000155602082015181600101556040820151816002015560608201518160030160006101000a81548160ff02191690831515021790555090505060036002600083815260200190815260200160002090806001815401808255809150506001900390600052602060002090600402016000909190919091506000820154816000015560018201548160010155600282015481600201556003820160009054906101000a900460ff168160030160006101000a81548160ff02191690831515021790555050507f68e7b09ec44e876e76ff05157850e3261aa63a8680fe21a2ba93dcbb2b09f58f816002600084815260200190815260200160002060010154600260008581526020019081526020016000206002015460405161067e939291906121c0565b60405180910390a150565b606060038054905082106106d2576040517f08c379a00000000000000000000000000000000000000000000000000000000081526004016106c990612243565b60405180910390fd5b6000600184846106e29190612263565b6106ec919061218c565b67ffffffffffffffff81111561070557610704612297565b5b60405190808252806020026020018201604052801561073e57816020015b61072b6118a5565b8152602001906001900390816107235790505b50905060005b84846107509190612263565b81116107fe57600060038683610766919061218c565b81548110610777576107766122c6565b5b90600052602060002090600402016040518060800160405290816000820154815260200160018201548152602001600282015481526020016003820160009054906101000a900460ff1615151515815250509050808383815181106107df576107de6122c6565b5b60200260200101819052505080806107f6906122f5565b915050610744565b508091505092915050565b6108116116c1565b61081a81611665565b1561085a576040517f08c379a000000000000000000000000000000000000000000000000000000000815260040161085190612389565b60405180910390fd5b6002600082815260200190815260200160002060030160009054906101000a900460ff166108bd576040517f08c379a00000000000000000000000000000000000000000000000000000000081526004016108b4906123f5565b60405180910390fd5b60006002600083815260200190815260200160002060030160006101000a81548160ff021916908315150217905550600060038281548110610902576109016122c6565b5b906000526020600020906004020160030160006101000a81548160ff0219169083151502179055506001600460008381526020019081526020016000208054905003610c4557600060646005600260046000868152602001908152602001600020600081548110610976576109756122c6565b5b9060005260206000209060060201600201546109929190612026565b61099c9190612026565b6109a69190612444565b90506000816002600460008681526020019081526020016000206000815481106109d3576109d26122c6565b5b9060005260206000209060060201600201546109ef9190612026565b6109f99190612263565b90508060046000858152602001908152602001600020600081548110610a2257610a216122c6565b5b90600052602060002090600602016003018190555060046000848152602001908152602001600020600081548110610a5d57610a5c6122c6565b5b906000526020600020906006020160010160009054906101000a900473ffffffffffffffffffffffffffffffffffffffff1673ffffffffffffffffffffffffffffffffffffffff166108fc829081150290604051600060405180830381858888f19350505050158015610ad4573d6000803e3d6000fd5b50600160009054906101000a900473ffffffffffffffffffffffffffffffffffffffff1673ffffffffffffffffffffffffffffffffffffffff166108fc839081150290604051600060405180830381858888f19350505050158015610b3d573d6000803e3d6000fd5b507f65edb247950c75beace5afb548418caec939cfa83b1fc60186d09d89cea66ba78360046000868152602001908152602001600020600081548110610b8657610b856122c6565b5b906000526020600020906006020160010160009054906101000a900473ffffffffffffffffffffffffffffffffffffffff1660046000878152602001908152602001600020600081548110610bde57610bdd6122c6565b5b90600052602060002090600602016002015460046000888152602001908152602001600020600081548110610c1657610c156122c6565b5b90600052602060002090600602016000015485604051610c3a959493929190612475565b60405180910390a150505b7f74ef25ef6b332a2fbbe7eb8b4108e0fe842a929d34c52a2ea4ca1a0f1524f10781604051610c749190611946565b60405180910390a150565b6000806000600160046000868152602001908152602001600020805490501480610cbf575060006004600086815260200190815260200160002080549050145b15610cd557600092506000915060009050610dd8565b60006004600086815260200190815260200160002060016004600088815260200190815260200160002080549050610d0d9190612263565b81548110610d1e57610d1d6122c6565b5b90600052602060002090600602016040518060c0016040529081600082015481526020016001820160009054906101000a900473ffffffffffffffffffffffffffffffffffffffff1673ffffffffffffffffffffffffffffffffffffffff1673ffffffffffffffffffffffffffffffffffffffff1681526020016002820154815260200160038201548152602001600482015481526020016005820154815250509050806000015193508060200151925080604001519150505b9193909250565b610de76116c1565b610df160006117d9565b565b610dfb6116c1565b600073ffffffffffffffffffffffffffffffffffffffff168173ffffffffffffffffffffffffffffffffffffffff1603610e6a576040517f08c379a0000000000000000000000000000000000000000000000000000000008152600401610e6190612514565b60405180910390fd5b80600160006101000a81548173ffffffffffffffffffffffffffffffffffffffff021916908373ffffffffffffffffffffffffffffffffffffffff16021790555050565b610eb781611665565b610ef6576040517f08c379a0000000000000000000000000000000000000000000000000000000008152600401610eed90611e59565b60405180910390fd5b610eff81610369565b3414610f40576040517f08c379a0000000000000000000000000000000000000000000000000000000008152600401610f3790612580565b60405180910390fd5b600060016004600084815260200190815260200160002080549050610f65919061218c565b9050600460008381526020019081526020016000206040518060c001604052808381526020013373ffffffffffffffffffffffffffffffffffffffff168152602001348152602001600081526020018481526020014281525090806001815401808255809150506001900390600052602060002090600602016000909190919091506000820151816000015560208201518160010160006101000a81548173ffffffffffffffffffffffffffffffffffffffff021916908373ffffffffffffffffffffffffffffffffffffffff16021790555060408201518160020155606082015181600301556080820151816004015560a082015181600501555050600181146113b4576000606460056002600460008781526020019081526020016000206002866110929190612263565b815481106110a3576110a26122c6565b5b9060005260206000209060060201600201546110bf9190612026565b6110c99190612026565b6110d39190612444565b90506000816002600460008781526020019081526020016000206002866110fa9190612263565b8154811061110b5761110a6122c6565b5b9060005260206000209060060201600201546111279190612026565b6111319190612263565b905080600460008681526020019081526020016000206002856111549190612263565b81548110611165576111646122c6565b5b9060005260206000209060060201600301819055506004600085815260200190815260200160002060028461119a9190612263565b815481106111ab576111aa6122c6565b5b906000526020600020906006020160010160009054906101000a900473ffffffffffffffffffffffffffffffffffffffff1673ffffffffffffffffffffffffffffffffffffffff166108fc829081150290604051600060405180830381858888f19350505050158015611222573d6000803e3d6000fd5b50600160009054906101000a900473ffffffffffffffffffffffffffffffffffffffff1673ffffffffffffffffffffffffffffffffffffffff166108fc839081150290604051600060405180830381858888f1935050505015801561128b573d6000803e3d6000fd5b507f65edb247950c75beace5afb548418caec939cfa83b1fc60186d09d89cea66ba784600460008781526020019081526020016000206002866112ce9190612263565b815481106112df576112de6122c6565b5b906000526020600020906006020160010160009054906101000a900473ffffffffffffffffffffffffffffffffffffffff16600460008881526020019081526020016000206002876113319190612263565b81548110611342576113416122c6565b5b906000526020600020906006020160020154600460008981526020019081526020016000206002886113749190612263565b81548110611385576113846122c6565b5b906000526020600020906006020160000154856040516113a9959493929190612475565b60405180910390a150505b7f2eaa1bda0a76999046e8def81099978a4164fbfb5f4207619e76c3823f60436782333484426040516113eb959493929190612475565b60405180910390a15050565b60008060009054906101000a900473ffffffffffffffffffffffffffffffffffffffff16905090565b600080600080600060026000600160038054905061143e9190612263565b81526020019081526020016000206040518060800160405290816000820154815260200160018201548152602001600282015481526020016003820160009054906101000a900460ff161515151581525050905060016003805490506114a49190612263565b81602001518260400151836060015194509450945094505090919293565b606060046000838152602001908152602001600020805480602002602001604051908101604052809291908181526020016000905b828210156115b157838290600052602060002090600602016040518060c0016040529081600082015481526020016001820160009054906101000a900473ffffffffffffffffffffffffffffffffffffffff1673ffffffffffffffffffffffffffffffffffffffff1673ffffffffffffffffffffffffffffffffffffffff168152602001600282015481526020016003820154815260200160048201548152602001600582015481525050815260200190600101906114f7565b505050509050919050565b600160009054906101000a900473ffffffffffffffffffffffffffffffffffffffff1681565b6115ea6116c1565b600073ffffffffffffffffffffffffffffffffffffffff168173ffffffffffffffffffffffffffffffffffffffff1603611659576040517f08c379a000000000000000000000000000000000000000000000000000000000815260040161165090612612565b60405180910390fd5b611662816117d9565b50565b600080426002600085815260200190815260200160002060020154101580156116ae57506002600084815260200190815260200160002060030160009054906101000a900460ff165b156116b857600190505b80915050919050565b6116c961189d565b73ffffffffffffffffffffffffffffffffffffffff166116e76113f7565b73ffffffffffffffffffffffffffffffffffffffff161461173d576040517f08c379a00000000000000000000000000000000000000000000000000000000081526004016117349061267e565b60405180910390fd5b565b60008042600360016003805490506117579190612263565b81548110611768576117676122c6565b5b9060005260206000209060040201600201541080156117c85750600360016003805490506117969190612263565b815481106117a7576117a66122c6565b5b906000526020600020906004020160030160009054906101000a900460ff16155b156117d257600190505b8091505090565b60008060009054906101000a900473ffffffffffffffffffffffffffffffffffffffff169050816000806101000a81548173ffffffffffffffffffffffffffffffffffffffff021916908373ffffffffffffffffffffffffffffffffffffffff1602179055508173ffffffffffffffffffffffffffffffffffffffff168173ffffffffffffffffffffffffffffffffffffffff167f8be0079c531659141344cd1fd0a4f28419497f9722a3daafe3b4186f6b6457e060405160405180910390a35050565b600033905090565b60405180608001604052806000815260200160008152602001600081526020016000151581525090565b600080fd5b6000819050919050565b6118e7816118d4565b81146118f257600080fd5b50565b600081359050611904816118de565b92915050565b6000602082840312156119205761191f6118cf565b5b600061192e848285016118f5565b91505092915050565b611940816118d4565b82525050565b600060208201905061195b6000830184611937565b92915050565b61196a816118d4565b82525050565b60008115159050919050565b61198581611970565b82525050565b6080820160008201516119a16000850182611961565b5060208201516119b46020850182611961565b5060408201516119c76040850182611961565b5060608201516119da606085018261197c565b50505050565b60006080820190506119f5600083018461198b565b92915050565b60008060408385031215611a1257611a116118cf565b5b6000611a20858286016118f5565b9250506020611a31858286016118f5565b9150509250929050565b600081519050919050565b600082825260208201905092915050565b6000819050602082019050919050565b608082016000820151611a7d6000850182611961565b506020820151611a906020850182611961565b506040820151611aa36040850182611961565b506060820151611ab6606085018261197c565b50505050565b6000611ac88383611a67565b60808301905092915050565b6000602082019050919050565b6000611aec82611a3b565b611af68185611a46565b9350611b0183611a57565b8060005b83811015611b32578151611b198882611abc565b9750611b2483611ad4565b925050600181019050611b05565b5085935050505092915050565b60006020820190508181036000830152611b598184611ae1565b905092915050565b600073ffffffffffffffffffffffffffffffffffffffff82169050919050565b6000611b8c82611b61565b9050919050565b611b9c81611b81565b82525050565b6000606082019050611bb76000830186611937565b611bc46020830185611b93565b611bd16040830184611937565b949350505050565b611be281611b81565b8114611bed57600080fd5b50565b600081359050611bff81611bd9565b92915050565b600060208284031215611c1b57611c1a6118cf565b5b6000611c2984828501611bf0565b91505092915050565b6000602082019050611c476000830184611b93565b92915050565b611c5681611970565b82525050565b6000608082019050611c716000830187611937565b611c7e6020830186611937565b611c8b6040830185611937565b611c986060830184611c4d565b95945050505050565b600081519050919050565b600082825260208201905092915050565b6000819050602082019050919050565b611cd681611b81565b82525050565b60c082016000820151611cf26000850182611961565b506020820151611d056020850182611ccd565b506040820151611d186040850182611961565b506060820151611d2b6060850182611961565b506080820151611d3e6080850182611961565b5060a0820151611d5160a0850182611961565b50505050565b6000611d638383611cdc565b60c08301905092915050565b6000602082019050919050565b6000611d8782611ca1565b611d918185611cac565b9350611d9c83611cbd565b8060005b83811015611dcd578151611db48882611d57565b9750611dbf83611d6f565b925050600181019050611da0565b5085935050505092915050565b60006020820190508181036000830152611df48184611d7c565b905092915050565b600082825260208201905092915050565b7f526f756e64206973206e6f74206c697665000000000000000000000000000000600082015250565b6000611e43601183611dfc565b9150611e4e82611e0d565b602082019050919050565b60006020820190508181036000830152611e7281611e36565b9050919050565b7f4e487b7100000000000000000000000000000000000000000000000000000000600052601160045260246000fd5b60008160011c9050919050565b6000808291508390505b6001851115611eff57808604811115611edb57611eda611e79565b5b6001851615611eea5780820291505b8081029050611ef885611ea8565b9450611ebf565b94509492505050565b600082611f185760019050611fd4565b81611f265760009050611fd4565b8160018114611f3c5760028114611f4657611f75565b6001915050611fd4565b60ff841115611f5857611f57611e79565b5b8360020a915084821115611f6f57611f6e611e79565b5b50611fd4565b5060208310610133831016604e8410600b8410161715611faa5782820a905083811115611fa557611fa4611e79565b5b611fd4565b611fb78484846001611eb5565b92509050818404811115611fce57611fcd611e79565b5b81810290505b9392505050565b6000611fe6826118d4565b9150611ff1836118d4565b925061201e7fffffffffffffffffffffffffffffffffffffffffffffffffffffffffffffffff8484611f08565b905092915050565b6000612031826118d4565b915061203c836118d4565b925082820261204a816118d4565b9150828204841483151761206157612060611e79565b5b5092915050565b7f4d696e696d756d20636f6e74726163742062616c616e63652073686f756c642060008201527f626520312074504c530000000000000000000000000000000000000000000000602082015250565b60006120c4602983611dfc565b91506120cf82612068565b604082019050919050565b600060208201905081810360008301526120f3816120b7565b9050919050565b7f50726576696f757320726f756e64206973206e6f742066696e6973686564207960008201527f6574000000000000000000000000000000000000000000000000000000000000602082015250565b6000612156602283611dfc565b9150612161826120fa565b604082019050919050565b6000602082019050818103600083015261218581612149565b9050919050565b6000612197826118d4565b91506121a2836118d4565b92508282019050808211156121ba576121b9611e79565b5b92915050565b60006060820190506121d56000830186611937565b6121e26020830185611937565b6121ef6040830184611937565b949350505050565b7f496e76616c69642072616e676500000000000000000000000000000000000000600082015250565b600061222d600d83611dfc565b9150612238826121f7565b602082019050919050565b6000602082019050818103600083015261225c81612220565b9050919050565b600061226e826118d4565b9150612279836118d4565b925082820390508181111561229157612290611e79565b5b92915050565b7f4e487b7100000000000000000000000000000000000000000000000000000000600052604160045260246000fd5b7f4e487b7100000000000000000000000000000000000000000000000000000000600052603260045260246000fd5b6000612300826118d4565b91507fffffffffffffffffffffffffffffffffffffffffffffffffffffffffffffffff820361233257612331611e79565b5b600182019050919050565b7f526f756e6420697320206c697665000000000000000000000000000000000000600082015250565b6000612373600e83611dfc565b915061237e8261233d565b602082019050919050565b600060208201905081810360008301526123a281612366565b9050919050565b7f526f756e6420616c72656164792066696e697368656400000000000000000000600082015250565b60006123df601683611dfc565b91506123ea826123a9565b602082019050919050565b6000602082019050818103600083015261240e816123d2565b9050919050565b7f4e487b7100000000000000000000000000000000000000000000000000000000600052601260045260246000fd5b600061244f826118d4565b915061245a836118d4565b92508261246a57612469612415565b5b828204905092915050565b600060a08201905061248a6000830188611937565b6124976020830187611b93565b6124a46040830186611937565b6124b16060830185611937565b6124be6080830184611937565b9695505050505050565b7f5a65726f2061646472657373206e6f7420616c6c6f7765640000000000000000600082015250565b60006124fe601883611dfc565b9150612509826124c8565b602082019050919050565b6000602082019050818103600083015261252d816124f1565b9050919050565b7f496e636f727265637420696e76657374656420616d6f756e7400000000000000600082015250565b600061256a601983611dfc565b915061257582612534565b602082019050919050565b600060208201905081810360008301526125998161255d565b9050919050565b7f4f776e61626c653a206e6577206f776e657220697320746865207a65726f206160008201527f6464726573730000000000000000000000000000000000000000000000000000602082015250565b60006125fc602683611dfc565b9150612607826125a0565b604082019050919050565b6000602082019050818103600083015261262b816125ef565b9050919050565b7f4f776e61626c653a2063616c6c6572206973206e6f7420746865206f776e6572600082015250565b6000612668602083611dfc565b915061267382612632565b602082019050919050565b600060208201905081810360008301526126978161265b565b905091905056fea2646970667358221220f31dab4dd56ce3c2037413131c2609968a8efaf33b4c6fbeaf7489741576ae0864736f6c63430008110033",
  "linkReferences": {},
  "deployedLinkReferences": {}
}