{
  "_format": "hh-sol-artifact-1",
  "contractName": "PlebToHill",
  "sourceName": "contracts/PlebToHill.sol",
  "abi": [
    {
      "anonymous": false,
      "inputs": [
        {
          "indexed": true,
          "internalType": "address",
          "name": "previousOwner",
          "type": "address"
        },
        {
          "indexed": true,
          "internalType": "address",
          "name": "newOwner",
          "type": "address"
        }
      ],
      "name": "OwnershipTransferred",
      "type": "event"
    },
    {
      "anonymous": false,
      "inputs": [
        {
          "indexed": false,
          "internalType": "uint256",
          "name": "roundId",
          "type": "uint256"
        },
        {
          "indexed": false,
          "internalType": "address",
          "name": "walletAddress",
          "type": "address"
        },
        {
          "indexed": false,
          "internalType": "uint256",
          "name": "invested_amount",
          "type": "uint256"
        },
        {
          "indexed": false,
          "internalType": "uint256",
          "name": "participantId",
          "type": "uint256"
        },
        {
          "indexed": false,
          "internalType": "uint256",
          "name": "time",
          "type": "uint256"
        }
      ],
      "name": "ParticipantAdded",
      "type": "event"
    },
    {
      "anonymous": false,
      "inputs": [
        {
          "indexed": false,
          "internalType": "uint256",
          "name": "roundId",
          "type": "uint256"
        },
        {
          "indexed": false,
          "internalType": "uint256",
          "name": "startTime",
          "type": "uint256"
        },
        {
          "indexed": false,
          "internalType": "uint256",
          "name": "endTime",
          "type": "uint256"
        }
      ],
      "name": "RoundCreated",
      "type": "event"
    },
    {
      "anonymous": false,
      "inputs": [
        {
          "indexed": false,
          "internalType": "uint256",
          "name": "roundId",
          "type": "uint256"
        }
      ],
      "name": "RoundFinished",
      "type": "event"
    },
    {
      "anonymous": false,
      "inputs": [
        {
          "indexed": false,
          "internalType": "uint256",
          "name": "roundId",
          "type": "uint256"
        },
        {
          "indexed": false,
          "internalType": "uint256",
          "name": "endTime",
          "type": "uint256"
        }
      ],
      "name": "TimeReset",
      "type": "event"
    },
    {
      "anonymous": false,
      "inputs": [
        {
          "indexed": false,
          "internalType": "uint256",
          "name": "roundId",
          "type": "uint256"
        },
        {
          "indexed": false,
          "internalType": "address",
          "name": "walletAddress",
          "type": "address"
        },
        {
          "indexed": false,
          "internalType": "uint256",
          "name": "invested_amount",
          "type": "uint256"
        },
        {
          "indexed": false,
          "internalType": "uint256",
          "name": "participantId",
          "type": "uint256"
        },
        {
          "indexed": false,
          "internalType": "uint256",
          "name": "winnings",
          "type": "uint256"
        }
      ],
      "name": "WinningTransfered",
      "type": "event"
    },
    {
      "inputs": [
        {
          "internalType": "uint256",
          "name": "roundId",
          "type": "uint256"
        }
      ],
      "name": "addParticipant",
      "outputs": [],
      "stateMutability": "payable",
      "type": "function"
    },
    {
      "inputs": [],
      "name": "createRound",
      "outputs": [],
      "stateMutability": "nonpayable",
      "type": "function"
    },
    {
      "inputs": [
        {
          "internalType": "uint256",
          "name": "roundId",
          "type": "uint256"
        }
      ],
      "name": "endRound",
      "outputs": [],
      "stateMutability": "nonpayable",
      "type": "function"
    },
    {
      "inputs": [],
      "name": "extraDuration",
      "outputs": [
        {
          "internalType": "uint256",
          "name": "",
          "type": "uint256"
        }
      ],
      "stateMutability": "view",
      "type": "function"
    },
    {
      "inputs": [
        {
          "internalType": "uint256",
          "name": "roundId",
          "type": "uint256"
        }
      ],
      "name": "getAllParticipantOfRound",
      "outputs": [
        {
          "components": [
            {
              "internalType": "uint256",
              "name": "participantId",
              "type": "uint256"
            },
            {
              "internalType": "address",
              "name": "walletAddress",
              "type": "address"
            },
            {
              "internalType": "uint256",
              "name": "invested_amount",
              "type": "uint256"
            },
            {
              "internalType": "uint256",
              "name": "winnings",
              "type": "uint256"
            },
            {
              "internalType": "uint256",
              "name": "roundId",
              "type": "uint256"
            },
            {
              "internalType": "uint256",
              "name": "time",
              "type": "uint256"
            }
          ],
          "internalType": "struct PlebToHill.Participant[]",
          "name": "",
          "type": "tuple[]"
        }
      ],
      "stateMutability": "view",
      "type": "function"
    },
    {
      "inputs": [
        {
          "internalType": "uint256",
          "name": "start",
          "type": "uint256"
        },
        {
          "internalType": "uint256",
          "name": "end",
          "type": "uint256"
        }
      ],
      "name": "getAllRounds",
      "outputs": [
        {
          "components": [
            {
              "internalType": "uint256",
              "name": "roundId",
              "type": "uint256"
            },
            {
              "internalType": "uint256",
              "name": "startTime",
              "type": "uint256"
            },
            {
              "internalType": "uint256",
              "name": "endTime",
              "type": "uint256"
            },
            {
              "internalType": "bool",
              "name": "isLive",
              "type": "bool"
            }
          ],
          "internalType": "struct PlebToHill.Round[]",
          "name": "",
          "type": "tuple[]"
        }
      ],
      "stateMutability": "view",
      "type": "function"
    },
    {
      "inputs": [],
      "name": "getCurrentLiveRound",
      "outputs": [
        {
          "internalType": "uint256",
          "name": "roundId",
          "type": "uint256"
        },
        {
          "internalType": "uint256",
          "name": "startTime",
          "type": "uint256"
        },
        {
          "internalType": "uint256",
          "name": "endTime",
          "type": "uint256"
        },
        {
          "internalType": "bool",
          "name": "isLive",
          "type": "bool"
        }
      ],
      "stateMutability": "view",
      "type": "function"
    },
    {
      "inputs": [
        {
          "internalType": "uint256",
          "name": "roundId",
          "type": "uint256"
        }
      ],
      "name": "getCurrentPleb",
      "outputs": [
        {
          "internalType": "address",
          "name": "wallet",
          "type": "address"
        }
      ],
      "stateMutability": "view",
      "type": "function"
    },
    {
      "inputs": [
        {
          "internalType": "uint256",
          "name": "roundId",
          "type": "uint256"
        }
      ],
      "name": "getLoserData",
      "outputs": [
        {
          "internalType": "uint256",
          "name": "id",
          "type": "uint256"
        },
        {
          "internalType": "address",
          "name": "wallet",
          "type": "address"
        },
        {
          "internalType": "uint256",
          "name": "amount_lose",
          "type": "uint256"
        }
      ],
      "stateMutability": "view",
      "type": "function"
    },
    {
      "inputs": [
        {
          "internalType": "uint256",
          "name": "roundId",
          "type": "uint256"
        }
      ],
      "name": "getRemainingTime",
      "outputs": [
        {
          "internalType": "uint256",
          "name": "",
          "type": "uint256"
        }
      ],
      "stateMutability": "view",
      "type": "function"
    },
    {
      "inputs": [
        {
          "internalType": "uint256",
          "name": "roundId",
          "type": "uint256"
        }
      ],
      "name": "getRoundData",
      "outputs": [
        {
          "components": [
            {
              "internalType": "uint256",
              "name": "roundId",
              "type": "uint256"
            },
            {
              "internalType": "uint256",
              "name": "startTime",
              "type": "uint256"
            },
            {
              "internalType": "uint256",
              "name": "endTime",
              "type": "uint256"
            },
            {
              "internalType": "bool",
              "name": "isLive",
              "type": "bool"
            }
          ],
          "internalType": "struct PlebToHill.Round",
          "name": "",
          "type": "tuple"
        }
      ],
      "stateMutability": "view",
      "type": "function"
    },
    {
      "inputs": [
        {
          "internalType": "uint256",
          "name": "roundId",
          "type": "uint256"
        }
      ],
      "name": "getValueForNextParticipant",
      "outputs": [
        {
          "internalType": "uint256",
          "name": "",
          "type": "uint256"
        }
      ],
      "stateMutability": "view",
      "type": "function"
    },
    {
      "inputs": [],
      "name": "owner",
      "outputs": [
        {
          "internalType": "address",
          "name": "",
          "type": "address"
        }
      ],
      "stateMutability": "view",
      "type": "function"
    },
    {
      "inputs": [],
      "name": "poth_address",
      "outputs": [
        {
          "internalType": "address",
          "name": "",
          "type": "address"
        }
      ],
      "stateMutability": "view",
      "type": "function"
    },
    {
      "inputs": [],
      "name": "renounceOwnership",
      "outputs": [],
      "stateMutability": "nonpayable",
      "type": "function"
    },
    {
      "inputs": [],
      "name": "roundDuration",
      "outputs": [
        {
          "internalType": "uint256",
          "name": "",
          "type": "uint256"
        }
      ],
      "stateMutability": "view",
      "type": "function"
    },
    {
      "inputs": [
        {
          "internalType": "uint256",
          "name": "_extraDurationInMinutes",
          "type": "uint256"
        }
      ],
      "name": "setExtraDuration",
      "outputs": [],
      "stateMutability": "nonpayable",
      "type": "function"
    },
    {
      "inputs": [
        {
          "internalType": "address",
          "name": "_pothwallet",
          "type": "address"
        }
      ],
      "name": "setPothWallet",
      "outputs": [],
      "stateMutability": "nonpayable",
      "type": "function"
    },
    {
      "inputs": [
        {
          "internalType": "uint256",
          "name": "_roundDurationInMinutes",
          "type": "uint256"
        }
      ],
      "name": "setRoundDuration",
      "outputs": [],
      "stateMutability": "nonpayable",
      "type": "function"
    },
    {
      "inputs": [
        {
          "internalType": "uint256",
          "name": "_thresholdTime",
          "type": "uint256"
        }
      ],
      "name": "setThresoldTime",
      "outputs": [],
      "stateMutability": "nonpayable",
      "type": "function"
    },
    {
      "inputs": [],
      "name": "thresholdTime",
      "outputs": [
        {
          "internalType": "uint256",
          "name": "",
          "type": "uint256"
        }
      ],
      "stateMutability": "view",
      "type": "function"
    },
    {
      "inputs": [
        {
          "internalType": "address",
          "name": "newOwner",
          "type": "address"
        }
      ],
      "name": "transferOwnership",
      "outputs": [],
      "stateMutability": "nonpayable",
      "type": "function"
    },
    {
      "stateMutability": "payable",
      "type": "receive"
    }
  ],
  "bytecode": "0x60806040523480156200001157600080fd5b5062000032620000266200003f60201b60201c565b6200004760201b60201c565b600180819055506200010b565b600033905090565b60008060009054906101000a900473ffffffffffffffffffffffffffffffffffffffff169050816000806101000a81548173ffffffffffffffffffffffffffffffffffffffff021916908373ffffffffffffffffffffffffffffffffffffffff1602179055508173ffffffffffffffffffffffffffffffffffffffff168173ffffffffffffffffffffffffffffffffffffffff167f8be0079c531659141344cd1fd0a4f28419497f9722a3daafe3b4186f6b6457e060405160405180910390a35050565b613377806200011b6000396000f3fe6080604052600436106101395760003560e01c80637cb5de7c116100ab578063928554f91161006f578063928554f9146104225780639930f87614610450578063dade4b641461047b578063e2b630c2146104b8578063f2fde38b146104e3578063f7cb789a1461050c57610140565b80637cb5de7c1461034c5780637ecb177b14610375578063840650591461039e5780638acaf7a8146103db5780638da5cb5b146103f757610140565b806336c92c3f116100fd57806336c92c3f1461023c578063437b6065146102655780634781ca76146102a25780635a1e6ca1146102cd578063606e4841146102f6578063715018a61461033557610140565b806303861ba6146101455780630720da5214610182578063181e0124146101bf5780631b411fc8146101fc5780632c4dbed21461021357610140565b3661014057005b600080fd5b34801561015157600080fd5b5061016c6004803603810190610167919061221e565b610537565b604051610179919061225a565b60405180910390f35b34801561018e57600080fd5b506101a960048036038101906101a4919061221e565b610594565b6040516101b691906122f4565b60405180910390f35b3480156101cb57600080fd5b506101e660048036038101906101e1919061221e565b6105fa565b6040516101f3919061225a565b60405180910390f35b34801561020857600080fd5b50610211610637565b005b34801561021f57600080fd5b5061023a6004803603810190610235919061221e565b6108d1565b005b34801561024857600080fd5b50610263600480360381019061025e919061221e565b610932565b005b34801561027157600080fd5b5061028c6004803603810190610287919061230f565b610993565b6040516102999190612453565b60405180910390f35b3480156102ae57600080fd5b506102b7610b13565b6040516102c4919061225a565b60405180910390f35b3480156102d957600080fd5b506102f460048036038101906102ef919061221e565b610b19565b005b34801561030257600080fd5b5061031d6004803603810190610318919061221e565b6110a1565b60405161032c939291906124b6565b60405180910390f35b34801561034157600080fd5b5061034a611201565b005b34801561035857600080fd5b50610373600480360381019061036e919061221e565b611215565b005b34801561038157600080fd5b5061039c60048036038101906103979190612519565b6112d5565b005b3480156103aa57600080fd5b506103c560048036038101906103c0919061221e565b611390565b6040516103d29190612546565b60405180910390f35b6103f560048036038101906103f0919061221e565b6114fb565b005b34801561040357600080fd5b5061040c611cf5565b6040516104199190612546565b60405180910390f35b34801561042e57600080fd5b50610437611d1e565b6040516104479493929190612570565b60405180910390f35b34801561045c57600080fd5b50610465611dca565b604051610472919061225a565b60405180910390f35b34801561048757600080fd5b506104a2600480360381019061049d919061221e565b611dd0565b6040516104af91906126ee565b60405180910390f35b3480156104c457600080fd5b506104cd611eca565b6040516104da9190612546565b60405180910390f35b3480156104ef57600080fd5b5061050a60048036038101906105059190612519565b611ef0565b005b34801561051857600080fd5b50610521611f73565b60405161052e919061225a565b60405180910390f35b600061054282611f79565b1561058a57600060086000848152602001908152602001600020805490509050670de0b6b3a76400008160026105789190612872565b61058291906128bd565b91505061058f565b600090505b919050565b61059c6121b9565b600660008381526020019081526020016000206040518060800160405290816000820154815260200160018201548152602001600282015481526020016003820160009054906101000a900460ff1615151515815250509050919050565b60008061060683610594565b9050806040015142101561062c5742816040015161062491906128ff565b915050610632565b60009150505b919050565b61063f611fd5565b600060025411801561065357506000600354115b801561066157506000600454115b6106a0576040517f08c379a0000000000000000000000000000000000000000000000000000000008152600401610697906129b6565b60405180910390fd5b670de0b6b3a76400004710156106eb576040517f08c379a00000000000000000000000000000000000000000000000000000000081526004016106e290612a48565b60405180910390fd5b600060016007805490506106ff9190612a68565b90506000600780549050111561075757610717612053565b610756576040517f08c379a000000000000000000000000000000000000000000000000000000000815260040161074d90612b0e565b60405180910390fd5b5b60405180608001604052808281526020014281526020016002544261077c9190612a68565b8152602001600115158152506006600083815260200190815260200160002060008201518160000155602082015181600101556040820151816002015560608201518160030160006101000a81548160ff02191690831515021790555090505060076006600083815260200190815260200160002090806001815401808255809150506001900390600052602060002090600402016000909190919091506000820154816000015560018201548160010155600282015481600201556003820160009054906101000a900460ff168160030160006101000a81548160ff02191690831515021790555050507f68e7b09ec44e876e76ff05157850e3261aa63a8680fe21a2ba93dcbb2b09f58f81600660008481526020019081526020016000206001015460066000858152602001908152602001600020600201546040516108c693929190612b2e565b60405180910390a150565b6108d9611fd5565b6000810361091c576040517f08c379a000000000000000000000000000000000000000000000000000000000815260040161091390612bd7565b60405180910390fd5b603c8161092991906128bd565b60038190555050565b61093a611fd5565b6000810361097d576040517f08c379a000000000000000000000000000000000000000000000000000000000815260040161097490612bd7565b60405180910390fd5b603c8161098a91906128bd565b60028190555050565b606060078054905082106109dc576040517f08c379a00000000000000000000000000000000000000000000000000000000081526004016109d390612c43565b60405180910390fd5b6000600184846109ec91906128ff565b6109f69190612a68565b67ffffffffffffffff811115610a0f57610a0e612c63565b5b604051908082528060200260200182016040528015610a4857816020015b610a356121b9565b815260200190600190039081610a2d5790505b50905060005b8484610a5a91906128ff565b8111610b0857600060078683610a709190612a68565b81548110610a8157610a80612c92565b5b90600052602060002090600402016040518060800160405290816000820154815260200160018201548152602001600282015481526020016003820160009054906101000a900460ff161515151581525050905080838381518110610ae957610ae8612c92565b5b6020026020010181905250508080610b0090612cc1565b915050610a4e565b508091505092915050565b60035481565b610b21611fd5565b610b2a81611f79565b15610b6a576040517f08c379a0000000000000000000000000000000000000000000000000000000008152600401610b6190612d55565b60405180910390fd5b6006600082815260200190815260200160002060030160009054906101000a900460ff16610bcd576040517f08c379a0000000000000000000000000000000000000000000000000000000008152600401610bc490612dc1565b60405180910390fd5b60006006600083815260200190815260200160002060030160006101000a81548160ff02191690831515021790555060006007600183610c0d91906128ff565b81548110610c1e57610c1d612c92565b5b906000526020600020906004020160030160006101000a81548160ff021916908315150217905550600160086000838152602001908152602001600020805490500361106757600060646005600260086000868152602001908152602001600020600081548110610c9257610c91612c92565b5b906000526020600020906006020160020154610cae91906128bd565b610cb891906128bd565b610cc29190612e10565b9050600081600260086000868152602001908152602001600020600081548110610cef57610cee612c92565b5b906000526020600020906006020160020154610d0b91906128bd565b610d1591906128ff565b9050600060086000858152602001908152602001600020600081548110610d3f57610d3e612c92565b5b906000526020600020906006020160010160009054906101000a900473ffffffffffffffffffffffffffffffffffffffff1673ffffffffffffffffffffffffffffffffffffffff1682604051610d9490612e72565b60006040518083038185875af1925050503d8060008114610dd1576040519150601f19603f3d011682016040523d82523d6000602084013e610dd6565b606091505b505090508015610fbe578160086000868152602001908152602001600020600081548110610e0757610e06612c92565b5b9060005260206000209060060201600301819055506000600560009054906101000a900473ffffffffffffffffffffffffffffffffffffffff1673ffffffffffffffffffffffffffffffffffffffff1684604051610e6490612e72565b60006040518083038185875af1925050503d8060008114610ea1576040519150601f19603f3d011682016040523d82523d6000602084013e610ea6565b606091505b5050905080610eb457600080fd5b7f65edb247950c75beace5afb548418caec939cfa83b1fc60186d09d89cea66ba78560086000888152602001908152602001600020600081548110610efc57610efb612c92565b5b906000526020600020906006020160010160009054906101000a900473ffffffffffffffffffffffffffffffffffffffff1660086000898152602001908152602001600020600081548110610f5457610f53612c92565b5b906000526020600020906006020160020154600860008a8152602001908152602001600020600081548110610f8c57610f8b612c92565b5b90600052602060002090600602016000015487604051610fb0959493929190612e87565b60405180910390a150611063565b6000600560009054906101000a900473ffffffffffffffffffffffffffffffffffffffff1673ffffffffffffffffffffffffffffffffffffffff1683856110059190612a68565b60405161101190612e72565b60006040518083038185875af1925050503d806000811461104e576040519150601f19603f3d011682016040523d82523d6000602084013e611053565b606091505b505090508061106157600080fd5b505b5050505b7f74ef25ef6b332a2fbbe7eb8b4108e0fe842a929d34c52a2ea4ca1a0f1524f10781604051611096919061225a565b60405180910390a150565b60008060006001600860008681526020019081526020016000208054905014806110e1575060006008600086815260200190815260200160002080549050145b156110f7576000925060009150600090506111fa565b6000600860008681526020019081526020016000206001600860008881526020019081526020016000208054905061112f91906128ff565b815481106111405761113f612c92565b5b90600052602060002090600602016040518060c0016040529081600082015481526020016001820160009054906101000a900473ffffffffffffffffffffffffffffffffffffffff1673ffffffffffffffffffffffffffffffffffffffff1673ffffffffffffffffffffffffffffffffffffffff1681526020016002820154815260200160038201548152602001600482015481526020016005820154815250509050806000015193508060200151925080604001519150505b9193909250565b611209611fd5565b61121360006120ed565b565b61121d611fd5565b600060025411611262576040517f08c379a000000000000000000000000000000000000000000000000000000000815260040161125990612f26565b60405180910390fd5b600081141580156112805750603c60025461127d9190612e10565b81105b6112bf576040517f08c379a00000000000000000000000000000000000000000000000000000000081526004016112b690612fb8565b60405180910390fd5b603c816112cc91906128bd565b60048190555050565b6112dd611fd5565b600073ffffffffffffffffffffffffffffffffffffffff168173ffffffffffffffffffffffffffffffffffffffff160361134c576040517f08c379a000000000000000000000000000000000000000000000000000000000815260040161134390613024565b60405180910390fd5b80600560006101000a81548173ffffffffffffffffffffffffffffffffffffffff021916908373ffffffffffffffffffffffffffffffffffffffff16021790555050565b600061139b82611f79565b6113da576040517f08c379a00000000000000000000000000000000000000000000000000000000081526004016113d190613090565b60405180910390fd5b60016008600084815260200190815260200160002080549050106114f1576000600860008481526020019081526020016000206001600860008681526020019081526020016000208054905061143091906128ff565b8154811061144157611440612c92565b5b90600052602060002090600602016040518060c0016040529081600082015481526020016001820160009054906101000a900473ffffffffffffffffffffffffffffffffffffffff1673ffffffffffffffffffffffffffffffffffffffff1673ffffffffffffffffffffffffffffffffffffffff168152602001600282015481526020016003820154815260200160048201548152602001600582015481525050905080602001519150506114f6565b600090505b919050565b600260015403611540576040517f08c379a0000000000000000000000000000000000000000000000000000000008152600401611537906130fc565b60405180910390fd5b600260018190555061155181611f79565b611590576040517f08c379a000000000000000000000000000000000000000000000000000000000815260040161158790613090565b60405180910390fd5b61159981610537565b34146115da576040517f08c379a00000000000000000000000000000000000000000000000000000000081526004016115d190613168565b60405180910390fd5b60006115e582611390565b90503373ffffffffffffffffffffffffffffffffffffffff168173ffffffffffffffffffffffffffffffffffffffff1603611655576040517f08c379a000000000000000000000000000000000000000000000000000000000815260040161164c906131fa565b60405180910390fd5b60006001600860008581526020019081526020016000208054905061167a9190612a68565b9050600860008481526020019081526020016000206040518060c001604052808381526020013373ffffffffffffffffffffffffffffffffffffffff168152602001348152602001600081526020018581526020014281525090806001815401808255809150506001900390600052602060002090600602016000909190919091506000820151816000015560208201518160010160006101000a81548173ffffffffffffffffffffffffffffffffffffffff021916908373ffffffffffffffffffffffffffffffffffffffff16021790555060408201518160020155606082015181600301556080820151816004015560a082015181600501555050600454611783846105fa565b1115801561179957506000611797846105fa565b115b1561185257600060035460066000868152602001908152602001600020600201546117c49190612a68565b90508060066000868152602001908152602001600020600201819055508060076001866117f191906128ff565b8154811061180257611801612c92565b5b9060005260206000209060040201600201819055507fff1bf99918d35d7dd5182e2a06f26aa0b7673c48538bb8ce407af50f4b4ab2ca848260405161184892919061321a565b60405180910390a1505b60018114611caa5760006064600560026008600088815260200190815260200160002060028661188291906128ff565b8154811061189357611892612c92565b5b9060005260206000209060060201600201546118af91906128bd565b6118b991906128bd565b6118c39190612e10565b90506000816002600860008881526020019081526020016000206002866118ea91906128ff565b815481106118fb576118fa612c92565b5b90600052602060002090600602016002015461191791906128bd565b61192191906128ff565b905060006008600087815260200190815260200160002060028561194591906128ff565b8154811061195657611955612c92565b5b906000526020600020906006020160010160009054906101000a900473ffffffffffffffffffffffffffffffffffffffff1673ffffffffffffffffffffffffffffffffffffffff16826040516119ab90612e72565b60006040518083038185875af1925050503d80600081146119e8576040519150601f19603f3d011682016040523d82523d6000602084013e6119ed565b606091505b505090508015611c01578160086000888152602001908152602001600020600286611a1891906128ff565b81548110611a2957611a28612c92565b5b9060005260206000209060060201600301819055506000600560009054906101000a900473ffffffffffffffffffffffffffffffffffffffff1673ffffffffffffffffffffffffffffffffffffffff1684604051611a8690612e72565b60006040518083038185875af1925050503d8060008114611ac3576040519150601f19603f3d011682016040523d82523d6000602084013e611ac8565b606091505b5050905080611ad657600080fd5b7f65edb247950c75beace5afb548418caec939cfa83b1fc60186d09d89cea66ba787600860008a8152602001908152602001600020600288611b1891906128ff565b81548110611b2957611b28612c92565b5b906000526020600020906006020160010160009054906101000a900473ffffffffffffffffffffffffffffffffffffffff16600860008b8152602001908152602001600020600289611b7b91906128ff565b81548110611b8c57611b8b612c92565b5b906000526020600020906006020160020154600860008c815260200190815260200160002060028a611bbe91906128ff565b81548110611bcf57611bce612c92565b5b90600052602060002090600602016000015487604051611bf3959493929190612e87565b60405180910390a150611ca6565b6000600560009054906101000a900473ffffffffffffffffffffffffffffffffffffffff1673ffffffffffffffffffffffffffffffffffffffff168385611c489190612a68565b604051611c5490612e72565b60006040518083038185875af1925050503d8060008114611c91576040519150601f19603f3d011682016040523d82523d6000602084013e611c96565b606091505b5050905080611ca457600080fd5b505b5050505b7f2eaa1bda0a76999046e8def81099978a4164fbfb5f4207619e76c3823f6043678333348442604051611ce1959493929190612e87565b60405180910390a150506001808190555050565b60008060009054906101000a900473ffffffffffffffffffffffffffffffffffffffff16905090565b60008060008060006007805490501115611db55760006006600060078054905081526020019081526020016000206040518060800160405290816000820154815260200160018201548152602001600282015481526020016003820160009054906101000a900460ff1615151515815250509050600780549050816020015182604001518360600151945094509450945050611dc4565b60008060008093509350935093505b90919293565b60045481565b606060086000838152602001908152602001600020805480602002602001604051908101604052809291908181526020016000905b82821015611ebf57838290600052602060002090600602016040518060c0016040529081600082015481526020016001820160009054906101000a900473ffffffffffffffffffffffffffffffffffffffff1673ffffffffffffffffffffffffffffffffffffffff1673ffffffffffffffffffffffffffffffffffffffff16815260200160028201548152602001600382015481526020016004820154815260200160058201548152505081526020019060010190611e05565b505050509050919050565b600560009054906101000a900473ffffffffffffffffffffffffffffffffffffffff1681565b611ef8611fd5565b600073ffffffffffffffffffffffffffffffffffffffff168173ffffffffffffffffffffffffffffffffffffffff1603611f67576040517f08c379a0000000000000000000000000000000000000000000000000000000008152600401611f5e906132b5565b60405180910390fd5b611f70816120ed565b50565b60025481565b60008042600660008581526020019081526020016000206002015410158015611fc257506006600084815260200190815260200160002060030160009054906101000a900460ff165b15611fcc57600190505b80915050919050565b611fdd6121b1565b73ffffffffffffffffffffffffffffffffffffffff16611ffb611cf5565b73ffffffffffffffffffffffffffffffffffffffff1614612051576040517f08c379a000000000000000000000000000000000000000000000000000000000815260040161204890613321565b60405180910390fd5b565b600080426007600160078054905061206b91906128ff565b8154811061207c5761207b612c92565b5b9060005260206000209060040201600201541080156120dc5750600760016007805490506120aa91906128ff565b815481106120bb576120ba612c92565b5b906000526020600020906004020160030160009054906101000a900460ff16155b156120e657600190505b8091505090565b60008060009054906101000a900473ffffffffffffffffffffffffffffffffffffffff169050816000806101000a81548173ffffffffffffffffffffffffffffffffffffffff021916908373ffffffffffffffffffffffffffffffffffffffff1602179055508173ffffffffffffffffffffffffffffffffffffffff168173ffffffffffffffffffffffffffffffffffffffff167f8be0079c531659141344cd1fd0a4f28419497f9722a3daafe3b4186f6b6457e060405160405180910390a35050565b600033905090565b60405180608001604052806000815260200160008152602001600081526020016000151581525090565b600080fd5b6000819050919050565b6121fb816121e8565b811461220657600080fd5b50565b600081359050612218816121f2565b92915050565b600060208284031215612234576122336121e3565b5b600061224284828501612209565b91505092915050565b612254816121e8565b82525050565b600060208201905061226f600083018461224b565b92915050565b61227e816121e8565b82525050565b60008115159050919050565b61229981612284565b82525050565b6080820160008201516122b56000850182612275565b5060208201516122c86020850182612275565b5060408201516122db6040850182612275565b5060608201516122ee6060850182612290565b50505050565b6000608082019050612309600083018461229f565b92915050565b60008060408385031215612326576123256121e3565b5b600061233485828601612209565b925050602061234585828601612209565b9150509250929050565b600081519050919050565b600082825260208201905092915050565b6000819050602082019050919050565b6080820160008201516123916000850182612275565b5060208201516123a46020850182612275565b5060408201516123b76040850182612275565b5060608201516123ca6060850182612290565b50505050565b60006123dc838361237b565b60808301905092915050565b6000602082019050919050565b60006124008261234f565b61240a818561235a565b93506124158361236b565b8060005b8381101561244657815161242d88826123d0565b9750612438836123e8565b925050600181019050612419565b5085935050505092915050565b6000602082019050818103600083015261246d81846123f5565b905092915050565b600073ffffffffffffffffffffffffffffffffffffffff82169050919050565b60006124a082612475565b9050919050565b6124b081612495565b82525050565b60006060820190506124cb600083018661224b565b6124d860208301856124a7565b6124e5604083018461224b565b949350505050565b6124f681612495565b811461250157600080fd5b50565b600081359050612513816124ed565b92915050565b60006020828403121561252f5761252e6121e3565b5b600061253d84828501612504565b91505092915050565b600060208201905061255b60008301846124a7565b92915050565b61256a81612284565b82525050565b6000608082019050612585600083018761224b565b612592602083018661224b565b61259f604083018561224b565b6125ac6060830184612561565b95945050505050565b600081519050919050565b600082825260208201905092915050565b6000819050602082019050919050565b6125ea81612495565b82525050565b60c0820160008201516126066000850182612275565b50602082015161261960208501826125e1565b50604082015161262c6040850182612275565b50606082015161263f6060850182612275565b5060808201516126526080850182612275565b5060a082015161266560a0850182612275565b50505050565b600061267783836125f0565b60c08301905092915050565b6000602082019050919050565b600061269b826125b5565b6126a581856125c0565b93506126b0836125d1565b8060005b838110156126e15781516126c8888261266b565b97506126d383612683565b9250506001810190506126b4565b5085935050505092915050565b600060208201905081810360008301526127088184612690565b905092915050565b7f4e487b7100000000000000000000000000000000000000000000000000000000600052601160045260246000fd5b60008160011c9050919050565b6000808291508390505b60018511156127965780860481111561277257612771612710565b5b60018516156127815780820291505b808102905061278f8561273f565b9450612756565b94509492505050565b6000826127af576001905061286b565b816127bd576000905061286b565b81600181146127d357600281146127dd5761280c565b600191505061286b565b60ff8411156127ef576127ee612710565b5b8360020a91508482111561280657612805612710565b5b5061286b565b5060208310610133831016604e8410600b84101617156128415782820a90508381111561283c5761283b612710565b5b61286b565b61284e848484600161274c565b9250905081840481111561286557612864612710565b5b81810290505b9392505050565b600061287d826121e8565b9150612888836121e8565b92506128b57fffffffffffffffffffffffffffffffffffffffffffffffffffffffffffffffff848461279f565b905092915050565b60006128c8826121e8565b91506128d3836121e8565b92508282026128e1816121e8565b915082820484148315176128f8576128f7612710565b5b5092915050565b600061290a826121e8565b9150612915836121e8565b925082820390508181111561292d5761292c612710565b5b92915050565b600082825260208201905092915050565b7f526f756e64206475726174696f6e206f72206578747261206475726174696f6e60008201527f2020617265206e6f74207365742e000000000000000000000000000000000000602082015250565b60006129a0602e83612933565b91506129ab82612944565b604082019050919050565b600060208201905081810360008301526129cf81612993565b9050919050565b7f4d696e696d756d20636f6e74726163742062616c616e63652073686f756c642060008201527f626520312074504c530000000000000000000000000000000000000000000000602082015250565b6000612a32602983612933565b9150612a3d826129d6565b604082019050919050565b60006020820190508181036000830152612a6181612a25565b9050919050565b6000612a73826121e8565b9150612a7e836121e8565b9250828201905080821115612a9657612a95612710565b5b92915050565b7f50726576696f757320726f756e64206973206e6f742066696e6973686564207960008201527f6574000000000000000000000000000000000000000000000000000000000000602082015250565b6000612af8602283612933565b9150612b0382612a9c565b604082019050919050565b60006020820190508181036000830152612b2781612aeb565b9050919050565b6000606082019050612b43600083018661224b565b612b50602083018561224b565b612b5d604083018461224b565b949350505050565b7f4475726174696f6e2073686f756c642062652067726561746572207468616e2060008201527f3000000000000000000000000000000000000000000000000000000000000000602082015250565b6000612bc1602183612933565b9150612bcc82612b65565b604082019050919050565b60006020820190508181036000830152612bf081612bb4565b9050919050565b7f496e76616c69642072616e676500000000000000000000000000000000000000600082015250565b6000612c2d600d83612933565b9150612c3882612bf7565b602082019050919050565b60006020820190508181036000830152612c5c81612c20565b9050919050565b7f4e487b7100000000000000000000000000000000000000000000000000000000600052604160045260246000fd5b7f4e487b7100000000000000000000000000000000000000000000000000000000600052603260045260246000fd5b6000612ccc826121e8565b91507fffffffffffffffffffffffffffffffffffffffffffffffffffffffffffffffff8203612cfe57612cfd612710565b5b600182019050919050565b7f526f756e6420697320206c697665000000000000000000000000000000000000600082015250565b6000612d3f600e83612933565b9150612d4a82612d09565b602082019050919050565b60006020820190508181036000830152612d6e81612d32565b9050919050565b7f526f756e6420616c72656164792066696e697368656400000000000000000000600082015250565b6000612dab601683612933565b9150612db682612d75565b602082019050919050565b60006020820190508181036000830152612dda81612d9e565b9050919050565b7f4e487b7100000000000000000000000000000000000000000000000000000000600052601260045260246000fd5b6000612e1b826121e8565b9150612e26836121e8565b925082612e3657612e35612de1565b5b828204905092915050565b600081905092915050565b50565b6000612e5c600083612e41565b9150612e6782612e4c565b600082019050919050565b6000612e7d82612e4f565b9150819050919050565b600060a082019050612e9c600083018861224b565b612ea960208301876124a7565b612eb6604083018661224b565b612ec3606083018561224b565b612ed0608083018461224b565b9695505050505050565b7f53657420726f756e64206475726174696f6e2066697273740000000000000000600082015250565b6000612f10601883612933565b9150612f1b82612eda565b602082019050919050565b60006020820190508181036000830152612f3f81612f03565b9050919050565b7f4475726174696f6e2073686f756c642062652067726561746572207468616e2060008201527f3020616e6420726f756e644475726174696f6e00000000000000000000000000602082015250565b6000612fa2603383612933565b9150612fad82612f46565b604082019050919050565b60006020820190508181036000830152612fd181612f95565b9050919050565b7f5a65726f2061646472657373206e6f7420616c6c6f7765640000000000000000600082015250565b600061300e601883612933565b915061301982612fd8565b602082019050919050565b6000602082019050818103600083015261303d81613001565b9050919050565b7f526f756e64206973206e6f74206c697665000000000000000000000000000000600082015250565b600061307a601183612933565b915061308582613044565b602082019050919050565b600060208201905081810360008301526130a98161306d565b9050919050565b7f5265656e7472616e637947756172643a207265656e7472616e742063616c6c00600082015250565b60006130e6601f83612933565b91506130f1826130b0565b602082019050919050565b60006020820190508181036000830152613115816130d9565b9050919050565b7f496e636f727265637420696e76657374656420616d6f756e7400000000000000600082015250565b6000613152601983612933565b915061315d8261311c565b602082019050919050565b6000602082019050818103600083015261318181613145565b9050919050565b7f596f752063616e6e6f74206465706f73697420616761696e20756e74696c207460008201527f686572652069732061206e657720706c65620000000000000000000000000000602082015250565b60006131e4603283612933565b91506131ef82613188565b604082019050919050565b60006020820190508181036000830152613213816131d7565b9050919050565b600060408201905061322f600083018561224b565b61323c602083018461224b565b9392505050565b7f4f776e61626c653a206e6577206f776e657220697320746865207a65726f206160008201527f6464726573730000000000000000000000000000000000000000000000000000602082015250565b600061329f602683612933565b91506132aa82613243565b604082019050919050565b600060208201905081810360008301526132ce81613292565b9050919050565b7f4f776e61626c653a2063616c6c6572206973206e6f7420746865206f776e6572600082015250565b600061330b602083612933565b9150613316826132d5565b602082019050919050565b6000602082019050818103600083015261333a816132fe565b905091905056fea2646970667358221220a71d76a2d7fc7c3af973f17a6e49c38648fc889d5d3f500884d6f669354653fa64736f6c63430008110033",
  "linkReferences": {},
  "deployedLinkReferences": {}
}