{
  "_format": "hh-sol-artifact-1",
  "contractName": "PlebToHill",
  "sourceName": "contracts/PlebToHill.sol",
  "abi": [
    {
      "inputs": [
        {
          "internalType": "contract IPlebToken",
          "name": "_plebToken",
          "type": "address"
        },
        {
          "internalType": "contract Stake",
          "name": "_pleb_stake_address",
          "type": "address"
        }
      ],
      "stateMutability": "nonpayable",
      "type": "constructor"
    },
    {
      "anonymous": false,
      "inputs": [
        {
          "indexed": true,
          "internalType": "address",
          "name": "previousOwner",
          "type": "address"
        },
        {
          "indexed": true,
          "internalType": "address",
          "name": "newOwner",
          "type": "address"
        }
      ],
      "name": "OwnershipTransferred",
      "type": "event"
    },
    {
      "anonymous": false,
      "inputs": [
        {
          "indexed": false,
          "internalType": "uint256",
          "name": "roundId",
          "type": "uint256"
        },
        {
          "indexed": false,
          "internalType": "address",
          "name": "walletAddress",
          "type": "address"
        },
        {
          "indexed": false,
          "internalType": "uint256",
          "name": "invested_amount",
          "type": "uint256"
        },
        {
          "indexed": false,
          "internalType": "uint256",
          "name": "participantId",
          "type": "uint256"
        },
        {
          "indexed": false,
          "internalType": "uint256",
          "name": "time",
          "type": "uint256"
        }
      ],
      "name": "ParticipantAdded",
      "type": "event"
    },
    {
      "anonymous": false,
      "inputs": [
        {
          "indexed": false,
          "internalType": "uint256",
          "name": "roundId",
          "type": "uint256"
        },
        {
          "indexed": false,
          "internalType": "uint256",
          "name": "startTime",
          "type": "uint256"
        },
        {
          "indexed": false,
          "internalType": "uint256",
          "name": "endTime",
          "type": "uint256"
        }
      ],
      "name": "RoundCreated",
      "type": "event"
    },
    {
      "anonymous": false,
      "inputs": [
        {
          "indexed": false,
          "internalType": "uint256",
          "name": "roundId",
          "type": "uint256"
        }
      ],
      "name": "RoundFinished",
      "type": "event"
    },
    {
      "anonymous": false,
      "inputs": [
        {
          "indexed": false,
          "internalType": "uint256",
          "name": "roundId",
          "type": "uint256"
        },
        {
          "indexed": false,
          "internalType": "uint256",
          "name": "endTime",
          "type": "uint256"
        }
      ],
      "name": "TimeReset",
      "type": "event"
    },
    {
      "anonymous": false,
      "inputs": [
        {
          "indexed": false,
          "internalType": "uint256",
          "name": "roundId",
          "type": "uint256"
        },
        {
          "indexed": false,
          "internalType": "address",
          "name": "walletAddress",
          "type": "address"
        },
        {
          "indexed": false,
          "internalType": "uint256",
          "name": "invested_amount",
          "type": "uint256"
        },
        {
          "indexed": false,
          "internalType": "uint256",
          "name": "participantId",
          "type": "uint256"
        },
        {
          "indexed": false,
          "internalType": "uint256",
          "name": "winnings",
          "type": "uint256"
        }
      ],
      "name": "WinningTransfered",
      "type": "event"
    },
    {
      "inputs": [
        {
          "internalType": "uint256",
          "name": "roundId",
          "type": "uint256"
        }
      ],
      "name": "addParticipant",
      "outputs": [],
      "stateMutability": "payable",
      "type": "function"
    },
    {
      "inputs": [],
      "name": "createRound",
      "outputs": [],
      "stateMutability": "nonpayable",
      "type": "function"
    },
    {
      "inputs": [
        {
          "internalType": "uint256",
          "name": "roundId",
          "type": "uint256"
        }
      ],
      "name": "endRound",
      "outputs": [],
      "stateMutability": "nonpayable",
      "type": "function"
    },
    {
      "inputs": [],
      "name": "extraDuration",
      "outputs": [
        {
          "internalType": "uint256",
          "name": "",
          "type": "uint256"
        }
      ],
      "stateMutability": "view",
      "type": "function"
    },
    {
      "inputs": [
        {
          "internalType": "uint256",
          "name": "roundId",
          "type": "uint256"
        }
      ],
      "name": "getAllParticipantOfRound",
      "outputs": [
        {
          "components": [
            {
              "internalType": "uint256",
              "name": "participantId",
              "type": "uint256"
            },
            {
              "internalType": "address",
              "name": "walletAddress",
              "type": "address"
            },
            {
              "internalType": "uint256",
              "name": "invested_amount",
              "type": "uint256"
            },
            {
              "internalType": "uint256",
              "name": "winnings",
              "type": "uint256"
            },
            {
              "internalType": "uint256",
              "name": "roundId",
              "type": "uint256"
            },
            {
              "internalType": "uint256",
              "name": "time",
              "type": "uint256"
            }
          ],
          "internalType": "struct PlebToHill.Participant[]",
          "name": "",
          "type": "tuple[]"
        }
      ],
      "stateMutability": "view",
      "type": "function"
    },
    {
      "inputs": [
        {
          "internalType": "uint256",
          "name": "start",
          "type": "uint256"
        },
        {
          "internalType": "uint256",
          "name": "end",
          "type": "uint256"
        }
      ],
      "name": "getAllRounds",
      "outputs": [
        {
          "components": [
            {
              "internalType": "uint256",
              "name": "roundId",
              "type": "uint256"
            },
            {
              "internalType": "uint256",
              "name": "startTime",
              "type": "uint256"
            },
            {
              "internalType": "uint256",
              "name": "endTime",
              "type": "uint256"
            },
            {
              "internalType": "bool",
              "name": "isLive",
              "type": "bool"
            }
          ],
          "internalType": "struct PlebToHill.Round[]",
          "name": "",
          "type": "tuple[]"
        }
      ],
      "stateMutability": "view",
      "type": "function"
    },
    {
      "inputs": [],
      "name": "getCurrentLiveRound",
      "outputs": [
        {
          "internalType": "uint256",
          "name": "roundId",
          "type": "uint256"
        },
        {
          "internalType": "uint256",
          "name": "startTime",
          "type": "uint256"
        },
        {
          "internalType": "uint256",
          "name": "endTime",
          "type": "uint256"
        },
        {
          "internalType": "bool",
          "name": "isLive",
          "type": "bool"
        }
      ],
      "stateMutability": "view",
      "type": "function"
    },
    {
      "inputs": [
        {
          "internalType": "uint256",
          "name": "roundId",
          "type": "uint256"
        }
      ],
      "name": "getCurrentPleb",
      "outputs": [
        {
          "internalType": "address",
          "name": "wallet",
          "type": "address"
        }
      ],
      "stateMutability": "view",
      "type": "function"
    },
    {
      "inputs": [
        {
          "internalType": "uint256",
          "name": "roundId",
          "type": "uint256"
        }
      ],
      "name": "getLoserData",
      "outputs": [
        {
          "internalType": "uint256",
          "name": "id",
          "type": "uint256"
        },
        {
          "internalType": "address",
          "name": "wallet",
          "type": "address"
        },
        {
          "internalType": "uint256",
          "name": "amount_lose",
          "type": "uint256"
        }
      ],
      "stateMutability": "view",
      "type": "function"
    },
    {
      "inputs": [
        {
          "internalType": "uint256",
          "name": "roundId",
          "type": "uint256"
        }
      ],
      "name": "getRemainingTime",
      "outputs": [
        {
          "internalType": "uint256",
          "name": "",
          "type": "uint256"
        }
      ],
      "stateMutability": "view",
      "type": "function"
    },
    {
      "inputs": [
        {
          "internalType": "uint256",
          "name": "roundId",
          "type": "uint256"
        }
      ],
      "name": "getRoundData",
      "outputs": [
        {
          "components": [
            {
              "internalType": "uint256",
              "name": "roundId",
              "type": "uint256"
            },
            {
              "internalType": "uint256",
              "name": "startTime",
              "type": "uint256"
            },
            {
              "internalType": "uint256",
              "name": "endTime",
              "type": "uint256"
            },
            {
              "internalType": "bool",
              "name": "isLive",
              "type": "bool"
            }
          ],
          "internalType": "struct PlebToHill.Round",
          "name": "",
          "type": "tuple"
        }
      ],
      "stateMutability": "view",
      "type": "function"
    },
    {
      "inputs": [
        {
          "internalType": "uint256",
          "name": "roundId",
          "type": "uint256"
        }
      ],
      "name": "getValueForNextParticipant",
      "outputs": [
        {
          "internalType": "uint256",
          "name": "",
          "type": "uint256"
        }
      ],
      "stateMutability": "view",
      "type": "function"
    },
    {
      "inputs": [],
      "name": "owner",
      "outputs": [
        {
          "internalType": "address",
          "name": "",
          "type": "address"
        }
      ],
      "stateMutability": "view",
      "type": "function"
    },
    {
      "inputs": [],
      "name": "plebToken",
      "outputs": [
        {
          "internalType": "contract IPlebToken",
          "name": "",
          "type": "address"
        }
      ],
      "stateMutability": "view",
      "type": "function"
    },
    {
      "inputs": [],
      "name": "pleb_stake_address",
      "outputs": [
        {
          "internalType": "contract Stake",
          "name": "",
          "type": "address"
        }
      ],
      "stateMutability": "view",
      "type": "function"
    },
    {
      "inputs": [],
      "name": "renounceOwnership",
      "outputs": [],
      "stateMutability": "nonpayable",
      "type": "function"
    },
    {
      "inputs": [],
      "name": "roundDuration",
      "outputs": [
        {
          "internalType": "uint256",
          "name": "",
          "type": "uint256"
        }
      ],
      "stateMutability": "view",
      "type": "function"
    },
    {
      "inputs": [
        {
          "internalType": "uint256",
          "name": "_extraDurationInMinutes",
          "type": "uint256"
        }
      ],
      "name": "setExtraDuration",
      "outputs": [],
      "stateMutability": "nonpayable",
      "type": "function"
    },
    {
      "inputs": [
        {
          "internalType": "uint256",
          "name": "_roundDurationInMinutes",
          "type": "uint256"
        }
      ],
      "name": "setRoundDuration",
      "outputs": [],
      "stateMutability": "nonpayable",
      "type": "function"
    },
    {
      "inputs": [
        {
          "internalType": "uint256",
          "name": "_thresholdTime",
          "type": "uint256"
        }
      ],
      "name": "setThresoldTime",
      "outputs": [],
      "stateMutability": "nonpayable",
      "type": "function"
    },
    {
      "inputs": [],
      "name": "thresholdTime",
      "outputs": [
        {
          "internalType": "uint256",
          "name": "",
          "type": "uint256"
        }
      ],
      "stateMutability": "view",
      "type": "function"
    },
    {
      "inputs": [
        {
          "internalType": "address",
          "name": "newOwner",
          "type": "address"
        }
      ],
      "name": "transferOwnership",
      "outputs": [],
      "stateMutability": "nonpayable",
      "type": "function"
    },
    {
      "stateMutability": "payable",
      "type": "receive"
    }
  ],
  "bytecode": "0x60806040523480156200001157600080fd5b506040516200387a3803806200387a833981810160405281019062000037919062000277565b620000576200004b620000e860201b60201c565b620000f060201b60201c565b6001808190555081600260006101000a81548173ffffffffffffffffffffffffffffffffffffffff021916908373ffffffffffffffffffffffffffffffffffffffff16021790555080600360006101000a81548173ffffffffffffffffffffffffffffffffffffffff021916908373ffffffffffffffffffffffffffffffffffffffff1602179055505050620002be565b600033905090565b60008060009054906101000a900473ffffffffffffffffffffffffffffffffffffffff169050816000806101000a81548173ffffffffffffffffffffffffffffffffffffffff021916908373ffffffffffffffffffffffffffffffffffffffff1602179055508173ffffffffffffffffffffffffffffffffffffffff168173ffffffffffffffffffffffffffffffffffffffff167f8be0079c531659141344cd1fd0a4f28419497f9722a3daafe3b4186f6b6457e060405160405180910390a35050565b600080fd5b600073ffffffffffffffffffffffffffffffffffffffff82169050919050565b6000620001e682620001b9565b9050919050565b6000620001fa82620001d9565b9050919050565b6200020c81620001ed565b81146200021857600080fd5b50565b6000815190506200022c8162000201565b92915050565b60006200023f82620001d9565b9050919050565b620002518162000232565b81146200025d57600080fd5b50565b600081519050620002718162000246565b92915050565b60008060408385031215620002915762000290620001b4565b5b6000620002a1858286016200021b565b9250506020620002b48582860162000260565b9150509250929050565b6135ac80620002ce6000396000f3fe6080604052600436106101395760003560e01c80637cb5de7c116100ab5780639930f8761161006f5780639930f87614610427578063a1e7730014610452578063dade4b641461047d578063ebc7d327146104ba578063f2fde38b146104e5578063f7cb789a1461050e57610140565b80637cb5de7c1461034c57806384065059146103755780638acaf7a8146103b25780638da5cb5b146103ce578063928554f9146103f957610140565b806336c92c3f116100fd57806336c92c3f1461023c578063437b6065146102655780634781ca76146102a25780635a1e6ca1146102cd578063606e4841146102f6578063715018a61461033557610140565b806303861ba6146101455780630720da5214610182578063181e0124146101bf5780631b411fc8146101fc5780632c4dbed21461021357610140565b3661014057005b600080fd5b34801561015157600080fd5b5061016c60048036038101906101679190612345565b610539565b6040516101799190612381565b60405180910390f35b34801561018e57600080fd5b506101a960048036038101906101a49190612345565b610596565b6040516101b6919061241b565b60405180910390f35b3480156101cb57600080fd5b506101e660048036038101906101e19190612345565b6105fc565b6040516101f39190612381565b60405180910390f35b34801561020857600080fd5b50610211610639565b005b34801561021f57600080fd5b5061023a60048036038101906102359190612345565b6108d3565b005b34801561024857600080fd5b50610263600480360381019061025e9190612345565b610934565b005b34801561027157600080fd5b5061028c60048036038101906102879190612436565b610995565b604051610299919061257a565b60405180910390f35b3480156102ae57600080fd5b506102b7610b15565b6040516102c49190612381565b60405180910390f35b3480156102d957600080fd5b506102f460048036038101906102ef9190612345565b610b1b565b005b34801561030257600080fd5b5061031d60048036038101906103189190612345565b611249565b60405161032c939291906125dd565b60405180910390f35b34801561034157600080fd5b5061034a6113a9565b005b34801561035857600080fd5b50610373600480360381019061036e9190612345565b6113bd565b005b34801561038157600080fd5b5061039c60048036038101906103979190612345565b61147d565b6040516103a99190612614565b60405180910390f35b6103cc60048036038101906103c79190612345565b6115e8565b005b3480156103da57600080fd5b506103e3611df6565b6040516103f09190612614565b60405180910390f35b34801561040557600080fd5b5061040e611e1f565b60405161041e949392919061263e565b60405180910390f35b34801561043357600080fd5b5061043c611ecb565b6040516104499190612381565b60405180910390f35b34801561045e57600080fd5b50610467611ed1565b60405161047491906126e2565b60405180910390f35b34801561048957600080fd5b506104a4600480360381019061049f9190612345565b611ef7565b6040516104b19190612836565b60405180910390f35b3480156104c657600080fd5b506104cf611ff1565b6040516104dc9190612879565b60405180910390f35b3480156104f157600080fd5b5061050c600480360381019061050791906128c0565b612017565b005b34801561051a57600080fd5b5061052361209a565b6040516105309190612381565b60405180910390f35b6000610544826120a0565b1561058c57600060096000848152602001908152602001600020805490509050670de0b6b3a764000081600261057a9190612a4f565b6105849190612a9a565b915050610591565b600090505b919050565b61059e6122e0565b600760008381526020019081526020016000206040518060800160405290816000820154815260200160018201548152602001600282015481526020016003820160009054906101000a900460ff1615151515815250509050919050565b60008061060883610596565b9050806040015142101561062e574281604001516106269190612adc565b915050610634565b60009150505b919050565b6106416120fc565b600060045411801561065557506000600554115b801561066357506000600654115b6106a2576040517f08c379a000000000000000000000000000000000000000000000000000000000815260040161069990612b93565b60405180910390fd5b670de0b6b3a76400004710156106ed576040517f08c379a00000000000000000000000000000000000000000000000000000000081526004016106e490612c25565b60405180910390fd5b600060016008805490506107019190612c45565b9050600060088054905011156107595761071961217a565b610758576040517f08c379a000000000000000000000000000000000000000000000000000000000815260040161074f90612ceb565b60405180910390fd5b5b60405180608001604052808281526020014281526020016004544261077e9190612c45565b8152602001600115158152506007600083815260200190815260200160002060008201518160000155602082015181600101556040820151816002015560608201518160030160006101000a81548160ff02191690831515021790555090505060086007600083815260200190815260200160002090806001815401808255809150506001900390600052602060002090600402016000909190919091506000820154816000015560018201548160010155600282015481600201556003820160009054906101000a900460ff168160030160006101000a81548160ff02191690831515021790555050507f68e7b09ec44e876e76ff05157850e3261aa63a8680fe21a2ba93dcbb2b09f58f81600760008481526020019081526020016000206001015460076000858152602001908152602001600020600201546040516108c893929190612d0b565b60405180910390a150565b6108db6120fc565b6000810361091e576040517f08c379a000000000000000000000000000000000000000000000000000000000815260040161091590612db4565b60405180910390fd5b603c8161092b9190612a9a565b60058190555050565b61093c6120fc565b6000810361097f576040517f08c379a000000000000000000000000000000000000000000000000000000000815260040161097690612db4565b60405180910390fd5b603c8161098c9190612a9a565b60048190555050565b606060088054905082106109de576040517f08c379a00000000000000000000000000000000000000000000000000000000081526004016109d590612e20565b60405180910390fd5b6000600184846109ee9190612adc565b6109f89190612c45565b67ffffffffffffffff811115610a1157610a10612e40565b5b604051908082528060200260200182016040528015610a4a57816020015b610a376122e0565b815260200190600190039081610a2f5790505b50905060005b8484610a5c9190612adc565b8111610b0a57600060088683610a729190612c45565b81548110610a8357610a82612e6f565b5b90600052602060002090600402016040518060800160405290816000820154815260200160018201548152602001600282015481526020016003820160009054906101000a900460ff161515151581525050905080838381518110610aeb57610aea612e6f565b5b6020026020010181905250508080610b0290612e9e565b915050610a50565b508091505092915050565b60055481565b610b236120fc565b610b2c816120a0565b15610b6c576040517f08c379a0000000000000000000000000000000000000000000000000000000008152600401610b6390612f32565b60405180910390fd5b6007600082815260200190815260200160002060030160009054906101000a900460ff16610bcf576040517f08c379a0000000000000000000000000000000000000000000000000000000008152600401610bc690612f9e565b60405180910390fd5b60006007600083815260200190815260200160002060030160006101000a81548160ff02191690831515021790555060006008600183610c0f9190612adc565b81548110610c2057610c1f612e6f565b5b906000526020600020906004020160030160006101000a81548160ff021916908315150217905550600160096000838152602001908152602001600020805490500361107d57600060646005600260096000868152602001908152602001600020600081548110610c9457610c93612e6f565b5b906000526020600020906006020160020154610cb09190612a9a565b610cba9190612a9a565b610cc49190612fed565b9050600081600260096000868152602001908152602001600020600081548110610cf157610cf0612e6f565b5b906000526020600020906006020160020154610d0d9190612a9a565b610d179190612adc565b9050600060096000858152602001908152602001600020600081548110610d4157610d40612e6f565b5b906000526020600020906006020160010160009054906101000a900473ffffffffffffffffffffffffffffffffffffffff1673ffffffffffffffffffffffffffffffffffffffff1682604051610d969061304f565b60006040518083038185875af1925050503d8060008114610dd3576040519150601f19603f3d011682016040523d82523d6000602084013e610dd8565b606091505b505090508015610fca578160096000868152602001908152602001600020600081548110610e0957610e08612e6f565b5b9060005260206000209060060201600301819055506000600360009054906101000a900473ffffffffffffffffffffffffffffffffffffffff1673ffffffffffffffffffffffffffffffffffffffff1663b77e2e71856040518263ffffffff1660e01b815260040160206040518083038185885af1158015610e8f573d6000803e3d6000fd5b50505050506040513d601f19601f82011682018060405250810190610eb49190613090565b905080610ec057600080fd5b7f65edb247950c75beace5afb548418caec939cfa83b1fc60186d09d89cea66ba78560096000888152602001908152602001600020600081548110610f0857610f07612e6f565b5b906000526020600020906006020160010160009054906101000a900473ffffffffffffffffffffffffffffffffffffffff1660096000898152602001908152602001600020600081548110610f6057610f5f612e6f565b5b906000526020600020906006020160020154600960008a8152602001908152602001600020600081548110610f9857610f97612e6f565b5b90600052602060002090600602016000015487604051610fbc9594939291906130bd565b60405180910390a150611079565b6000600360009054906101000a900473ffffffffffffffffffffffffffffffffffffffff1673ffffffffffffffffffffffffffffffffffffffff1663b77e2e7185856110169190612c45565b6040518263ffffffff1660e01b815260040160206040518083038185885af1158015611046573d6000803e3d6000fd5b50505050506040513d601f19601f8201168201806040525081019061106b9190613090565b90508061107757600080fd5b505b5050505b600080600061108b84611249565b9250925092506d0668d4a7a1c3c760d0f48000000081600260009054906101000a900473ffffffffffffffffffffffffffffffffffffffff1673ffffffffffffffffffffffffffffffffffffffff166318160ddd6040518163ffffffff1660e01b8152600401602060405180830381865afa15801561110e573d6000803e3d6000fd5b505050506040513d601f19601f820116820180604052508101906111329190613125565b61113c9190612c45565b111580156111775750600073ffffffffffffffffffffffffffffffffffffffff168273ffffffffffffffffffffffffffffffffffffffff1614155b1561120c57600260009054906101000a900473ffffffffffffffffffffffffffffffffffffffff1673ffffffffffffffffffffffffffffffffffffffff166340c10f1983836040518363ffffffff1660e01b81526004016111d9929190613152565b600060405180830381600087803b1580156111f357600080fd5b505af1158015611207573d6000803e3d6000fd5b505050505b7f74ef25ef6b332a2fbbe7eb8b4108e0fe842a929d34c52a2ea4ca1a0f1524f1078460405161123b9190612381565b60405180910390a150505050565b6000806000600160096000868152602001908152602001600020805490501480611289575060006009600086815260200190815260200160002080549050145b1561129f576000925060009150600090506113a2565b600060096000868152602001908152602001600020600160096000888152602001908152602001600020805490506112d79190612adc565b815481106112e8576112e7612e6f565b5b90600052602060002090600602016040518060c0016040529081600082015481526020016001820160009054906101000a900473ffffffffffffffffffffffffffffffffffffffff1673ffffffffffffffffffffffffffffffffffffffff1673ffffffffffffffffffffffffffffffffffffffff1681526020016002820154815260200160038201548152602001600482015481526020016005820154815250509050806000015193508060200151925080604001519150505b9193909250565b6113b16120fc565b6113bb6000612214565b565b6113c56120fc565b60006004541161140a576040517f08c379a0000000000000000000000000000000000000000000000000000000008152600401611401906131c7565b60405180910390fd5b600081141580156114285750603c6004546114259190612fed565b81105b611467576040517f08c379a000000000000000000000000000000000000000000000000000000000815260040161145e90613259565b60405180910390fd5b603c816114749190612a9a565b60068190555050565b6000611488826120a0565b6114c7576040517f08c379a00000000000000000000000000000000000000000000000000000000081526004016114be906132c5565b60405180910390fd5b60016009600084815260200190815260200160002080549050106115de576000600960008481526020019081526020016000206001600960008681526020019081526020016000208054905061151d9190612adc565b8154811061152e5761152d612e6f565b5b90600052602060002090600602016040518060c0016040529081600082015481526020016001820160009054906101000a900473ffffffffffffffffffffffffffffffffffffffff1673ffffffffffffffffffffffffffffffffffffffff1673ffffffffffffffffffffffffffffffffffffffff168152602001600282015481526020016003820154815260200160048201548152602001600582015481525050905080602001519150506115e3565b600090505b919050565b60026001540361162d576040517f08c379a000000000000000000000000000000000000000000000000000000000815260040161162490613331565b60405180910390fd5b600260018190555061163e816120a0565b61167d576040517f08c379a0000000000000000000000000000000000000000000000000000000008152600401611674906132c5565b60405180910390fd5b61168681610539565b34146116c7576040517f08c379a00000000000000000000000000000000000000000000000000000000081526004016116be9061339d565b60405180910390fd5b60006116d28261147d565b90503373ffffffffffffffffffffffffffffffffffffffff168173ffffffffffffffffffffffffffffffffffffffff1603611742576040517f08c379a00000000000000000000000000000000000000000000000000000000081526004016117399061342f565b60405180910390fd5b6000600160096000858152602001908152602001600020805490506117679190612c45565b9050600960008481526020019081526020016000206040518060c001604052808381526020013373ffffffffffffffffffffffffffffffffffffffff168152602001348152602001600081526020018581526020014281525090806001815401808255809150506001900390600052602060002090600602016000909190919091506000820151816000015560208201518160010160006101000a81548173ffffffffffffffffffffffffffffffffffffffff021916908373ffffffffffffffffffffffffffffffffffffffff16021790555060408201518160020155606082015181600301556080820151816004015560a082015181600501555050600654611870846105fc565b1115801561188657506000611884846105fc565b115b1561193f57600060055460076000868152602001908152602001600020600201546118b19190612c45565b90508060076000868152602001908152602001600020600201819055508060086001866118de9190612adc565b815481106118ef576118ee612e6f565b5b9060005260206000209060040201600201819055507fff1bf99918d35d7dd5182e2a06f26aa0b7673c48538bb8ce407af50f4b4ab2ca848260405161193592919061344f565b60405180910390a1505b60018114611dab5760006064600560026009600088815260200190815260200160002060028661196f9190612adc565b815481106119805761197f612e6f565b5b90600052602060002090600602016002015461199c9190612a9a565b6119a69190612a9a565b6119b09190612fed565b90506000816002600960008881526020019081526020016000206002866119d79190612adc565b815481106119e8576119e7612e6f565b5b906000526020600020906006020160020154611a049190612a9a565b611a0e9190612adc565b9050600060096000878152602001908152602001600020600285611a329190612adc565b81548110611a4357611a42612e6f565b5b906000526020600020906006020160010160009054906101000a900473ffffffffffffffffffffffffffffffffffffffff1673ffffffffffffffffffffffffffffffffffffffff1682604051611a989061304f565b60006040518083038185875af1925050503d8060008114611ad5576040519150601f19603f3d011682016040523d82523d6000602084013e611ada565b606091505b505090508015611cf8578160096000888152602001908152602001600020600286611b059190612adc565b81548110611b1657611b15612e6f565b5b9060005260206000209060060201600301819055506000600360009054906101000a900473ffffffffffffffffffffffffffffffffffffffff1673ffffffffffffffffffffffffffffffffffffffff1663b77e2e71856040518263ffffffff1660e01b815260040160206040518083038185885af1158015611b9c573d6000803e3d6000fd5b50505050506040513d601f19601f82011682018060405250810190611bc19190613090565b905080611bcd57600080fd5b7f65edb247950c75beace5afb548418caec939cfa83b1fc60186d09d89cea66ba787600960008a8152602001908152602001600020600288611c0f9190612adc565b81548110611c2057611c1f612e6f565b5b906000526020600020906006020160010160009054906101000a900473ffffffffffffffffffffffffffffffffffffffff16600960008b8152602001908152602001600020600289611c729190612adc565b81548110611c8357611c82612e6f565b5b906000526020600020906006020160020154600960008c815260200190815260200160002060028a611cb59190612adc565b81548110611cc657611cc5612e6f565b5b90600052602060002090600602016000015487604051611cea9594939291906130bd565b60405180910390a150611da7565b6000600360009054906101000a900473ffffffffffffffffffffffffffffffffffffffff1673ffffffffffffffffffffffffffffffffffffffff1663b77e2e718585611d449190612c45565b6040518263ffffffff1660e01b815260040160206040518083038185885af1158015611d74573d6000803e3d6000fd5b50505050506040513d601f19601f82011682018060405250810190611d999190613090565b905080611da557600080fd5b505b5050505b7f2eaa1bda0a76999046e8def81099978a4164fbfb5f4207619e76c3823f6043678333348442604051611de29594939291906130bd565b60405180910390a150506001808190555050565b60008060009054906101000a900473ffffffffffffffffffffffffffffffffffffffff16905090565b60008060008060006008805490501115611eb65760006007600060088054905081526020019081526020016000206040518060800160405290816000820154815260200160018201548152602001600282015481526020016003820160009054906101000a900460ff1615151515815250509050600880549050816020015182604001518360600151945094509450945050611ec5565b60008060008093509350935093505b90919293565b60065481565b600260009054906101000a900473ffffffffffffffffffffffffffffffffffffffff1681565b606060096000838152602001908152602001600020805480602002602001604051908101604052809291908181526020016000905b82821015611fe657838290600052602060002090600602016040518060c0016040529081600082015481526020016001820160009054906101000a900473ffffffffffffffffffffffffffffffffffffffff1673ffffffffffffffffffffffffffffffffffffffff1673ffffffffffffffffffffffffffffffffffffffff16815260200160028201548152602001600382015481526020016004820154815260200160058201548152505081526020019060010190611f2c565b505050509050919050565b600360009054906101000a900473ffffffffffffffffffffffffffffffffffffffff1681565b61201f6120fc565b600073ffffffffffffffffffffffffffffffffffffffff168173ffffffffffffffffffffffffffffffffffffffff160361208e576040517f08c379a0000000000000000000000000000000000000000000000000000000008152600401612085906134ea565b60405180910390fd5b61209781612214565b50565b60045481565b600080426007600085815260200190815260200160002060020154101580156120e957506007600084815260200190815260200160002060030160009054906101000a900460ff165b156120f357600190505b80915050919050565b6121046122d8565b73ffffffffffffffffffffffffffffffffffffffff16612122611df6565b73ffffffffffffffffffffffffffffffffffffffff1614612178576040517f08c379a000000000000000000000000000000000000000000000000000000000815260040161216f90613556565b60405180910390fd5b565b60008042600860016008805490506121929190612adc565b815481106121a3576121a2612e6f565b5b9060005260206000209060040201600201541080156122035750600860016008805490506121d19190612adc565b815481106121e2576121e1612e6f565b5b906000526020600020906004020160030160009054906101000a900460ff16155b1561220d57600190505b8091505090565b60008060009054906101000a900473ffffffffffffffffffffffffffffffffffffffff169050816000806101000a81548173ffffffffffffffffffffffffffffffffffffffff021916908373ffffffffffffffffffffffffffffffffffffffff1602179055508173ffffffffffffffffffffffffffffffffffffffff168173ffffffffffffffffffffffffffffffffffffffff167f8be0079c531659141344cd1fd0a4f28419497f9722a3daafe3b4186f6b6457e060405160405180910390a35050565b600033905090565b60405180608001604052806000815260200160008152602001600081526020016000151581525090565b600080fd5b6000819050919050565b6123228161230f565b811461232d57600080fd5b50565b60008135905061233f81612319565b92915050565b60006020828403121561235b5761235a61230a565b5b600061236984828501612330565b91505092915050565b61237b8161230f565b82525050565b60006020820190506123966000830184612372565b92915050565b6123a58161230f565b82525050565b60008115159050919050565b6123c0816123ab565b82525050565b6080820160008201516123dc600085018261239c565b5060208201516123ef602085018261239c565b506040820151612402604085018261239c565b50606082015161241560608501826123b7565b50505050565b600060808201905061243060008301846123c6565b92915050565b6000806040838503121561244d5761244c61230a565b5b600061245b85828601612330565b925050602061246c85828601612330565b9150509250929050565b600081519050919050565b600082825260208201905092915050565b6000819050602082019050919050565b6080820160008201516124b8600085018261239c565b5060208201516124cb602085018261239c565b5060408201516124de604085018261239c565b5060608201516124f160608501826123b7565b50505050565b600061250383836124a2565b60808301905092915050565b6000602082019050919050565b600061252782612476565b6125318185612481565b935061253c83612492565b8060005b8381101561256d57815161255488826124f7565b975061255f8361250f565b925050600181019050612540565b5085935050505092915050565b60006020820190508181036000830152612594818461251c565b905092915050565b600073ffffffffffffffffffffffffffffffffffffffff82169050919050565b60006125c78261259c565b9050919050565b6125d7816125bc565b82525050565b60006060820190506125f26000830186612372565b6125ff60208301856125ce565b61260c6040830184612372565b949350505050565b600060208201905061262960008301846125ce565b92915050565b612638816123ab565b82525050565b60006080820190506126536000830187612372565b6126606020830186612372565b61266d6040830185612372565b61267a606083018461262f565b95945050505050565b6000819050919050565b60006126a86126a361269e8461259c565b612683565b61259c565b9050919050565b60006126ba8261268d565b9050919050565b60006126cc826126af565b9050919050565b6126dc816126c1565b82525050565b60006020820190506126f760008301846126d3565b92915050565b600081519050919050565b600082825260208201905092915050565b6000819050602082019050919050565b612732816125bc565b82525050565b60c08201600082015161274e600085018261239c565b5060208201516127616020850182612729565b506040820151612774604085018261239c565b506060820151612787606085018261239c565b50608082015161279a608085018261239c565b5060a08201516127ad60a085018261239c565b50505050565b60006127bf8383612738565b60c08301905092915050565b6000602082019050919050565b60006127e3826126fd565b6127ed8185612708565b93506127f883612719565b8060005b8381101561282957815161281088826127b3565b975061281b836127cb565b9250506001810190506127fc565b5085935050505092915050565b6000602082019050818103600083015261285081846127d8565b905092915050565b6000612863826126af565b9050919050565b61287381612858565b82525050565b600060208201905061288e600083018461286a565b92915050565b61289d816125bc565b81146128a857600080fd5b50565b6000813590506128ba81612894565b92915050565b6000602082840312156128d6576128d561230a565b5b60006128e4848285016128ab565b91505092915050565b7f4e487b7100000000000000000000000000000000000000000000000000000000600052601160045260246000fd5b60008160011c9050919050565b6000808291508390505b60018511156129735780860481111561294f5761294e6128ed565b5b600185161561295e5780820291505b808102905061296c8561291c565b9450612933565b94509492505050565b60008261298c5760019050612a48565b8161299a5760009050612a48565b81600181146129b057600281146129ba576129e9565b6001915050612a48565b60ff8411156129cc576129cb6128ed565b5b8360020a9150848211156129e3576129e26128ed565b5b50612a48565b5060208310610133831016604e8410600b8410161715612a1e5782820a905083811115612a1957612a186128ed565b5b612a48565b612a2b8484846001612929565b92509050818404811115612a4257612a416128ed565b5b81810290505b9392505050565b6000612a5a8261230f565b9150612a658361230f565b9250612a927fffffffffffffffffffffffffffffffffffffffffffffffffffffffffffffffff848461297c565b905092915050565b6000612aa58261230f565b9150612ab08361230f565b9250828202612abe8161230f565b91508282048414831517612ad557612ad46128ed565b5b5092915050565b6000612ae78261230f565b9150612af28361230f565b9250828203905081811115612b0a57612b096128ed565b5b92915050565b600082825260208201905092915050565b7f526f756e64206475726174696f6e206f72206578747261206475726174696f6e60008201527f2020617265206e6f74207365742e000000000000000000000000000000000000602082015250565b6000612b7d602e83612b10565b9150612b8882612b21565b604082019050919050565b60006020820190508181036000830152612bac81612b70565b9050919050565b7f4d696e696d756d20636f6e74726163742062616c616e63652073686f756c642060008201527f626520312074504c530000000000000000000000000000000000000000000000602082015250565b6000612c0f602983612b10565b9150612c1a82612bb3565b604082019050919050565b60006020820190508181036000830152612c3e81612c02565b9050919050565b6000612c508261230f565b9150612c5b8361230f565b9250828201905080821115612c7357612c726128ed565b5b92915050565b7f50726576696f757320726f756e64206973206e6f742066696e6973686564207960008201527f6574000000000000000000000000000000000000000000000000000000000000602082015250565b6000612cd5602283612b10565b9150612ce082612c79565b604082019050919050565b60006020820190508181036000830152612d0481612cc8565b9050919050565b6000606082019050612d206000830186612372565b612d2d6020830185612372565b612d3a6040830184612372565b949350505050565b7f4475726174696f6e2073686f756c642062652067726561746572207468616e2060008201527f3000000000000000000000000000000000000000000000000000000000000000602082015250565b6000612d9e602183612b10565b9150612da982612d42565b604082019050919050565b60006020820190508181036000830152612dcd81612d91565b9050919050565b7f496e76616c69642072616e676500000000000000000000000000000000000000600082015250565b6000612e0a600d83612b10565b9150612e1582612dd4565b602082019050919050565b60006020820190508181036000830152612e3981612dfd565b9050919050565b7f4e487b7100000000000000000000000000000000000000000000000000000000600052604160045260246000fd5b7f4e487b7100000000000000000000000000000000000000000000000000000000600052603260045260246000fd5b6000612ea98261230f565b91507fffffffffffffffffffffffffffffffffffffffffffffffffffffffffffffffff8203612edb57612eda6128ed565b5b600182019050919050565b7f526f756e6420697320206c697665000000000000000000000000000000000000600082015250565b6000612f1c600e83612b10565b9150612f2782612ee6565b602082019050919050565b60006020820190508181036000830152612f4b81612f0f565b9050919050565b7f526f756e6420616c72656164792066696e697368656400000000000000000000600082015250565b6000612f88601683612b10565b9150612f9382612f52565b602082019050919050565b60006020820190508181036000830152612fb781612f7b565b9050919050565b7f4e487b7100000000000000000000000000000000000000000000000000000000600052601260045260246000fd5b6000612ff88261230f565b91506130038361230f565b92508261301357613012612fbe565b5b828204905092915050565b600081905092915050565b50565b600061303960008361301e565b915061304482613029565b600082019050919050565b600061305a8261302c565b9150819050919050565b61306d816123ab565b811461307857600080fd5b50565b60008151905061308a81613064565b92915050565b6000602082840312156130a6576130a561230a565b5b60006130b48482850161307b565b91505092915050565b600060a0820190506130d26000830188612372565b6130df60208301876125ce565b6130ec6040830186612372565b6130f96060830185612372565b6131066080830184612372565b9695505050505050565b60008151905061311f81612319565b92915050565b60006020828403121561313b5761313a61230a565b5b600061314984828501613110565b91505092915050565b600060408201905061316760008301856125ce565b6131746020830184612372565b9392505050565b7f53657420726f756e64206475726174696f6e2066697273740000000000000000600082015250565b60006131b1601883612b10565b91506131bc8261317b565b602082019050919050565b600060208201905081810360008301526131e0816131a4565b9050919050565b7f4475726174696f6e2073686f756c642062652067726561746572207468616e2060008201527f3020616e6420726f756e644475726174696f6e00000000000000000000000000602082015250565b6000613243603383612b10565b915061324e826131e7565b604082019050919050565b6000602082019050818103600083015261327281613236565b9050919050565b7f526f756e64206973206e6f74206c697665000000000000000000000000000000600082015250565b60006132af601183612b10565b91506132ba82613279565b602082019050919050565b600060208201905081810360008301526132de816132a2565b9050919050565b7f5265656e7472616e637947756172643a207265656e7472616e742063616c6c00600082015250565b600061331b601f83612b10565b9150613326826132e5565b602082019050919050565b6000602082019050818103600083015261334a8161330e565b9050919050565b7f496e636f727265637420696e76657374656420616d6f756e7400000000000000600082015250565b6000613387601983612b10565b915061339282613351565b602082019050919050565b600060208201905081810360008301526133b68161337a565b9050919050565b7f596f752063616e6e6f74206465706f73697420616761696e20756e74696c207460008201527f686572652069732061206e657720706c65620000000000000000000000000000602082015250565b6000613419603283612b10565b9150613424826133bd565b604082019050919050565b600060208201905081810360008301526134488161340c565b9050919050565b60006040820190506134646000830185612372565b6134716020830184612372565b9392505050565b7f4f776e61626c653a206e6577206f776e657220697320746865207a65726f206160008201527f6464726573730000000000000000000000000000000000000000000000000000602082015250565b60006134d4602683612b10565b91506134df82613478565b604082019050919050565b60006020820190508181036000830152613503816134c7565b9050919050565b7f4f776e61626c653a2063616c6c6572206973206e6f7420746865206f776e6572600082015250565b6000613540602083612b10565b915061354b8261350a565b602082019050919050565b6000602082019050818103600083015261356f81613533565b905091905056fea26469706673582212203179cd8ff29857884ed10c1e8eed9f0ec6f7b41645fcd1ab25546e8bdc3919cf64736f6c63430008110033",
  "linkReferences": {},
  "deployedLinkReferences": {}
}