{
  "_format": "hh-sol-artifact-1",
  "contractName": "PlebToHill",
  "sourceName": "contracts/PlebToHill.sol",
  "abi": [
    {
      "inputs": [
        {
          "internalType": "contract PlebToken",
          "name": "_plebToken",
          "type": "address"
        },
        {
          "internalType": "contract Stake",
          "name": "_pleb_stake_address",
          "type": "address"
        }
      ],
      "stateMutability": "nonpayable",
      "type": "constructor"
    },
    {
      "anonymous": false,
      "inputs": [
        {
          "indexed": true,
          "internalType": "address",
          "name": "previousOwner",
          "type": "address"
        },
        {
          "indexed": true,
          "internalType": "address",
          "name": "newOwner",
          "type": "address"
        }
      ],
      "name": "OwnershipTransferred",
      "type": "event"
    },
    {
      "anonymous": false,
      "inputs": [
        {
          "indexed": false,
          "internalType": "uint256",
          "name": "roundId",
          "type": "uint256"
        },
        {
          "indexed": false,
          "internalType": "address",
          "name": "walletAddress",
          "type": "address"
        },
        {
          "indexed": false,
          "internalType": "uint256",
          "name": "invested_amount",
          "type": "uint256"
        },
        {
          "indexed": false,
          "internalType": "uint256",
          "name": "participantId",
          "type": "uint256"
        },
        {
          "indexed": false,
          "internalType": "uint256",
          "name": "time",
          "type": "uint256"
        }
      ],
      "name": "ParticipantAdded",
      "type": "event"
    },
    {
      "anonymous": false,
      "inputs": [
        {
          "indexed": false,
          "internalType": "uint256",
          "name": "roundId",
          "type": "uint256"
        },
        {
          "indexed": false,
          "internalType": "uint256",
          "name": "startTime",
          "type": "uint256"
        },
        {
          "indexed": false,
          "internalType": "uint256",
          "name": "endTime",
          "type": "uint256"
        }
      ],
      "name": "RoundCreated",
      "type": "event"
    },
    {
      "anonymous": false,
      "inputs": [
        {
          "indexed": false,
          "internalType": "uint256",
          "name": "roundId",
          "type": "uint256"
        }
      ],
      "name": "RoundFinished",
      "type": "event"
    },
    {
      "anonymous": false,
      "inputs": [
        {
          "indexed": false,
          "internalType": "uint256",
          "name": "roundId",
          "type": "uint256"
        },
        {
          "indexed": false,
          "internalType": "uint256",
          "name": "endTime",
          "type": "uint256"
        }
      ],
      "name": "TimeReset",
      "type": "event"
    },
    {
      "anonymous": false,
      "inputs": [
        {
          "indexed": false,
          "internalType": "uint256",
          "name": "roundId",
          "type": "uint256"
        },
        {
          "indexed": false,
          "internalType": "address",
          "name": "walletAddress",
          "type": "address"
        },
        {
          "indexed": false,
          "internalType": "uint256",
          "name": "invested_amount",
          "type": "uint256"
        },
        {
          "indexed": false,
          "internalType": "uint256",
          "name": "participantId",
          "type": "uint256"
        },
        {
          "indexed": false,
          "internalType": "uint256",
          "name": "winnings",
          "type": "uint256"
        }
      ],
      "name": "WinningTransfered",
      "type": "event"
    },
    {
      "inputs": [
        {
          "internalType": "uint256",
          "name": "roundId",
          "type": "uint256"
        }
      ],
      "name": "addParticipant",
      "outputs": [],
      "stateMutability": "payable",
      "type": "function"
    },
    {
      "inputs": [],
      "name": "createRound",
      "outputs": [],
      "stateMutability": "nonpayable",
      "type": "function"
    },
    {
      "inputs": [
        {
          "internalType": "uint256",
          "name": "roundId",
          "type": "uint256"
        }
      ],
      "name": "endRound",
      "outputs": [],
      "stateMutability": "nonpayable",
      "type": "function"
    },
    {
      "inputs": [],
      "name": "extraDuration",
      "outputs": [
        {
          "internalType": "uint256",
          "name": "",
          "type": "uint256"
        }
      ],
      "stateMutability": "view",
      "type": "function"
    },
    {
      "inputs": [
        {
          "internalType": "uint256",
          "name": "roundId",
          "type": "uint256"
        }
      ],
      "name": "getAllParticipantOfRound",
      "outputs": [
        {
          "components": [
            {
              "internalType": "uint256",
              "name": "participantId",
              "type": "uint256"
            },
            {
              "internalType": "address",
              "name": "walletAddress",
              "type": "address"
            },
            {
              "internalType": "uint256",
              "name": "invested_amount",
              "type": "uint256"
            },
            {
              "internalType": "uint256",
              "name": "winnings",
              "type": "uint256"
            },
            {
              "internalType": "uint256",
              "name": "roundId",
              "type": "uint256"
            },
            {
              "internalType": "uint256",
              "name": "time",
              "type": "uint256"
            }
          ],
          "internalType": "struct PlebToHill.Participant[]",
          "name": "",
          "type": "tuple[]"
        }
      ],
      "stateMutability": "view",
      "type": "function"
    },
    {
      "inputs": [
        {
          "internalType": "uint256",
          "name": "start",
          "type": "uint256"
        },
        {
          "internalType": "uint256",
          "name": "end",
          "type": "uint256"
        }
      ],
      "name": "getAllRounds",
      "outputs": [
        {
          "components": [
            {
              "internalType": "uint256",
              "name": "roundId",
              "type": "uint256"
            },
            {
              "internalType": "uint256",
              "name": "startTime",
              "type": "uint256"
            },
            {
              "internalType": "uint256",
              "name": "endTime",
              "type": "uint256"
            },
            {
              "internalType": "bool",
              "name": "isLive",
              "type": "bool"
            }
          ],
          "internalType": "struct PlebToHill.Round[]",
          "name": "",
          "type": "tuple[]"
        }
      ],
      "stateMutability": "view",
      "type": "function"
    },
    {
      "inputs": [],
      "name": "getCurrentLiveRound",
      "outputs": [
        {
          "internalType": "uint256",
          "name": "roundId",
          "type": "uint256"
        },
        {
          "internalType": "uint256",
          "name": "startTime",
          "type": "uint256"
        },
        {
          "internalType": "uint256",
          "name": "endTime",
          "type": "uint256"
        },
        {
          "internalType": "bool",
          "name": "isLive",
          "type": "bool"
        }
      ],
      "stateMutability": "view",
      "type": "function"
    },
    {
      "inputs": [
        {
          "internalType": "uint256",
          "name": "roundId",
          "type": "uint256"
        }
      ],
      "name": "getCurrentPleb",
      "outputs": [
        {
          "internalType": "address",
          "name": "wallet",
          "type": "address"
        }
      ],
      "stateMutability": "view",
      "type": "function"
    },
    {
      "inputs": [
        {
          "internalType": "uint256",
          "name": "roundId",
          "type": "uint256"
        }
      ],
      "name": "getLoserData",
      "outputs": [
        {
          "internalType": "uint256",
          "name": "id",
          "type": "uint256"
        },
        {
          "internalType": "address",
          "name": "wallet",
          "type": "address"
        },
        {
          "internalType": "uint256",
          "name": "amount_lose",
          "type": "uint256"
        }
      ],
      "stateMutability": "view",
      "type": "function"
    },
    {
      "inputs": [
        {
          "internalType": "uint256",
          "name": "roundId",
          "type": "uint256"
        }
      ],
      "name": "getRemainingTime",
      "outputs": [
        {
          "internalType": "uint256",
          "name": "",
          "type": "uint256"
        }
      ],
      "stateMutability": "view",
      "type": "function"
    },
    {
      "inputs": [
        {
          "internalType": "uint256",
          "name": "roundId",
          "type": "uint256"
        }
      ],
      "name": "getRoundData",
      "outputs": [
        {
          "components": [
            {
              "internalType": "uint256",
              "name": "roundId",
              "type": "uint256"
            },
            {
              "internalType": "uint256",
              "name": "startTime",
              "type": "uint256"
            },
            {
              "internalType": "uint256",
              "name": "endTime",
              "type": "uint256"
            },
            {
              "internalType": "bool",
              "name": "isLive",
              "type": "bool"
            }
          ],
          "internalType": "struct PlebToHill.Round",
          "name": "",
          "type": "tuple"
        }
      ],
      "stateMutability": "view",
      "type": "function"
    },
    {
      "inputs": [
        {
          "internalType": "uint256",
          "name": "roundId",
          "type": "uint256"
        }
      ],
      "name": "getValueForNextParticipant",
      "outputs": [
        {
          "internalType": "uint256",
          "name": "",
          "type": "uint256"
        }
      ],
      "stateMutability": "view",
      "type": "function"
    },
    {
      "inputs": [],
      "name": "owner",
      "outputs": [
        {
          "internalType": "address",
          "name": "",
          "type": "address"
        }
      ],
      "stateMutability": "view",
      "type": "function"
    },
    {
      "inputs": [],
      "name": "plebToken",
      "outputs": [
        {
          "internalType": "contract PlebToken",
          "name": "",
          "type": "address"
        }
      ],
      "stateMutability": "view",
      "type": "function"
    },
    {
      "inputs": [],
      "name": "pleb_stake_address",
      "outputs": [
        {
          "internalType": "contract Stake",
          "name": "",
          "type": "address"
        }
      ],
      "stateMutability": "view",
      "type": "function"
    },
    {
      "inputs": [],
      "name": "renounceOwnership",
      "outputs": [],
      "stateMutability": "nonpayable",
      "type": "function"
    },
    {
      "inputs": [],
      "name": "roundDuration",
      "outputs": [
        {
          "internalType": "uint256",
          "name": "",
          "type": "uint256"
        }
      ],
      "stateMutability": "view",
      "type": "function"
    },
    {
      "inputs": [
        {
          "internalType": "uint256",
          "name": "_extraDurationInMinutes",
          "type": "uint256"
        }
      ],
      "name": "setExtraDuration",
      "outputs": [],
      "stateMutability": "nonpayable",
      "type": "function"
    },
    {
      "inputs": [
        {
          "internalType": "uint256",
          "name": "_roundDurationInMinutes",
          "type": "uint256"
        }
      ],
      "name": "setRoundDuration",
      "outputs": [],
      "stateMutability": "nonpayable",
      "type": "function"
    },
    {
      "inputs": [
        {
          "internalType": "uint256",
          "name": "_thresholdTime",
          "type": "uint256"
        }
      ],
      "name": "setThresoldTime",
      "outputs": [],
      "stateMutability": "nonpayable",
      "type": "function"
    },
    {
      "inputs": [],
      "name": "thresholdTime",
      "outputs": [
        {
          "internalType": "uint256",
          "name": "",
          "type": "uint256"
        }
      ],
      "stateMutability": "view",
      "type": "function"
    },
    {
      "inputs": [
        {
          "internalType": "address",
          "name": "newOwner",
          "type": "address"
        }
      ],
      "name": "transferOwnership",
      "outputs": [],
      "stateMutability": "nonpayable",
      "type": "function"
    },
    {
      "stateMutability": "payable",
      "type": "receive"
    }
  ],
  "bytecode": "0x60806040523480156200001157600080fd5b5060405162003a8638038062003a86833981810160405281019062000037919062000277565b620000576200004b620000e860201b60201c565b620000f060201b60201c565b6001808190555081600260006101000a81548173ffffffffffffffffffffffffffffffffffffffff021916908373ffffffffffffffffffffffffffffffffffffffff16021790555080600360006101000a81548173ffffffffffffffffffffffffffffffffffffffff021916908373ffffffffffffffffffffffffffffffffffffffff1602179055505050620002be565b600033905090565b60008060009054906101000a900473ffffffffffffffffffffffffffffffffffffffff169050816000806101000a81548173ffffffffffffffffffffffffffffffffffffffff021916908373ffffffffffffffffffffffffffffffffffffffff1602179055508173ffffffffffffffffffffffffffffffffffffffff168173ffffffffffffffffffffffffffffffffffffffff167f8be0079c531659141344cd1fd0a4f28419497f9722a3daafe3b4186f6b6457e060405160405180910390a35050565b600080fd5b600073ffffffffffffffffffffffffffffffffffffffff82169050919050565b6000620001e682620001b9565b9050919050565b6000620001fa82620001d9565b9050919050565b6200020c81620001ed565b81146200021857600080fd5b50565b6000815190506200022c8162000201565b92915050565b60006200023f82620001d9565b9050919050565b620002518162000232565b81146200025d57600080fd5b50565b600081519050620002718162000246565b92915050565b60008060408385031215620002915762000290620001b4565b5b6000620002a1858286016200021b565b9250506020620002b48582860162000260565b9150509250929050565b6137b880620002ce6000396000f3fe6080604052600436106101395760003560e01c80637cb5de7c116100ab5780639930f8761161006f5780639930f87614610427578063a1e7730014610452578063dade4b641461047d578063ebc7d327146104ba578063f2fde38b146104e5578063f7cb789a1461050e57610140565b80637cb5de7c1461034c57806384065059146103755780638acaf7a8146103b25780638da5cb5b146103ce578063928554f9146103f957610140565b806336c92c3f116100fd57806336c92c3f1461023c578063437b6065146102655780634781ca76146102a25780635a1e6ca1146102cd578063606e4841146102f6578063715018a61461033557610140565b806303861ba6146101455780630720da5214610182578063181e0124146101bf5780631b411fc8146101fc5780632c4dbed21461021357610140565b3661014057005b600080fd5b34801561015157600080fd5b5061016c6004803603810190610167919061252d565b610539565b6040516101799190612569565b60405180910390f35b34801561018e57600080fd5b506101a960048036038101906101a4919061252d565b610596565b6040516101b69190612603565b60405180910390f35b3480156101cb57600080fd5b506101e660048036038101906101e1919061252d565b6105fc565b6040516101f39190612569565b60405180910390f35b34801561020857600080fd5b50610211610639565b005b34801561021f57600080fd5b5061023a6004803603810190610235919061252d565b6108d3565b005b34801561024857600080fd5b50610263600480360381019061025e919061252d565b610934565b005b34801561027157600080fd5b5061028c6004803603810190610287919061261e565b610995565b6040516102999190612762565b60405180910390f35b3480156102ae57600080fd5b506102b7610b15565b6040516102c49190612569565b60405180910390f35b3480156102d957600080fd5b506102f460048036038101906102ef919061252d565b610b1b565b005b34801561030257600080fd5b5061031d6004803603810190610318919061252d565b61133d565b60405161032c939291906127c5565b60405180910390f35b34801561034157600080fd5b5061034a61149d565b005b34801561035857600080fd5b50610373600480360381019061036e919061252d565b6114b1565b005b34801561038157600080fd5b5061039c6004803603810190610397919061252d565b611571565b6040516103a991906127fc565b60405180910390f35b6103cc60048036038101906103c7919061252d565b6116dc565b005b3480156103da57600080fd5b506103e3611fde565b6040516103f091906127fc565b60405180910390f35b34801561040557600080fd5b5061040e612007565b60405161041e9493929190612826565b60405180910390f35b34801561043357600080fd5b5061043c6120b3565b6040516104499190612569565b60405180910390f35b34801561045e57600080fd5b506104676120b9565b60405161047491906128ca565b60405180910390f35b34801561048957600080fd5b506104a4600480360381019061049f919061252d565b6120df565b6040516104b19190612a1e565b60405180910390f35b3480156104c657600080fd5b506104cf6121d9565b6040516104dc9190612a61565b60405180910390f35b3480156104f157600080fd5b5061050c60048036038101906105079190612aa8565b6121ff565b005b34801561051a57600080fd5b50610523612282565b6040516105309190612569565b60405180910390f35b600061054482612288565b1561058c57600060096000848152602001908152602001600020805490509050670de0b6b3a764000081600261057a9190612c37565b6105849190612c82565b915050610591565b600090505b919050565b61059e6124c8565b600760008381526020019081526020016000206040518060800160405290816000820154815260200160018201548152602001600282015481526020016003820160009054906101000a900460ff1615151515815250509050919050565b60008061060883610596565b9050806040015142101561062e574281604001516106269190612cc4565b915050610634565b60009150505b919050565b6106416122e4565b600060045411801561065557506000600554115b801561066357506000600654115b6106a2576040517f08c379a000000000000000000000000000000000000000000000000000000000815260040161069990612d7b565b60405180910390fd5b670de0b6b3a76400004710156106ed576040517f08c379a00000000000000000000000000000000000000000000000000000000081526004016106e490612e0d565b60405180910390fd5b600060016008805490506107019190612e2d565b90506000600880549050111561075957610719612362565b610758576040517f08c379a000000000000000000000000000000000000000000000000000000000815260040161074f90612ed3565b60405180910390fd5b5b60405180608001604052808281526020014281526020016004544261077e9190612e2d565b8152602001600115158152506007600083815260200190815260200160002060008201518160000155602082015181600101556040820151816002015560608201518160030160006101000a81548160ff02191690831515021790555090505060086007600083815260200190815260200160002090806001815401808255809150506001900390600052602060002090600402016000909190919091506000820154816000015560018201548160010155600282015481600201556003820160009054906101000a900460ff168160030160006101000a81548160ff02191690831515021790555050507f68e7b09ec44e876e76ff05157850e3261aa63a8680fe21a2ba93dcbb2b09f58f81600760008481526020019081526020016000206001015460076000858152602001908152602001600020600201546040516108c893929190612ef3565b60405180910390a150565b6108db6122e4565b6000810361091e576040517f08c379a000000000000000000000000000000000000000000000000000000000815260040161091590612f9c565b60405180910390fd5b603c8161092b9190612c82565b60058190555050565b61093c6122e4565b6000810361097f576040517f08c379a000000000000000000000000000000000000000000000000000000000815260040161097690612f9c565b60405180910390fd5b603c8161098c9190612c82565b60048190555050565b606060088054905082106109de576040517f08c379a00000000000000000000000000000000000000000000000000000000081526004016109d590613008565b60405180910390fd5b6000600184846109ee9190612cc4565b6109f89190612e2d565b67ffffffffffffffff811115610a1157610a10613028565b5b604051908082528060200260200182016040528015610a4a57816020015b610a376124c8565b815260200190600190039081610a2f5790505b50905060005b8484610a5c9190612cc4565b8111610b0a57600060088683610a729190612e2d565b81548110610a8357610a82613057565b5b90600052602060002090600402016040518060800160405290816000820154815260200160018201548152602001600282015481526020016003820160009054906101000a900460ff161515151581525050905080838381518110610aeb57610aea613057565b5b6020026020010181905250508080610b0290613086565b915050610a50565b508091505092915050565b60055481565b610b236122e4565b610b2c81612288565b15610b6c576040517f08c379a0000000000000000000000000000000000000000000000000000000008152600401610b639061311a565b60405180910390fd5b6007600082815260200190815260200160002060030160009054906101000a900460ff16610bcf576040517f08c379a0000000000000000000000000000000000000000000000000000000008152600401610bc690613186565b60405180910390fd5b60006007600083815260200190815260200160002060030160006101000a81548160ff02191690831515021790555060006008600183610c0f9190612cc4565b81548110610c2057610c1f613057565b5b906000526020600020906004020160030160006101000a81548160ff021916908315150217905550600160096000838152602001908152602001600020805490500361117157600060646005600260096000868152602001908152602001600020600081548110610c9457610c93613057565b5b906000526020600020906006020160020154610cb09190612c82565b610cba9190612c82565b610cc491906131d5565b9050600081600260096000868152602001908152602001600020600081548110610cf157610cf0613057565b5b906000526020600020906006020160020154610d0d9190612c82565b610d179190612cc4565b9050600060096000858152602001908152602001600020600081548110610d4157610d40613057565b5b906000526020600020906006020160010160009054906101000a900473ffffffffffffffffffffffffffffffffffffffff1673ffffffffffffffffffffffffffffffffffffffff1682604051610d9690613237565b60006040518083038185875af1925050503d8060008114610dd3576040519150601f19603f3d011682016040523d82523d6000602084013e610dd8565b606091505b505090508015611044578160096000868152602001908152602001600020600081548110610e0957610e08613057565b5b9060005260206000209060060201600301819055506000600360009054906101000a900473ffffffffffffffffffffffffffffffffffffffff1673ffffffffffffffffffffffffffffffffffffffff16846040516024016040516020818303038152906040527fb77e2e71000000000000000000000000000000000000000000000000000000007bffffffffffffffffffffffffffffffffffffffffffffffffffffffff19166020820180517bffffffffffffffffffffffffffffffffffffffffffffffffffffffff8381831617835250505050604051610eea91906132b2565b60006040518083038185875af1925050503d8060008114610f27576040519150601f19603f3d011682016040523d82523d6000602084013e610f2c565b606091505b5050905080610f3a57600080fd5b7f65edb247950c75beace5afb548418caec939cfa83b1fc60186d09d89cea66ba78560096000888152602001908152602001600020600081548110610f8257610f81613057565b5b906000526020600020906006020160010160009054906101000a900473ffffffffffffffffffffffffffffffffffffffff1660096000898152602001908152602001600020600081548110610fda57610fd9613057565b5b906000526020600020906006020160020154600960008a815260200190815260200160002060008154811061101257611011613057565b5b906000526020600020906006020160000154876040516110369594939291906132c9565b60405180910390a15061116d565b6000600360009054906101000a900473ffffffffffffffffffffffffffffffffffffffff1673ffffffffffffffffffffffffffffffffffffffff16838561108b9190612e2d565b6040516024016040516020818303038152906040527fb77e2e71000000000000000000000000000000000000000000000000000000007bffffffffffffffffffffffffffffffffffffffffffffffffffffffff19166020820180517bffffffffffffffffffffffffffffffffffffffffffffffffffffffff838183161783525050505060405161111b91906132b2565b60006040518083038185875af1925050503d8060008114611158576040519150601f19603f3d011682016040523d82523d6000602084013e61115d565b606091505b505090508061116b57600080fd5b505b5050505b600080600061117f8461133d565b9250925092506d0668d4a7a1c3c760d0f48000000081600260009054906101000a900473ffffffffffffffffffffffffffffffffffffffff1673ffffffffffffffffffffffffffffffffffffffff166318160ddd6040518163ffffffff1660e01b8152600401602060405180830381865afa158015611202573d6000803e3d6000fd5b505050506040513d601f19601f820116820180604052508101906112269190613331565b6112309190612e2d565b1115801561126b5750600073ffffffffffffffffffffffffffffffffffffffff168273ffffffffffffffffffffffffffffffffffffffff1614155b1561130057600260009054906101000a900473ffffffffffffffffffffffffffffffffffffffff1673ffffffffffffffffffffffffffffffffffffffff166340c10f1983836040518363ffffffff1660e01b81526004016112cd92919061335e565b600060405180830381600087803b1580156112e757600080fd5b505af11580156112fb573d6000803e3d6000fd5b505050505b7f74ef25ef6b332a2fbbe7eb8b4108e0fe842a929d34c52a2ea4ca1a0f1524f1078460405161132f9190612569565b60405180910390a150505050565b600080600060016009600086815260200190815260200160002080549050148061137d575060006009600086815260200190815260200160002080549050145b1561139357600092506000915060009050611496565b600060096000868152602001908152602001600020600160096000888152602001908152602001600020805490506113cb9190612cc4565b815481106113dc576113db613057565b5b90600052602060002090600602016040518060c0016040529081600082015481526020016001820160009054906101000a900473ffffffffffffffffffffffffffffffffffffffff1673ffffffffffffffffffffffffffffffffffffffff1673ffffffffffffffffffffffffffffffffffffffff1681526020016002820154815260200160038201548152602001600482015481526020016005820154815250509050806000015193508060200151925080604001519150505b9193909250565b6114a56122e4565b6114af60006123fc565b565b6114b96122e4565b6000600454116114fe576040517f08c379a00000000000000000000000000000000000000000000000000000000081526004016114f5906133d3565b60405180910390fd5b6000811415801561151c5750603c60045461151991906131d5565b81105b61155b576040517f08c379a000000000000000000000000000000000000000000000000000000000815260040161155290613465565b60405180910390fd5b603c816115689190612c82565b60068190555050565b600061157c82612288565b6115bb576040517f08c379a00000000000000000000000000000000000000000000000000000000081526004016115b2906134d1565b60405180910390fd5b60016009600084815260200190815260200160002080549050106116d257600060096000848152602001908152602001600020600160096000868152602001908152602001600020805490506116119190612cc4565b8154811061162257611621613057565b5b90600052602060002090600602016040518060c0016040529081600082015481526020016001820160009054906101000a900473ffffffffffffffffffffffffffffffffffffffff1673ffffffffffffffffffffffffffffffffffffffff1673ffffffffffffffffffffffffffffffffffffffff168152602001600282015481526020016003820154815260200160048201548152602001600582015481525050905080602001519150506116d7565b600090505b919050565b600260015403611721576040517f08c379a00000000000000000000000000000000000000000000000000000000081526004016117189061353d565b60405180910390fd5b600260018190555061173281612288565b611771576040517f08c379a0000000000000000000000000000000000000000000000000000000008152600401611768906134d1565b60405180910390fd5b61177a81610539565b34146117bb576040517f08c379a00000000000000000000000000000000000000000000000000000000081526004016117b2906135a9565b60405180910390fd5b60006117c682611571565b90503373ffffffffffffffffffffffffffffffffffffffff168173ffffffffffffffffffffffffffffffffffffffff1603611836576040517f08c379a000000000000000000000000000000000000000000000000000000000815260040161182d9061363b565b60405180910390fd5b60006001600960008581526020019081526020016000208054905061185b9190612e2d565b9050600960008481526020019081526020016000206040518060c001604052808381526020013373ffffffffffffffffffffffffffffffffffffffff168152602001348152602001600081526020018581526020014281525090806001815401808255809150506001900390600052602060002090600602016000909190919091506000820151816000015560208201518160010160006101000a81548173ffffffffffffffffffffffffffffffffffffffff021916908373ffffffffffffffffffffffffffffffffffffffff16021790555060408201518160020155606082015181600301556080820151816004015560a082015181600501555050600654611964846105fc565b1115801561197a57506000611978846105fc565b115b15611a3357600060055460076000868152602001908152602001600020600201546119a59190612e2d565b90508060076000868152602001908152602001600020600201819055508060086001866119d29190612cc4565b815481106119e3576119e2613057565b5b9060005260206000209060040201600201819055507fff1bf99918d35d7dd5182e2a06f26aa0b7673c48538bb8ce407af50f4b4ab2ca8482604051611a2992919061365b565b60405180910390a1505b60018114611f9357600060646005600260096000888152602001908152602001600020600286611a639190612cc4565b81548110611a7457611a73613057565b5b906000526020600020906006020160020154611a909190612c82565b611a9a9190612c82565b611aa491906131d5565b9050600081600260096000888152602001908152602001600020600286611acb9190612cc4565b81548110611adc57611adb613057565b5b906000526020600020906006020160020154611af89190612c82565b611b029190612cc4565b9050600060096000878152602001908152602001600020600285611b269190612cc4565b81548110611b3757611b36613057565b5b906000526020600020906006020160010160009054906101000a900473ffffffffffffffffffffffffffffffffffffffff1673ffffffffffffffffffffffffffffffffffffffff1682604051611b8c90613237565b60006040518083038185875af1925050503d8060008114611bc9576040519150601f19603f3d011682016040523d82523d6000602084013e611bce565b606091505b505090508015611e66578160096000888152602001908152602001600020600286611bf99190612cc4565b81548110611c0a57611c09613057565b5b9060005260206000209060060201600301819055506000600360009054906101000a900473ffffffffffffffffffffffffffffffffffffffff1673ffffffffffffffffffffffffffffffffffffffff16846040516024016040516020818303038152906040527fb77e2e71000000000000000000000000000000000000000000000000000000007bffffffffffffffffffffffffffffffffffffffffffffffffffffffff19166020820180517bffffffffffffffffffffffffffffffffffffffffffffffffffffffff8381831617835250505050604051611ceb91906132b2565b60006040518083038185875af1925050503d8060008114611d28576040519150601f19603f3d011682016040523d82523d6000602084013e611d2d565b606091505b5050905080611d3b57600080fd5b7f65edb247950c75beace5afb548418caec939cfa83b1fc60186d09d89cea66ba787600960008a8152602001908152602001600020600288611d7d9190612cc4565b81548110611d8e57611d8d613057565b5b906000526020600020906006020160010160009054906101000a900473ffffffffffffffffffffffffffffffffffffffff16600960008b8152602001908152602001600020600289611de09190612cc4565b81548110611df157611df0613057565b5b906000526020600020906006020160020154600960008c815260200190815260200160002060028a611e239190612cc4565b81548110611e3457611e33613057565b5b90600052602060002090600602016000015487604051611e589594939291906132c9565b60405180910390a150611f8f565b6000600360009054906101000a900473ffffffffffffffffffffffffffffffffffffffff1673ffffffffffffffffffffffffffffffffffffffff168385611ead9190612e2d565b6040516024016040516020818303038152906040527fb77e2e71000000000000000000000000000000000000000000000000000000007bffffffffffffffffffffffffffffffffffffffffffffffffffffffff19166020820180517bffffffffffffffffffffffffffffffffffffffffffffffffffffffff8381831617835250505050604051611f3d91906132b2565b60006040518083038185875af1925050503d8060008114611f7a576040519150601f19603f3d011682016040523d82523d6000602084013e611f7f565b606091505b5050905080611f8d57600080fd5b505b5050505b7f2eaa1bda0a76999046e8def81099978a4164fbfb5f4207619e76c3823f6043678333348442604051611fca9594939291906132c9565b60405180910390a150506001808190555050565b60008060009054906101000a900473ffffffffffffffffffffffffffffffffffffffff16905090565b6000806000806000600880549050111561209e5760006007600060088054905081526020019081526020016000206040518060800160405290816000820154815260200160018201548152602001600282015481526020016003820160009054906101000a900460ff16151515158152505090506008805490508160200151826040015183606001519450945094509450506120ad565b60008060008093509350935093505b90919293565b60065481565b600260009054906101000a900473ffffffffffffffffffffffffffffffffffffffff1681565b606060096000838152602001908152602001600020805480602002602001604051908101604052809291908181526020016000905b828210156121ce57838290600052602060002090600602016040518060c0016040529081600082015481526020016001820160009054906101000a900473ffffffffffffffffffffffffffffffffffffffff1673ffffffffffffffffffffffffffffffffffffffff1673ffffffffffffffffffffffffffffffffffffffff16815260200160028201548152602001600382015481526020016004820154815260200160058201548152505081526020019060010190612114565b505050509050919050565b600360009054906101000a900473ffffffffffffffffffffffffffffffffffffffff1681565b6122076122e4565b600073ffffffffffffffffffffffffffffffffffffffff168173ffffffffffffffffffffffffffffffffffffffff1603612276576040517f08c379a000000000000000000000000000000000000000000000000000000000815260040161226d906136f6565b60405180910390fd5b61227f816123fc565b50565b60045481565b600080426007600085815260200190815260200160002060020154101580156122d157506007600084815260200190815260200160002060030160009054906101000a900460ff165b156122db57600190505b80915050919050565b6122ec6124c0565b73ffffffffffffffffffffffffffffffffffffffff1661230a611fde565b73ffffffffffffffffffffffffffffffffffffffff1614612360576040517f08c379a000000000000000000000000000000000000000000000000000000000815260040161235790613762565b60405180910390fd5b565b600080426008600160088054905061237a9190612cc4565b8154811061238b5761238a613057565b5b9060005260206000209060040201600201541080156123eb5750600860016008805490506123b99190612cc4565b815481106123ca576123c9613057565b5b906000526020600020906004020160030160009054906101000a900460ff16155b156123f557600190505b8091505090565b60008060009054906101000a900473ffffffffffffffffffffffffffffffffffffffff169050816000806101000a81548173ffffffffffffffffffffffffffffffffffffffff021916908373ffffffffffffffffffffffffffffffffffffffff1602179055508173ffffffffffffffffffffffffffffffffffffffff168173ffffffffffffffffffffffffffffffffffffffff167f8be0079c531659141344cd1fd0a4f28419497f9722a3daafe3b4186f6b6457e060405160405180910390a35050565b600033905090565b60405180608001604052806000815260200160008152602001600081526020016000151581525090565b600080fd5b6000819050919050565b61250a816124f7565b811461251557600080fd5b50565b60008135905061252781612501565b92915050565b600060208284031215612543576125426124f2565b5b600061255184828501612518565b91505092915050565b612563816124f7565b82525050565b600060208201905061257e600083018461255a565b92915050565b61258d816124f7565b82525050565b60008115159050919050565b6125a881612593565b82525050565b6080820160008201516125c46000850182612584565b5060208201516125d76020850182612584565b5060408201516125ea6040850182612584565b5060608201516125fd606085018261259f565b50505050565b600060808201905061261860008301846125ae565b92915050565b60008060408385031215612635576126346124f2565b5b600061264385828601612518565b925050602061265485828601612518565b9150509250929050565b600081519050919050565b600082825260208201905092915050565b6000819050602082019050919050565b6080820160008201516126a06000850182612584565b5060208201516126b36020850182612584565b5060408201516126c66040850182612584565b5060608201516126d9606085018261259f565b50505050565b60006126eb838361268a565b60808301905092915050565b6000602082019050919050565b600061270f8261265e565b6127198185612669565b93506127248361267a565b8060005b8381101561275557815161273c88826126df565b9750612747836126f7565b925050600181019050612728565b5085935050505092915050565b6000602082019050818103600083015261277c8184612704565b905092915050565b600073ffffffffffffffffffffffffffffffffffffffff82169050919050565b60006127af82612784565b9050919050565b6127bf816127a4565b82525050565b60006060820190506127da600083018661255a565b6127e760208301856127b6565b6127f4604083018461255a565b949350505050565b600060208201905061281160008301846127b6565b92915050565b61282081612593565b82525050565b600060808201905061283b600083018761255a565b612848602083018661255a565b612855604083018561255a565b6128626060830184612817565b95945050505050565b6000819050919050565b600061289061288b61288684612784565b61286b565b612784565b9050919050565b60006128a282612875565b9050919050565b60006128b482612897565b9050919050565b6128c4816128a9565b82525050565b60006020820190506128df60008301846128bb565b92915050565b600081519050919050565b600082825260208201905092915050565b6000819050602082019050919050565b61291a816127a4565b82525050565b60c0820160008201516129366000850182612584565b5060208201516129496020850182612911565b50604082015161295c6040850182612584565b50606082015161296f6060850182612584565b5060808201516129826080850182612584565b5060a082015161299560a0850182612584565b50505050565b60006129a78383612920565b60c08301905092915050565b6000602082019050919050565b60006129cb826128e5565b6129d581856128f0565b93506129e083612901565b8060005b83811015612a115781516129f8888261299b565b9750612a03836129b3565b9250506001810190506129e4565b5085935050505092915050565b60006020820190508181036000830152612a3881846129c0565b905092915050565b6000612a4b82612897565b9050919050565b612a5b81612a40565b82525050565b6000602082019050612a766000830184612a52565b92915050565b612a85816127a4565b8114612a9057600080fd5b50565b600081359050612aa281612a7c565b92915050565b600060208284031215612abe57612abd6124f2565b5b6000612acc84828501612a93565b91505092915050565b7f4e487b7100000000000000000000000000000000000000000000000000000000600052601160045260246000fd5b60008160011c9050919050565b6000808291508390505b6001851115612b5b57808604811115612b3757612b36612ad5565b5b6001851615612b465780820291505b8081029050612b5485612b04565b9450612b1b565b94509492505050565b600082612b745760019050612c30565b81612b825760009050612c30565b8160018114612b985760028114612ba257612bd1565b6001915050612c30565b60ff841115612bb457612bb3612ad5565b5b8360020a915084821115612bcb57612bca612ad5565b5b50612c30565b5060208310610133831016604e8410600b8410161715612c065782820a905083811115612c0157612c00612ad5565b5b612c30565b612c138484846001612b11565b92509050818404811115612c2a57612c29612ad5565b5b81810290505b9392505050565b6000612c42826124f7565b9150612c4d836124f7565b9250612c7a7fffffffffffffffffffffffffffffffffffffffffffffffffffffffffffffffff8484612b64565b905092915050565b6000612c8d826124f7565b9150612c98836124f7565b9250828202612ca6816124f7565b91508282048414831517612cbd57612cbc612ad5565b5b5092915050565b6000612ccf826124f7565b9150612cda836124f7565b9250828203905081811115612cf257612cf1612ad5565b5b92915050565b600082825260208201905092915050565b7f526f756e64206475726174696f6e206f72206578747261206475726174696f6e60008201527f2020617265206e6f74207365742e000000000000000000000000000000000000602082015250565b6000612d65602e83612cf8565b9150612d7082612d09565b604082019050919050565b60006020820190508181036000830152612d9481612d58565b9050919050565b7f4d696e696d756d20636f6e74726163742062616c616e63652073686f756c642060008201527f626520312074504c530000000000000000000000000000000000000000000000602082015250565b6000612df7602983612cf8565b9150612e0282612d9b565b604082019050919050565b60006020820190508181036000830152612e2681612dea565b9050919050565b6000612e38826124f7565b9150612e43836124f7565b9250828201905080821115612e5b57612e5a612ad5565b5b92915050565b7f50726576696f757320726f756e64206973206e6f742066696e6973686564207960008201527f6574000000000000000000000000000000000000000000000000000000000000602082015250565b6000612ebd602283612cf8565b9150612ec882612e61565b604082019050919050565b60006020820190508181036000830152612eec81612eb0565b9050919050565b6000606082019050612f08600083018661255a565b612f15602083018561255a565b612f22604083018461255a565b949350505050565b7f4475726174696f6e2073686f756c642062652067726561746572207468616e2060008201527f3000000000000000000000000000000000000000000000000000000000000000602082015250565b6000612f86602183612cf8565b9150612f9182612f2a565b604082019050919050565b60006020820190508181036000830152612fb581612f79565b9050919050565b7f496e76616c69642072616e676500000000000000000000000000000000000000600082015250565b6000612ff2600d83612cf8565b9150612ffd82612fbc565b602082019050919050565b6000602082019050818103600083015261302181612fe5565b9050919050565b7f4e487b7100000000000000000000000000000000000000000000000000000000600052604160045260246000fd5b7f4e487b7100000000000000000000000000000000000000000000000000000000600052603260045260246000fd5b6000613091826124f7565b91507fffffffffffffffffffffffffffffffffffffffffffffffffffffffffffffffff82036130c3576130c2612ad5565b5b600182019050919050565b7f526f756e6420697320206c697665000000000000000000000000000000000000600082015250565b6000613104600e83612cf8565b915061310f826130ce565b602082019050919050565b60006020820190508181036000830152613133816130f7565b9050919050565b7f526f756e6420616c72656164792066696e697368656400000000000000000000600082015250565b6000613170601683612cf8565b915061317b8261313a565b602082019050919050565b6000602082019050818103600083015261319f81613163565b9050919050565b7f4e487b7100000000000000000000000000000000000000000000000000000000600052601260045260246000fd5b60006131e0826124f7565b91506131eb836124f7565b9250826131fb576131fa6131a6565b5b828204905092915050565b600081905092915050565b50565b6000613221600083613206565b915061322c82613211565b600082019050919050565b600061324282613214565b9150819050919050565b600081519050919050565b60005b8381101561327557808201518184015260208101905061325a565b60008484015250505050565b600061328c8261324c565b6132968185613206565b93506132a6818560208601613257565b80840191505092915050565b60006132be8284613281565b915081905092915050565b600060a0820190506132de600083018861255a565b6132eb60208301876127b6565b6132f8604083018661255a565b613305606083018561255a565b613312608083018461255a565b9695505050505050565b60008151905061332b81612501565b92915050565b600060208284031215613347576133466124f2565b5b60006133558482850161331c565b91505092915050565b600060408201905061337360008301856127b6565b613380602083018461255a565b9392505050565b7f53657420726f756e64206475726174696f6e2066697273740000000000000000600082015250565b60006133bd601883612cf8565b91506133c882613387565b602082019050919050565b600060208201905081810360008301526133ec816133b0565b9050919050565b7f4475726174696f6e2073686f756c642062652067726561746572207468616e2060008201527f3020616e6420726f756e644475726174696f6e00000000000000000000000000602082015250565b600061344f603383612cf8565b915061345a826133f3565b604082019050919050565b6000602082019050818103600083015261347e81613442565b9050919050565b7f526f756e64206973206e6f74206c697665000000000000000000000000000000600082015250565b60006134bb601183612cf8565b91506134c682613485565b602082019050919050565b600060208201905081810360008301526134ea816134ae565b9050919050565b7f5265656e7472616e637947756172643a207265656e7472616e742063616c6c00600082015250565b6000613527601f83612cf8565b9150613532826134f1565b602082019050919050565b600060208201905081810360008301526135568161351a565b9050919050565b7f496e636f727265637420696e76657374656420616d6f756e7400000000000000600082015250565b6000613593601983612cf8565b915061359e8261355d565b602082019050919050565b600060208201905081810360008301526135c281613586565b9050919050565b7f596f752063616e6e6f74206465706f73697420616761696e20756e74696c207460008201527f686572652069732061206e657720706c65620000000000000000000000000000602082015250565b6000613625603283612cf8565b9150613630826135c9565b604082019050919050565b6000602082019050818103600083015261365481613618565b9050919050565b6000604082019050613670600083018561255a565b61367d602083018461255a565b9392505050565b7f4f776e61626c653a206e6577206f776e657220697320746865207a65726f206160008201527f6464726573730000000000000000000000000000000000000000000000000000602082015250565b60006136e0602683612cf8565b91506136eb82613684565b604082019050919050565b6000602082019050818103600083015261370f816136d3565b9050919050565b7f4f776e61626c653a2063616c6c6572206973206e6f7420746865206f776e6572600082015250565b600061374c602083612cf8565b915061375782613716565b602082019050919050565b6000602082019050818103600083015261377b8161373f565b905091905056fea26469706673582212208bae42978e3e98c2f981497ddc80f1bd3c348b9ec7a30f94aa0062ed52bbdf6364736f6c63430008110033",
  "linkReferences": {},
  "deployedLinkReferences": {}
}