{
  "_format": "hh-sol-artifact-1",
  "contractName": "PlebToHill",
  "sourceName": "contracts/PlebToHill.sol",
  "abi": [
    {
      "inputs": [
        {
          "internalType": "address",
          "name": "_plebToken",
          "type": "address"
        },
        {
          "internalType": "address",
          "name": "_pleb_stake_address",
          "type": "address"
        }
      ],
      "stateMutability": "nonpayable",
      "type": "constructor"
    },
    {
      "anonymous": false,
      "inputs": [
        {
          "indexed": true,
          "internalType": "address",
          "name": "previousOwner",
          "type": "address"
        },
        {
          "indexed": true,
          "internalType": "address",
          "name": "newOwner",
          "type": "address"
        }
      ],
      "name": "OwnershipTransferred",
      "type": "event"
    },
    {
      "anonymous": false,
      "inputs": [
        {
          "indexed": false,
          "internalType": "uint256",
          "name": "roundId",
          "type": "uint256"
        },
        {
          "indexed": false,
          "internalType": "address",
          "name": "walletAddress",
          "type": "address"
        },
        {
          "indexed": false,
          "internalType": "uint256",
          "name": "invested_amount",
          "type": "uint256"
        },
        {
          "indexed": false,
          "internalType": "uint256",
          "name": "participantId",
          "type": "uint256"
        },
        {
          "indexed": false,
          "internalType": "uint256",
          "name": "time",
          "type": "uint256"
        }
      ],
      "name": "ParticipantAdded",
      "type": "event"
    },
    {
      "anonymous": false,
      "inputs": [
        {
          "indexed": false,
          "internalType": "uint256",
          "name": "id",
          "type": "uint256"
        },
        {
          "indexed": false,
          "internalType": "address",
          "name": "transferedTo",
          "type": "address"
        },
        {
          "indexed": false,
          "internalType": "uint256",
          "name": "amount",
          "type": "uint256"
        }
      ],
      "name": "PlebTokenTransfered",
      "type": "event"
    },
    {
      "anonymous": false,
      "inputs": [
        {
          "indexed": false,
          "internalType": "uint256",
          "name": "roundId",
          "type": "uint256"
        },
        {
          "indexed": false,
          "internalType": "uint256",
          "name": "startTime",
          "type": "uint256"
        },
        {
          "indexed": false,
          "internalType": "uint256",
          "name": "endTime",
          "type": "uint256"
        }
      ],
      "name": "RoundCreated",
      "type": "event"
    },
    {
      "anonymous": false,
      "inputs": [
        {
          "indexed": false,
          "internalType": "uint256",
          "name": "roundId",
          "type": "uint256"
        }
      ],
      "name": "RoundFinished",
      "type": "event"
    },
    {
      "anonymous": false,
      "inputs": [
        {
          "indexed": false,
          "internalType": "uint256",
          "name": "roundId",
          "type": "uint256"
        },
        {
          "indexed": false,
          "internalType": "uint256",
          "name": "endTime",
          "type": "uint256"
        }
      ],
      "name": "TimeReset",
      "type": "event"
    },
    {
      "anonymous": false,
      "inputs": [
        {
          "indexed": false,
          "internalType": "uint256",
          "name": "roundId",
          "type": "uint256"
        },
        {
          "indexed": false,
          "internalType": "address",
          "name": "walletAddress",
          "type": "address"
        },
        {
          "indexed": false,
          "internalType": "uint256",
          "name": "invested_amount",
          "type": "uint256"
        },
        {
          "indexed": false,
          "internalType": "uint256",
          "name": "participantId",
          "type": "uint256"
        },
        {
          "indexed": false,
          "internalType": "uint256",
          "name": "winnings",
          "type": "uint256"
        }
      ],
      "name": "WinningTransfered",
      "type": "event"
    },
    {
      "inputs": [
        {
          "internalType": "uint256",
          "name": "roundId",
          "type": "uint256"
        }
      ],
      "name": "addParticipant",
      "outputs": [],
      "stateMutability": "payable",
      "type": "function"
    },
    {
      "inputs": [],
      "name": "createRound",
      "outputs": [],
      "stateMutability": "nonpayable",
      "type": "function"
    },
    {
      "inputs": [
        {
          "internalType": "uint256",
          "name": "roundId",
          "type": "uint256"
        }
      ],
      "name": "endRound",
      "outputs": [],
      "stateMutability": "nonpayable",
      "type": "function"
    },
    {
      "inputs": [],
      "name": "extraDuration",
      "outputs": [
        {
          "internalType": "uint256",
          "name": "",
          "type": "uint256"
        }
      ],
      "stateMutability": "view",
      "type": "function"
    },
    {
      "inputs": [
        {
          "internalType": "uint256",
          "name": "roundId",
          "type": "uint256"
        }
      ],
      "name": "getAllParticipantOfRound",
      "outputs": [
        {
          "components": [
            {
              "internalType": "uint256",
              "name": "participantId",
              "type": "uint256"
            },
            {
              "internalType": "address",
              "name": "walletAddress",
              "type": "address"
            },
            {
              "internalType": "uint256",
              "name": "invested_amount",
              "type": "uint256"
            },
            {
              "internalType": "uint256",
              "name": "winnings",
              "type": "uint256"
            },
            {
              "internalType": "uint256",
              "name": "roundId",
              "type": "uint256"
            },
            {
              "internalType": "uint256",
              "name": "time",
              "type": "uint256"
            }
          ],
          "internalType": "struct PlebToHill.Participant[]",
          "name": "",
          "type": "tuple[]"
        }
      ],
      "stateMutability": "view",
      "type": "function"
    },
    {
      "inputs": [
        {
          "internalType": "uint256",
          "name": "start",
          "type": "uint256"
        },
        {
          "internalType": "uint256",
          "name": "end",
          "type": "uint256"
        }
      ],
      "name": "getAllRounds",
      "outputs": [
        {
          "components": [
            {
              "internalType": "uint256",
              "name": "roundId",
              "type": "uint256"
            },
            {
              "internalType": "uint256",
              "name": "startTime",
              "type": "uint256"
            },
            {
              "internalType": "uint256",
              "name": "endTime",
              "type": "uint256"
            },
            {
              "internalType": "bool",
              "name": "isLive",
              "type": "bool"
            }
          ],
          "internalType": "struct PlebToHill.Round[]",
          "name": "",
          "type": "tuple[]"
        }
      ],
      "stateMutability": "view",
      "type": "function"
    },
    {
      "inputs": [],
      "name": "getCurrentLiveRound",
      "outputs": [
        {
          "internalType": "uint256",
          "name": "roundId",
          "type": "uint256"
        },
        {
          "internalType": "uint256",
          "name": "startTime",
          "type": "uint256"
        },
        {
          "internalType": "uint256",
          "name": "endTime",
          "type": "uint256"
        },
        {
          "internalType": "bool",
          "name": "isLive",
          "type": "bool"
        }
      ],
      "stateMutability": "view",
      "type": "function"
    },
    {
      "inputs": [
        {
          "internalType": "uint256",
          "name": "roundId",
          "type": "uint256"
        }
      ],
      "name": "getCurrentPleb",
      "outputs": [
        {
          "internalType": "address",
          "name": "wallet",
          "type": "address"
        }
      ],
      "stateMutability": "view",
      "type": "function"
    },
    {
      "inputs": [
        {
          "internalType": "uint256",
          "name": "roundId",
          "type": "uint256"
        }
      ],
      "name": "getLoserData",
      "outputs": [
        {
          "internalType": "uint256",
          "name": "id",
          "type": "uint256"
        },
        {
          "internalType": "address",
          "name": "wallet",
          "type": "address"
        },
        {
          "internalType": "uint256",
          "name": "amount_lose",
          "type": "uint256"
        }
      ],
      "stateMutability": "view",
      "type": "function"
    },
    {
      "inputs": [
        {
          "internalType": "uint256",
          "name": "roundId",
          "type": "uint256"
        }
      ],
      "name": "getRemainingTime",
      "outputs": [
        {
          "internalType": "uint256",
          "name": "",
          "type": "uint256"
        }
      ],
      "stateMutability": "view",
      "type": "function"
    },
    {
      "inputs": [
        {
          "internalType": "uint256",
          "name": "roundId",
          "type": "uint256"
        }
      ],
      "name": "getRoundData",
      "outputs": [
        {
          "components": [
            {
              "internalType": "uint256",
              "name": "roundId",
              "type": "uint256"
            },
            {
              "internalType": "uint256",
              "name": "startTime",
              "type": "uint256"
            },
            {
              "internalType": "uint256",
              "name": "endTime",
              "type": "uint256"
            },
            {
              "internalType": "bool",
              "name": "isLive",
              "type": "bool"
            }
          ],
          "internalType": "struct PlebToHill.Round",
          "name": "",
          "type": "tuple"
        }
      ],
      "stateMutability": "view",
      "type": "function"
    },
    {
      "inputs": [
        {
          "internalType": "uint256",
          "name": "roundId",
          "type": "uint256"
        }
      ],
      "name": "getValueForNextParticipant",
      "outputs": [
        {
          "internalType": "uint256",
          "name": "",
          "type": "uint256"
        }
      ],
      "stateMutability": "view",
      "type": "function"
    },
    {
      "inputs": [],
      "name": "owner",
      "outputs": [
        {
          "internalType": "address",
          "name": "",
          "type": "address"
        }
      ],
      "stateMutability": "view",
      "type": "function"
    },
    {
      "inputs": [],
      "name": "plebToken",
      "outputs": [
        {
          "internalType": "contract IPlebToken",
          "name": "",
          "type": "address"
        }
      ],
      "stateMutability": "view",
      "type": "function"
    },
    {
      "inputs": [],
      "name": "plebTokens",
      "outputs": [
        {
          "internalType": "uint256",
          "name": "",
          "type": "uint256"
        }
      ],
      "stateMutability": "view",
      "type": "function"
    },
    {
      "inputs": [],
      "name": "pleb_stake_address",
      "outputs": [
        {
          "internalType": "contract IStake",
          "name": "",
          "type": "address"
        }
      ],
      "stateMutability": "view",
      "type": "function"
    },
    {
      "inputs": [],
      "name": "renounceOwnership",
      "outputs": [],
      "stateMutability": "nonpayable",
      "type": "function"
    },
    {
      "inputs": [],
      "name": "roundDuration",
      "outputs": [
        {
          "internalType": "uint256",
          "name": "",
          "type": "uint256"
        }
      ],
      "stateMutability": "view",
      "type": "function"
    },
    {
      "inputs": [
        {
          "internalType": "uint256",
          "name": "_extraDurationInMinutes",
          "type": "uint256"
        }
      ],
      "name": "setExtraDuration",
      "outputs": [],
      "stateMutability": "nonpayable",
      "type": "function"
    },
    {
      "inputs": [
        {
          "internalType": "uint256",
          "name": "_roundDurationInMinutes",
          "type": "uint256"
        }
      ],
      "name": "setRoundDuration",
      "outputs": [],
      "stateMutability": "nonpayable",
      "type": "function"
    },
    {
      "inputs": [
        {
          "internalType": "uint256",
          "name": "_thresholdTime",
          "type": "uint256"
        }
      ],
      "name": "setThresoldTime",
      "outputs": [],
      "stateMutability": "nonpayable",
      "type": "function"
    },
    {
      "inputs": [],
      "name": "thresholdTime",
      "outputs": [
        {
          "internalType": "uint256",
          "name": "",
          "type": "uint256"
        }
      ],
      "stateMutability": "view",
      "type": "function"
    },
    {
      "inputs": [
        {
          "internalType": "address",
          "name": "newOwner",
          "type": "address"
        }
      ],
      "name": "transferOwnership",
      "outputs": [],
      "stateMutability": "nonpayable",
      "type": "function"
    },
    {
      "inputs": [
        {
          "internalType": "uint256",
          "name": "_amount",
          "type": "uint256"
        }
      ],
      "name": "transferPleb",
      "outputs": [],
      "stateMutability": "nonpayable",
      "type": "function"
    },
    {
      "inputs": [
        {
          "internalType": "address",
          "name": "_newStakeAddress",
          "type": "address"
        }
      ],
      "name": "updateStakingContractAddress",
      "outputs": [],
      "stateMutability": "nonpayable",
      "type": "function"
    },
    {
      "stateMutability": "payable",
      "type": "receive"
    }
  ],
  "bytecode": "0x60806040523480156200001157600080fd5b506040516200520f3803806200520f833981810160405281019062000037919062000275565b620000576200004b6200013c60201b60201c565b6200014460201b60201c565b600180819055506200007a679cd3a538f035fd7e60c01b6200020860201b60201c565b62000096678aa810433b16b29260c01b6200020860201b60201c565b81600260006101000a81548173ffffffffffffffffffffffffffffffffffffffff021916908373ffffffffffffffffffffffffffffffffffffffff160217905550620000f3671bedf4f5c309769860c01b6200020860201b60201c565b80600360006101000a81548173ffffffffffffffffffffffffffffffffffffffff021916908373ffffffffffffffffffffffffffffffffffffffff1602179055505050620002bc565b600033905090565b60008060009054906101000a900473ffffffffffffffffffffffffffffffffffffffff169050816000806101000a81548173ffffffffffffffffffffffffffffffffffffffff021916908373ffffffffffffffffffffffffffffffffffffffff1602179055508173ffffffffffffffffffffffffffffffffffffffff168173ffffffffffffffffffffffffffffffffffffffff167f8be0079c531659141344cd1fd0a4f28419497f9722a3daafe3b4186f6b6457e060405160405180910390a35050565b50565b600080fd5b600073ffffffffffffffffffffffffffffffffffffffff82169050919050565b60006200023d8262000210565b9050919050565b6200024f8162000230565b81146200025b57600080fd5b50565b6000815190506200026f8162000244565b92915050565b600080604083850312156200028f576200028e6200020b565b5b60006200029f858286016200025e565b9250506020620002b2858286016200025e565b9150509250929050565b614f4380620002cc6000396000f3fe60806040526004361061016a5760003560e01c8063715018a6116100d15780639930f8761161008a578063ebc7d32711610064578063ebc7d3271461053f578063f2fde38b1461056a578063f3195f8314610593578063f7cb789a146105bc57610171565b80639930f876146104ac578063a1e77300146104d7578063dade4b641461050257610171565b8063715018a6146103ba5780637cb5de7c146103d157806384065059146103fa5780638acaf7a8146104375780638da5cb5b14610453578063928554f91461047e57610171565b806340e7e4ad1161012357806340e7e4ad14610296578063437b6065146102bf5780634781ca76146102fc5780635a1e6ca114610327578063606e4841146103505780636ade70881461038f57610171565b806303861ba6146101765780630720da52146101b3578063181e0124146101f05780631b411fc81461022d5780632c4dbed21461024457806336c92c3f1461026d57610171565b3661017157005b600080fd5b34801561018257600080fd5b5061019d60048036038101906101989190613c0f565b6105e7565b6040516101aa9190613c4b565b60405180910390f35b3480156101bf57600080fd5b506101da60048036038101906101d59190613c0f565b610720565b6040516101e79190613ce5565b60405180910390f35b3480156101fc57600080fd5b5061021760048036038101906102129190613c0f565b6107c2565b6040516102249190613c4b565b60405180910390f35b34801561023957600080fd5b506102426108c8565b005b34801561025057600080fd5b5061026b60048036038101906102669190613c0f565b610d6f565b005b34801561027957600080fd5b50610294600480360381019061028f9190613c0f565b610e70565b005b3480156102a257600080fd5b506102bd60048036038101906102b89190613d5e565b610f71565b005b3480156102cb57600080fd5b506102e660048036038101906102e19190613d8b565b6110cc565b6040516102f39190613ecf565b60405180910390f35b34801561030857600080fd5b50610311611364565b60405161031e9190613c4b565b60405180910390f35b34801561033357600080fd5b5061034e60048036038101906103499190613c0f565b61136a565b005b34801561035c57600080fd5b5061037760048036038101906103729190613c0f565b611f13565b60405161038693929190613f00565b60405180910390f35b34801561039b57600080fd5b506103a46121af565b6040516103b19190613c4b565b60405180910390f35b3480156103c657600080fd5b506103cf6121b5565b005b3480156103dd57600080fd5b506103f860048036038101906103f39190613c0f565b6121c9565b005b34801561040657600080fd5b50610421600480360381019061041c9190613c0f565b612379565b60405161042e9190613f37565b60405180910390f35b610451600480360381019061044c9190613c0f565b6125e8565b005b34801561045f57600080fd5b506104686132d8565b6040516104759190613f37565b60405180910390f35b34801561048a57600080fd5b50610493613301565b6040516104a39493929190613f61565b60405180910390f35b3480156104b857600080fd5b506104c1613489565b6040516104ce9190613c4b565b60405180910390f35b3480156104e357600080fd5b506104ec61348f565b6040516104f99190614005565b60405180910390f35b34801561050e57600080fd5b5061052960048036038101906105249190613c0f565b6134b5565b6040516105369190614159565b60405180910390f35b34801561054b57600080fd5b506105546135eb565b604051610561919061419c565b60405180910390f35b34801561057657600080fd5b50610591600480360381019061058c9190613d5e565b613611565b005b34801561059f57600080fd5b506105ba60048036038101906105b59190613c0f565b613694565b005b3480156105c857600080fd5b506105d16137ce565b6040516105de9190613c4b565b60405180910390f35b60006105fd67792c02d7a2d33ca560c01b6137d4565b6106116755ca8123997fa4f860c01b6137d4565b610625677f85d670cec8d73360c01b6137d4565b61062e826137d7565b156106da576106476748dc225c4a58069960c01b6137d4565b61065b67fb9f62cda8306c9560c01b6137d4565b61066f67cc85a6a60c1be75560c01b6137d4565b6000600a600084815260200190815260200160002080549050905061069e679c19e30744f79afe60c01b6137d4565b6106b267432a6012746dde6f60c01b6137d4565b670de0b6b3a76400008160026106c89190614319565b6106d29190614364565b91505061071b565b6106ee675e0be5fcda8f787c60c01b6137d4565b61070267bbddac771383c59e60c01b6137d4565b61071667427fdb2f767062af60c01b6137d4565b600090505b919050565b610728613baa565b61073c67ebce8e96d68d9d5660c01b6137d4565b610750676b95b261390037f160c01b6137d4565b61076467e19d327dc7f01d0e60c01b6137d4565b600860008381526020019081526020016000206040518060800160405290816000820154815260200160018201548152602001600282015481526020016003820160009054906101000a900460ff1615151515815250509050919050565b60006107d8672b0f5d7a86d7c5f960c01b6137d4565b6107ec67a079a365cb60b87260c01b6137d4565b610800676b71a39e262032fc60c01b6137d4565b600061080b83610720565b9050610821671b1c5aed3c3b95bd60c01b6137d4565b610835679b216cd5b738c23560c01b6137d4565b8060400151421015610895576108556735c6e8d9048c27ac60c01b6137d4565b610869672e6062451e73d35d60c01b6137d4565b61087d67410c2deb60c8b68760c01b6137d4565b42816040015161088d91906143a6565b9150506108c3565b6108a967417b820440306e3c60c01b6137d4565b6108bd6735161866e65d610660c01b6137d4565b60009150505b919050565b6108dc67a55770e9be2a32a160c01b6137d4565b6108e46138ed565b6108f8670378378e1db10b3460c01b6137d4565b61090c6703a7d40367eb7f4c60c01b6137d4565b61092067ca627d8114e9608360c01b6137d4565b61093467be26c4c3ad85974c60c01b6137d4565b6109486768c26e871688b4c660c01b6137d4565b600060055411801561095c57506000600654115b801561096a57506000600754115b6109a9576040517f08c379a00000000000000000000000000000000000000000000000000000000081526004016109a09061445d565b60405180910390fd5b6109bd6731d6d42234e16e6c60c01b6137d4565b6109d167d57711ecb50b010e60c01b6137d4565b6109e567a28dd58efa74d3ac60c01b6137d4565b6109f967b1c46c7729d786b260c01b6137d4565b670de0b6b3a7640000471015610a44576040517f08c379a0000000000000000000000000000000000000000000000000000000008152600401610a3b906144ef565b60405180910390fd5b610a586773f0ea11ff61b38860c01b6137d4565b610a6c6777b829f7910a352d60c01b6137d4565b610a80674c681dc558877e0a60c01b6137d4565b60006001600980549050610a94919061450f565b9050610aaa67e44435b46438525160c01b6137d4565b610abe67334ed85ec146ea7460c01b6137d4565b60006009805490501115610b7c57610ae0670c8e55a09dec660960c01b6137d4565b610af467de7d18b5a4318ae560c01b6137d4565b610b0867472939629430382e60c01b6137d4565b610b1c6716ca79a945addc5260c01b6137d4565b610b2461396b565b610b63576040517f08c379a0000000000000000000000000000000000000000000000000000000008152600401610b5a906145b5565b60405180910390fd5b610b776724f427a81728de7f60c01b6137d4565b610b91565b610b90674e0a07f29bcb548660c01b6137d4565b5b610ba567923d26a2ddb927fc60c01b6137d4565b604051806080016040528082815260200142815260200160055442610bca919061450f565b8152602001600115158152506008600083815260200190815260200160002060008201518160000155602082015181600101556040820151816002015560608201518160030160006101000a81548160ff021916908315150217905550905050610c3e67a9f3464839dd819f60c01b6137d4565b610c5267347462f0e32dd16360c01b6137d4565b60096008600083815260200190815260200160002090806001815401808255809150506001900390600052602060002090600402016000909190919091506000820154816000015560018201548160010155600282015481600201556003820160009054906101000a900460ff168160030160006101000a81548160ff0219169083151502179055505050610cf1678088711686e504e360c01b6137d4565b610d0567719f390a8fe6f1b960c01b6137d4565b7f68e7b09ec44e876e76ff05157850e3261aa63a8680fe21a2ba93dcbb2b09f58f8160086000848152602001908152602001600020600101546008600085815260200190815260200160002060020154604051610d64939291906145d5565b60405180910390a150565b610d8367ac62a7e7d166c05b60c01b6137d4565b610d8b6138ed565b610d9f6754c7cb15aa1d6a6460c01b6137d4565b610db367e026177c3a08157860c01b6137d4565b610dc76789ef55f23a23edc260c01b6137d4565b610ddb67e1aa0b289b25e81760c01b6137d4565b610def671c2d30ee1dc559e460c01b6137d4565b60008103610e32576040517f08c379a0000000000000000000000000000000000000000000000000000000008152600401610e299061467e565b60405180910390fd5b610e4667ee321718e05f0fb460c01b6137d4565b610e5a67ce9ba49a718099cc60c01b6137d4565b603c81610e679190614364565b60068190555050565b610e8467dac5ca88e47dbce760c01b6137d4565b610e8c6138ed565b610ea067496846e55d61661360c01b6137d4565b610eb467f461159498a5ec9b60c01b6137d4565b610ec867d02ef7f9b6b6266960c01b6137d4565b610edc6705d5dcbc8893e10e60c01b6137d4565b610ef0672f5c89bd2ba0625960c01b6137d4565b60008103610f33576040517f08c379a0000000000000000000000000000000000000000000000000000000008152600401610f2a9061467e565b60405180910390fd5b610f4767f81f358dee69eff560c01b6137d4565b610f5b671bdcd7bf606a64ee60c01b6137d4565b603c81610f689190614364565b60058190555050565b610f85672f4c52b1a78ab47260c01b6137d4565b610f8d6138ed565b610fa167486532de482fbaed60c01b6137d4565b610fb567114c8b9af5dc3a0860c01b6137d4565b610fc967f927cddbfce38b8260c01b6137d4565b610fdd67e51379e658170d4660c01b6137d4565b610ff167ec27bf52ca51087460c01b6137d4565b600073ffffffffffffffffffffffffffffffffffffffff168173ffffffffffffffffffffffffffffffffffffffff1603611060576040517f08c379a0000000000000000000000000000000000000000000000000000000008152600401611057906146ea565b60405180910390fd5b61107467acd59748d8f3addb60c01b6137d4565b6110886735033a0ae4ae5a4460c01b6137d4565b80600360006101000a81548173ffffffffffffffffffffffffffffffffffffffff021916908373ffffffffffffffffffffffffffffffffffffffff16021790555050565b60606110e2678c90c492cae1f44c60c01b6137d4565b6110f6671971cd22af4ae6a060c01b6137d4565b61110a67fc118e30c64fa42d60c01b6137d4565b61111e6781b2ec85996711a460c01b6137d4565b6009805490508210611165576040517f08c379a000000000000000000000000000000000000000000000000000000000815260040161115c90614756565b60405180910390fd5b6111796723c6c9dd2fdb0c1a60c01b6137d4565b61118d6796d9121869c04d7760c01b6137d4565b6111a16768dff7dff2a8515e60c01b6137d4565b6000600184846111b191906143a6565b6111bb919061450f565b67ffffffffffffffff8111156111d4576111d3614776565b5b60405190808252806020026020018201604052801561120d57816020015b6111fa613baa565b8152602001906001900390816111f25790505b5090506112246742ca9ece5612dbf660c01b6137d4565b61123867a599a0a55d5202bc60c01b6137d4565b60005b848461124791906143a6565b8111611331576112616703196b7c2ab67e6460c01b6137d4565b61127567fcc0950b2348648d60c01b6137d4565b600060098683611285919061450f565b81548110611296576112956147a5565b5b90600052602060002090600402016040518060800160405290816000820154815260200160018201548152602001600282015481526020016003820160009054906101000a900460ff16151515158152505090506112fe67951dbad3b49669be60c01b6137d4565b80838381518110611312576113116147a5565b5b6020026020010181905250508080611329906147d4565b91505061123b565b5061134667f29580507ef735ca60c01b6137d4565b61135a67e35dd1508dc0527060c01b6137d4565b8091505092915050565b60065481565b61137e672326d70e7bfb2b6560c01b6137d4565b6113866138ed565b61139a6789c9e48e9dc5901d60c01b6137d4565b6113ae6764b1ae4b9a9dac8c60c01b6137d4565b6113c2672afa5c03bb6eae1060c01b6137d4565b6113d66783a118ee03d2ddb260c01b6137d4565b6113ea67d95b51e9b16a67d260c01b6137d4565b6113f3816137d7565b15611433576040517f08c379a000000000000000000000000000000000000000000000000000000000815260040161142a90614868565b60405180910390fd5b611447674c46cb52539ad5e860c01b6137d4565b61145b67b42a0fcebd02da7460c01b6137d4565b61146f6774b6bfee8e234f4560c01b6137d4565b61148367f9997f610e347d5160c01b6137d4565b6008600082815260200190815260200160002060030160009054906101000a900460ff166114e6576040517f08c379a00000000000000000000000000000000000000000000000000000000081526004016114dd906148d4565b60405180910390fd5b6114fa67591813fff79d30ac60c01b6137d4565b61150e6781aae7535bfb876c60c01b6137d4565b60006008600083815260200190815260200160002060030160006101000a81548160ff021916908315150217905550611551672adcd7c7bb0eeedb60c01b6137d4565b6000600960018361156291906143a6565b81548110611573576115726147a5565b5b906000526020600020906004020160030160006101000a81548160ff0219169083151502179055506115af679f9e3f956f3324d160c01b6137d4565b6115c367c003c5fca1e97f8460c01b6137d4565b6001600a60008381526020019081526020016000208054905003611c04576115f567d853380d0d46513460c01b6137d4565b611609670ff6fb95f1a6e2f160c01b6137d4565b61161d67481a9325bd21bc4860c01b6137d4565b6000606460056002600a600086815260200190815260200160002060008154811061164b5761164a6147a5565b5b9060005260206000209060060201600201546116679190614364565b6116719190614364565b61167b9190614923565b90506116916736592d9d73b0020360c01b6137d4565b6116a567e436509b7dccd39760c01b6137d4565b6000816002600a60008681526020019081526020016000206000815481106116d0576116cf6147a5565b5b9060005260206000209060060201600201546116ec9190614364565b6116f691906143a6565b905061170c6748bf9e0cb2d401ce60c01b6137d4565b611720672896c2895c26a61e60c01b6137d4565b6000600a6000858152602001908152602001600020600081548110611748576117476147a5565b5b906000526020600020906006020160010160009054906101000a900473ffffffffffffffffffffffffffffffffffffffff1673ffffffffffffffffffffffffffffffffffffffff168260405161179d90614985565b60006040518083038185875af1925050503d80600081146117da576040519150601f19603f3d011682016040523d82523d6000602084013e6117df565b606091505b505090506117f7673126513fb0f94d7e60c01b6137d4565b61180b6711f8d6f89de7a84760c01b6137d4565b8015611ac15761182567e0438d232963df9960c01b6137d4565b611839672eb893219c16054160c01b6137d4565b81600a60008681526020019081526020016000206000815481106118605761185f6147a5565b5b90600052602060002090600602016003018190555061188967646b3c0cf6fd168f60c01b6137d4565b61189d673188dfa5a6faaa5e60c01b6137d4565b6000600360009054906101000a900473ffffffffffffffffffffffffffffffffffffffff1673ffffffffffffffffffffffffffffffffffffffff1663b77e2e71856040518263ffffffff1660e01b815260040160206040518083038185885af115801561190e573d6000803e3d6000fd5b50505050506040513d601f19601f8201168201806040525081019061193391906149c6565b90506119496775d6d0d98d7ac2e460c01b6137d4565b61195d677ef1556313b054f960c01b6137d4565b61197167910f5512e15f8f9460c01b6137d4565b8061197b57600080fd5b61198f6715e0d10c8090a64760c01b6137d4565b6119a367fdd5a760b9f1407660c01b6137d4565b6119b767fdfc28999057b7e560c01b6137d4565b7f65edb247950c75beace5afb548418caec939cfa83b1fc60186d09d89cea66ba785600a60008881526020019081526020016000206000815481106119ff576119fe6147a5565b5b906000526020600020906006020160010160009054906101000a900473ffffffffffffffffffffffffffffffffffffffff16600a6000898152602001908152602001600020600081548110611a5757611a566147a5565b5b906000526020600020906006020160020154600a60008a8152602001908152602001600020600081548110611a8f57611a8e6147a5565b5b90600052602060002090600602016000015487604051611ab39594939291906149f3565b60405180910390a150611bfc565b611ad56796b8a25b7a7f69d660c01b6137d4565b611ae967c60f9f34572488f060c01b6137d4565b611afd672c24e578ad3a45bb60c01b6137d4565b6000600360009054906101000a900473ffffffffffffffffffffffffffffffffffffffff1673ffffffffffffffffffffffffffffffffffffffff1663b77e2e718585611b49919061450f565b6040518263ffffffff1660e01b815260040160206040518083038185885af1158015611b79573d6000803e3d6000fd5b50505050506040513d601f19601f82011682018060405250810190611b9e91906149c6565b9050611bb4675053156a8bfa483660c01b6137d4565b611bc867f2c19c38130671b060c01b6137d4565b611bdc67ebdaaf987ccbc0f960c01b6137d4565b80611be657600080fd5b611bfa672f4b4ce2c5031f1e60c01b6137d4565b505b505050611c19565b611c186762daf8763a822dd460c01b6137d4565b5b611c2d6745bc86fced97df5060c01b6137d4565b611c4167535a03ac4c7a978660c01b6137d4565b6000806000611c4f84611f13565b925092509250611c69673e3b3a0f62a12e7460c01b6137d4565b611c7d678f24bbc88add2ccc60c01b6137d4565b8060045410158015611cbc5750600073ffffffffffffffffffffffffffffffffffffffff168273ffffffffffffffffffffffffffffffffffffffff1614155b15611e9957611cd567f23969f8bb31995460c01b6137d4565b611ce9676809309adad90ffc60c01b6137d4565b611cfd674090011ed1cc401560c01b6137d4565b611d1167f36a539a228cd58d60c01b6137d4565b600260009054906101000a900473ffffffffffffffffffffffffffffffffffffffff1673ffffffffffffffffffffffffffffffffffffffff1663a9059cbb83836040518363ffffffff1660e01b8152600401611d6e929190614a46565b6020604051808303816000875af1158015611d8d573d6000803e3d6000fd5b505050506040513d601f19601f82011682018060405250810190611db191906149c6565b611df0576040517f08c379a0000000000000000000000000000000000000000000000000000000008152600401611de790614abb565b60405180910390fd5b611e046709d59d0043fe4d1260c01b6137d4565b611e18679f8460d89d3f298160c01b6137d4565b8060046000828254611e2a91906143a6565b92505081905550611e4567a0f94c334ff442c260c01b6137d4565b611e596796bb7226404dd31a60c01b6137d4565b7f1389f344d6318e39abdbc461f1e6b7d4f3cff4e3244cd874143ba0be31634f2f838383604051611e8c93929190613f00565b60405180910390a1611eae565b611ead6769fcd3fbc157f18460c01b6137d4565b5b611ec2678678a0dbb2bbc3d760c01b6137d4565b611ed667ff1629b402d4961660c01b6137d4565b7f74ef25ef6b332a2fbbe7eb8b4108e0fe842a929d34c52a2ea4ca1a0f1524f10784604051611f059190613c4b565b60405180910390a150505050565b6000806000611f2c67bdfaf59e40255eba60c01b6137d4565b611f4067b0f430e76bc837b360c01b6137d4565b611f5467024385800f56724e60c01b6137d4565b6001600a600086815260200190815260200160002080549050148015611f8a5750611f896769f3c31b7d0b39df60c01b613ad3565b5b80611fc757506000600a600086815260200190815260200160002080549050148015611fc65750611fc567f8112960f9db7e5360c01b613ad3565b5b5b1561202d57611fe0675d5fdd18a9cb1f5160c01b6137d4565b611ff4674bf42b14413a87ae60c01b6137d4565b6000925061200c67a61571c8d9e63f0160c01b6137d4565b6000915061202467beb3be8afba7baf860c01b6137d4565b600090506121a8565b61204167227c22f729fa644860c01b6137d4565b61205567c81950c73f1486e960c01b6137d4565b61206967f69f4d520498a77760c01b6137d4565b6000600a60008681526020019081526020016000206001600a6000888152602001908152602001600020805490506120a191906143a6565b815481106120b2576120b16147a5565b5b90600052602060002090600602016040518060c0016040529081600082015481526020016001820160009054906101000a900473ffffffffffffffffffffffffffffffffffffffff1673ffffffffffffffffffffffffffffffffffffffff1673ffffffffffffffffffffffffffffffffffffffff168152602001600282015481526020016003820154815260200160048201548152602001600582015481525050905061216967726e7f5a2a40bd4860c01b6137d4565b8060000151935061218467e5f94e0f07972e5a60c01b6137d4565b8060200151925061219f6701ceeeed1cff16d760c01b6137d4565b80604001519150505b9193909250565b60045481565b6121bd6138ed565b6121c76000613ade565b565b6121dd67e53558733b1af8cb60c01b6137d4565b6121e56138ed565b6121f96702495fa2af884c0660c01b6137d4565b61220d67c31c87e5148816a260c01b6137d4565b61222167f69332a694eee27660c01b6137d4565b61223567146131bf150e53f360c01b6137d4565b612249673c7cc7bee499eb9960c01b6137d4565b60006005541161228e576040517f08c379a000000000000000000000000000000000000000000000000000000000815260040161228590614b27565b60405180910390fd5b6122a2671bd677cf596fa3b160c01b6137d4565b6122b6674d4d3d0899f0394460c01b6137d4565b6122ca679b94b178e5e80d9660c01b6137d4565b6122de67ddce254276b5cf2260c01b6137d4565b600081141580156122fc5750603c6005546122f99190614923565b81105b61233b576040517f08c379a000000000000000000000000000000000000000000000000000000000815260040161233290614bb9565b60405180910390fd5b61234f67306771a228e102dc60c01b6137d4565b6123636730fb54e81957bc8960c01b6137d4565b603c816123709190614364565b60078190555050565b600061238f67a38bd476535f787760c01b6137d4565b6123a367b21e7eae2358a4e660c01b6137d4565b6123b7675152290f42a5845560c01b6137d4565b6123cb67bb6c5c9c8c18d85d60c01b6137d4565b6123d4826137d7565b612413576040517f08c379a000000000000000000000000000000000000000000000000000000000815260040161240a90614c25565b60405180910390fd5b6124276745ae8a05a5cf689860c01b6137d4565b61243b6795e6d1339e34c09c60c01b6137d4565b61244f67d1460a80a1d0198c60c01b6137d4565b6001600a600084815260200190815260200160002080549050106125b65761248167900139d9ad37e7b160c01b6137d4565b6124956714c1aea9cb46cac660c01b6137d4565b6124a967831a353f207faf8660c01b6137d4565b6000600a60008481526020019081526020016000206001600a6000868152602001908152602001600020805490506124e191906143a6565b815481106124f2576124f16147a5565b5b90600052602060002090600602016040518060c0016040529081600082015481526020016001820160009054906101000a900473ffffffffffffffffffffffffffffffffffffffff1673ffffffffffffffffffffffffffffffffffffffff1673ffffffffffffffffffffffffffffffffffffffff16815260200160028201548152602001600382015481526020016004820154815260200160058201548152505090506125a967e88d1fceb0507f0f60c01b6137d4565b80602001519150506125e3565b6125ca67c7b29f408821a3fd60c01b6137d4565b6125de67d2021aead7deb82a60c01b6137d4565b600090505b919050565b6125fc674b5db118f06cef6a60c01b6137d4565b600260015403612641576040517f08c379a000000000000000000000000000000000000000000000000000000000815260040161263890614c91565b60405180910390fd5b600260018190555061265d6797070ae8e654cf1060c01b6137d4565b61267167a3419dd09b906d2f60c01b6137d4565b612685670ca7e5089d39341c60c01b6137d4565b61269967dec5571b429b146a60c01b6137d4565b6126ad672b3092daccaa464060c01b6137d4565b6126b6816137d7565b6126f5576040517f08c379a00000000000000000000000000000000000000000000000000000000081526004016126ec90614c25565b60405180910390fd5b61270967d896a98e1b57768c60c01b6137d4565b61271d670368c15c7efa083760c01b6137d4565b61273167b283b3b7b26cdb0c60c01b6137d4565b6127456778d01ae382f52db460c01b6137d4565b61274e816105e7565b341461278f576040517f08c379a000000000000000000000000000000000000000000000000000000000815260040161278690614cfd565b60405180910390fd5b6127a36782f9fdc2daa019eb60c01b6137d4565b6127b7673d0057960a274a6860c01b6137d4565b6127cb673bc040cb70564d1d60c01b6137d4565b60006127d682612379565b90506127ec67bffbd8c7cbfc091460c01b6137d4565b61280067d177207b10d21ce260c01b6137d4565b612814672df3ef1e72451bf060c01b6137d4565b3373ffffffffffffffffffffffffffffffffffffffff168173ffffffffffffffffffffffffffffffffffffffff1603612882576040517f08c379a000000000000000000000000000000000000000000000000000000000815260040161287990614d8f565b60405180910390fd5b61289667417ed5fd33e46f5c60c01b6137d4565b6128aa675cfe9584d10ac3de60c01b6137d4565b6128be6730dd3ec19bfef2aa60c01b6137d4565b60006001600a6000858152602001908152602001600020805490506128e3919061450f565b90506128f96709eae950581258ba60c01b6137d4565b61290d67e236e5dbcf3f44a960c01b6137d4565b600a60008481526020019081526020016000206040518060c001604052808381526020013373ffffffffffffffffffffffffffffffffffffffff168152602001348152602001600081526020018581526020014281525090806001815401808255809150506001900390600052602060002090600602016000909190919091506000820151816000015560208201518160010160006101000a81548173ffffffffffffffffffffffffffffffffffffffff021916908373ffffffffffffffffffffffffffffffffffffffff16021790555060408201518160020155606082015181600301556080820151816004015560a082015181600501555050612a1c673c512df23b93d01160c01b6137d4565b612a3067d0d950f788f78de660c01b6137d4565b600754612a3c846107c2565b11158015612a5257506000612a50846107c2565b115b15612b9b57612a6b675829035926dc847660c01b6137d4565b612a7f67b349be77e35d85ea60c01b6137d4565b612a9367d67acb65a162f2fd60c01b6137d4565b60006006546008600086815260200190815260200160002060020154612ab9919061450f565b9050612acf67fce9166ca7eb416f60c01b6137d4565b806008600086815260200190815260200160002060020181905550612afe67bf2768cf92da73a960c01b6137d4565b806009600186612b0e91906143a6565b81548110612b1f57612b1e6147a5565b5b906000526020600020906004020160020181905550612b4867a2097041b4650ccb60c01b6137d4565b612b5c679b26f6d82c8e889c60c01b6137d4565b7fff1bf99918d35d7dd5182e2a06f26aa0b7673c48538bb8ce407af50f4b4ab2ca8482604051612b8d929190614daf565b60405180910390a150612bb0565b612baf6766c76644000b4f9b60c01b6137d4565b5b612bc467a3a28e00efd3c55a60c01b6137d4565b612bd867c41cb962a35668d260c01b6137d4565b6001811461325057612bf467ada3165f39db59d060c01b6137d4565b612c0867fcbf0fe855f92a9b60c01b6137d4565b612c1c67594c83d09191795c60c01b6137d4565b6000606460056002600a6000888152602001908152602001600020600286612c4491906143a6565b81548110612c5557612c546147a5565b5b906000526020600020906006020160020154612c719190614364565b612c7b9190614364565b612c859190614923565b9050612c9b676e10b327b9b577cb60c01b6137d4565b612caf671069af53e45529f060c01b6137d4565b6000816002600a6000888152602001908152602001600020600286612cd491906143a6565b81548110612ce557612ce46147a5565b5b906000526020600020906006020160020154612d019190614364565b612d0b91906143a6565b9050612d2167875df009c73ba8ff60c01b6137d4565b612d35674542fb094443945a60c01b6137d4565b6000600a6000878152602001908152602001600020600285612d5791906143a6565b81548110612d6857612d676147a5565b5b906000526020600020906006020160010160009054906101000a900473ffffffffffffffffffffffffffffffffffffffff1673ffffffffffffffffffffffffffffffffffffffff1682604051612dbd90614985565b60006040518083038185875af1925050503d8060008114612dfa576040519150601f19603f3d011682016040523d82523d6000602084013e612dff565b606091505b50509050612e1767bcec074633840d4160c01b6137d4565b612e2b67151c69df0929648d60c01b6137d4565b801561310d57612e4567cff9a731a365744d60c01b6137d4565b612e59678e69ee320b78595a60c01b6137d4565b81600a6000888152602001908152602001600020600286612e7a91906143a6565b81548110612e8b57612e8a6147a5565b5b906000526020600020906006020160030181905550612eb4671f5ab98a8e8235f660c01b6137d4565b612ec867b45cb19c763d3ef660c01b6137d4565b6000600360009054906101000a900473ffffffffffffffffffffffffffffffffffffffff1673ffffffffffffffffffffffffffffffffffffffff1663b77e2e71856040518263ffffffff1660e01b815260040160206040518083038185885af1158015612f39573d6000803e3d6000fd5b50505050506040513d601f19601f82011682018060405250810190612f5e91906149c6565b9050612f746758abaef5bf51773e60c01b6137d4565b612f88679d79da871e5e0f9660c01b6137d4565b612f9c67dd047e0246f2d6ba60c01b6137d4565b80612fa657600080fd5b612fba67ed9036c5ff9704f760c01b6137d4565b612fce6724f829fa7724f52560c01b6137d4565b612fe267e0757ffad6a08bf160c01b6137d4565b7f65edb247950c75beace5afb548418caec939cfa83b1fc60186d09d89cea66ba787600a60008a815260200190815260200160002060028861302491906143a6565b81548110613035576130346147a5565b5b906000526020600020906006020160010160009054906101000a900473ffffffffffffffffffffffffffffffffffffffff16600a60008b815260200190815260200160002060028961308791906143a6565b81548110613098576130976147a5565b5b906000526020600020906006020160020154600a60008c815260200190815260200160002060028a6130ca91906143a6565b815481106130db576130da6147a5565b5b906000526020600020906006020160000154876040516130ff9594939291906149f3565b60405180910390a150613248565b61312167377056fff3ab3f8960c01b6137d4565b613135675373e82f3efefa5f60c01b6137d4565b61314967d4966bfc1b5751ad60c01b6137d4565b6000600360009054906101000a900473ffffffffffffffffffffffffffffffffffffffff1673ffffffffffffffffffffffffffffffffffffffff1663b77e2e718585613195919061450f565b6040518263ffffffff1660e01b815260040160206040518083038185885af11580156131c5573d6000803e3d6000fd5b50505050506040513d601f19601f820116820180604052508101906131ea91906149c6565b90506132006706ae6442a91b920060c01b6137d4565b613214677914e1d86648d8ff60c01b6137d4565b61322867c0b230881dd960f060c01b6137d4565b8061323257600080fd5b613246673e00c07546ee6c0760c01b6137d4565b505b505050613265565b613264675287583d6cfad14860c01b6137d4565b5b61327967b3f7dcbd33f21fa760c01b6137d4565b61328d6760bb4e571c9f50ce60c01b6137d4565b7f2eaa1bda0a76999046e8def81099978a4164fbfb5f4207619e76c3823f60436783333484426040516132c49594939291906149f3565b60405180910390a150506001808190555050565b60008060009054906101000a900473ffffffffffffffffffffffffffffffffffffffff16905090565b60008060008061331b6784d1714ac248a3e660c01b6137d4565b61332f67b6b5ea8d79aba1d160c01b6137d4565b61334367afdf32c865537ebd60c01b6137d4565b6000600980549050111561343857613365678e5a353464e0349e60c01b6137d4565b613379673193c5f1c81dfd9260c01b6137d4565b61338d6726f70382e3a2991760c01b6137d4565b60006008600060098054905081526020019081526020016000206040518060800160405290816000820154815260200160018201548152602001600282015481526020016003820160009054906101000a900460ff1615151515815250509050613401672f5d2eed2e86f83060c01b6137d4565b61341567cf48e7254f64d52b60c01b6137d4565b600980549050816020015182604001518360600151945094509450945050613483565b61344c67eb8c921c0a4ed49960c01b6137d4565b61346067d63985152d3b5d9260c01b6137d4565b613474672b6816776c6469b660c01b6137d4565b60008060008093509350935093505b90919293565b60075481565b600260009054906101000a900473ffffffffffffffffffffffffffffffffffffffff1681565b60606134cb67ee8f005ce7d460cf60c01b6137d4565b6134df6775ebbed4e08c998060c01b6137d4565b6134f3678d8e21ff99ae62ea60c01b6137d4565b600a6000838152602001908152602001600020805480602002602001604051908101604052809291908181526020016000905b828210156135e057838290600052602060002090600602016040518060c0016040529081600082015481526020016001820160009054906101000a900473ffffffffffffffffffffffffffffffffffffffff1673ffffffffffffffffffffffffffffffffffffffff1673ffffffffffffffffffffffffffffffffffffffff16815260200160028201548152602001600382015481526020016004820154815260200160058201548152505081526020019060010190613526565b505050509050919050565b600360009054906101000a900473ffffffffffffffffffffffffffffffffffffffff1681565b6136196138ed565b600073ffffffffffffffffffffffffffffffffffffffff168173ffffffffffffffffffffffffffffffffffffffff1603613688576040517f08c379a000000000000000000000000000000000000000000000000000000000815260040161367f90614e4a565b60405180910390fd5b61369181613ade565b50565b6136a867a3d74acec1fc433c60c01b6137d4565b6136b06138ed565b6136c46723cf3e016631b9eb60c01b6137d4565b6136d867b1367fc6fdd4b9f160c01b6137d4565b6136ec6746a264fc9f604f2760c01b6137d4565b806004546136fa919061450f565b60048190555061371467869b0fa5835f1a4c60c01b6137d4565b613728671b8c10961915553360c01b6137d4565b600260009054906101000a900473ffffffffffffffffffffffffffffffffffffffff1673ffffffffffffffffffffffffffffffffffffffff166323b872dd3330846040518463ffffffff1660e01b815260040161378793929190614e6a565b6020604051808303816000875af11580156137a6573d6000803e3d6000fd5b505050506040513d601f19601f820116820180604052508101906137ca91906149c6565b5050565b60055481565b50565b60006137ed67ab316cb7475d4ad060c01b6137d4565b613801679898969a3a21d6aa60c01b6137d4565b613815676422291cd919c52c60c01b6137d4565b600061382b67c583728aa3c1102660c01b6137d4565b61383f67ffcc822a552d0ddd60c01b6137d4565b4260086000858152602001908152602001600020600201541015801561388557506008600084815260200190815260200160002060030160009054906101000a900460ff165b156138a75761389e671dfa8a15eae5ea0760c01b6137d4565b600190506138bc565b6138bb67f8243fd8de682dc560c01b6137d4565b5b6138d067b623fbc44614862060c01b6137d4565b6138e467a8fa86c6634054cf60c01b6137d4565b80915050919050565b6138f5613ba2565b73ffffffffffffffffffffffffffffffffffffffff166139136132d8565b73ffffffffffffffffffffffffffffffffffffffff1614613969576040517f08c379a000000000000000000000000000000000000000000000000000000000815260040161396090614eed565b60405180910390fd5b565b6000613981670a16f3c0a554f60160c01b6137d4565b61399567620f4acfd399aa7860c01b6137d4565b6139a967db0174ae152628f660c01b6137d4565b60006139bf670b2d49631ded35a560c01b6137d4565b6139d367c837c68019f51ae560c01b6137d4565b42600960016009805490506139e891906143a6565b815481106139f9576139f86147a5565b5b906000526020600020906004020160020154108015613a59575060096001600980549050613a2791906143a6565b81548110613a3857613a376147a5565b5b906000526020600020906004020160030160009054906101000a900460ff16155b15613a8f57613a7267fa0ff7c811574c7a60c01b6137d4565b613a86670d294a39627b8a3360c01b6137d4565b60019050613aa4565b613aa367c0d8eff5e70f2b7a60c01b6137d4565b5b613ab8674f9d1b845699b23c60c01b6137d4565b613acc67318476d737e576f360c01b6137d4565b8091505090565b600060019050919050565b60008060009054906101000a900473ffffffffffffffffffffffffffffffffffffffff169050816000806101000a81548173ffffffffffffffffffffffffffffffffffffffff021916908373ffffffffffffffffffffffffffffffffffffffff1602179055508173ffffffffffffffffffffffffffffffffffffffff168173ffffffffffffffffffffffffffffffffffffffff167f8be0079c531659141344cd1fd0a4f28419497f9722a3daafe3b4186f6b6457e060405160405180910390a35050565b600033905090565b60405180608001604052806000815260200160008152602001600081526020016000151581525090565b600080fd5b6000819050919050565b613bec81613bd9565b8114613bf757600080fd5b50565b600081359050613c0981613be3565b92915050565b600060208284031215613c2557613c24613bd4565b5b6000613c3384828501613bfa565b91505092915050565b613c4581613bd9565b82525050565b6000602082019050613c606000830184613c3c565b92915050565b613c6f81613bd9565b82525050565b60008115159050919050565b613c8a81613c75565b82525050565b608082016000820151613ca66000850182613c66565b506020820151613cb96020850182613c66565b506040820151613ccc6040850182613c66565b506060820151613cdf6060850182613c81565b50505050565b6000608082019050613cfa6000830184613c90565b92915050565b600073ffffffffffffffffffffffffffffffffffffffff82169050919050565b6000613d2b82613d00565b9050919050565b613d3b81613d20565b8114613d4657600080fd5b50565b600081359050613d5881613d32565b92915050565b600060208284031215613d7457613d73613bd4565b5b6000613d8284828501613d49565b91505092915050565b60008060408385031215613da257613da1613bd4565b5b6000613db085828601613bfa565b9250506020613dc185828601613bfa565b9150509250929050565b600081519050919050565b600082825260208201905092915050565b6000819050602082019050919050565b608082016000820151613e0d6000850182613c66565b506020820151613e206020850182613c66565b506040820151613e336040850182613c66565b506060820151613e466060850182613c81565b50505050565b6000613e588383613df7565b60808301905092915050565b6000602082019050919050565b6000613e7c82613dcb565b613e868185613dd6565b9350613e9183613de7565b8060005b83811015613ec2578151613ea98882613e4c565b9750613eb483613e64565b925050600181019050613e95565b5085935050505092915050565b60006020820190508181036000830152613ee98184613e71565b905092915050565b613efa81613d20565b82525050565b6000606082019050613f156000830186613c3c565b613f226020830185613ef1565b613f2f6040830184613c3c565b949350505050565b6000602082019050613f4c6000830184613ef1565b92915050565b613f5b81613c75565b82525050565b6000608082019050613f766000830187613c3c565b613f836020830186613c3c565b613f906040830185613c3c565b613f9d6060830184613f52565b95945050505050565b6000819050919050565b6000613fcb613fc6613fc184613d00565b613fa6565b613d00565b9050919050565b6000613fdd82613fb0565b9050919050565b6000613fef82613fd2565b9050919050565b613fff81613fe4565b82525050565b600060208201905061401a6000830184613ff6565b92915050565b600081519050919050565b600082825260208201905092915050565b6000819050602082019050919050565b61405581613d20565b82525050565b60c0820160008201516140716000850182613c66565b506020820151614084602085018261404c565b5060408201516140976040850182613c66565b5060608201516140aa6060850182613c66565b5060808201516140bd6080850182613c66565b5060a08201516140d060a0850182613c66565b50505050565b60006140e2838361405b565b60c08301905092915050565b6000602082019050919050565b600061410682614020565b614110818561402b565b935061411b8361403c565b8060005b8381101561414c57815161413388826140d6565b975061413e836140ee565b92505060018101905061411f565b5085935050505092915050565b6000602082019050818103600083015261417381846140fb565b905092915050565b600061418682613fd2565b9050919050565b6141968161417b565b82525050565b60006020820190506141b1600083018461418d565b92915050565b7f4e487b7100000000000000000000000000000000000000000000000000000000600052601160045260246000fd5b60008160011c9050919050565b6000808291508390505b600185111561423d57808604811115614219576142186141b7565b5b60018516156142285780820291505b8081029050614236856141e6565b94506141fd565b94509492505050565b6000826142565760019050614312565b816142645760009050614312565b816001811461427a5760028114614284576142b3565b6001915050614312565b60ff841115614296576142956141b7565b5b8360020a9150848211156142ad576142ac6141b7565b5b50614312565b5060208310610133831016604e8410600b84101617156142e85782820a9050838111156142e3576142e26141b7565b5b614312565b6142f584848460016141f3565b9250905081840481111561430c5761430b6141b7565b5b81810290505b9392505050565b600061432482613bd9565b915061432f83613bd9565b925061435c7fffffffffffffffffffffffffffffffffffffffffffffffffffffffffffffffff8484614246565b905092915050565b600061436f82613bd9565b915061437a83613bd9565b925082820261438881613bd9565b9150828204841483151761439f5761439e6141b7565b5b5092915050565b60006143b182613bd9565b91506143bc83613bd9565b92508282039050818111156143d4576143d36141b7565b5b92915050565b600082825260208201905092915050565b7f526f756e64206475726174696f6e206f72206578747261206475726174696f6e60008201527f2020617265206e6f74207365742e000000000000000000000000000000000000602082015250565b6000614447602e836143da565b9150614452826143eb565b604082019050919050565b600060208201905081810360008301526144768161443a565b9050919050565b7f4d696e696d756d20636f6e74726163742062616c616e63652073686f756c642060008201527f626520312074504c530000000000000000000000000000000000000000000000602082015250565b60006144d96029836143da565b91506144e48261447d565b604082019050919050565b60006020820190508181036000830152614508816144cc565b9050919050565b600061451a82613bd9565b915061452583613bd9565b925082820190508082111561453d5761453c6141b7565b5b92915050565b7f50726576696f757320726f756e64206973206e6f742066696e6973686564207960008201527f6574000000000000000000000000000000000000000000000000000000000000602082015250565b600061459f6022836143da565b91506145aa82614543565b604082019050919050565b600060208201905081810360008301526145ce81614592565b9050919050565b60006060820190506145ea6000830186613c3c565b6145f76020830185613c3c565b6146046040830184613c3c565b949350505050565b7f4475726174696f6e2073686f756c642062652067726561746572207468616e2060008201527f3000000000000000000000000000000000000000000000000000000000000000602082015250565b60006146686021836143da565b91506146738261460c565b604082019050919050565b600060208201905081810360008301526146978161465b565b9050919050565b7f5a65726f2061646472657373206973206e6f7420616c6c6f7765640000000000600082015250565b60006146d4601b836143da565b91506146df8261469e565b602082019050919050565b60006020820190508181036000830152614703816146c7565b9050919050565b7f496e76616c69642072616e676500000000000000000000000000000000000000600082015250565b6000614740600d836143da565b915061474b8261470a565b602082019050919050565b6000602082019050818103600083015261476f81614733565b9050919050565b7f4e487b7100000000000000000000000000000000000000000000000000000000600052604160045260246000fd5b7f4e487b7100000000000000000000000000000000000000000000000000000000600052603260045260246000fd5b60006147df82613bd9565b91507fffffffffffffffffffffffffffffffffffffffffffffffffffffffffffffffff8203614811576148106141b7565b5b600182019050919050565b7f526f756e6420697320206c697665000000000000000000000000000000000000600082015250565b6000614852600e836143da565b915061485d8261481c565b602082019050919050565b6000602082019050818103600083015261488181614845565b9050919050565b7f526f756e6420616c72656164792066696e697368656400000000000000000000600082015250565b60006148be6016836143da565b91506148c982614888565b602082019050919050565b600060208201905081810360008301526148ed816148b1565b9050919050565b7f4e487b7100000000000000000000000000000000000000000000000000000000600052601260045260246000fd5b600061492e82613bd9565b915061493983613bd9565b925082614949576149486148f4565b5b828204905092915050565b600081905092915050565b50565b600061496f600083614954565b915061497a8261495f565b600082019050919050565b600061499082614962565b9150819050919050565b6149a381613c75565b81146149ae57600080fd5b50565b6000815190506149c08161499a565b92915050565b6000602082840312156149dc576149db613bd4565b5b60006149ea848285016149b1565b91505092915050565b600060a082019050614a086000830188613c3c565b614a156020830187613ef1565b614a226040830186613c3c565b614a2f6060830185613c3c565b614a3c6080830184613c3c565b9695505050505050565b6000604082019050614a5b6000830185613ef1565b614a686020830184613c3c565b9392505050565b7f546f6b656e206e6f74207472616e736665726564000000000000000000000000600082015250565b6000614aa56014836143da565b9150614ab082614a6f565b602082019050919050565b60006020820190508181036000830152614ad481614a98565b9050919050565b7f53657420726f756e64206475726174696f6e2066697273740000000000000000600082015250565b6000614b116018836143da565b9150614b1c82614adb565b602082019050919050565b60006020820190508181036000830152614b4081614b04565b9050919050565b7f4475726174696f6e2073686f756c642062652067726561746572207468616e2060008201527f3020616e6420726f756e644475726174696f6e00000000000000000000000000602082015250565b6000614ba36033836143da565b9150614bae82614b47565b604082019050919050565b60006020820190508181036000830152614bd281614b96565b9050919050565b7f526f756e64206973206e6f74206c697665000000000000000000000000000000600082015250565b6000614c0f6011836143da565b9150614c1a82614bd9565b602082019050919050565b60006020820190508181036000830152614c3e81614c02565b9050919050565b7f5265656e7472616e637947756172643a207265656e7472616e742063616c6c00600082015250565b6000614c7b601f836143da565b9150614c8682614c45565b602082019050919050565b60006020820190508181036000830152614caa81614c6e565b9050919050565b7f496e636f727265637420696e76657374656420616d6f756e7400000000000000600082015250565b6000614ce76019836143da565b9150614cf282614cb1565b602082019050919050565b60006020820190508181036000830152614d1681614cda565b9050919050565b7f596f752063616e6e6f74206465706f73697420616761696e20756e74696c207460008201527f686572652069732061206e657720706c65620000000000000000000000000000602082015250565b6000614d796032836143da565b9150614d8482614d1d565b604082019050919050565b60006020820190508181036000830152614da881614d6c565b9050919050565b6000604082019050614dc46000830185613c3c565b614dd16020830184613c3c565b9392505050565b7f4f776e61626c653a206e6577206f776e657220697320746865207a65726f206160008201527f6464726573730000000000000000000000000000000000000000000000000000602082015250565b6000614e346026836143da565b9150614e3f82614dd8565b604082019050919050565b60006020820190508181036000830152614e6381614e27565b9050919050565b6000606082019050614e7f6000830186613ef1565b614e8c6020830185613ef1565b614e996040830184613c3c565b949350505050565b7f4f776e61626c653a2063616c6c6572206973206e6f7420746865206f776e6572600082015250565b6000614ed76020836143da565b9150614ee282614ea1565b602082019050919050565b60006020820190508181036000830152614f0681614eca565b905091905056fea26469706673582212201d4ac0503ee2aba6b1aa08e88f4a7b7fec3dc09fad1e7c21304884b4ae26c3eb64736f6c63430008110033",
  "linkReferences": {},
  "deployedLinkReferences": {}
}