{
  "_format": "hh-sol-artifact-1",
  "contractName": "PlebToHill",
  "sourceName": "contracts/PlebToHill.sol",
  "abi": [
    {
      "anonymous": false,
      "inputs": [
        {
          "indexed": true,
          "internalType": "address",
          "name": "previousOwner",
          "type": "address"
        },
        {
          "indexed": true,
          "internalType": "address",
          "name": "newOwner",
          "type": "address"
        }
      ],
      "name": "OwnershipTransferred",
      "type": "event"
    },
    {
      "anonymous": false,
      "inputs": [
        {
          "indexed": false,
          "internalType": "uint256",
          "name": "roundId",
          "type": "uint256"
        },
        {
          "indexed": false,
          "internalType": "address",
          "name": "walletAddress",
          "type": "address"
        },
        {
          "indexed": false,
          "internalType": "uint256",
          "name": "invested_amount",
          "type": "uint256"
        },
        {
          "indexed": false,
          "internalType": "uint256",
          "name": "participantId",
          "type": "uint256"
        },
        {
          "indexed": false,
          "internalType": "uint256",
          "name": "time",
          "type": "uint256"
        }
      ],
      "name": "ParticipantAdded",
      "type": "event"
    },
    {
      "anonymous": false,
      "inputs": [
        {
          "indexed": false,
          "internalType": "uint256",
          "name": "roundId",
          "type": "uint256"
        },
        {
          "indexed": false,
          "internalType": "uint256",
          "name": "startTime",
          "type": "uint256"
        },
        {
          "indexed": false,
          "internalType": "uint256",
          "name": "endTime",
          "type": "uint256"
        }
      ],
      "name": "RoundCreated",
      "type": "event"
    },
    {
      "inputs": [
        {
          "internalType": "uint256",
          "name": "",
          "type": "uint256"
        }
      ],
      "name": "RoundData",
      "outputs": [
        {
          "internalType": "uint256",
          "name": "startTime",
          "type": "uint256"
        },
        {
          "internalType": "uint256",
          "name": "endTime",
          "type": "uint256"
        },
        {
          "internalType": "bool",
          "name": "isLive",
          "type": "bool"
        }
      ],
      "stateMutability": "view",
      "type": "function"
    },
    {
      "inputs": [
        {
          "internalType": "uint256",
          "name": "roundId",
          "type": "uint256"
        }
      ],
      "name": "addParticipant",
      "outputs": [],
      "stateMutability": "payable",
      "type": "function"
    },
    {
      "inputs": [],
      "name": "createRound",
      "outputs": [],
      "stateMutability": "nonpayable",
      "type": "function"
    },
    {
      "inputs": [
        {
          "internalType": "uint256",
          "name": "roundId",
          "type": "uint256"
        }
      ],
      "name": "endRound",
      "outputs": [],
      "stateMutability": "nonpayable",
      "type": "function"
    },
    {
      "inputs": [
        {
          "internalType": "uint256",
          "name": "roundId",
          "type": "uint256"
        }
      ],
      "name": "getAllParticipantOfRound",
      "outputs": [
        {
          "components": [
            {
              "internalType": "uint256",
              "name": "participantId",
              "type": "uint256"
            },
            {
              "internalType": "address",
              "name": "walletAddress",
              "type": "address"
            },
            {
              "internalType": "uint256",
              "name": "invested_amount",
              "type": "uint256"
            },
            {
              "internalType": "uint256",
              "name": "roundId",
              "type": "uint256"
            },
            {
              "internalType": "uint256",
              "name": "time",
              "type": "uint256"
            }
          ],
          "internalType": "struct PlebToHill.Participant[]",
          "name": "",
          "type": "tuple[]"
        }
      ],
      "stateMutability": "view",
      "type": "function"
    },
    {
      "inputs": [],
      "name": "getAllRounds",
      "outputs": [
        {
          "components": [
            {
              "internalType": "uint256",
              "name": "startTime",
              "type": "uint256"
            },
            {
              "internalType": "uint256",
              "name": "endTime",
              "type": "uint256"
            },
            {
              "internalType": "bool",
              "name": "isLive",
              "type": "bool"
            }
          ],
          "internalType": "struct PlebToHill.Round[]",
          "name": "",
          "type": "tuple[]"
        }
      ],
      "stateMutability": "view",
      "type": "function"
    },
    {
      "inputs": [],
      "name": "getCurrentLiveRound",
      "outputs": [
        {
          "internalType": "uint256",
          "name": "roundId",
          "type": "uint256"
        },
        {
          "internalType": "uint256",
          "name": "startTime",
          "type": "uint256"
        },
        {
          "internalType": "uint256",
          "name": "endTime",
          "type": "uint256"
        },
        {
          "internalType": "bool",
          "name": "isLive",
          "type": "bool"
        }
      ],
      "stateMutability": "view",
      "type": "function"
    },
    {
      "inputs": [
        {
          "internalType": "uint256",
          "name": "roundId",
          "type": "uint256"
        }
      ],
      "name": "getValueForNextParticipant",
      "outputs": [
        {
          "internalType": "uint256",
          "name": "",
          "type": "uint256"
        }
      ],
      "stateMutability": "view",
      "type": "function"
    },
    {
      "inputs": [],
      "name": "owner",
      "outputs": [
        {
          "internalType": "address",
          "name": "",
          "type": "address"
        }
      ],
      "stateMutability": "view",
      "type": "function"
    },
    {
      "inputs": [],
      "name": "renounceOwnership",
      "outputs": [],
      "stateMutability": "nonpayable",
      "type": "function"
    },
    {
      "inputs": [
        {
          "internalType": "address",
          "name": "newOwner",
          "type": "address"
        }
      ],
      "name": "transferOwnership",
      "outputs": [],
      "stateMutability": "nonpayable",
      "type": "function"
    },
    {
      "stateMutability": "payable",
      "type": "receive"
    }
  ],
  "bytecode": "0x608060405234801561001057600080fd5b5061002d61002261003260201b60201c565b61003a60201b60201c565b6100fe565b600033905090565b60008060009054906101000a900473ffffffffffffffffffffffffffffffffffffffff169050816000806101000a81548173ffffffffffffffffffffffffffffffffffffffff021916908373ffffffffffffffffffffffffffffffffffffffff1602179055508173ffffffffffffffffffffffffffffffffffffffff168173ffffffffffffffffffffffffffffffffffffffff167f8be0079c531659141344cd1fd0a4f28419497f9722a3daafe3b4186f6b6457e060405160405180910390a35050565b611a198061010d6000396000f3fe6080604052600436106100a05760003560e01c80638da5cb5b116100645780638da5cb5b1461015c578063928554f914610187578063ad87097e146101b5578063dade4b64146101f4578063e5066bbf14610231578063f2fde38b1461025c576100a7565b806303861ba6146100ac5780631b411fc8146100e95780635a1e6ca114610100578063715018a6146101295780638acaf7a814610140576100a7565b366100a757005b600080fd5b3480156100b857600080fd5b506100d360048036038101906100ce9190610e66565b610285565b6040516100e09190610ea2565b60405180910390f35b3480156100f557600080fd5b506100fe610312565b005b34801561010c57600080fd5b5061012760048036038101906101229190610e66565b610525565b005b34801561013557600080fd5b5061013e6105e6565b005b61015a60048036038101906101559190610e66565b6105fa565b005b34801561016857600080fd5b5061017161081e565b60405161017e9190610efe565b60405180910390f35b34801561019357600080fd5b5061019c610847565b6040516101ac9493929190610f34565b60405180910390f35b3480156101c157600080fd5b506101dc60048036038101906101d79190610e66565b6108df565b6040516101eb93929190610f79565b60405180910390f35b34801561020057600080fd5b5061021b60048036038101906102169190610e66565b610916565b60405161022891906110e5565b60405180910390f35b34801561023d57600080fd5b50610246610a06565b6040516102539190611207565b60405180910390f35b34801561026857600080fd5b50610283600480360381019061027e9190611255565b610a94565b005b600061029082610b17565b6102cf576040517f08c379a00000000000000000000000000000000000000000000000000000000081526004016102c6906112df565b60405180910390fd5b600060036000848152602001908152602001600020805490509050670de0b6b3a76400008160026103009190611461565b61030a91906114ac565b915050919050565b61031a610b73565b670de0b6b3a7640000471015610365576040517f08c379a000000000000000000000000000000000000000000000000000000000815260040161035c90611560565b60405180910390fd5b60006002805490509050600060028054905011156103c557610385610bf1565b6103c4576040517f08c379a00000000000000000000000000000000000000000000000000000000081526004016103bb906115f2565b60405180910390fd5b5b6040518060600160405280428152602001610384426103e49190611612565b81526020016001151581525060016000838152602001908152602001600020600082015181600001556020820151816001015560408201518160020160006101000a81548160ff021916908315150217905550905050600260016000838152602001908152602001600020908060018154018082558091505060019003906000526020600020906003020160009091909190915060008201548160000155600182015481600101556002820160009054906101000a900460ff168160020160006101000a81548160ff02191690831515021790555050507f68e7b09ec44e876e76ff05157850e3261aa63a8680fe21a2ba93dcbb2b09f58f816001600084815260200190815260200160002060000154600160008581526020019081526020016000206001015460405161051a93929190611646565b60405180910390a150565b61052d610b73565b61053681610b17565b15610576576040517f08c379a000000000000000000000000000000000000000000000000000000000815260040161056d906116c9565b60405180910390fd5b60006001600083815260200190815260200160002060020160006101000a81548160ff0219169083151502179055506000600282815481106105bb576105ba6116e9565b5b906000526020600020906003020160020160006101000a81548160ff02191690831515021790555050565b6105ee610b73565b6105f86000610c8b565b565b61060381610b17565b610642576040517f08c379a0000000000000000000000000000000000000000000000000000000008152600401610639906112df565b60405180910390fd5b61064b81610285565b341461068c576040517f08c379a000000000000000000000000000000000000000000000000000000000815260040161068390611764565b60405180910390fd5b6106968133610d4f565b156106d6576040517f08c379a00000000000000000000000000000000000000000000000000000000081526004016106cd906117f6565b60405180910390fd5b600060036000838152602001908152602001600020805490509050600360008381526020019081526020016000206040518060a001604052808381526020013373ffffffffffffffffffffffffffffffffffffffff1681526020013481526020018481526020014281525090806001815401808255809150506001900390600052602060002090600502016000909190919091506000820151816000015560208201518160010160006101000a81548173ffffffffffffffffffffffffffffffffffffffff021916908373ffffffffffffffffffffffffffffffffffffffff16021790555060408201518160020155606082015181600301556080820151816004015550507f2eaa1bda0a76999046e8def81099978a4164fbfb5f4207619e76c3823f6043678233348442604051610812959493929190611816565b60405180910390a15050565b60008060009054906101000a900473ffffffffffffffffffffffffffffffffffffffff16905090565b60008060008060006001600060016002805490506108659190611869565b815260200190815260200160002060405180606001604052908160008201548152602001600182015481526020016002820160009054906101000a900460ff161515151581525050905060016002805490506108c19190611869565b81600001518260200151836040015194509450945094505090919293565b60016020528060005260406000206000915090508060000154908060010154908060020160009054906101000a900460ff16905083565b606060036000838152602001908152602001600020805480602002602001604051908101604052809291908181526020016000905b828210156109fb57838290600052602060002090600502016040518060a0016040529081600082015481526020016001820160009054906101000a900473ffffffffffffffffffffffffffffffffffffffff1673ffffffffffffffffffffffffffffffffffffffff1673ffffffffffffffffffffffffffffffffffffffff16815260200160028201548152602001600382015481526020016004820154815250508152602001906001019061094b565b505050509050919050565b60606002805480602002602001604051908101604052809291908181526020016000905b82821015610a8b578382906000526020600020906003020160405180606001604052908160008201548152602001600182015481526020016002820160009054906101000a900460ff16151515158152505081526020019060010190610a2a565b50505050905090565b610a9c610b73565b600073ffffffffffffffffffffffffffffffffffffffff168173ffffffffffffffffffffffffffffffffffffffff1603610b0b576040517f08c379a0000000000000000000000000000000000000000000000000000000008152600401610b029061190f565b60405180910390fd5b610b1481610c8b565b50565b60008042600160008581526020019081526020016000206001015410158015610b6057506001600084815260200190815260200160002060020160009054906101000a900460ff165b15610b6a57600190505b80915050919050565b610b7b610e23565b73ffffffffffffffffffffffffffffffffffffffff16610b9961081e565b73ffffffffffffffffffffffffffffffffffffffff1614610bef576040517f08c379a0000000000000000000000000000000000000000000000000000000008152600401610be69061197b565b60405180910390fd5b565b6000804260026001600280549050610c099190611869565b81548110610c1a57610c196116e9565b5b906000526020600020906003020160010154108015610c7a575060026001600280549050610c489190611869565b81548110610c5957610c586116e9565b5b906000526020600020906003020160020160009054906101000a900460ff16155b15610c8457600190505b8091505090565b60008060009054906101000a900473ffffffffffffffffffffffffffffffffffffffff169050816000806101000a81548173ffffffffffffffffffffffffffffffffffffffff021916908373ffffffffffffffffffffffffffffffffffffffff1602179055508173ffffffffffffffffffffffffffffffffffffffff168173ffffffffffffffffffffffffffffffffffffffff167f8be0079c531659141344cd1fd0a4f28419497f9722a3daafe3b4186f6b6457e060405160405180910390a35050565b60008060005b6003600086815260200190815260200160002080549050811015610e18578373ffffffffffffffffffffffffffffffffffffffff16600360008781526020019081526020016000208281548110610daf57610dae6116e9565b5b906000526020600020906005020160010160009054906101000a900473ffffffffffffffffffffffffffffffffffffffff1673ffffffffffffffffffffffffffffffffffffffff1603610e055760019150610e18565b8080610e109061199b565b915050610d55565b508091505092915050565b600033905090565b600080fd5b6000819050919050565b610e4381610e30565b8114610e4e57600080fd5b50565b600081359050610e6081610e3a565b92915050565b600060208284031215610e7c57610e7b610e2b565b5b6000610e8a84828501610e51565b91505092915050565b610e9c81610e30565b82525050565b6000602082019050610eb76000830184610e93565b92915050565b600073ffffffffffffffffffffffffffffffffffffffff82169050919050565b6000610ee882610ebd565b9050919050565b610ef881610edd565b82525050565b6000602082019050610f136000830184610eef565b92915050565b60008115159050919050565b610f2e81610f19565b82525050565b6000608082019050610f496000830187610e93565b610f566020830186610e93565b610f636040830185610e93565b610f706060830184610f25565b95945050505050565b6000606082019050610f8e6000830186610e93565b610f9b6020830185610e93565b610fa86040830184610f25565b949350505050565b600081519050919050565b600082825260208201905092915050565b6000819050602082019050919050565b610fe581610e30565b82525050565b610ff481610edd565b82525050565b60a0820160008201516110106000850182610fdc565b5060208201516110236020850182610feb565b5060408201516110366040850182610fdc565b5060608201516110496060850182610fdc565b50608082015161105c6080850182610fdc565b50505050565b600061106e8383610ffa565b60a08301905092915050565b6000602082019050919050565b600061109282610fb0565b61109c8185610fbb565b93506110a783610fcc565b8060005b838110156110d85781516110bf8882611062565b97506110ca8361107a565b9250506001810190506110ab565b5085935050505092915050565b600060208201905081810360008301526110ff8184611087565b905092915050565b600081519050919050565b600082825260208201905092915050565b6000819050602082019050919050565b61113c81610f19565b82525050565b6060820160008201516111586000850182610fdc565b50602082015161116b6020850182610fdc565b50604082015161117e6040850182611133565b50505050565b60006111908383611142565b60608301905092915050565b6000602082019050919050565b60006111b482611107565b6111be8185611112565b93506111c983611123565b8060005b838110156111fa5781516111e18882611184565b97506111ec8361119c565b9250506001810190506111cd565b5085935050505092915050565b6000602082019050818103600083015261122181846111a9565b905092915050565b61123281610edd565b811461123d57600080fd5b50565b60008135905061124f81611229565b92915050565b60006020828403121561126b5761126a610e2b565b5b600061127984828501611240565b91505092915050565b600082825260208201905092915050565b7f526f756e64206973206e6f74206c697665000000000000000000000000000000600082015250565b60006112c9601183611282565b91506112d482611293565b602082019050919050565b600060208201905081810360008301526112f8816112bc565b9050919050565b7f4e487b7100000000000000000000000000000000000000000000000000000000600052601160045260246000fd5b60008160011c9050919050565b6000808291508390505b600185111561138557808604811115611361576113606112ff565b5b60018516156113705780820291505b808102905061137e8561132e565b9450611345565b94509492505050565b60008261139e576001905061145a565b816113ac576000905061145a565b81600181146113c257600281146113cc576113fb565b600191505061145a565b60ff8411156113de576113dd6112ff565b5b8360020a9150848211156113f5576113f46112ff565b5b5061145a565b5060208310610133831016604e8410600b84101617156114305782820a90508381111561142b5761142a6112ff565b5b61145a565b61143d848484600161133b565b92509050818404811115611454576114536112ff565b5b81810290505b9392505050565b600061146c82610e30565b915061147783610e30565b92506114a47fffffffffffffffffffffffffffffffffffffffffffffffffffffffffffffffff848461138e565b905092915050565b60006114b782610e30565b91506114c283610e30565b92508282026114d081610e30565b915082820484148315176114e7576114e66112ff565b5b5092915050565b7f4d696e696d756d20636f6e74726163742062616c616e63652073686f756c642060008201527f626520312074504c530000000000000000000000000000000000000000000000602082015250565b600061154a602983611282565b9150611555826114ee565b604082019050919050565b600060208201905081810360008301526115798161153d565b9050919050565b7f50726576696f757320726f756e64206973206e6f742066696e6973686564207960008201527f6574000000000000000000000000000000000000000000000000000000000000602082015250565b60006115dc602283611282565b91506115e782611580565b604082019050919050565b6000602082019050818103600083015261160b816115cf565b9050919050565b600061161d82610e30565b915061162883610e30565b92508282019050808211156116405761163f6112ff565b5b92915050565b600060608201905061165b6000830186610e93565b6116686020830185610e93565b6116756040830184610e93565b949350505050565b7f526f756e6420697320206c697665000000000000000000000000000000000000600082015250565b60006116b3600e83611282565b91506116be8261167d565b602082019050919050565b600060208201905081810360008301526116e2816116a6565b9050919050565b7f4e487b7100000000000000000000000000000000000000000000000000000000600052603260045260246000fd5b7f496e636f727265637420696e76657374656420616d6f756e7400000000000000600082015250565b600061174e601983611282565b915061175982611718565b602082019050919050565b6000602082019050818103600083015261177d81611741565b9050919050565b7f5573657220616c726561647920656e746572656420666f722074686520726f7560008201527f6e64000000000000000000000000000000000000000000000000000000000000602082015250565b60006117e0602283611282565b91506117eb82611784565b604082019050919050565b6000602082019050818103600083015261180f816117d3565b9050919050565b600060a08201905061182b6000830188610e93565b6118386020830187610eef565b6118456040830186610e93565b6118526060830185610e93565b61185f6080830184610e93565b9695505050505050565b600061187482610e30565b915061187f83610e30565b9250828203905081811115611897576118966112ff565b5b92915050565b7f4f776e61626c653a206e6577206f776e657220697320746865207a65726f206160008201527f6464726573730000000000000000000000000000000000000000000000000000602082015250565b60006118f9602683611282565b91506119048261189d565b604082019050919050565b60006020820190508181036000830152611928816118ec565b9050919050565b7f4f776e61626c653a2063616c6c6572206973206e6f7420746865206f776e6572600082015250565b6000611965602083611282565b91506119708261192f565b602082019050919050565b6000602082019050818103600083015261199481611958565b9050919050565b60006119a682610e30565b91507fffffffffffffffffffffffffffffffffffffffffffffffffffffffffffffffff82036119d8576119d76112ff565b5b60018201905091905056fea26469706673582212200025cd8a7679b559433d00f361aa11118dd7424ba80a2631cf962022996d12e364736f6c63430008110033",
  "linkReferences": {},
  "deployedLinkReferences": {}
}